{
  "_format": "hh-sol-artifact-1",
  "contractName": "AdminInMumbai",
  "sourceName": "contracts/ednpoint/AdminInMumbai.sol",
  "abi": [
    {
      "inputs": [
        {
          "internalType": "address",
          "name": "_endpoint",
          "type": "address"
        },
        {
          "internalType": "address",
          "name": "_base",
          "type": "address"
        }
      ],
      "stateMutability": "nonpayable",
      "type": "constructor"
    },
    {
      "anonymous": false,
      "inputs": [
        {
          "indexed": false,
          "internalType": "uint16",
          "name": "_srcChainId",
          "type": "uint16"
        },
        {
          "indexed": false,
          "internalType": "bytes",
          "name": "_srcAddress",
          "type": "bytes"
        },
        {
          "indexed": false,
          "internalType": "uint64",
          "name": "_nonce",
          "type": "uint64"
        },
        {
          "indexed": false,
          "internalType": "bytes",
          "name": "_payload",
          "type": "bytes"
        }
      ],
      "name": "MessageFailed",
      "type": "event"
    },
    {
      "anonymous": false,
      "inputs": [
        {
          "indexed": true,
          "internalType": "address",
          "name": "previousOwner",
          "type": "address"
        },
        {
          "indexed": true,
          "internalType": "address",
          "name": "newOwner",
          "type": "address"
        }
      ],
      "name": "OwnershipTransferred",
      "type": "event"
    },
    {
      "anonymous": false,
      "inputs": [
        {
          "indexed": false,
          "internalType": "uint16",
          "name": "_srcChainId",
          "type": "uint16"
        },
        {
          "indexed": false,
          "internalType": "address",
          "name": "_from",
          "type": "address"
        },
        {
          "indexed": false,
          "internalType": "bytes",
          "name": "_payload",
          "type": "bytes"
        }
      ],
      "name": "ReceiveMsg",
      "type": "event"
    },
    {
      "inputs": [],
      "name": "b",
      "outputs": [
        {
          "internalType": "uint256",
          "name": "",
          "type": "uint256"
        }
      ],
      "stateMutability": "view",
      "type": "function"
    },
    {
      "inputs": [],
      "name": "base",
      "outputs": [
        {
          "internalType": "contract IRegister",
          "name": "",
          "type": "address"
        }
      ],
      "stateMutability": "view",
      "type": "function"
    },
    {
      "inputs": [
        {
          "internalType": "string",
          "name": "name",
          "type": "string"
        }
      ],
      "name": "checkLabel",
      "outputs": [
        {
          "internalType": "uint256",
          "name": "label",
          "type": "uint256"
        }
      ],
      "stateMutability": "pure",
      "type": "function"
    },
    {
      "inputs": [],
      "name": "check_j",
      "outputs": [
        {
          "internalType": "bool",
          "name": "",
          "type": "bool"
        }
      ],
      "stateMutability": "view",
      "type": "function"
    },
    {
      "inputs": [
        {
          "internalType": "string",
          "name": "name",
          "type": "string"
        }
      ],
      "name": "check_label",
      "outputs": [
        {
          "internalType": "uint256",
          "name": "",
          "type": "uint256"
        }
      ],
      "stateMutability": "pure",
      "type": "function"
    },
    {
      "inputs": [],
      "name": "check_msg",
      "outputs": [
        {
          "internalType": "uint256",
          "name": "",
          "type": "uint256"
        },
        {
          "internalType": "uint256",
          "name": "",
          "type": "uint256"
        }
      ],
      "stateMutability": "view",
      "type": "function"
    },
    {
      "inputs": [],
      "name": "check_receive",
      "outputs": [
        {
          "internalType": "address",
          "name": "",
          "type": "address"
        },
        {
          "internalType": "uint256",
          "name": "",
          "type": "uint256"
        },
        {
          "internalType": "uint256",
          "name": "",
          "type": "uint256"
        }
      ],
      "stateMutability": "view",
      "type": "function"
    },
    {
      "inputs": [],
      "name": "checkdepositAddress",
      "outputs": [
        {
          "internalType": "address",
          "name": "",
          "type": "address"
        }
      ],
      "stateMutability": "view",
      "type": "function"
    },
    {
      "inputs": [
        {
          "internalType": "uint16",
          "name": "_dstChainId",
          "type": "uint16"
        },
        {
          "internalType": "string",
          "name": "name",
          "type": "string"
        }
      ],
      "name": "checkfee",
      "outputs": [
        {
          "internalType": "uint256",
          "name": "",
          "type": "uint256"
        }
      ],
      "stateMutability": "view",
      "type": "function"
    },
    {
      "inputs": [
        {
          "internalType": "uint16",
          "name": "_dstChainId",
          "type": "uint16"
        },
        {
          "internalType": "bytes",
          "name": "_destination",
          "type": "bytes"
        },
        {
          "internalType": "uint256",
          "name": "label",
          "type": "uint256"
        }
      ],
      "name": "crossChain",
      "outputs": [],
      "stateMutability": "payable",
      "type": "function"
    },
    {
      "inputs": [],
      "name": "endpoint",
      "outputs": [
        {
          "internalType": "contract ILayerZeroEndpoint",
          "name": "",
          "type": "address"
        }
      ],
      "stateMutability": "view",
      "type": "function"
    },
    {
      "inputs": [
        {
          "internalType": "uint16",
          "name": "_dstChainId",
          "type": "uint16"
        },
        {
          "internalType": "address",
          "name": "_userApplication",
          "type": "address"
        },
        {
          "internalType": "bytes",
          "name": "_payload",
          "type": "bytes"
        },
        {
          "internalType": "bool",
          "name": "_payInZRO",
          "type": "bool"
        },
        {
          "internalType": "bytes",
          "name": "_adapterParams",
          "type": "bytes"
        }
      ],
      "name": "estimateFees",
      "outputs": [
        {
          "internalType": "uint256",
          "name": "nativeFee",
          "type": "uint256"
        },
        {
          "internalType": "uint256",
          "name": "zroFee",
          "type": "uint256"
        }
      ],
      "stateMutability": "view",
      "type": "function"
    },
    {
      "inputs": [
        {
          "internalType": "uint16",
          "name": "",
          "type": "uint16"
        },
        {
          "internalType": "bytes",
          "name": "",
          "type": "bytes"
        },
        {
          "internalType": "uint256",
          "name": "",
          "type": "uint256"
        }
      ],
      "name": "failedMessages",
      "outputs": [
        {
          "internalType": "uint256",
          "name": "payloadLength",
          "type": "uint256"
        },
        {
          "internalType": "bytes32",
          "name": "payloadHash",
          "type": "bytes32"
        }
      ],
      "stateMutability": "view",
      "type": "function"
    },
    {
      "inputs": [],
      "name": "j",
      "outputs": [
        {
          "internalType": "bool",
          "name": "",
          "type": "bool"
        }
      ],
      "stateMutability": "view",
      "type": "function"
    },
    {
      "inputs": [
        {
          "internalType": "uint16",
          "name": "_srcChainId",
          "type": "uint16"
        },
        {
          "internalType": "bytes",
          "name": "_srcAddress",
          "type": "bytes"
        },
        {
          "internalType": "uint64",
          "name": "_nonce",
          "type": "uint64"
        },
        {
          "internalType": "bytes",
          "name": "_payload",
          "type": "bytes"
        }
      ],
      "name": "lzReceive",
      "outputs": [],
      "stateMutability": "nonpayable",
      "type": "function"
    },
    {
      "inputs": [],
      "name": "message_receive",
      "outputs": [
        {
          "internalType": "uint256",
          "name": "",
          "type": "uint256"
        }
      ],
      "stateMutability": "view",
      "type": "function"
    },
    {
      "inputs": [],
      "name": "message_send",
      "outputs": [
        {
          "internalType": "uint256",
          "name": "",
          "type": "uint256"
        }
      ],
      "stateMutability": "view",
      "type": "function"
    },
    {
      "inputs": [
        {
          "internalType": "uint16",
          "name": "_srcChainId",
          "type": "uint16"
        },
        {
          "internalType": "bytes",
          "name": "_srcAddress",
          "type": "bytes"
        },
        {
          "internalType": "uint64",
          "name": "_nonce",
          "type": "uint64"
        },
        {
          "internalType": "bytes",
          "name": "_payload",
          "type": "bytes"
        }
      ],
      "name": "onLzReceive",
      "outputs": [],
      "stateMutability": "nonpayable",
      "type": "function"
    },
    {
      "inputs": [],
      "name": "owner",
      "outputs": [
        {
          "internalType": "address",
          "name": "",
          "type": "address"
        }
      ],
      "stateMutability": "view",
      "type": "function"
    },
    {
      "inputs": [],
      "name": "renounceOwnership",
      "outputs": [],
      "stateMutability": "nonpayable",
      "type": "function"
    },
    {
      "inputs": [
        {
          "internalType": "uint16",
          "name": "_srcChainId",
          "type": "uint16"
        },
        {
          "internalType": "bytes",
          "name": "_srcAddress",
          "type": "bytes"
        },
        {
          "internalType": "uint64",
          "name": "_nonce",
          "type": "uint64"
        },
        {
          "internalType": "bytes",
          "name": "_payload",
          "type": "bytes"
        }
      ],
      "name": "retryMessage",
      "outputs": [],
      "stateMutability": "payable",
      "type": "function"
    },
    {
      "inputs": [
        {
          "internalType": "uint16",
          "name": "_chainId",
          "type": "uint16"
        },
        {
          "internalType": "bytes",
          "name": "_trustedRemote",
          "type": "bytes"
        }
      ],
      "name": "setTrustedRemote",
      "outputs": [],
      "stateMutability": "nonpayable",
      "type": "function"
    },
    {
      "inputs": [
        {
          "internalType": "address",
          "name": "_deposit",
          "type": "address"
        }
      ],
      "name": "setdepositAddress",
      "outputs": [],
      "stateMutability": "nonpayable",
      "type": "function"
    },
    {
      "inputs": [
        {
          "internalType": "uint256",
          "name": "newVal",
          "type": "uint256"
        }
      ],
      "name": "setgas",
      "outputs": [],
      "stateMutability": "nonpayable",
      "type": "function"
    },
    {
      "inputs": [
        {
          "internalType": "string",
          "name": "name",
          "type": "string"
        }
      ],
      "name": "test",
      "outputs": [],
      "stateMutability": "nonpayable",
      "type": "function"
    },
    {
      "inputs": [],
      "name": "test_existence",
      "outputs": [
        {
          "internalType": "uint256",
          "name": "",
          "type": "uint256"
        }
      ],
      "stateMutability": "view",
      "type": "function"
    },
    {
      "inputs": [],
      "name": "test_label",
      "outputs": [
        {
          "internalType": "uint256",
          "name": "",
          "type": "uint256"
        }
      ],
      "stateMutability": "view",
      "type": "function"
    },
    {
      "inputs": [],
      "name": "test_owner",
      "outputs": [
        {
          "internalType": "address",
          "name": "",
          "type": "address"
        }
      ],
      "stateMutability": "view",
      "type": "function"
    },
    {
      "inputs": [
        {
          "internalType": "address",
          "name": "newOwner",
          "type": "address"
        }
      ],
      "name": "transferOwnership",
      "outputs": [],
      "stateMutability": "nonpayable",
      "type": "function"
    },
    {
      "inputs": [
        {
          "internalType": "uint16",
          "name": "",
          "type": "uint16"
        }
      ],
      "name": "trustedRemoteLookup",
      "outputs": [
        {
          "internalType": "bytes",
          "name": "",
          "type": "bytes"
        }
      ],
      "stateMutability": "view",
      "type": "function"
    }
  ],
  "bytecode": "0x60806040526064600155620557306002556000600560146101000a81548160ff0219169083151502179055506000600655600060075560006008553480156200004757600080fd5b50604051620033e3380380620033e383398181016040528101906200006d91906200024d565b6200008d620000816200011760201b60201c565b6200011f60201b60201c565b81600360006101000a81548173ffffffffffffffffffffffffffffffffffffffff021916908373ffffffffffffffffffffffffffffffffffffffff16021790555080600460006101000a81548173ffffffffffffffffffffffffffffffffffffffff021916908373ffffffffffffffffffffffffffffffffffffffff160217905550505062000294565b600033905090565b60008060009054906101000a900473ffffffffffffffffffffffffffffffffffffffff169050816000806101000a81548173ffffffffffffffffffffffffffffffffffffffff021916908373ffffffffffffffffffffffffffffffffffffffff1602179055508173ffffffffffffffffffffffffffffffffffffffff168173ffffffffffffffffffffffffffffffffffffffff167f8be0079c531659141344cd1fd0a4f28419497f9722a3daafe3b4186f6b6457e060405160405180910390a35050565b600080fd5b600073ffffffffffffffffffffffffffffffffffffffff82169050919050565b60006200021582620001e8565b9050919050565b620002278162000208565b81146200023357600080fd5b50565b60008151905062000247816200021c565b92915050565b60008060408385031215620002675762000266620001e3565b5b6000620002778582860162000236565b92505060206200028a8582860162000236565b9150509250929050565b61313f80620002a46000396000f3fe6080604052600436106101cc5760003560e01c80636c7e5131116100f7578063baf1639e11610095578063eb8d72b711610064578063eb8d72b714610664578063f0d991c91461068d578063f2fde38b146106ba578063f9fbd554146106e3576101cc565b8063baf1639e146105c4578063d1deba1f146105e0578063dc9d9bed146105fc578063e700bcbe14610627576101cc565b80637a8062ee116100d15780637a8062ee146105055780638da5cb5b146105305780638ee749121461055b578063b582ec5f14610599576101cc565b80636c7e513114610486578063715018a6146104b15780637533d788146104c8576101cc565b806336d694f91161016f5780635001f3b51161013e5780635001f3b5146103c85780635d09514a146103f35780635e280f111461041e5780636bdfd3cc14610449576101cc565b806336d694f91461030b578063383d81901461033657806340a7bb101461035f5780634df7e3d01461039d576101cc565b80631669fb28116101ab5780631669fb28146102625780631c37a8221461028e5780632477ff01146102b75780632865a8f4146102e0576101cc565b80621d3567146101d15780630843501e146101fa57806311fc05cd14610237575b600080fd5b3480156101dd57600080fd5b506101f860048036038101906101f39190611d0c565b61070c565b005b34801561020657600080fd5b50610221600480360381019061021c9190611e0b565b6108a3565b60405161022e9190611e84565b60405180910390f35b34801561024357600080fd5b5061024c6109cd565b6040516102599190611ee0565b60405180910390f35b34801561026e57600080fd5b506102776109f7565b604051610285929190611efb565b60405180910390f35b34801561029a57600080fd5b506102b560048036038101906102b09190611d0c565b610a08565b005b3480156102c357600080fd5b506102de60048036038101906102d99190611f50565b610a88565b005b3480156102ec57600080fd5b506102f5610b0e565b6040516103029190611e84565b60405180910390f35b34801561031757600080fd5b50610320610b14565b60405161032d9190611e84565b60405180910390f35b34801561034257600080fd5b5061035d60048036038101906103589190611fa9565b610b1a565b005b34801561036b57600080fd5b5061038660048036038101906103819190612064565b610bda565b604051610394929190611efb565b60405180910390f35b3480156103a957600080fd5b506103b2610ca3565b6040516103bf9190611e84565b60405180910390f35b3480156103d457600080fd5b506103dd610ca9565b6040516103ea919061217f565b60405180910390f35b3480156103ff57600080fd5b50610408610ccf565b60405161041591906121a9565b60405180910390f35b34801561042a57600080fd5b50610433610ce6565b60405161044091906121e5565b60405180910390f35b34801561045557600080fd5b50610470600480360381019061046b9190612200565b610d0c565b60405161047d9190611e84565b60405180910390f35b34801561049257600080fd5b5061049b610d31565b6040516104a89190611e84565b60405180910390f35b3480156104bd57600080fd5b506104c6610d37565b005b3480156104d457600080fd5b506104ef60048036038101906104ea919061224d565b610dbf565b6040516104fc9190612302565b60405180910390f35b34801561051157600080fd5b5061051a610e5f565b6040516105279190611ee0565b60405180910390f35b34801561053c57600080fd5b50610545610e85565b6040516105529190611ee0565b60405180910390f35b34801561056757600080fd5b50610582600480360381019061057d9190612324565b610eae565b6040516105909291906123ac565b60405180910390f35b3480156105a557600080fd5b506105ae610f02565b6040516105bb91906121a9565b60405180910390f35b6105de60048036038101906105d991906123d5565b610f15565b005b6105fa60048036038101906105f59190612449565b61142b565b005b34801561060857600080fd5b506106116115cb565b60405161061e9190611e84565b60405180910390f35b34801561063357600080fd5b5061064e60048036038101906106499190612200565b6115d1565b60405161065b9190611e84565b60405180910390f35b34801561067057600080fd5b5061068b600480360381019061068691906124ed565b6115f6565b005b34801561069957600080fd5b506106a26116a2565b6040516106b19392919061254d565b60405180910390f35b3480156106c657600080fd5b506106e160048036038101906106dc9190611fa9565b6116db565b005b3480156106ef57600080fd5b5061070a60048036038101906107059190612625565b6117d3565b005b600360009054906101000a900473ffffffffffffffffffffffffffffffffffffffff1673ffffffffffffffffffffffffffffffffffffffff163373ffffffffffffffffffffffffffffffffffffffff161461076657600080fd5b3073ffffffffffffffffffffffffffffffffffffffff16631c37a822858585856040518563ffffffff1660e01b81526004016107a5949392919061268c565b600060405180830381600087803b1580156107bf57600080fd5b505af19250505080156107d0575060015b61089c576040518060400160405280825181526020018280519060200120815250600960008661ffff1661ffff1681526020019081526020016000208460405161081a919061271b565b908152602001604051809103902060008467ffffffffffffffff16815260200190815260200160002060008201518160000155602082015181600101559050507fe6f254030bcb01ffd20558175c13fcaed6d1520be7becee4c961b65f79243b0d8484848460405161088f949392919061268c565b60405180910390a161089d565b5b50505050565b6000806108b08484610d0c565b9050600033826040516020016108c7929190612732565b60405160208183030381529060405290506000600190506000816002546040516020016108f59291906127b2565b60405160208183030381529060405290506000600360009054906101000a900473ffffffffffffffffffffffffffffffffffffffff1673ffffffffffffffffffffffffffffffffffffffff166340a7bb108a30876000876040518663ffffffff1660e01b815260040161096c9594939291906127de565b604080518083038186803b15801561098357600080fd5b505afa158015610997573d6000803e3d6000fd5b505050506040513d601f19601f820116820180604052508101906109bb9190612854565b50905080955050505050509392505050565b6000600560009054906101000a900473ffffffffffffffffffffffffffffffffffffffff16905090565b600080600854600654915091509091565b3073ffffffffffffffffffffffffffffffffffffffff163373ffffffffffffffffffffffffffffffffffffffff1614610a76576040517f08c379a0000000000000000000000000000000000000000000000000000000008152600401610a6d90612917565b60405180910390fd5b610a82848484846118bb565b50505050565b610a906119c9565b73ffffffffffffffffffffffffffffffffffffffff16610aae610e85565b73ffffffffffffffffffffffffffffffffffffffff1614610b04576040517f08c379a0000000000000000000000000000000000000000000000000000000008152600401610afb90612983565b60405180910390fd5b8060028190555050565b600d5481565b60085481565b610b226119c9565b73ffffffffffffffffffffffffffffffffffffffff16610b40610e85565b73ffffffffffffffffffffffffffffffffffffffff1614610b96576040517f08c379a0000000000000000000000000000000000000000000000000000000008152600401610b8d90612983565b60405180910390fd5b80600560006101000a81548173ffffffffffffffffffffffffffffffffffffffff021916908373ffffffffffffffffffffffffffffffffffffffff16021790555050565b600080600360009054906101000a900473ffffffffffffffffffffffffffffffffffffffff1673ffffffffffffffffffffffffffffffffffffffff166340a7bb108a8a8a8a8a8a8a6040518863ffffffff1660e01b8152600401610c4497969594939291906129d0565b604080518083038186803b158015610c5b57600080fd5b505afa158015610c6f573d6000803e3d6000fd5b505050506040513d601f19601f82011682018060405250810190610c939190612854565b9150915097509795505050505050565b60075481565b600460009054906101000a900473ffffffffffffffffffffffffffffffffffffffff1681565b6000600560149054906101000a900460ff16905090565b600360009054906101000a900473ffffffffffffffffffffffffffffffffffffffff1681565b60008282604051610d1e929190612a5a565b604051809103902060001c905092915050565b60065481565b610d3f6119c9565b73ffffffffffffffffffffffffffffffffffffffff16610d5d610e85565b73ffffffffffffffffffffffffffffffffffffffff1614610db3576040517f08c379a0000000000000000000000000000000000000000000000000000000008152600401610daa90612983565b60405180910390fd5b610dbd60006119d1565b565b600a6020528060005260406000206000915090508054610dde90612aa2565b80601f0160208091040260200160405190810160405280929190818152602001828054610e0a90612aa2565b8015610e575780601f10610e2c57610100808354040283529160200191610e57565b820191906000526020600020905b815481529060010190602001808311610e3a57829003601f168201915b505050505081565b600b60009054906101000a900473ffffffffffffffffffffffffffffffffffffffff1681565b60008060009054906101000a900473ffffffffffffffffffffffffffffffffffffffff16905090565b60096020528260005260406000208280516020810182018051848252602083016020850120818352809550505050505060205280600052604060002060009250925050508060000154908060010154905082565b600560149054906101000a900460ff1681565b600460009054906101000a900473ffffffffffffffffffffffffffffffffffffffff1673ffffffffffffffffffffffffffffffffffffffff16636352211e826040518263ffffffff1660e01b8152600401610f709190611e84565b60206040518083038186803b158015610f8857600080fd5b505afa158015610f9c573d6000803e3d6000fd5b505050506040513d601f19601f82011682018060405250810190610fc09190612ae9565b73ffffffffffffffffffffffffffffffffffffffff163373ffffffffffffffffffffffffffffffffffffffff161461102d576040517f08c379a000000000000000000000000000000000000000000000000000000000815260040161102490612b62565b60405180910390fd5b6000339050600460009054906101000a900473ffffffffffffffffffffffffffffffffffffffff1673ffffffffffffffffffffffffffffffffffffffff166323b872dd33600560009054906101000a900473ffffffffffffffffffffffffffffffffffffffff16856040518463ffffffff1660e01b81526004016110b393929190612b82565b600060405180830381600087803b1580156110cd57600080fd5b505af11580156110e1573d6000803e3d6000fd5b50505050600560009054906101000a900473ffffffffffffffffffffffffffffffffffffffff1673ffffffffffffffffffffffffffffffffffffffff1663b6b55f25836040518263ffffffff1660e01b81526004016111409190611e84565b600060405180830381600087803b15801561115a57600080fd5b505af115801561116e573d6000803e3d6000fd5b5050505060008183600460009054906101000a900473ffffffffffffffffffffffffffffffffffffffff1673ffffffffffffffffffffffffffffffffffffffff1663a4cbf5f4866040518263ffffffff1660e01b81526004016111d19190611e84565b60206040518083038186803b1580156111e957600080fd5b505afa1580156111fd573d6000803e3d6000fd5b505050506040513d601f19601f820116820180604052508101906112219190612bb9565b6040516020016112339392919061254d565b60405160208183030381529060405290506000600190506000816002546040516020016112619291906127b2565b60405160208183030381529060405290506000600360009054906101000a900473ffffffffffffffffffffffffffffffffffffffff1673ffffffffffffffffffffffffffffffffffffffff166340a7bb108a30876000876040518663ffffffff1660e01b81526004016112d89594939291906127de565b604080518083038186803b1580156112ef57600080fd5b505afa158015611303573d6000803e3d6000fd5b505050506040513d601f19601f820116820180604052508101906113279190612854565b5090508034101561136d576040517f08c379a000000000000000000000000000000000000000000000000000000000815260040161136490612c58565b60405180910390fd5b600360009054906101000a900473ffffffffffffffffffffffffffffffffffffffff1673ffffffffffffffffffffffffffffffffffffffff1663c5803100348b8b8b893360008a6040518963ffffffff1660e01b81526004016113d69796959493929190612c99565b6000604051808303818588803b1580156113ef57600080fd5b505af1158015611403573d6000803e3d6000fd5b50505050506008600081548092919061141b90612d40565b9190505550505050505050505050565b6000600960008761ffff1661ffff16815260200190815260200160002085604051611456919061271b565b908152602001604051809103902060008567ffffffffffffffff16815260200190815260200160002090506000801b816001015414156114cb576040517f08c379a00000000000000000000000000000000000000000000000000000000081526004016114c290612dfb565b60405180910390fd5b8060000154838390501480156114fb5750806001015483836040516114f1929190612a5a565b6040518091039020145b61153a576040517f08c379a000000000000000000000000000000000000000000000000000000000815260040161153190612e67565b60405180910390fd5b600081600001819055506000801b81600101819055503073ffffffffffffffffffffffffffffffffffffffff16631c37a82287878787876040518663ffffffff1660e01b8152600401611591959493929190612e87565b600060405180830381600087803b1580156115ab57600080fd5b505af11580156115bf573d6000803e3d6000fd5b50505050505050505050565b600c5481565b600082826040516115e3929190612a5a565b604051809103902060001c905092915050565b6115fe6119c9565b73ffffffffffffffffffffffffffffffffffffffff1661161c610e85565b73ffffffffffffffffffffffffffffffffffffffff1614611672576040517f08c379a000000000000000000000000000000000000000000000000000000000815260040161166990612983565b60405180910390fd5b8181600a60008661ffff1661ffff168152602001908152602001600020919061169c929190611a95565b50505050565b6000806000600b60009054906101000a900473ffffffffffffffffffffffffffffffffffffffff16600c54600d54925092509250909192565b6116e36119c9565b73ffffffffffffffffffffffffffffffffffffffff16611701610e85565b73ffffffffffffffffffffffffffffffffffffffff1614611757576040517f08c379a000000000000000000000000000000000000000000000000000000000815260040161174e90612983565b60405180910390fd5b600073ffffffffffffffffffffffffffffffffffffffff168173ffffffffffffffffffffffffffffffffffffffff1614156117c7576040517f08c379a00000000000000000000000000000000000000000000000000000000081526004016117be90612f4e565b60405180910390fd5b6117d0816119d1565b50565b60003390506000828051906020012060001c9050600460009054906101000a900473ffffffffffffffffffffffffffffffffffffffff1673ffffffffffffffffffffffffffffffffffffffff1663fca247ac8284620186a06040518463ffffffff1660e01b815260040161184993929190612fa9565b602060405180830381600087803b15801561186357600080fd5b505af1158015611877573d6000803e3d6000fd5b505050506040513d601f19601f8201168201806040525081019061189b9190612bb9565b506001600660008282546118af9190612fe0565b92505081905550505050565b600060148401519050600080838060200190518101906118db9190613062565b91509150600560009054906101000a900473ffffffffffffffffffffffffffffffffffffffff1673ffffffffffffffffffffffffffffffffffffffff1662f714ce82846040518363ffffffff1660e01b815260040161193b9291906130a2565b600060405180830381600087803b15801561195557600080fd5b505af1158015611969573d6000803e3d6000fd5b505050506006600081548092919061198090612d40565b91905055507fb2fc0605d8092337433832abc79c17edd73790ce82bcd45e4ac4843f3aae82398784866040516119b8939291906130cb565b60405180910390a150505050505050565b600033905090565b60008060009054906101000a900473ffffffffffffffffffffffffffffffffffffffff169050816000806101000a81548173ffffffffffffffffffffffffffffffffffffffff021916908373ffffffffffffffffffffffffffffffffffffffff1602179055508173ffffffffffffffffffffffffffffffffffffffff168173ffffffffffffffffffffffffffffffffffffffff167f8be0079c531659141344cd1fd0a4f28419497f9722a3daafe3b4186f6b6457e060405160405180910390a35050565b828054611aa190612aa2565b90600052602060002090601f016020900481019282611ac35760008555611b0a565b82601f10611adc57803560ff1916838001178555611b0a565b82800160010185558215611b0a579182015b82811115611b09578235825591602001919060010190611aee565b5b509050611b179190611b1b565b5090565b5b80821115611b34576000816000905550600101611b1c565b5090565b6000604051905090565b600080fd5b600080fd5b600061ffff82169050919050565b611b6381611b4c565b8114611b6e57600080fd5b50565b600081359050611b8081611b5a565b92915050565b600080fd5b600080fd5b6000601f19601f8301169050919050565b7f4e487b7100000000000000000000000000000000000000000000000000000000600052604160045260246000fd5b611bd982611b90565b810181811067ffffffffffffffff82111715611bf857611bf7611ba1565b5b80604052505050565b6000611c0b611b38565b9050611c178282611bd0565b919050565b600067ffffffffffffffff821115611c3757611c36611ba1565b5b611c4082611b90565b9050602081019050919050565b82818337600083830152505050565b6000611c6f611c6a84611c1c565b611c01565b905082815260208101848484011115611c8b57611c8a611b8b565b5b611c96848285611c4d565b509392505050565b600082601f830112611cb357611cb2611b86565b5b8135611cc3848260208601611c5c565b91505092915050565b600067ffffffffffffffff82169050919050565b611ce981611ccc565b8114611cf457600080fd5b50565b600081359050611d0681611ce0565b92915050565b60008060008060808587031215611d2657611d25611b42565b5b6000611d3487828801611b71565b945050602085013567ffffffffffffffff811115611d5557611d54611b47565b5b611d6187828801611c9e565b9350506040611d7287828801611cf7565b925050606085013567ffffffffffffffff811115611d9357611d92611b47565b5b611d9f87828801611c9e565b91505092959194509250565b600080fd5b600080fd5b60008083601f840112611dcb57611dca611b86565b5b8235905067ffffffffffffffff811115611de857611de7611dab565b5b602083019150836001820283011115611e0457611e03611db0565b5b9250929050565b600080600060408486031215611e2457611e23611b42565b5b6000611e3286828701611b71565b935050602084013567ffffffffffffffff811115611e5357611e52611b47565b5b611e5f86828701611db5565b92509250509250925092565b6000819050919050565b611e7e81611e6b565b82525050565b6000602082019050611e996000830184611e75565b92915050565b600073ffffffffffffffffffffffffffffffffffffffff82169050919050565b6000611eca82611e9f565b9050919050565b611eda81611ebf565b82525050565b6000602082019050611ef56000830184611ed1565b92915050565b6000604082019050611f106000830185611e75565b611f1d6020830184611e75565b9392505050565b611f2d81611e6b565b8114611f3857600080fd5b50565b600081359050611f4a81611f24565b92915050565b600060208284031215611f6657611f65611b42565b5b6000611f7484828501611f3b565b91505092915050565b611f8681611ebf565b8114611f9157600080fd5b50565b600081359050611fa381611f7d565b92915050565b600060208284031215611fbf57611fbe611b42565b5b6000611fcd84828501611f94565b91505092915050565b60008083601f840112611fec57611feb611b86565b5b8235905067ffffffffffffffff81111561200957612008611dab565b5b60208301915083600182028301111561202557612024611db0565b5b9250929050565b60008115159050919050565b6120418161202c565b811461204c57600080fd5b50565b60008135905061205e81612038565b92915050565b600080600080600080600060a0888a03121561208357612082611b42565b5b60006120918a828b01611b71565b97505060206120a28a828b01611f94565b965050604088013567ffffffffffffffff8111156120c3576120c2611b47565b5b6120cf8a828b01611fd6565b955095505060606120e28a828b0161204f565b935050608088013567ffffffffffffffff81111561210357612102611b47565b5b61210f8a828b01611fd6565b925092505092959891949750929550565b6000819050919050565b600061214561214061213b84611e9f565b612120565b611e9f565b9050919050565b60006121578261212a565b9050919050565b60006121698261214c565b9050919050565b6121798161215e565b82525050565b60006020820190506121946000830184612170565b92915050565b6121a38161202c565b82525050565b60006020820190506121be600083018461219a565b92915050565b60006121cf8261214c565b9050919050565b6121df816121c4565b82525050565b60006020820190506121fa60008301846121d6565b92915050565b6000806020838503121561221757612216611b42565b5b600083013567ffffffffffffffff81111561223557612234611b47565b5b61224185828601611db5565b92509250509250929050565b60006020828403121561226357612262611b42565b5b600061227184828501611b71565b91505092915050565b600081519050919050565b600082825260208201905092915050565b60005b838110156122b4578082015181840152602081019050612299565b838111156122c3576000848401525b50505050565b60006122d48261227a565b6122de8185612285565b93506122ee818560208601612296565b6122f781611b90565b840191505092915050565b6000602082019050818103600083015261231c81846122c9565b905092915050565b60008060006060848603121561233d5761233c611b42565b5b600061234b86828701611b71565b935050602084013567ffffffffffffffff81111561236c5761236b611b47565b5b61237886828701611c9e565b925050604061238986828701611f3b565b9150509250925092565b6000819050919050565b6123a681612393565b82525050565b60006040820190506123c16000830185611e75565b6123ce602083018461239d565b9392505050565b600080600080606085870312156123ef576123ee611b42565b5b60006123fd87828801611b71565b945050602085013567ffffffffffffffff81111561241e5761241d611b47565b5b61242a87828801611fd6565b9350935050604061243d87828801611f3b565b91505092959194509250565b60008060008060006080868803121561246557612464611b42565b5b600061247388828901611b71565b955050602086013567ffffffffffffffff81111561249457612493611b47565b5b6124a088828901611c9e565b94505060406124b188828901611cf7565b935050606086013567ffffffffffffffff8111156124d2576124d1611b47565b5b6124de88828901611fd6565b92509250509295509295909350565b60008060006040848603121561250657612505611b42565b5b600061251486828701611b71565b935050602084013567ffffffffffffffff81111561253557612534611b47565b5b61254186828701611fd6565b92509250509250925092565b60006060820190506125626000830186611ed1565b61256f6020830185611e75565b61257c6040830184611e75565b949350505050565b600067ffffffffffffffff82111561259f5761259e611ba1565b5b6125a882611b90565b9050602081019050919050565b60006125c86125c384612584565b611c01565b9050828152602081018484840111156125e4576125e3611b8b565b5b6125ef848285611c4d565b509392505050565b600082601f83011261260c5761260b611b86565b5b813561261c8482602086016125b5565b91505092915050565b60006020828403121561263b5761263a611b42565b5b600082013567ffffffffffffffff81111561265957612658611b47565b5b612665848285016125f7565b91505092915050565b61267781611b4c565b82525050565b61268681611ccc565b82525050565b60006080820190506126a1600083018761266e565b81810360208301526126b381866122c9565b90506126c2604083018561267d565b81810360608301526126d481846122c9565b905095945050505050565b600081905092915050565b60006126f58261227a565b6126ff81856126df565b935061270f818560208601612296565b80840191505092915050565b600061272782846126ea565b915081905092915050565b60006040820190506127476000830185611ed1565b6127546020830184611e75565b9392505050565b60008160f01b9050919050565b60006127738261275b565b9050919050565b61278b61278682611b4c565b612768565b82525050565b6000819050919050565b6127ac6127a782611e6b565b612791565b82525050565b60006127be828561277a565b6002820191506127ce828461279b565b6020820191508190509392505050565b600060a0820190506127f3600083018861266e565b6128006020830187611ed1565b818103604083015261281281866122c9565b9050612821606083018561219a565b818103608083015261283381846122c9565b90509695505050505050565b60008151905061284e81611f24565b92915050565b6000806040838503121561286b5761286a611b42565b5b60006128798582860161283f565b925050602061288a8582860161283f565b9150509250929050565b600082825260208201905092915050565b7f4e6f6e626c6f636b696e6752656365697665723a2063616c6c6572206d75737460008201527f206265204272696467652e000000000000000000000000000000000000000000602082015250565b6000612901602b83612894565b915061290c826128a5565b604082019050919050565b60006020820190508181036000830152612930816128f4565b9050919050565b7f4f776e61626c653a2063616c6c6572206973206e6f7420746865206f776e6572600082015250565b600061296d602083612894565b915061297882612937565b602082019050919050565b6000602082019050818103600083015261299c81612960565b9050919050565b60006129af8385612285565b93506129bc838584611c4d565b6129c583611b90565b840190509392505050565b600060a0820190506129e5600083018a61266e565b6129f26020830189611ed1565b8181036040830152612a058187896129a3565b9050612a14606083018661219a565b8181036080830152612a278184866129a3565b905098975050505050505050565b6000612a4183856126df565b9350612a4e838584611c4d565b82840190509392505050565b6000612a67828486612a35565b91508190509392505050565b7f4e487b7100000000000000000000000000000000000000000000000000000000600052602260045260246000fd5b60006002820490506001821680612aba57607f821691505b60208210811415612ace57612acd612a73565b5b50919050565b600081519050612ae381611f7d565b92915050565b600060208284031215612aff57612afe611b42565b5b6000612b0d84828501612ad4565b91505092915050565b7f4e6f7420746865206f776e657200000000000000000000000000000000000000600082015250565b6000612b4c600d83612894565b9150612b5782612b16565b602082019050919050565b60006020820190508181036000830152612b7b81612b3f565b9050919050565b6000606082019050612b976000830186611ed1565b612ba46020830185611ed1565b612bb16040830184611e75565b949350505050565b600060208284031215612bcf57612bce611b42565b5b6000612bdd8482850161283f565b91505092915050565b7f4d7573742073656e6420656e6f7567682076616c756520746f20636f7665722060008201527f6d65737361676546656500000000000000000000000000000000000000000000602082015250565b6000612c42602a83612894565b9150612c4d82612be6565b604082019050919050565b60006020820190508181036000830152612c7181612c35565b9050919050565b6000612c8382611e9f565b9050919050565b612c9381612c78565b82525050565b600060c082019050612cae600083018a61266e565b8181036020830152612cc181888a6129a3565b90508181036040830152612cd581876122c9565b9050612ce46060830186612c8a565b612cf16080830185611ed1565b81810360a0830152612d0381846122c9565b905098975050505050505050565b7f4e487b7100000000000000000000000000000000000000000000000000000000600052601160045260246000fd5b6000612d4b82611e6b565b91507fffffffffffffffffffffffffffffffffffffffffffffffffffffffffffffffff821415612d7e57612d7d612d11565b5b600182019050919050565b7f4e6f6e626c6f636b696e6752656365697665723a206e6f2073746f726564206d60008201527f6573736167650000000000000000000000000000000000000000000000000000602082015250565b6000612de5602683612894565b9150612df082612d89565b604082019050919050565b60006020820190508181036000830152612e1481612dd8565b9050919050565b7f4c617965725a65726f3a20696e76616c6964207061796c6f6164000000000000600082015250565b6000612e51601a83612894565b9150612e5c82612e1b565b602082019050919050565b60006020820190508181036000830152612e8081612e44565b9050919050565b6000608082019050612e9c600083018861266e565b8181036020830152612eae81876122c9565b9050612ebd604083018661267d565b8181036060830152612ed08184866129a3565b90509695505050505050565b7f4f776e61626c653a206e6577206f776e657220697320746865207a65726f206160008201527f6464726573730000000000000000000000000000000000000000000000000000602082015250565b6000612f38602683612894565b9150612f4382612edc565b604082019050919050565b60006020820190508181036000830152612f6781612f2b565b9050919050565b6000819050919050565b6000612f93612f8e612f8984612f6e565b612120565b611e6b565b9050919050565b612fa381612f78565b82525050565b6000606082019050612fbe6000830186611e75565b612fcb6020830185611ed1565b612fd86040830184612f9a565b949350505050565b6000612feb82611e6b565b9150612ff683611e6b565b9250827fffffffffffffffffffffffffffffffffffffffffffffffffffffffffffffffff0382111561302b5761302a612d11565b5b828201905092915050565b61303f81612c78565b811461304a57600080fd5b50565b60008151905061305c81613036565b92915050565b6000806040838503121561307957613078611b42565b5b60006130878582860161304d565b92505060206130988582860161283f565b9150509250929050565b60006040820190506130b76000830185611e75565b6130c46020830184611ed1565b9392505050565b60006060820190506130e0600083018661266e565b6130ed6020830185611ed1565b81810360408301526130ff81846122c9565b905094935050505056fea2646970667358221220b7cae314956bec58851c2ffe3e9a2ec9f80f2d264c6c5957e06e45368ee70f2b64736f6c63430008090033",
  "linkReferences": {},
  "deployedLinkReferences": {}
}