{
  "_format": "hh-sol-artifact-1",
  "contractName": "RewardActivity",
  "sourceName": "contracts/activity/RewardActivity.sol",
  "abi": [
    {
      "inputs": [
        {
          "internalType": "contract Register",
          "name": "_register",
          "type": "address"
        },
        {
          "internalType": "contract MintLetterNFT",
          "name": "_reward",
          "type": "address"
        }
      ],
      "stateMutability": "nonpayable",
      "type": "constructor"
    },
    {
      "anonymous": false,
      "inputs": [
        {
          "indexed": true,
          "internalType": "address",
          "name": "previousOwner",
          "type": "address"
        },
        {
          "indexed": true,
          "internalType": "address",
          "name": "newOwner",
          "type": "address"
        }
      ],
      "name": "OwnershipTransferred",
      "type": "event"
    },
    {
      "inputs": [
        {
          "internalType": "address",
          "name": "",
          "type": "address"
        }
      ],
      "name": "AccountRewardNum",
      "outputs": [
        {
          "internalType": "uint256",
          "name": "",
          "type": "uint256"
        }
      ],
      "stateMutability": "view",
      "type": "function"
    },
    {
      "inputs": [],
      "name": "IsOpen",
      "outputs": [
        {
          "internalType": "bool",
          "name": "",
          "type": "bool"
        }
      ],
      "stateMutability": "view",
      "type": "function"
    },
    {
      "inputs": [
        {
          "internalType": "uint256",
          "name": "",
          "type": "uint256"
        }
      ],
      "name": "IsReward",
      "outputs": [
        {
          "internalType": "bool",
          "name": "",
          "type": "bool"
        }
      ],
      "stateMutability": "view",
      "type": "function"
    },
    {
      "inputs": [
        {
          "internalType": "bool",
          "name": "open",
          "type": "bool"
        }
      ],
      "name": "OpenActivity",
      "outputs": [],
      "stateMutability": "nonpayable",
      "type": "function"
    },
    {
      "inputs": [
        {
          "internalType": "uint256",
          "name": "tokenId",
          "type": "uint256"
        }
      ],
      "name": "TokenIsReward",
      "outputs": [
        {
          "internalType": "bool",
          "name": "",
          "type": "bool"
        }
      ],
      "stateMutability": "view",
      "type": "function"
    },
    {
      "inputs": [],
      "name": "activityOpen",
      "outputs": [
        {
          "internalType": "bool",
          "name": "",
          "type": "bool"
        }
      ],
      "stateMutability": "view",
      "type": "function"
    },
    {
      "inputs": [
        {
          "internalType": "address",
          "name": "account",
          "type": "address"
        }
      ],
      "name": "checkAccountRewardNum",
      "outputs": [
        {
          "internalType": "uint256",
          "name": "",
          "type": "uint256"
        }
      ],
      "stateMutability": "view",
      "type": "function"
    },
    {
      "inputs": [
        {
          "internalType": "uint256",
          "name": "tokenId",
          "type": "uint256"
        }
      ],
      "name": "claimReward",
      "outputs": [
        {
          "internalType": "uint256",
          "name": "",
          "type": "uint256"
        }
      ],
      "stateMutability": "nonpayable",
      "type": "function"
    },
    {
      "inputs": [],
      "name": "owner",
      "outputs": [
        {
          "internalType": "address",
          "name": "",
          "type": "address"
        }
      ],
      "stateMutability": "view",
      "type": "function"
    },
    {
      "inputs": [],
      "name": "register",
      "outputs": [
        {
          "internalType": "contract Register",
          "name": "",
          "type": "address"
        }
      ],
      "stateMutability": "view",
      "type": "function"
    },
    {
      "inputs": [
        {
          "internalType": "string",
          "name": "name",
          "type": "string"
        },
        {
          "internalType": "uint256",
          "name": "duration",
          "type": "uint256"
        }
      ],
      "name": "registerAndReward",
      "outputs": [
        {
          "internalType": "uint256",
          "name": "",
          "type": "uint256"
        }
      ],
      "stateMutability": "nonpayable",
      "type": "function"
    },
    {
      "inputs": [],
      "name": "renounceOwnership",
      "outputs": [],
      "stateMutability": "nonpayable",
      "type": "function"
    },
    {
      "inputs": [],
      "name": "reward",
      "outputs": [
        {
          "internalType": "contract MintLetterNFT",
          "name": "",
          "type": "address"
        }
      ],
      "stateMutability": "view",
      "type": "function"
    },
    {
      "inputs": [
        {
          "internalType": "address",
          "name": "newOwner",
          "type": "address"
        }
      ],
      "name": "transferOwnership",
      "outputs": [],
      "stateMutability": "nonpayable",
      "type": "function"
    }
  ],
  "bytecode": "0x60c060405260008060146101000a81548160ff0219169083151502179055503480156200002b57600080fd5b506040516200184838038062001848833981810160405281019062000051919062000270565b6200007162000065620000e160201b60201c565b620000e960201b60201c565b8173ffffffffffffffffffffffffffffffffffffffff1660808173ffffffffffffffffffffffffffffffffffffffff16815250508073ffffffffffffffffffffffffffffffffffffffff1660a08173ffffffffffffffffffffffffffffffffffffffff16815250505050620002b7565b600033905090565b60008060009054906101000a900473ffffffffffffffffffffffffffffffffffffffff169050816000806101000a81548173ffffffffffffffffffffffffffffffffffffffff021916908373ffffffffffffffffffffffffffffffffffffffff1602179055508173ffffffffffffffffffffffffffffffffffffffff168173ffffffffffffffffffffffffffffffffffffffff167f8be0079c531659141344cd1fd0a4f28419497f9722a3daafe3b4186f6b6457e060405160405180910390a35050565b600080fd5b600073ffffffffffffffffffffffffffffffffffffffff82169050919050565b6000620001df82620001b2565b9050919050565b6000620001f382620001d2565b9050919050565b6200020581620001e6565b81146200021157600080fd5b50565b6000815190506200022581620001fa565b92915050565b60006200023882620001d2565b9050919050565b6200024a816200022b565b81146200025657600080fd5b50565b6000815190506200026a816200023f565b92915050565b600080604083850312156200028a5762000289620001ad565b5b60006200029a8582860162000214565b9250506020620002ad8582860162000259565b9150509250929050565b60805160a05161154f620002f9600039600081816104650152610a7d01526000818161037601528181610441015281816105c901526106c9015261154f6000f3fe608060405234801561001057600080fd5b50600436106100ea5760003560e01c80639698e1711161008c578063b5f4b3fe11610066578063b5f4b3fe1461024f578063f1ba096e1461027f578063f2444cf3146102af578063f2fde38b146102cb576100ea565b80639698e171146101d1578063a7bc771314610201578063ae169a501461021f576100ea565b8063228cb733116100c8578063228cb7331461016d578063715018a61461018b57806379fa2103146101955780638da5cb5b146101b3576100ea565b80630c4a3f4e146100ef5780630f6610401461011f5780631aa3a0081461014f575b600080fd5b61010960048036038101906101049190610cbf565b6102e7565b6040516101169190610d07565b60405180910390f35b61013960048036038101906101349190610d87565b610307565b6040516101469190610df6565b60405180910390f35b61015761043f565b6040516101649190610e90565b60405180910390f35b610175610463565b6040516101829190610ecc565b60405180910390f35b610193610487565b005b61019d61050f565b6040516101aa9190610d07565b60405180910390f35b6101bb610525565b6040516101c89190610f08565b60405180910390f35b6101eb60048036038101906101e69190610f4f565b61054e565b6040516101f89190610df6565b60405180910390f35b610209610566565b6040516102169190610d07565b60405180910390f35b61023960048036038101906102349190610cbf565b610579565b6040516102469190610df6565b60405180910390f35b61026960048036038101906102649190610cbf565b6107de565b6040516102769190610d07565b60405180910390f35b61029960048036038101906102949190610f4f565b610808565b6040516102a69190610df6565b60405180910390f35b6102c960048036038101906102c49190610fa8565b610851565b005b6102e560048036038101906102e09190610f4f565b6108ea565b005b60026020528060005260406000206000915054906101000a900460ff1681565b600061031161050f565b610350576040517f08c379a000000000000000000000000000000000000000000000000000000000815260040161034790611032565b60405180910390fd5b600033905060008585604051610367929190611091565b604051809103902060001c90507f000000000000000000000000000000000000000000000000000000000000000073ffffffffffffffffffffffffffffffffffffffff1663fca247ac8284876040518463ffffffff1660e01b81526004016103d1939291906110aa565b602060405180830381600087803b1580156103eb57600080fd5b505af11580156103ff573d6000803e3d6000fd5b505050506040513d601f19601f8201168201806040525081019061042391906110f6565b50600061043082846109e2565b90508093505050509392505050565b7f000000000000000000000000000000000000000000000000000000000000000081565b7f000000000000000000000000000000000000000000000000000000000000000081565b61048f610bb3565b73ffffffffffffffffffffffffffffffffffffffff166104ad610525565b73ffffffffffffffffffffffffffffffffffffffff1614610503576040517f08c379a00000000000000000000000000000000000000000000000000000000081526004016104fa9061116f565b60405180910390fd5b61050d6000610bbb565b565b60008060149054906101000a900460ff16905090565b60008060009054906101000a900473ffffffffffffffffffffffffffffffffffffffff16905090565b60016020528060005260406000206000915090505481565b600060149054906101000a900460ff1681565b600061058361050f565b6105c2576040517f08c379a00000000000000000000000000000000000000000000000000000000081526004016105b990611032565b60405180910390fd5b60003390507f000000000000000000000000000000000000000000000000000000000000000073ffffffffffffffffffffffffffffffffffffffff166396e494e8846040518263ffffffff1660e01b81526004016106209190610df6565b60206040518083038186803b15801561063857600080fd5b505afa15801561064c573d6000803e3d6000fd5b505050506040513d601f19601f8201168201806040525081019061067091906111a4565b156106b0576040517f08c379a00000000000000000000000000000000000000000000000000000000081526004016106a790611243565b60405180910390fd5b8073ffffffffffffffffffffffffffffffffffffffff167f000000000000000000000000000000000000000000000000000000000000000073ffffffffffffffffffffffffffffffffffffffff16636352211e856040518263ffffffff1660e01b81526004016107209190610df6565b60206040518083038186803b15801561073857600080fd5b505afa15801561074c573d6000803e3d6000fd5b505050506040513d601f19601f820116820180604052508101906107709190611278565b73ffffffffffffffffffffffffffffffffffffffff16146107c6576040517f08c379a00000000000000000000000000000000000000000000000000000000081526004016107bd906112f1565b60405180910390fd5b60006107d284336109e2565b90508092505050919050565b60006002600083815260200190815260200160002060009054906101000a900460ff169050919050565b6000600160008373ffffffffffffffffffffffffffffffffffffffff1673ffffffffffffffffffffffffffffffffffffffff168152602001908152602001600020549050919050565b610859610bb3565b73ffffffffffffffffffffffffffffffffffffffff16610877610525565b73ffffffffffffffffffffffffffffffffffffffff16146108cd576040517f08c379a00000000000000000000000000000000000000000000000000000000081526004016108c49061116f565b60405180910390fd5b80600060146101000a81548160ff02191690831515021790555050565b6108f2610bb3565b73ffffffffffffffffffffffffffffffffffffffff16610910610525565b73ffffffffffffffffffffffffffffffffffffffff1614610966576040517f08c379a000000000000000000000000000000000000000000000000000000000815260040161095d9061116f565b60405180910390fd5b600073ffffffffffffffffffffffffffffffffffffffff168173ffffffffffffffffffffffffffffffffffffffff1614156109d6576040517f08c379a00000000000000000000000000000000000000000000000000000000081526004016109cd90611383565b60405180910390fd5b6109df81610bbb565b50565b60006109ed836107de565b15610a2d576040517f08c379a0000000000000000000000000000000000000000000000000000000008152600401610a24906113ef565b60405180910390fd5b6002610a3883610808565b1115610a79576040517f08c379a0000000000000000000000000000000000000000000000000000000008152600401610a7090611481565b60405180910390fd5b60007f000000000000000000000000000000000000000000000000000000000000000073ffffffffffffffffffffffffffffffffffffffff166354ba0f27846040518263ffffffff1660e01b8152600401610ad49190610f08565b602060405180830381600087803b158015610aee57600080fd5b505af1158015610b02573d6000803e3d6000fd5b505050506040513d601f19601f82011682018060405250810190610b2691906110f6565b905060016002600086815260200190815260200160002060006101000a81548160ff021916908315150217905550600160008473ffffffffffffffffffffffffffffffffffffffff1673ffffffffffffffffffffffffffffffffffffffff1681526020019081526020016000206000815480929190610ba4906114d0565b91905055508091505092915050565b600033905090565b60008060009054906101000a900473ffffffffffffffffffffffffffffffffffffffff169050816000806101000a81548173ffffffffffffffffffffffffffffffffffffffff021916908373ffffffffffffffffffffffffffffffffffffffff1602179055508173ffffffffffffffffffffffffffffffffffffffff168173ffffffffffffffffffffffffffffffffffffffff167f8be0079c531659141344cd1fd0a4f28419497f9722a3daafe3b4186f6b6457e060405160405180910390a35050565b600080fd5b600080fd5b6000819050919050565b610c9c81610c89565b8114610ca757600080fd5b50565b600081359050610cb981610c93565b92915050565b600060208284031215610cd557610cd4610c7f565b5b6000610ce384828501610caa565b91505092915050565b60008115159050919050565b610d0181610cec565b82525050565b6000602082019050610d1c6000830184610cf8565b92915050565b600080fd5b600080fd5b600080fd5b60008083601f840112610d4757610d46610d22565b5b8235905067ffffffffffffffff811115610d6457610d63610d27565b5b602083019150836001820283011115610d8057610d7f610d2c565b5b9250929050565b600080600060408486031215610da057610d9f610c7f565b5b600084013567ffffffffffffffff811115610dbe57610dbd610c84565b5b610dca86828701610d31565b93509350506020610ddd86828701610caa565b9150509250925092565b610df081610c89565b82525050565b6000602082019050610e0b6000830184610de7565b92915050565b600073ffffffffffffffffffffffffffffffffffffffff82169050919050565b6000819050919050565b6000610e56610e51610e4c84610e11565b610e31565b610e11565b9050919050565b6000610e6882610e3b565b9050919050565b6000610e7a82610e5d565b9050919050565b610e8a81610e6f565b82525050565b6000602082019050610ea56000830184610e81565b92915050565b6000610eb682610e5d565b9050919050565b610ec681610eab565b82525050565b6000602082019050610ee16000830184610ebd565b92915050565b6000610ef282610e11565b9050919050565b610f0281610ee7565b82525050565b6000602082019050610f1d6000830184610ef9565b92915050565b610f2c81610ee7565b8114610f3757600080fd5b50565b600081359050610f4981610f23565b92915050565b600060208284031215610f6557610f64610c7f565b5b6000610f7384828501610f3a565b91505092915050565b610f8581610cec565b8114610f9057600080fd5b50565b600081359050610fa281610f7c565b92915050565b600060208284031215610fbe57610fbd610c7f565b5b6000610fcc84828501610f93565b91505092915050565b600082825260208201905092915050565b7f54686973206163746976697479206973206e6f74204f70656e00000000000000600082015250565b600061101c601983610fd5565b915061102782610fe6565b602082019050919050565b6000602082019050818103600083015261104b8161100f565b9050919050565b600081905092915050565b82818337600083830152505050565b60006110788385611052565b935061108583858461105d565b82840190509392505050565b600061109e82848661106c565b91508190509392505050565b60006060820190506110bf6000830186610de7565b6110cc6020830185610ef9565b6110d96040830184610de7565b949350505050565b6000815190506110f081610c93565b92915050565b60006020828403121561110c5761110b610c7f565b5b600061111a848285016110e1565b91505092915050565b7f4f776e61626c653a2063616c6c6572206973206e6f7420746865206f776e6572600082015250565b6000611159602083610fd5565b915061116482611123565b602082019050919050565b600060208201905081810360008301526111888161114c565b9050919050565b60008151905061119e81610f7c565b92915050565b6000602082840312156111ba576111b9610c7f565b5b60006111c88482850161118f565b91505092915050565b7f54686973204e4654206973206e6f74206578697374206f72206861732065787060008201527f6972656400000000000000000000000000000000000000000000000000000000602082015250565b600061122d602483610fd5565b9150611238826111d1565b604082019050919050565b6000602082019050818103600083015261125c81611220565b9050919050565b60008151905061127281610f23565b92915050565b60006020828403121561128e5761128d610c7f565b5b600061129c84828501611263565b91505092915050565b7f54686973204e465420646f6573206e6f742062656c6f6e6720746f20796f7500600082015250565b60006112db601f83610fd5565b91506112e6826112a5565b602082019050919050565b6000602082019050818103600083015261130a816112ce565b9050919050565b7f4f776e61626c653a206e6577206f776e657220697320746865207a65726f206160008201527f6464726573730000000000000000000000000000000000000000000000000000602082015250565b600061136d602683610fd5565b915061137882611311565b604082019050919050565b6000602082019050818103600083015261139c81611360565b9050919050565b7f6464646464646464640000000000000000000000000000000000000000000000600082015250565b60006113d9600983610fd5565b91506113e4826113a3565b602082019050919050565b60006020820190508181036000830152611408816113cc565b9050919050565b7f43616e206e6f7420636c61696d20726577617264206d6f7265207468616e207460008201527f68726573732074696d6573000000000000000000000000000000000000000000602082015250565b600061146b602b83610fd5565b91506114768261140f565b604082019050919050565b6000602082019050818103600083015261149a8161145e565b9050919050565b7f4e487b7100000000000000000000000000000000000000000000000000000000600052601160045260246000fd5b60006114db82610c89565b91507fffffffffffffffffffffffffffffffffffffffffffffffffffffffffffffffff82141561150e5761150d6114a1565b5b60018201905091905056fea264697066735822122088211e6f973eef48c9d12b3ce96805ad3c92147d92b2fc3a2742911bf4988c8b64736f6c63430008090033",
  "linkReferences": {},
  "deployedLinkReferences": {}
}