{
  "_format": "hh-sol-artifact-1",
  "contractName": "NFTGroup",
  "sourceName": "contracts/LetterNFT-contract/nftGroup.sol",
  "abi": [
    {
      "inputs": [
        {
          "internalType": "address",
          "name": "_rewardAddr",
          "type": "address"
        }
      ],
      "stateMutability": "nonpayable",
      "type": "constructor"
    },
    {
      "inputs": [
        {
          "internalType": "uint256",
          "name": "_groupID",
          "type": "uint256"
        }
      ],
      "name": "addToGroupByGroupID",
      "outputs": [
        {
          "internalType": "bool",
          "name": "_inGroup",
          "type": "bool"
        }
      ],
      "stateMutability": "nonpayable",
      "type": "function"
    },
    {
      "inputs": [
        {
          "internalType": "address",
          "name": "user",
          "type": "address"
        }
      ],
      "name": "addUserToOwnGroup",
      "outputs": [],
      "stateMutability": "nonpayable",
      "type": "function"
    },
    {
      "inputs": [],
      "name": "burnOwnGroup",
      "outputs": [],
      "stateMutability": "nonpayable",
      "type": "function"
    },
    {
      "inputs": [],
      "name": "claimReward",
      "outputs": [
        {
          "internalType": "string",
          "name": "_msg",
          "type": "string"
        }
      ],
      "stateMutability": "nonpayable",
      "type": "function"
    },
    {
      "inputs": [],
      "name": "createGroup",
      "outputs": [
        {
          "internalType": "uint256",
          "name": "_groupID",
          "type": "uint256"
        }
      ],
      "stateMutability": "nonpayable",
      "type": "function"
    },
    {
      "inputs": [],
      "name": "getInGroup",
      "outputs": [
        {
          "internalType": "bool",
          "name": "",
          "type": "bool"
        }
      ],
      "stateMutability": "view",
      "type": "function"
    },
    {
      "inputs": [
        {
          "internalType": "address",
          "name": "user",
          "type": "address"
        }
      ],
      "name": "getLetterForAddress",
      "outputs": [
        {
          "internalType": "string",
          "name": "",
          "type": "string"
        }
      ],
      "stateMutability": "view",
      "type": "function"
    },
    {
      "inputs": [
        {
          "internalType": "uint256",
          "name": "_groupID",
          "type": "uint256"
        }
      ],
      "name": "viewGroupLetters",
      "outputs": [
        {
          "internalType": "string[]",
          "name": "",
          "type": "string[]"
        }
      ],
      "stateMutability": "view",
      "type": "function"
    },
    {
      "inputs": [
        {
          "internalType": "uint256",
          "name": "_groupID",
          "type": "uint256"
        }
      ],
      "name": "viewGroupMembers",
      "outputs": [
        {
          "internalType": "address[]",
          "name": "",
          "type": "address[]"
        }
      ],
      "stateMutability": "view",
      "type": "function"
    }
  ],
  "bytecode": "0x60806040526040518060400160405280600481526020017f53544152000000000000000000000000000000000000000000000000000000008152506006908051906020019062000051929190620000d5565b503480156200005f57600080fd5b50604051620031eb380380620031eb8339818101604052810190620000859190620001ef565b600160008190555080600760006101000a81548173ffffffffffffffffffffffffffffffffffffffff021916908373ffffffffffffffffffffffffffffffffffffffff1602179055505062000286565b828054620000e39062000250565b90600052602060002090601f01602090048101928262000107576000855562000153565b82601f106200012257805160ff191683800117855562000153565b8280016001018555821562000153579182015b828111156200015257825182559160200191906001019062000135565b5b50905062000162919062000166565b5090565b5b808211156200018157600081600090555060010162000167565b5090565b600080fd5b600073ffffffffffffffffffffffffffffffffffffffff82169050919050565b6000620001b7826200018a565b9050919050565b620001c981620001aa565b8114620001d557600080fd5b50565b600081519050620001e981620001be565b92915050565b60006020828403121562000208576200020762000185565b5b60006200021884828501620001d8565b91505092915050565b7f4e487b7100000000000000000000000000000000000000000000000000000000600052602260045260246000fd5b600060028204905060018216806200026957607f821691505b6020821081141562000280576200027f62000221565b5b50919050565b612f5580620002966000396000f3fe608060405234801561001057600080fd5b50600436106100935760003560e01c8063729b99f611610066578063729b99f614610120578063b88a802f14610150578063d19ccbd91461016e578063e741211d1461019e578063f4e6ab40146101a857610093565b806311618f911461009857806339bbec3c146100c85780634f045a6f146100e6578063575185ed14610102575b600080fd5b6100b260048036038101906100ad9190611fff565b6101d8565b6040516100bf9190612047565b60405180910390f35b6100d0610442565b6040516100dd9190612047565b60405180910390f35b61010060048036038101906100fb91906120c0565b610496565b005b61010a6107b6565b60405161011791906120fc565b60405180910390f35b61013a60048036038101906101359190611fff565b610a00565b60405161014791906121d5565b60405180910390f35b610158610b89565b6040516101659190612290565b60405180910390f35b61018860048036038101906101839190611fff565b610f5d565b60405161019591906123be565b60405180910390f35b6101a66110c2565b005b6101c260048036038101906101bd91906120c0565b61148a565b6040516101cf9190612290565b60405180910390f35b6000600460003373ffffffffffffffffffffffffffffffffffffffff1673ffffffffffffffffffffffffffffffffffffffff16815260200190815260200160002060009054906101000a900460ff1615801561025757506006805461023c9061240f565b90506003600084815260200190815260200160002080549050105b610296576040517f08c379a000000000000000000000000000000000000000000000000000000000815260040161028d906124b3565b60405180910390fd5b6000600260003373ffffffffffffffffffffffffffffffffffffffff1673ffffffffffffffffffffffffffffffffffffffff1681526020019081526020016000205414610318576040517f08c379a000000000000000000000000000000000000000000000000000000000815260040161030f9061251f565b60405180910390fd5b6103223383611527565b60036000838152602001908152602001600020339080600181540180825580915050600190039060005260206000200160009091909190916101000a81548173ffffffffffffffffffffffffffffffffffffffff021916908373ffffffffffffffffffffffffffffffffffffffff1602179055506001600460003373ffffffffffffffffffffffffffffffffffffffff1673ffffffffffffffffffffffffffffffffffffffff16815260200190815260200160002060006101000a81548160ff021916908315150217905550600460003373ffffffffffffffffffffffffffffffffffffffff1673ffffffffffffffffffffffffffffffffffffffff16815260200190815260200160002060009054906101000a900460ff169050919050565b6000600460003373ffffffffffffffffffffffffffffffffffffffff1673ffffffffffffffffffffffffffffffffffffffff16815260200190815260200160002060009054906101000a900460ff16905090565b6000600260003373ffffffffffffffffffffffffffffffffffffffff1673ffffffffffffffffffffffffffffffffffffffff16815260200190815260200160002054141580156105485750600680546104ee9061240f565b905060036000600260003373ffffffffffffffffffffffffffffffffffffffff1673ffffffffffffffffffffffffffffffffffffffff16815260200190815260200160002054815260200190815260200160002080549050105b610587576040517f08c379a000000000000000000000000000000000000000000000000000000000815260040161057e9061258b565b60405180910390fd5b6000600260008373ffffffffffffffffffffffffffffffffffffffff1673ffffffffffffffffffffffffffffffffffffffff168152602001908152602001600020541480156106205750600460008273ffffffffffffffffffffffffffffffffffffffff1673ffffffffffffffffffffffffffffffffffffffff16815260200190815260200160002060009054906101000a900460ff16155b61065f576040517f08c379a0000000000000000000000000000000000000000000000000000000008152600401610656906125f7565b60405180910390fd5b6106a881600260003373ffffffffffffffffffffffffffffffffffffffff1673ffffffffffffffffffffffffffffffffffffffff16815260200190815260200160002054611527565b60036000600260003373ffffffffffffffffffffffffffffffffffffffff1673ffffffffffffffffffffffffffffffffffffffff168152602001908152602001600020548152602001908152602001600020819080600181540180825580915050600190039060005260206000200160009091909190916101000a81548173ffffffffffffffffffffffffffffffffffffffff021916908373ffffffffffffffffffffffffffffffffffffffff1602179055506001600460008373ffffffffffffffffffffffffffffffffffffffff1673ffffffffffffffffffffffffffffffffffffffff16815260200190815260200160002060006101000a81548160ff02191690831515021790555050565b600080600260003373ffffffffffffffffffffffffffffffffffffffff1673ffffffffffffffffffffffffffffffffffffffff168152602001908152602001600020541480156108505750600460003373ffffffffffffffffffffffffffffffffffffffff1673ffffffffffffffffffffffffffffffffffffffff16815260200190815260200160002060009054906101000a900460ff16155b61088f576040517f08c379a000000000000000000000000000000000000000000000000000000000815260040161088690612663565b60405180910390fd5b6108996001611669565b6108a3600161167f565b600260003373ffffffffffffffffffffffffffffffffffffffff1673ffffffffffffffffffffffffffffffffffffffff16815260200190815260200160002081905550600360006108f4600161167f565b8152602001908152602001600020339080600181540180825580915050600190039060005260206000200160009091909190916101000a81548173ffffffffffffffffffffffffffffffffffffffff021916908373ffffffffffffffffffffffffffffffffffffffff1602179055506001600460003373ffffffffffffffffffffffffffffffffffffffff1673ffffffffffffffffffffffffffffffffffffffff16815260200190815260200160002060006101000a81548160ff021916908315150217905550600260003373ffffffffffffffffffffffffffffffffffffffff1673ffffffffffffffffffffffffffffffffffffffff16815260200190815260200160002054905090565b60606000821415610ae95760036000600260003373ffffffffffffffffffffffffffffffffffffffff1673ffffffffffffffffffffffffffffffffffffffff168152602001908152602001600020548152602001908152602001600020805480602002602001604051908101604052809291908181526020018280548015610add57602002820191906000526020600020905b8160009054906101000a900473ffffffffffffffffffffffffffffffffffffffff1673ffffffffffffffffffffffffffffffffffffffff1681526020019060010190808311610a93575b50505050509050610b84565b60036000838152602001908152602001600020805480602002602001604051908101604052809291908181526020018280548015610b7c57602002820191906000526020600020905b8160009054906101000a900473ffffffffffffffffffffffffffffffffffffffff1673ffffffffffffffffffffffffffffffffffffffff1681526020019060010190808311610b32575b505050505090505b919050565b60606000600260003373ffffffffffffffffffffffffffffffffffffffff1673ffffffffffffffffffffffffffffffffffffffff168152602001908152602001600020541415610c0e576040517f08c379a0000000000000000000000000000000000000000000000000000000008152600401610c05906126cf565b60405180910390fd5b60056000600260003373ffffffffffffffffffffffffffffffffffffffff1673ffffffffffffffffffffffffffffffffffffffff16815260200190815260200160002054815260200190815260200160002060009054906101000a900460ff1615610cae576040517f08c379a0000000000000000000000000000000000000000000000000000000008152600401610ca59061273b565b60405180910390fd5b600060068054610cbd9061240f565b90509050600060036000600260003373ffffffffffffffffffffffffffffffffffffffff1673ffffffffffffffffffffffffffffffffffffffff168152602001908152602001600020548152602001908152602001600020805480602002602001604051908101604052809291908181526020018280548015610d9557602002820191906000526020600020905b8160009054906101000a900473ffffffffffffffffffffffffffffffffffffffff1673ffffffffffffffffffffffffffffffffffffffff1681526020019060010190808311610d4b575b5050505050905080518214610ddf576040517f08c379a0000000000000000000000000000000000000000000000000000000008152600401610dd6906127a7565b60405180910390fd5b60005b81518160ff161015610ecc57600760009054906101000a900473ffffffffffffffffffffffffffffffffffffffff1673ffffffffffffffffffffffffffffffffffffffff1663eacabe14838360ff1681518110610e4257610e416127c7565b5b60200260200101516040518263ffffffff1660e01b8152600401610e66919061289d565b602060405180830381600087803b158015610e8057600080fd5b505af1158015610e94573d6000803e3d6000fd5b505050506040513d601f19601f82011682018060405250810190610eb891906128e0565b508080610ec490612949565b915050610de2565b50600160056000600260003373ffffffffffffffffffffffffffffffffffffffff1673ffffffffffffffffffffffffffffffffffffffff16815260200190815260200160002054815260200190815260200160002060006101000a81548160ff021916908315150217905550604051602001610f47906129ca565b6040516020818303038152906040529250505090565b6060600060036000848152602001908152602001600020805480602002602001604051908101604052809291908181526020018280548015610ff457602002820191906000526020600020905b8160009054906101000a900473ffffffffffffffffffffffffffffffffffffffff1673ffffffffffffffffffffffffffffffffffffffff1681526020019060010190808311610faa575b505050505090506000815167ffffffffffffffff811115611018576110176129df565b5b60405190808252806020026020018201604052801561104b57816020015b60608152602001906001900390816110365790505b50905060005b81518160ff1610156110b757611083838260ff1681518110611076576110756127c7565b5b602002602001015161148a565b828260ff1681518110611099576110986127c7565b5b602002602001018190525080806110af90612949565b915050611051565b508092505050919050565b600460003373ffffffffffffffffffffffffffffffffffffffff1673ffffffffffffffffffffffffffffffffffffffff16815260200190815260200160002060009054906101000a900460ff1661114e576040517f08c379a000000000000000000000000000000000000000000000000000000000815260040161114590612a5a565b60405180910390fd5b6000600260003373ffffffffffffffffffffffffffffffffffffffff1673ffffffffffffffffffffffffffffffffffffffff1681526020019081526020016000205414156111d1576040517f08c379a00000000000000000000000000000000000000000000000000000000081526004016111c8906126cf565b60405180910390fd5b60056000600260003373ffffffffffffffffffffffffffffffffffffffff1673ffffffffffffffffffffffffffffffffffffffff16815260200190815260200160002054815260200190815260200160002060009054906101000a900460ff1615611271576040517f08c379a000000000000000000000000000000000000000000000000000000000815260040161126890612ac6565b60405180910390fd5b600060036000600260003373ffffffffffffffffffffffffffffffffffffffff1673ffffffffffffffffffffffffffffffffffffffff16815260200190815260200160002054815260200190815260200160002080548060200260200160405190810160405280929190818152602001828054801561134557602002820191906000526020600020905b8160009054906101000a900473ffffffffffffffffffffffffffffffffffffffff1673ffffffffffffffffffffffffffffffffffffffff16815260200190600101908083116112fb575b5050505050905060005b81518160ff1610156113e357600060046000848460ff1681518110611377576113766127c7565b5b602002602001015173ffffffffffffffffffffffffffffffffffffffff1673ffffffffffffffffffffffffffffffffffffffff16815260200190815260200160002060006101000a81548160ff02191690831515021790555080806113db90612949565b91505061134f565b5060036000600260003373ffffffffffffffffffffffffffffffffffffffff1673ffffffffffffffffffffffffffffffffffffffff16815260200190815260200160002054815260200190815260200160002060006114429190611f86565b6000600260003373ffffffffffffffffffffffffffffffffffffffff1673ffffffffffffffffffffffffffffffffffffffff1681526020019081526020016000208190555050565b6060611520826006805461149d9061240f565b80601f01602080910402602001604051908101604052809291908181526020018280546114c99061240f565b80156115165780601f106114eb57610100808354040283529160200191611516565b820191906000526020600020905b8154815290600101906020018083116114f957829003601f168201915b505050505061168d565b9050919050565b6000600360008381526020019081526020016000208054806020026020016040519081016040528092919081815260200182805480156115bc57602002820191906000526020600020905b8160009054906101000a900473ffffffffffffffffffffffffffffffffffffffff1673ffffffffffffffffffffffffffffffffffffffff1681526020019060010190808311611572575b5050505050905060005b81518160ff161015611663576115db8461148a565b80519060200120611608838360ff16815181106115fb576115fa6127c7565b5b602002602001015161148a565b805190602001201415611650576040517f08c379a000000000000000000000000000000000000000000000000000000000815260040161164790612b32565b60405180910390fd5b808061165b90612949565b9150506115c6565b50505050565b6001816000016000828254019250508190555050565b600081600001549050919050565b606060008373ffffffffffffffffffffffffffffffffffffffff1660001b9050600060116018836013602081106116c7576116c66127c7565b5b1a60f81b60f81c60ff166116db9190612b52565b6116e59190612bdb565b90506000845161173b84601c60208110611702576117016127c7565b5b1a60f81b60f81c60028660196020811061171f5761171e6127c7565b5b1a60f81b60f81c6117309190612c0c565b60ff16856000611792565b6117459190612c3d565b9050848160ff168151811061175d5761175c6127c7565b5b602001015160f81c60f81b6040516020016117789190612cbb565b604051602081830303815290604052935050505092915050565b6000806004866117a29190612c0c565b60ff1690506000849050600082141561182157611818600087146117d257600a826117cd9190612ce0565b6117e0565b600a826117df9190612d74565b5b8560ff166117ee9190612e08565b828660ff1660646117ff9190612d74565b6118099190612e08565b6118139190612ce0565b6119dd565b925050506119d5565b60018214156118965761188d6000871461184757601e826118429190612ce0565b611855565b601e826118549190612d74565b5b8560ff166118639190612e08565b828660ff1660646118749190612d74565b61187e9190612e08565b6118889190612ce0565b6119dd565b925050506119d5565b600282141561191b57611912600087146118bc576032826118b79190612ce0565b6118ca565b6032826118c99190612d74565b5b6118d68660ff16611a52565b6118e09190612e08565b826118ed8760ff16611a52565b60646118f99190612d74565b6119039190612e08565b61190d9190612ce0565b6119dd565b925050506119d5565b6119d0601e60808960ff1611611932576000611935565b60015b60ff166000891461194757603c611969565b7fffffffffffffffffffffffffffffffffffffffffffffffffffffffffffffffc45b6119739190612e08565b8361197e9190612ce0565b6119889190612ce0565b6119948660ff16611a52565b61199e9190612e08565b826119ab8760ff16611a52565b60646119b79190612d74565b6119c19190612e08565b6119cb9190612ce0565b6119dd565b925050505b949350505050565b6000606482816119f0576119ef612bac565b5b05915060008212611a15576101688281611a0d57611a0c612bac565b5b069050611a4d565b610168827fffffffffffffffffffffffffffffffffffffffffffffffffffffffffffffffff0281611a4957611a48612bac565b5b0690505b919050565b6000600d8261ffff161015611a6a5760009050611f81565b60118261ffff161015611a805760019050611f81565b60138261ffff161015611a965760029050611f81565b60158261ffff161015611aac5760039050611f81565b60178261ffff161015611ac25760049050611f81565b60188261ffff161015611ad85760059050611f81565b60198261ffff161015611aee5760069050611f81565b601b8261ffff161015611b045760079050611f81565b601c8261ffff161015611b1a5760089050611f81565b601d8261ffff161015611b305760099050611f81565b601e8261ffff161015611b4657600a9050611f81565b601f8261ffff161015611b5c57600b9050611f81565b60208261ffff161015611b7257600d9050611f81565b60218261ffff161015611b8857600e9050611f81565b60228261ffff161015611b9e57600f9050611f81565b60238261ffff161015611bb45760119050611f81565b60248261ffff161015611bca5760129050611f81565b60258261ffff161015611be05760149050611f81565b60268261ffff161015611bf65760159050611f81565b60278261ffff161015611c0c5760179050611f81565b60288261ffff161015611c225760199050611f81565b60298261ffff161015611c3857601b9050611f81565b602a8261ffff161015611c4e57601d9050611f81565b602b8261ffff161015611c6457601f9050611f81565b602c8261ffff161015611c7a5760229050611f81565b602d8261ffff161015611c905760249050611f81565b602e8261ffff161015611ca65760269050611f81565b602f8261ffff161015611cbc5760299050611f81565b60308261ffff161015611cd257602c9050611f81565b60318261ffff161015611ce857602f9050611f81565b60328261ffff161015611cfe5760329050611f81565b60338261ffff161015611d145760349050611f81565b60348261ffff161015611d2a5760379050611f81565b60358261ffff161015611d4057603a9050611f81565b60368261ffff161015611d5657603d9050611f81565b60378261ffff161015611d6c57603f9050611f81565b60388261ffff161015611d825760419050611f81565b60398261ffff161015611d985760449050611f81565b603a8261ffff161015611dae5760469050611f81565b603b8261ffff161015611dc45760489050611f81565b603c8261ffff161015611dda57604a9050611f81565b603d8261ffff161015611df057604c9050611f81565b603e8261ffff161015611e0657604e9050611f81565b603f8261ffff161015611e1c57604f9050611f81565b60408261ffff161015611e325760519050611f81565b60418261ffff161015611e485760529050611f81565b60428261ffff161015611e5e5760549050611f81565b60438261ffff161015611e745760559050611f81565b60448261ffff161015611e8a5760569050611f81565b60458261ffff161015611ea05760589050611f81565b60468261ffff161015611eb65760599050611f81565b60478261ffff161015611ecc57605a9050611f81565b60488261ffff161015611ee257605b9050611f81565b604a8261ffff161015611ef857605c9050611f81565b604b8261ffff161015611f0e57605d9050611f81565b604c8261ffff161015611f2457605e9050611f81565b604e8261ffff161015611f3a57605f9050611f81565b60508261ffff161015611f505760609050611f81565b60528261ffff161015611f665760619050611f81565b60568261ffff161015611f7c5760629050611f81565b606390505b919050565b5080546000825590600052602060002090810190611fa49190611fa7565b50565b5b80821115611fc0576000816000905550600101611fa8565b5090565b600080fd5b6000819050919050565b611fdc81611fc9565b8114611fe757600080fd5b50565b600081359050611ff981611fd3565b92915050565b60006020828403121561201557612014611fc4565b5b600061202384828501611fea565b91505092915050565b60008115159050919050565b6120418161202c565b82525050565b600060208201905061205c6000830184612038565b92915050565b600073ffffffffffffffffffffffffffffffffffffffff82169050919050565b600061208d82612062565b9050919050565b61209d81612082565b81146120a857600080fd5b50565b6000813590506120ba81612094565b92915050565b6000602082840312156120d6576120d5611fc4565b5b60006120e4848285016120ab565b91505092915050565b6120f681611fc9565b82525050565b600060208201905061211160008301846120ed565b92915050565b600081519050919050565b600082825260208201905092915050565b6000819050602082019050919050565b61214c81612082565b82525050565b600061215e8383612143565b60208301905092915050565b6000602082019050919050565b600061218282612117565b61218c8185612122565b935061219783612133565b8060005b838110156121c85781516121af8882612152565b97506121ba8361216a565b92505060018101905061219b565b5085935050505092915050565b600060208201905081810360008301526121ef8184612177565b905092915050565b600081519050919050565b600082825260208201905092915050565b60005b83811015612231578082015181840152602081019050612216565b83811115612240576000848401525b50505050565b6000601f19601f8301169050919050565b6000612262826121f7565b61226c8185612202565b935061227c818560208601612213565b61228581612246565b840191505092915050565b600060208201905081810360008301526122aa8184612257565b905092915050565b600081519050919050565b600082825260208201905092915050565b6000819050602082019050919050565b600082825260208201905092915050565b60006122fa826121f7565b61230481856122de565b9350612314818560208601612213565b61231d81612246565b840191505092915050565b600061233483836122ef565b905092915050565b6000602082019050919050565b6000612354826122b2565b61235e81856122bd565b935083602082028501612370856122ce565b8060005b858110156123ac578484038952815161238d8582612328565b94506123988361233c565b925060208a01995050600181019050612374565b50829750879550505050505092915050565b600060208201905081810360008301526123d88184612349565b905092915050565b7f4e487b7100000000000000000000000000000000000000000000000000000000600052602260045260246000fd5b6000600282049050600182168061242757607f821691505b6020821081141561243b5761243a6123e0565b5b50919050565b7f616c726561647920696e2067726f7570206f722066756c6c206d656d6265727360008201527f2e00000000000000000000000000000000000000000000000000000000000000602082015250565b600061249d602183612202565b91506124a882612441565b604082019050919050565b600060208201905081810360008301526124cc81612490565b9050919050565b7f6578697374206f776e2067726f75702e00000000000000000000000000000000600082015250565b6000612509601083612202565b9150612514826124d3565b602082019050919050565b60006020820190508181036000830152612538816124fc565b9050919050565b7f6e6f2067726f7570206f722066756c6c206d656d626572732e00000000000000600082015250565b6000612575601983612202565b91506125808261253f565b602082019050919050565b600060208201905081810360008301526125a481612568565b9050919050565b7f616c726561647920696e2067726f75702e000000000000000000000000000000600082015250565b60006125e1601183612202565b91506125ec826125ab565b602082019050919050565b60006020820190508181036000830152612610816125d4565b9050919050565b7f67726f75702065786973742e0000000000000000000000000000000000000000600082015250565b600061264d600c83612202565b915061265882612617565b602082019050919050565b6000602082019050818103600083015261267c81612640565b9050919050565b7f6e6f2067726f75702e0000000000000000000000000000000000000000000000600082015250565b60006126b9600983612202565b91506126c482612683565b602082019050919050565b600060208201905081810360008301526126e8816126ac565b9050919050565b7f616c726561647920636c61696d207265776172642e0000000000000000000000600082015250565b6000612725601583612202565b9150612730826126ef565b602082019050919050565b6000602082019050818103600083015261275481612718565b9050919050565b7f6e6f7420656e6f756768206c6574746572730000000000000000000000000000600082015250565b6000612791601283612202565b915061279c8261275b565b602082019050919050565b600060208201905081810360008301526127c081612784565b9050919050565b7f4e487b7100000000000000000000000000000000000000000000000000000000600052603260045260246000fd5b6127ff81612082565b82525050565b7f68747470733a2f2f6261667962656961636b72646f77357537717a717567657860008201527f637a757479766869326936706469616b6d7636756e6c6334626d69623363356f60208201527f7134612e697066732e696e667572612d697066732e696f2f0000000000000000604082015250565b6000612887605883612202565b915061289282612805565b606082019050919050565b60006040820190506128b260008301846127f6565b81810360208301526128c38161287a565b905092915050565b6000815190506128da81611fd3565b92915050565b6000602082840312156128f6576128f5611fc4565b5b6000612904848285016128cb565b91505092915050565b7f4e487b7100000000000000000000000000000000000000000000000000000000600052601160045260246000fd5b600060ff82169050919050565b60006129548261293c565b915060ff8214156129685761296761290d565b5b600182019050919050565b600081905092915050565b7f726577617264206861732064697374726962757465642e000000000000000000600082015250565b60006129b4601783612973565b91506129bf8261297e565b601782019050919050565b60006129d5826129a7565b9150819050919050565b7f4e487b7100000000000000000000000000000000000000000000000000000000600052604160045260246000fd5b7f6e6f7420696e2067726f75702e00000000000000000000000000000000000000600082015250565b6000612a44600d83612202565b9150612a4f82612a0e565b602082019050919050565b60006020820190508181036000830152612a7381612a37565b9050919050565b7f7265776172642067726f75702063616e2774206275726e2e0000000000000000600082015250565b6000612ab0601883612202565b9150612abb82612a7a565b602082019050919050565b60006020820190508181036000830152612adf81612aa3565b9050919050565b7f65786973742073616d65206c65747465722e0000000000000000000000000000600082015250565b6000612b1c601283612202565b9150612b2782612ae6565b602082019050919050565b60006020820190508181036000830152612b4b81612b0f565b9050919050565b6000612b5d82611fc9565b9150612b6883611fc9565b9250817fffffffffffffffffffffffffffffffffffffffffffffffffffffffffffffffff0483118215151615612ba157612ba061290d565b5b828202905092915050565b7f4e487b7100000000000000000000000000000000000000000000000000000000600052601260045260246000fd5b6000612be682611fc9565b9150612bf183611fc9565b925082612c0157612c00612bac565b5b828204905092915050565b6000612c178261293c565b9150612c228361293c565b925082612c3257612c31612bac565b5b828206905092915050565b6000612c4882611fc9565b9150612c5383611fc9565b925082612c6357612c62612bac565b5b828206905092915050565b60007fff0000000000000000000000000000000000000000000000000000000000000082169050919050565b6000819050919050565b612cb5612cb082612c6e565b612c9a565b82525050565b6000612cc78284612ca4565b60018201915081905092915050565b6000819050919050565b6000612ceb82612cd6565b9150612cf683612cd6565b9250817f7fffffffffffffffffffffffffffffffffffffffffffffffffffffffffffffff03831360008312151615612d3157612d3061290d565b5b817f8000000000000000000000000000000000000000000000000000000000000000038312600083121615612d6957612d6861290d565b5b828201905092915050565b6000612d7f82612cd6565b9150612d8a83612cd6565b9250827f800000000000000000000000000000000000000000000000000000000000000001821260008412151615612dc557612dc461290d565b5b827f7fffffffffffffffffffffffffffffffffffffffffffffffffffffffffffffff018213600084121615612dfd57612dfc61290d565b5b828203905092915050565b6000612e1382612cd6565b9150612e1e83612cd6565b9250827f7fffffffffffffffffffffffffffffffffffffffffffffffffffffffffffffff0482116000841360008413161615612e5d57612e5c61290d565b5b817f80000000000000000000000000000000000000000000000000000000000000000583126000841260008413161615612e9a57612e9961290d565b5b827f80000000000000000000000000000000000000000000000000000000000000000582126000841360008412161615612ed757612ed661290d565b5b827f7fffffffffffffffffffffffffffffffffffffffffffffffffffffffffffffff0582126000841260008412161615612f1457612f1361290d565b5b82820290509291505056fea2646970667358221220b220a179befb2359fdd827fbcab16962d6f961b7945e408ad48ea04729e5e22164736f6c63430008090033",
  "linkReferences": {},
  "deployedLinkReferences": {}
}