{
  "_format": "hh-sol-artifact-1",
  "contractName": "Commit",
  "sourceName": "contracts/ens-nft/Commit.sol",
  "abi": [
    {
      "inputs": [
        {
          "internalType": "uint256",
          "name": "_minCommitmentAge",
          "type": "uint256"
        },
        {
          "internalType": "uint256",
          "name": "_maxCommitmentAge",
          "type": "uint256"
        },
        {
          "internalType": "uint256",
          "name": "baseprice",
          "type": "uint256"
        },
        {
          "internalType": "uint256",
          "name": "premiumprice",
          "type": "uint256"
        },
        {
          "internalType": "contract Register",
          "name": "_base",
          "type": "address"
        }
      ],
      "stateMutability": "nonpayable",
      "type": "constructor"
    },
    {
      "anonymous": false,
      "inputs": [
        {
          "indexed": false,
          "internalType": "string",
          "name": "name",
          "type": "string"
        },
        {
          "indexed": true,
          "internalType": "bytes32",
          "name": "label",
          "type": "bytes32"
        },
        {
          "indexed": true,
          "internalType": "address",
          "name": "owner",
          "type": "address"
        },
        {
          "indexed": false,
          "internalType": "uint256",
          "name": "expires",
          "type": "uint256"
        }
      ],
      "name": "NameRegistered",
      "type": "event"
    },
    {
      "anonymous": false,
      "inputs": [
        {
          "indexed": false,
          "internalType": "string",
          "name": "name",
          "type": "string"
        },
        {
          "indexed": true,
          "internalType": "bytes32",
          "name": "label",
          "type": "bytes32"
        },
        {
          "indexed": false,
          "internalType": "uint256",
          "name": "expires",
          "type": "uint256"
        }
      ],
      "name": "NameRenewed",
      "type": "event"
    },
    {
      "anonymous": false,
      "inputs": [
        {
          "indexed": true,
          "internalType": "address",
          "name": "previousOwner",
          "type": "address"
        },
        {
          "indexed": true,
          "internalType": "address",
          "name": "newOwner",
          "type": "address"
        }
      ],
      "name": "OwnershipTransferred",
      "type": "event"
    },
    {
      "inputs": [],
      "name": "MIN_REGISTRATION_DURATION",
      "outputs": [
        {
          "internalType": "uint256",
          "name": "",
          "type": "uint256"
        }
      ],
      "stateMutability": "view",
      "type": "function"
    },
    {
      "inputs": [],
      "name": "base",
      "outputs": [
        {
          "internalType": "contract Register",
          "name": "",
          "type": "address"
        }
      ],
      "stateMutability": "view",
      "type": "function"
    },
    {
      "inputs": [
        {
          "internalType": "string",
          "name": "name",
          "type": "string"
        }
      ],
      "name": "byte_check_lable",
      "outputs": [
        {
          "internalType": "bytes32",
          "name": "",
          "type": "bytes32"
        }
      ],
      "stateMutability": "pure",
      "type": "function"
    },
    {
      "inputs": [
        {
          "internalType": "uint256",
          "name": "tokenId",
          "type": "uint256"
        }
      ],
      "name": "checkTokenName",
      "outputs": [
        {
          "internalType": "string",
          "name": "",
          "type": "string"
        }
      ],
      "stateMutability": "view",
      "type": "function"
    },
    {
      "inputs": [
        {
          "internalType": "bytes32",
          "name": "commitment",
          "type": "bytes32"
        }
      ],
      "name": "check_commit_time",
      "outputs": [
        {
          "internalType": "uint256",
          "name": "",
          "type": "uint256"
        }
      ],
      "stateMutability": "view",
      "type": "function"
    },
    {
      "inputs": [
        {
          "internalType": "string",
          "name": "name",
          "type": "string"
        }
      ],
      "name": "check_lable",
      "outputs": [
        {
          "internalType": "uint256",
          "name": "",
          "type": "uint256"
        }
      ],
      "stateMutability": "pure",
      "type": "function"
    },
    {
      "inputs": [],
      "name": "checkcurrent",
      "outputs": [
        {
          "internalType": "uint256",
          "name": "",
          "type": "uint256"
        }
      ],
      "stateMutability": "view",
      "type": "function"
    },
    {
      "inputs": [
        {
          "internalType": "bytes32",
          "name": "commitment",
          "type": "bytes32"
        }
      ],
      "name": "commit",
      "outputs": [],
      "stateMutability": "nonpayable",
      "type": "function"
    },
    {
      "inputs": [
        {
          "internalType": "bytes32",
          "name": "",
          "type": "bytes32"
        }
      ],
      "name": "commitments",
      "outputs": [
        {
          "internalType": "uint256",
          "name": "",
          "type": "uint256"
        }
      ],
      "stateMutability": "view",
      "type": "function"
    },
    {
      "inputs": [
        {
          "internalType": "string",
          "name": "name",
          "type": "string"
        },
        {
          "internalType": "address",
          "name": "owner",
          "type": "address"
        },
        {
          "internalType": "uint256",
          "name": "duration",
          "type": "uint256"
        },
        {
          "internalType": "uint256",
          "name": "secret",
          "type": "uint256"
        }
      ],
      "name": "makeCommitment",
      "outputs": [
        {
          "internalType": "bytes32",
          "name": "",
          "type": "bytes32"
        }
      ],
      "stateMutability": "view",
      "type": "function"
    },
    {
      "inputs": [],
      "name": "maxCommitmentAge",
      "outputs": [
        {
          "internalType": "uint256",
          "name": "",
          "type": "uint256"
        }
      ],
      "stateMutability": "view",
      "type": "function"
    },
    {
      "inputs": [],
      "name": "minCommitmentAge",
      "outputs": [
        {
          "internalType": "uint256",
          "name": "",
          "type": "uint256"
        }
      ],
      "stateMutability": "view",
      "type": "function"
    },
    {
      "inputs": [
        {
          "internalType": "string",
          "name": "name",
          "type": "string"
        }
      ],
      "name": "name_available",
      "outputs": [
        {
          "internalType": "bool",
          "name": "",
          "type": "bool"
        }
      ],
      "stateMutability": "view",
      "type": "function"
    },
    {
      "inputs": [],
      "name": "owner",
      "outputs": [
        {
          "internalType": "address",
          "name": "",
          "type": "address"
        }
      ],
      "stateMutability": "view",
      "type": "function"
    },
    {
      "inputs": [],
      "name": "price",
      "outputs": [
        {
          "internalType": "uint256",
          "name": "base",
          "type": "uint256"
        },
        {
          "internalType": "uint256",
          "name": "premium",
          "type": "uint256"
        }
      ],
      "stateMutability": "view",
      "type": "function"
    },
    {
      "inputs": [
        {
          "internalType": "string",
          "name": "name",
          "type": "string"
        },
        {
          "internalType": "address",
          "name": "owner",
          "type": "address"
        },
        {
          "internalType": "uint256",
          "name": "duration",
          "type": "uint256"
        },
        {
          "internalType": "uint256",
          "name": "secret",
          "type": "uint256"
        }
      ],
      "name": "register",
      "outputs": [
        {
          "internalType": "uint256",
          "name": "",
          "type": "uint256"
        }
      ],
      "stateMutability": "payable",
      "type": "function"
    },
    {
      "inputs": [
        {
          "internalType": "string",
          "name": "name",
          "type": "string"
        },
        {
          "internalType": "uint256",
          "name": "duration",
          "type": "uint256"
        }
      ],
      "name": "renew",
      "outputs": [
        {
          "internalType": "uint256",
          "name": "",
          "type": "uint256"
        }
      ],
      "stateMutability": "payable",
      "type": "function"
    },
    {
      "inputs": [],
      "name": "renounceOwnership",
      "outputs": [],
      "stateMutability": "nonpayable",
      "type": "function"
    },
    {
      "inputs": [
        {
          "internalType": "uint256",
          "name": "baseprice",
          "type": "uint256"
        },
        {
          "internalType": "uint256",
          "name": "premiumprice",
          "type": "uint256"
        }
      ],
      "name": "setfee",
      "outputs": [],
      "stateMutability": "nonpayable",
      "type": "function"
    },
    {
      "inputs": [
        {
          "internalType": "uint256",
          "name": "",
          "type": "uint256"
        }
      ],
      "name": "token_name",
      "outputs": [
        {
          "internalType": "string",
          "name": "",
          "type": "string"
        }
      ],
      "stateMutability": "view",
      "type": "function"
    },
    {
      "inputs": [
        {
          "internalType": "address",
          "name": "newOwner",
          "type": "address"
        }
      ],
      "name": "transferOwnership",
      "outputs": [],
      "stateMutability": "nonpayable",
      "type": "function"
    },
    {
      "inputs": [],
      "name": "withdraw",
      "outputs": [],
      "stateMutability": "nonpayable",
      "type": "function"
    }
  ],
  "bytecode": "0x60e06040523480156200001157600080fd5b506040516200271938038062002719833981810160405281019062000037919062000266565b620000576200004b620000e160201b60201c565b620000e960201b60201c565b8484116200006457600080fd5b84608081815250508360a08181525050600083118015620000855750600082115b6200008f57600080fd5b826001600001819055508160018001819055508073ffffffffffffffffffffffffffffffffffffffff1660c08173ffffffffffffffffffffffffffffffffffffffff16815250505050505050620002ee565b600033905090565b60008060009054906101000a900473ffffffffffffffffffffffffffffffffffffffff169050816000806101000a81548173ffffffffffffffffffffffffffffffffffffffff021916908373ffffffffffffffffffffffffffffffffffffffff1602179055508173ffffffffffffffffffffffffffffffffffffffff168173ffffffffffffffffffffffffffffffffffffffff167f8be0079c531659141344cd1fd0a4f28419497f9722a3daafe3b4186f6b6457e060405160405180910390a35050565b600080fd5b6000819050919050565b620001c781620001b2565b8114620001d357600080fd5b50565b600081519050620001e781620001bc565b92915050565b600073ffffffffffffffffffffffffffffffffffffffff82169050919050565b60006200021a82620001ed565b9050919050565b60006200022e826200020d565b9050919050565b620002408162000221565b81146200024c57600080fd5b50565b600081519050620002608162000235565b92915050565b600080600080600060a08688031215620002855762000284620001ad565b5b60006200029588828901620001d6565b9550506020620002a888828901620001d6565b9450506040620002bb88828901620001d6565b9350506060620002ce88828901620001d6565b9250506080620002e1888289016200024f565b9150509295509295909350565b60805160a05160c0516123d162000348600039600081816106550152818161088c01528181610bf50152610dc7015260008181610a1f01528181610fd901526112b90152600081816107c6015261123801526123d16000f3fe6080604052600436106101355760003560e01c8063a035b1fe116100ab578063e3c0e6161161006f578063e3c0e61614610413578063e513c2c314610450578063ecd4cff91461048d578063ee0b1b8c146104ca578063f14fcbc814610507578063f2fde38b1461053057610135565b8063a035b1fe1461031f578063acf1a8411461034b578063ce1e09c01461037b578063df5071f3146103a6578063e30e3657146103e357610135565b8063672727ab116100fd578063672727ab1461020d578063715018a61461024a578063839df945146102615780638a95b09f1461029e5780638d839ffe146102c95780638da5cb5b146102f457610135565b80631894be521461013a578063286d9471146101635780633ccfd60b146101a05780635001f3b5146101b757806350c400e9146101e2575b600080fd5b34801561014657600080fd5b50610161600480360381019061015c9190611495565b610559565b005b34801561016f57600080fd5b5061018a6004803603810190610185919061161b565b6105ec565b604051610197919061167d565b60405180910390f35b3480156101ac57600080fd5b506101b5610603565b005b3480156101c357600080fd5b506101cc610653565b6040516101d99190611717565b60405180910390f35b3480156101ee57600080fd5b506101f7610677565b6040516102049190611741565b60405180910390f35b34801561021957600080fd5b50610234600480360381019061022f919061175c565b61067f565b6040516102419190611811565b60405180910390f35b34801561025657600080fd5b5061025f61071f565b005b34801561026d57600080fd5b506102886004803603810190610283919061185f565b6107a7565b6040516102959190611741565b60405180910390f35b3480156102aa57600080fd5b506102b36107bf565b6040516102c09190611741565b60405180910390f35b3480156102d557600080fd5b506102de6107c4565b6040516102eb9190611741565b60405180910390f35b34801561030057600080fd5b506103096107e8565b60405161031691906118ad565b60405180910390f35b34801561032b57600080fd5b50610334610811565b6040516103429291906118c8565b60405180910390f35b61036560048036038101906103609190611951565b610823565b6040516103729190611741565b60405180910390f35b34801561038757600080fd5b50610390610a1d565b60405161039d9190611741565b60405180910390f35b3480156103b257600080fd5b506103cd60048036038101906103c891906119b1565b610a41565b6040516103da9190611741565b60405180910390f35b6103fd60048036038101906103f89190611a2a565b610a66565b60405161040a9190611741565b60405180910390f35b34801561041f57600080fd5b5061043a6004803603810190610435919061161b565b610db8565b6040516104479190611acd565b60405180910390f35b34801561045c57600080fd5b506104776004803603810190610472919061185f565b610e87565b6040516104849190611741565b60405180910390f35b34801561049957600080fd5b506104b460048036038101906104af9190611ae8565b610ea4565b6040516104c1919061167d565b60405180910390f35b3480156104d657600080fd5b506104f160048036038101906104ec919061175c565b610f31565b6040516104fe9190611811565b60405180910390f35b34801561051357600080fd5b5061052e6004803603810190610529919061185f565b610fd6565b005b34801561053c57600080fd5b5061055760048036038101906105529190611b6b565b611071565b005b610561611169565b73ffffffffffffffffffffffffffffffffffffffff1661057f6107e8565b73ffffffffffffffffffffffffffffffffffffffff16146105d5576040517f08c379a00000000000000000000000000000000000000000000000000000000081526004016105cc90611be4565b60405180910390fd5b816001600001819055508060018001819055505050565b6000818051906020012060001c60001b9050919050565b61060b6107e8565b73ffffffffffffffffffffffffffffffffffffffff166108fc479081150290604051600060405180830381858888f19350505050158015610650573d6000803e3d6000fd5b50565b7f000000000000000000000000000000000000000000000000000000000000000081565b600042905090565b6004602052806000526040600020600091509050805461069e90611c33565b80601f01602080910402602001604051908101604052809291908181526020018280546106ca90611c33565b80156107175780601f106106ec57610100808354040283529160200191610717565b820191906000526020600020905b8154815290600101906020018083116106fa57829003601f168201915b505050505081565b610727611169565b73ffffffffffffffffffffffffffffffffffffffff166107456107e8565b73ffffffffffffffffffffffffffffffffffffffff161461079b576040517f08c379a000000000000000000000000000000000000000000000000000000000815260040161079290611be4565b60405180910390fd5b6107a56000611171565b565b60036020528060005260406000206000915090505481565b600181565b7f000000000000000000000000000000000000000000000000000000000000000081565b60008060009054906101000a900473ffffffffffffffffffffffffffffffffffffffff16905090565b60018060000154908060010154905082565b6000808484604051610836929190611c95565b60405180910390209050600160000154341015610888576040517f08c379a000000000000000000000000000000000000000000000000000000000815260040161087f90611d20565b60405180910390fd5b60007f000000000000000000000000000000000000000000000000000000000000000073ffffffffffffffffffffffffffffffffffffffff1663c475abff8360001c866040518363ffffffff1660e01b81526004016108e89291906118c8565b602060405180830381600087803b15801561090257600080fd5b505af1158015610916573d6000803e3d6000fd5b505050506040513d601f19601f8201168201806040525081019061093a9190611d55565b905083600180015461094c9190611db1565b60016000015461095c9190611e0b565b3411156109d5573373ffffffffffffffffffffffffffffffffffffffff166108fc85600180015461098d9190611db1565b6001600001543461099e9190611e61565b6109a89190611e61565b9081150290604051600060405180830381858888f193505050501580156109d3573d6000803e3d6000fd5b505b817f93bc1a84707231b1d9552157299797c64a1a8c5bc79f05153716630c9c4936fc878784604051610a0993929190611ec2565b60405180910390a280925050509392505050565b7f000000000000000000000000000000000000000000000000000000000000000081565b60008282604051610a53929190611c95565b604051809103902060001c905092915050565b60006003868690501015610aaf576040517f08c379a0000000000000000000000000000000000000000000000000000000008152600401610aa690611f40565b60405180910390fd5b60008686604051610ac1929190611c95565b604051809103902090508686600460008460001c81526020019081526020016000209190610af09291906113a8565b50836001800154610b019190611db1565b600160000154610b119190611e0b565b341015610b53576040517f08c379a0000000000000000000000000000000000000000000000000000000008152600401610b4a90611fac565b60405180910390fd5b610bf187878080601f016020809104026020016040519081016040528093929190818152602001838380828437600081840152601f19601f8201169050808301925050505050505085610bec8a8a8080601f016020809104026020016040519081016040528093929190818152602001838380828437600081840152601f19601f82011690508083019250505050505050898989610ea4565b611235565b60007f000000000000000000000000000000000000000000000000000000000000000073ffffffffffffffffffffffffffffffffffffffff1663fca247ac8360001c88886040518463ffffffff1660e01b8152600401610c5393929190611fcc565b602060405180830381600087803b158015610c6d57600080fd5b505af1158015610c81573d6000803e3d6000fd5b505050506040513d601f19601f82011682018060405250810190610ca59190611d55565b9050846001800154610cb79190611db1565b600160000154610cc79190611e0b565b341115610d40573373ffffffffffffffffffffffffffffffffffffffff166108fc866001800154610cf89190611db1565b600160000154610d089190611e0b565b34610d139190611e61565b9081150290604051600060405180830381858888f19350505050158015610d3e573d6000803e3d6000fd5b505b8573ffffffffffffffffffffffffffffffffffffffff168888604051610d67929190611c95565b60405180910390207f0667086d08417333ce63f40d5bc2ef6fd330e25aaaf317b7c489541f8fe600fa8a8a85604051610da293929190611ec2565b60405180910390a3809250505095945050505050565b600080828051906020012090507f000000000000000000000000000000000000000000000000000000000000000073ffffffffffffffffffffffffffffffffffffffff166396e494e88260001c6040518263ffffffff1660e01b8152600401610e219190611741565b60206040518083038186803b158015610e3957600080fd5b505afa158015610e4d573d6000803e3d6000fd5b505050506040513d601f19601f82011682018060405250810190610e71919061202f565b8015610e7f57506003835110155b915050919050565b600060036000838152602001908152602001600020549050919050565b60008085805190602001209050610eba86610db8565b610ef9576040517f08c379a0000000000000000000000000000000000000000000000000000000008152600401610ef0906120a8565b60405180910390fd5b80858585604051602001610f1094939291906120c8565b60405160208183030381529060405280519060200120915050949350505050565b6060600460008381526020019081526020016000208054610f5190611c33565b80601f0160208091040260200160405190810160405280929190818152602001828054610f7d90611c33565b8015610fca5780601f10610f9f57610100808354040283529160200191610fca565b820191906000526020600020905b815481529060010190602001808311610fad57829003601f168201915b50505050509050919050565b427f000000000000000000000000000000000000000000000000000000000000000060036000848152602001908152602001600020546110169190611e0b565b10611056576040517f08c379a000000000000000000000000000000000000000000000000000000000815260040161104d90612159565b60405180910390fd5b42600360008381526020019081526020016000208190555050565b611079611169565b73ffffffffffffffffffffffffffffffffffffffff166110976107e8565b73ffffffffffffffffffffffffffffffffffffffff16146110ed576040517f08c379a00000000000000000000000000000000000000000000000000000000081526004016110e490611be4565b60405180910390fd5b600073ffffffffffffffffffffffffffffffffffffffff168173ffffffffffffffffffffffffffffffffffffffff16141561115d576040517f08c379a0000000000000000000000000000000000000000000000000000000008152600401611154906121eb565b60405180910390fd5b61116681611171565b50565b600033905090565b60008060009054906101000a900473ffffffffffffffffffffffffffffffffffffffff169050816000806101000a81548173ffffffffffffffffffffffffffffffffffffffff021916908373ffffffffffffffffffffffffffffffffffffffff1602179055508173ffffffffffffffffffffffffffffffffffffffff168173ffffffffffffffffffffffffffffffffffffffff167f8be0079c531659141344cd1fd0a4f28419497f9722a3daafe3b4186f6b6457e060405160405180910390a35050565b427f000000000000000000000000000000000000000000000000000000000000000060036000848152602001908152602001600020546112759190611e0b565b11156112b6576040517f08c379a00000000000000000000000000000000000000000000000000000000081526004016112ad9061227d565b60405180910390fd5b427f000000000000000000000000000000000000000000000000000000000000000060036000848152602001908152602001600020546112f69190611e0b565b11611336576040517f08c379a000000000000000000000000000000000000000000000000000000000815260040161132d9061230f565b60405180910390fd5b61133f83610db8565b61137e576040517f08c379a00000000000000000000000000000000000000000000000000000000081526004016113759061237b565b60405180910390fd5b600360008281526020019081526020016000206000905560018210156113a357600080fd5b505050565b8280546113b490611c33565b90600052602060002090601f0160209004810192826113d6576000855561141d565b82601f106113ef57803560ff191683800117855561141d565b8280016001018555821561141d579182015b8281111561141c578235825591602001919060010190611401565b5b50905061142a919061142e565b5090565b5b8082111561144757600081600090555060010161142f565b5090565b6000604051905090565b600080fd5b600080fd5b6000819050919050565b6114728161145f565b811461147d57600080fd5b50565b60008135905061148f81611469565b92915050565b600080604083850312156114ac576114ab611455565b5b60006114ba85828601611480565b92505060206114cb85828601611480565b9150509250929050565b600080fd5b600080fd5b6000601f19601f8301169050919050565b7f4e487b7100000000000000000000000000000000000000000000000000000000600052604160045260246000fd5b611528826114df565b810181811067ffffffffffffffff82111715611547576115466114f0565b5b80604052505050565b600061155a61144b565b9050611566828261151f565b919050565b600067ffffffffffffffff821115611586576115856114f0565b5b61158f826114df565b9050602081019050919050565b82818337600083830152505050565b60006115be6115b98461156b565b611550565b9050828152602081018484840111156115da576115d96114da565b5b6115e584828561159c565b509392505050565b600082601f830112611602576116016114d5565b5b81356116128482602086016115ab565b91505092915050565b60006020828403121561163157611630611455565b5b600082013567ffffffffffffffff81111561164f5761164e61145a565b5b61165b848285016115ed565b91505092915050565b6000819050919050565b61167781611664565b82525050565b6000602082019050611692600083018461166e565b92915050565b600073ffffffffffffffffffffffffffffffffffffffff82169050919050565b6000819050919050565b60006116dd6116d86116d384611698565b6116b8565b611698565b9050919050565b60006116ef826116c2565b9050919050565b6000611701826116e4565b9050919050565b611711816116f6565b82525050565b600060208201905061172c6000830184611708565b92915050565b61173b8161145f565b82525050565b60006020820190506117566000830184611732565b92915050565b60006020828403121561177257611771611455565b5b600061178084828501611480565b91505092915050565b600081519050919050565b600082825260208201905092915050565b60005b838110156117c35780820151818401526020810190506117a8565b838111156117d2576000848401525b50505050565b60006117e382611789565b6117ed8185611794565b93506117fd8185602086016117a5565b611806816114df565b840191505092915050565b6000602082019050818103600083015261182b81846117d8565b905092915050565b61183c81611664565b811461184757600080fd5b50565b60008135905061185981611833565b92915050565b60006020828403121561187557611874611455565b5b60006118838482850161184a565b91505092915050565b600061189782611698565b9050919050565b6118a78161188c565b82525050565b60006020820190506118c2600083018461189e565b92915050565b60006040820190506118dd6000830185611732565b6118ea6020830184611732565b9392505050565b600080fd5b600080fd5b60008083601f840112611911576119106114d5565b5b8235905067ffffffffffffffff81111561192e5761192d6118f1565b5b60208301915083600182028301111561194a576119496118f6565b5b9250929050565b60008060006040848603121561196a57611969611455565b5b600084013567ffffffffffffffff8111156119885761198761145a565b5b611994868287016118fb565b935093505060206119a786828701611480565b9150509250925092565b600080602083850312156119c8576119c7611455565b5b600083013567ffffffffffffffff8111156119e6576119e561145a565b5b6119f2858286016118fb565b92509250509250929050565b611a078161188c565b8114611a1257600080fd5b50565b600081359050611a24816119fe565b92915050565b600080600080600060808688031215611a4657611a45611455565b5b600086013567ffffffffffffffff811115611a6457611a6361145a565b5b611a70888289016118fb565b95509550506020611a8388828901611a15565b9350506040611a9488828901611480565b9250506060611aa588828901611480565b9150509295509295909350565b60008115159050919050565b611ac781611ab2565b82525050565b6000602082019050611ae26000830184611abe565b92915050565b60008060008060808587031215611b0257611b01611455565b5b600085013567ffffffffffffffff811115611b2057611b1f61145a565b5b611b2c878288016115ed565b9450506020611b3d87828801611a15565b9350506040611b4e87828801611480565b9250506060611b5f87828801611480565b91505092959194509250565b600060208284031215611b8157611b80611455565b5b6000611b8f84828501611a15565b91505092915050565b7f4f776e61626c653a2063616c6c6572206973206e6f7420746865206f776e6572600082015250565b6000611bce602083611794565b9150611bd982611b98565b602082019050919050565b60006020820190508181036000830152611bfd81611bc1565b9050919050565b7f4e487b7100000000000000000000000000000000000000000000000000000000600052602260045260246000fd5b60006002820490506001821680611c4b57607f821691505b60208210811415611c5f57611c5e611c04565b5b50919050565b600081905092915050565b6000611c7c8385611c65565b9350611c8983858461159c565b82840190509392505050565b6000611ca2828486611c70565b91508190509392505050565b7f455448436f6e74726f6c6c65723a204e6f7420656e6f7567682045746865722060008201527f70726f766964656420666f722072656e6577616c000000000000000000000000602082015250565b6000611d0a603483611794565b9150611d1582611cae565b604082019050919050565b60006020820190508181036000830152611d3981611cfd565b9050919050565b600081519050611d4f81611469565b92915050565b600060208284031215611d6b57611d6a611455565b5b6000611d7984828501611d40565b91505092915050565b7f4e487b7100000000000000000000000000000000000000000000000000000000600052601160045260246000fd5b6000611dbc8261145f565b9150611dc78361145f565b9250817fffffffffffffffffffffffffffffffffffffffffffffffffffffffffffffffff0483118215151615611e0057611dff611d82565b5b828202905092915050565b6000611e168261145f565b9150611e218361145f565b9250827fffffffffffffffffffffffffffffffffffffffffffffffffffffffffffffffff03821115611e5657611e55611d82565b5b828201905092915050565b6000611e6c8261145f565b9150611e778361145f565b925082821015611e8a57611e89611d82565b5b828203905092915050565b6000611ea18385611794565b9350611eae83858461159c565b611eb7836114df565b840190509392505050565b60006040820190508181036000830152611edd818587611e95565b9050611eec6020830184611732565b949350505050565b7f696c6c6567616c206e616d650000000000000000000000000000000000000000600082015250565b6000611f2a600c83611794565b9150611f3582611ef4565b602082019050919050565b60006020820190508181036000830152611f5981611f1d565b9050919050565b7f204e6f7420656e6f7567682065746865722070726f7669646564000000000000600082015250565b6000611f96601a83611794565b9150611fa182611f60565b602082019050919050565b60006020820190508181036000830152611fc581611f89565b9050919050565b6000606082019050611fe16000830186611732565b611fee602083018561189e565b611ffb6040830184611732565b949350505050565b61200c81611ab2565b811461201757600080fd5b50565b60008151905061202981612003565b92915050565b60006020828403121561204557612044611455565b5b60006120538482850161201a565b91505092915050565b7f54686973206e616d6520686173206265656e20616c7265616479206578697374600082015250565b6000612092602083611794565b915061209d8261205c565b602082019050919050565b600060208201905081810360008301526120c181612085565b9050919050565b60006080820190506120dd600083018761166e565b6120ea602083018661189e565b6120f76040830185611732565b6121046060830184611732565b95945050505050565b7f5468697320636f6d6d69746d656e7420686173206e6f74206578706972656400600082015250565b6000612143601f83611794565b915061214e8261210d565b602082019050919050565b6000602082019050818103600083015261217281612136565b9050919050565b7f4f776e61626c653a206e6577206f776e657220697320746865207a65726f206160008201527f6464726573730000000000000000000000000000000000000000000000000000602082015250565b60006121d5602683611794565b91506121e082612179565b604082019050919050565b60006020820190508181036000830152612204816121c8565b9050919050565b7f436f6d6d69746d656e74206973206e6f742076616c69642c20506c656173652060008201527f7761697421000000000000000000000000000000000000000000000000000000602082015250565b6000612267602583611794565b91506122728261220b565b604082019050919050565b600060208201905081810360008301526122968161225a565b9050919050565b7f436f6d6d69746d656e742068617320657870697265642c506c6561736520636f60008201527f6d6d697420616761696e21000000000000000000000000000000000000000000602082015250565b60006122f9602b83611794565b91506123048261229d565b604082019050919050565b60006020820190508181036000830152612328816122ec565b9050919050565b7f4e616d6520697320756e617661696c61626c6500000000000000000000000000600082015250565b6000612365601383611794565b91506123708261232f565b602082019050919050565b6000602082019050818103600083015261239481612358565b905091905056fea2646970667358221220cd365bfd209a11aea84e0c84b3a82368732f3794a58e8af1182555aad1d26a0864736f6c63430008090033",
  "linkReferences": {},
  "deployedLinkReferences": {}
}