{
  "_format": "hh-sol-artifact-1",
  "contractName": "InitialAccount",
  "sourceName": "contracts/ednpoint/InitialAccount.sol",
  "abi": [
    {
      "inputs": [
        {
          "internalType": "address",
          "name": "_AdminInETH",
          "type": "address"
        }
      ],
      "stateMutability": "nonpayable",
      "type": "constructor"
    },
    {
      "anonymous": false,
      "inputs": [
        {
          "indexed": true,
          "internalType": "address",
          "name": "previousOwner",
          "type": "address"
        },
        {
          "indexed": true,
          "internalType": "address",
          "name": "newOwner",
          "type": "address"
        }
      ],
      "name": "OwnershipTransferred",
      "type": "event"
    },
    {
      "inputs": [],
      "name": "AdminInETH",
      "outputs": [
        {
          "internalType": "contract IERC721A",
          "name": "",
          "type": "address"
        }
      ],
      "stateMutability": "view",
      "type": "function"
    },
    {
      "inputs": [
        {
          "internalType": "uint256",
          "name": "tokenId",
          "type": "uint256"
        },
        {
          "internalType": "address",
          "name": "to",
          "type": "address"
        }
      ],
      "name": "claim",
      "outputs": [],
      "stateMutability": "nonpayable",
      "type": "function"
    },
    {
      "inputs": [],
      "name": "controller",
      "outputs": [
        {
          "internalType": "address",
          "name": "",
          "type": "address"
        }
      ],
      "stateMutability": "view",
      "type": "function"
    },
    {
      "inputs": [],
      "name": "owner",
      "outputs": [
        {
          "internalType": "address",
          "name": "",
          "type": "address"
        }
      ],
      "stateMutability": "view",
      "type": "function"
    },
    {
      "inputs": [],
      "name": "renounceOwnership",
      "outputs": [],
      "stateMutability": "nonpayable",
      "type": "function"
    },
    {
      "inputs": [
        {
          "internalType": "address",
          "name": "newOwner",
          "type": "address"
        }
      ],
      "name": "transferOwnership",
      "outputs": [],
      "stateMutability": "nonpayable",
      "type": "function"
    }
  ],
  "bytecode": "0x608060405234801561001057600080fd5b50604051610a29380380610a2983398181016040528101906100329190610205565b61004e6100436100d660201b60201c565b6100de60201b60201c565b80600160006101000a81548173ffffffffffffffffffffffffffffffffffffffff021916908373ffffffffffffffffffffffffffffffffffffffff16021790555080600260006101000a81548173ffffffffffffffffffffffffffffffffffffffff021916908373ffffffffffffffffffffffffffffffffffffffff16021790555050610232565b600033905090565b60008060009054906101000a900473ffffffffffffffffffffffffffffffffffffffff169050816000806101000a81548173ffffffffffffffffffffffffffffffffffffffff021916908373ffffffffffffffffffffffffffffffffffffffff1602179055508173ffffffffffffffffffffffffffffffffffffffff168173ffffffffffffffffffffffffffffffffffffffff167f8be0079c531659141344cd1fd0a4f28419497f9722a3daafe3b4186f6b6457e060405160405180910390a35050565b600080fd5b600073ffffffffffffffffffffffffffffffffffffffff82169050919050565b60006101d2826101a7565b9050919050565b6101e2816101c7565b81146101ed57600080fd5b50565b6000815190506101ff816101d9565b92915050565b60006020828403121561021b5761021a6101a2565b5b6000610229848285016101f0565b91505092915050565b6107e8806102416000396000f3fe608060405234801561001057600080fd5b50600436106100625760003560e01c80633e12094214610067578063715018a6146100855780638da5cb5b1461008f578063ddd5e1b2146100ad578063f2fde38b146100c9578063f77c4791146100e5575b600080fd5b61006f610103565b60405161007c9190610532565b60405180910390f35b61008d610129565b005b6100976101b1565b6040516100a4919061056e565b60405180910390f35b6100c760048036038101906100c291906105f0565b6101da565b005b6100e360048036038101906100de9190610630565b6102c9565b005b6100ed6103c1565b6040516100fa919061056e565b60405180910390f35b600160009054906101000a900473ffffffffffffffffffffffffffffffffffffffff1681565b6101316103e7565b73ffffffffffffffffffffffffffffffffffffffff1661014f6101b1565b73ffffffffffffffffffffffffffffffffffffffff16146101a5576040517f08c379a000000000000000000000000000000000000000000000000000000000815260040161019c906106ba565b60405180910390fd5b6101af60006103ef565b565b60008060009054906101000a900473ffffffffffffffffffffffffffffffffffffffff16905090565b600260009054906101000a900473ffffffffffffffffffffffffffffffffffffffff1673ffffffffffffffffffffffffffffffffffffffff163373ffffffffffffffffffffffffffffffffffffffff161461023457600080fd5b600160009054906101000a900473ffffffffffffffffffffffffffffffffffffffff1673ffffffffffffffffffffffffffffffffffffffff166323b872dd3083856040518463ffffffff1660e01b8152600401610293939291906106e9565b600060405180830381600087803b1580156102ad57600080fd5b505af11580156102c1573d6000803e3d6000fd5b505050505050565b6102d16103e7565b73ffffffffffffffffffffffffffffffffffffffff166102ef6101b1565b73ffffffffffffffffffffffffffffffffffffffff1614610345576040517f08c379a000000000000000000000000000000000000000000000000000000000815260040161033c906106ba565b60405180910390fd5b600073ffffffffffffffffffffffffffffffffffffffff168173ffffffffffffffffffffffffffffffffffffffff1614156103b5576040517f08c379a00000000000000000000000000000000000000000000000000000000081526004016103ac90610792565b60405180910390fd5b6103be816103ef565b50565b600260009054906101000a900473ffffffffffffffffffffffffffffffffffffffff1681565b600033905090565b60008060009054906101000a900473ffffffffffffffffffffffffffffffffffffffff169050816000806101000a81548173ffffffffffffffffffffffffffffffffffffffff021916908373ffffffffffffffffffffffffffffffffffffffff1602179055508173ffffffffffffffffffffffffffffffffffffffff168173ffffffffffffffffffffffffffffffffffffffff167f8be0079c531659141344cd1fd0a4f28419497f9722a3daafe3b4186f6b6457e060405160405180910390a35050565b600073ffffffffffffffffffffffffffffffffffffffff82169050919050565b6000819050919050565b60006104f86104f36104ee846104b3565b6104d3565b6104b3565b9050919050565b600061050a826104dd565b9050919050565b600061051c826104ff565b9050919050565b61052c81610511565b82525050565b60006020820190506105476000830184610523565b92915050565b6000610558826104b3565b9050919050565b6105688161054d565b82525050565b6000602082019050610583600083018461055f565b92915050565b600080fd5b6000819050919050565b6105a18161058e565b81146105ac57600080fd5b50565b6000813590506105be81610598565b92915050565b6105cd8161054d565b81146105d857600080fd5b50565b6000813590506105ea816105c4565b92915050565b6000806040838503121561060757610606610589565b5b6000610615858286016105af565b9250506020610626858286016105db565b9150509250929050565b60006020828403121561064657610645610589565b5b6000610654848285016105db565b91505092915050565b600082825260208201905092915050565b7f4f776e61626c653a2063616c6c6572206973206e6f7420746865206f776e6572600082015250565b60006106a460208361065d565b91506106af8261066e565b602082019050919050565b600060208201905081810360008301526106d381610697565b9050919050565b6106e38161058e565b82525050565b60006060820190506106fe600083018661055f565b61070b602083018561055f565b61071860408301846106da565b949350505050565b7f4f776e61626c653a206e6577206f776e657220697320746865207a65726f206160008201527f6464726573730000000000000000000000000000000000000000000000000000602082015250565b600061077c60268361065d565b915061078782610720565b604082019050919050565b600060208201905081810360008301526107ab8161076f565b905091905056fea26469706673582212204ae237ec86d7869bf60d169cf0c8946a0c4bff560eb53f595684ac01bed71bbb64736f6c63430008090033",
  "linkReferences": {},
  "deployedLinkReferences": {}
}