{
  "_format": "hh-sol-artifact-1",
  "contractName": "Register",
  "sourceName": "contracts/ens-nft/Register.sol",
  "abi": [
    {
      "inputs": [
        {
          "internalType": "contract NodeController",
          "name": "_nodecontroller",
          "type": "address"
        }
      ],
      "stateMutability": "nonpayable",
      "type": "constructor"
    },
    {
      "anonymous": false,
      "inputs": [
        {
          "indexed": true,
          "internalType": "address",
          "name": "owner",
          "type": "address"
        },
        {
          "indexed": true,
          "internalType": "address",
          "name": "approved",
          "type": "address"
        },
        {
          "indexed": true,
          "internalType": "uint256",
          "name": "tokenId",
          "type": "uint256"
        }
      ],
      "name": "Approval",
      "type": "event"
    },
    {
      "anonymous": false,
      "inputs": [
        {
          "indexed": true,
          "internalType": "address",
          "name": "owner",
          "type": "address"
        },
        {
          "indexed": true,
          "internalType": "address",
          "name": "operator",
          "type": "address"
        },
        {
          "indexed": false,
          "internalType": "bool",
          "name": "approved",
          "type": "bool"
        }
      ],
      "name": "ApprovalForAll",
      "type": "event"
    },
    {
      "anonymous": false,
      "inputs": [
        {
          "indexed": true,
          "internalType": "address",
          "name": "previousOwner",
          "type": "address"
        },
        {
          "indexed": true,
          "internalType": "address",
          "name": "newOwner",
          "type": "address"
        }
      ],
      "name": "OwnershipTransferred",
      "type": "event"
    },
    {
      "anonymous": false,
      "inputs": [
        {
          "indexed": true,
          "internalType": "address",
          "name": "from",
          "type": "address"
        },
        {
          "indexed": true,
          "internalType": "address",
          "name": "to",
          "type": "address"
        },
        {
          "indexed": true,
          "internalType": "uint256",
          "name": "tokenId",
          "type": "uint256"
        }
      ],
      "name": "Transfer",
      "type": "event"
    },
    {
      "inputs": [],
      "name": "GRACE_PERIOD",
      "outputs": [
        {
          "internalType": "uint256",
          "name": "",
          "type": "uint256"
        }
      ],
      "stateMutability": "view",
      "type": "function"
    },
    {
      "inputs": [
        {
          "internalType": "address",
          "name": "controller",
          "type": "address"
        }
      ],
      "name": "addController",
      "outputs": [],
      "stateMutability": "nonpayable",
      "type": "function"
    },
    {
      "inputs": [
        {
          "internalType": "address",
          "name": "to",
          "type": "address"
        },
        {
          "internalType": "uint256",
          "name": "tokenId",
          "type": "uint256"
        }
      ],
      "name": "approve",
      "outputs": [],
      "stateMutability": "nonpayable",
      "type": "function"
    },
    {
      "inputs": [
        {
          "internalType": "uint256",
          "name": "id",
          "type": "uint256"
        }
      ],
      "name": "available",
      "outputs": [
        {
          "internalType": "bool",
          "name": "",
          "type": "bool"
        }
      ],
      "stateMutability": "view",
      "type": "function"
    },
    {
      "inputs": [
        {
          "internalType": "address",
          "name": "owner",
          "type": "address"
        }
      ],
      "name": "balanceOf",
      "outputs": [
        {
          "internalType": "uint256",
          "name": "",
          "type": "uint256"
        }
      ],
      "stateMutability": "view",
      "type": "function"
    },
    {
      "inputs": [
        {
          "internalType": "uint256",
          "name": "id",
          "type": "uint256"
        }
      ],
      "name": "checkExpire",
      "outputs": [
        {
          "internalType": "uint256",
          "name": "",
          "type": "uint256"
        }
      ],
      "stateMutability": "view",
      "type": "function"
    },
    {
      "inputs": [
        {
          "internalType": "string",
          "name": "name",
          "type": "string"
        }
      ],
      "name": "check_node",
      "outputs": [
        {
          "internalType": "bytes32",
          "name": "",
          "type": "bytes32"
        }
      ],
      "stateMutability": "pure",
      "type": "function"
    },
    {
      "inputs": [],
      "name": "checkdefaultResolver",
      "outputs": [
        {
          "internalType": "address",
          "name": "",
          "type": "address"
        }
      ],
      "stateMutability": "view",
      "type": "function"
    },
    {
      "inputs": [
        {
          "internalType": "uint256",
          "name": "label",
          "type": "uint256"
        }
      ],
      "name": "checkduration",
      "outputs": [
        {
          "internalType": "uint256",
          "name": "",
          "type": "uint256"
        }
      ],
      "stateMutability": "view",
      "type": "function"
    },
    {
      "inputs": [
        {
          "internalType": "address",
          "name": "",
          "type": "address"
        }
      ],
      "name": "controllers",
      "outputs": [
        {
          "internalType": "bool",
          "name": "",
          "type": "bool"
        }
      ],
      "stateMutability": "view",
      "type": "function"
    },
    {
      "inputs": [],
      "name": "defaultResolver",
      "outputs": [
        {
          "internalType": "address",
          "name": "",
          "type": "address"
        }
      ],
      "stateMutability": "view",
      "type": "function"
    },
    {
      "inputs": [
        {
          "internalType": "uint256",
          "name": "tokenId",
          "type": "uint256"
        }
      ],
      "name": "getApproved",
      "outputs": [
        {
          "internalType": "address",
          "name": "",
          "type": "address"
        }
      ],
      "stateMutability": "view",
      "type": "function"
    },
    {
      "inputs": [
        {
          "internalType": "address",
          "name": "owner",
          "type": "address"
        },
        {
          "internalType": "address",
          "name": "operator",
          "type": "address"
        }
      ],
      "name": "isApprovedForAll",
      "outputs": [
        {
          "internalType": "bool",
          "name": "",
          "type": "bool"
        }
      ],
      "stateMutability": "view",
      "type": "function"
    },
    {
      "inputs": [
        {
          "internalType": "string",
          "name": "name",
          "type": "string"
        }
      ],
      "name": "makeNode",
      "outputs": [
        {
          "internalType": "bytes32",
          "name": "",
          "type": "bytes32"
        }
      ],
      "stateMutability": "pure",
      "type": "function"
    },
    {
      "inputs": [],
      "name": "name",
      "outputs": [
        {
          "internalType": "string",
          "name": "",
          "type": "string"
        }
      ],
      "stateMutability": "view",
      "type": "function"
    },
    {
      "inputs": [],
      "name": "nodecontroller",
      "outputs": [
        {
          "internalType": "contract NodeController",
          "name": "",
          "type": "address"
        }
      ],
      "stateMutability": "view",
      "type": "function"
    },
    {
      "inputs": [],
      "name": "owner",
      "outputs": [
        {
          "internalType": "address",
          "name": "",
          "type": "address"
        }
      ],
      "stateMutability": "view",
      "type": "function"
    },
    {
      "inputs": [
        {
          "internalType": "uint256",
          "name": "tokenId",
          "type": "uint256"
        }
      ],
      "name": "ownerOf",
      "outputs": [
        {
          "internalType": "address",
          "name": "",
          "type": "address"
        }
      ],
      "stateMutability": "view",
      "type": "function"
    },
    {
      "inputs": [
        {
          "internalType": "uint256",
          "name": "id",
          "type": "uint256"
        },
        {
          "internalType": "address",
          "name": "owner",
          "type": "address"
        }
      ],
      "name": "reclaim",
      "outputs": [],
      "stateMutability": "nonpayable",
      "type": "function"
    },
    {
      "inputs": [
        {
          "internalType": "uint256",
          "name": "id",
          "type": "uint256"
        },
        {
          "internalType": "address",
          "name": "owner",
          "type": "address"
        },
        {
          "internalType": "uint256",
          "name": "duration",
          "type": "uint256"
        }
      ],
      "name": "register",
      "outputs": [
        {
          "internalType": "uint256",
          "name": "",
          "type": "uint256"
        }
      ],
      "stateMutability": "nonpayable",
      "type": "function"
    },
    {
      "inputs": [
        {
          "internalType": "address",
          "name": "controller",
          "type": "address"
        }
      ],
      "name": "removeController",
      "outputs": [],
      "stateMutability": "nonpayable",
      "type": "function"
    },
    {
      "inputs": [
        {
          "internalType": "uint256",
          "name": "id",
          "type": "uint256"
        },
        {
          "internalType": "uint256",
          "name": "duration",
          "type": "uint256"
        }
      ],
      "name": "renew",
      "outputs": [
        {
          "internalType": "uint256",
          "name": "",
          "type": "uint256"
        }
      ],
      "stateMutability": "nonpayable",
      "type": "function"
    },
    {
      "inputs": [],
      "name": "renounceOwnership",
      "outputs": [],
      "stateMutability": "nonpayable",
      "type": "function"
    },
    {
      "inputs": [
        {
          "internalType": "address",
          "name": "from",
          "type": "address"
        },
        {
          "internalType": "address",
          "name": "to",
          "type": "address"
        },
        {
          "internalType": "uint256",
          "name": "tokenId",
          "type": "uint256"
        }
      ],
      "name": "safeTransferFrom",
      "outputs": [],
      "stateMutability": "nonpayable",
      "type": "function"
    },
    {
      "inputs": [
        {
          "internalType": "address",
          "name": "from",
          "type": "address"
        },
        {
          "internalType": "address",
          "name": "to",
          "type": "address"
        },
        {
          "internalType": "uint256",
          "name": "tokenId",
          "type": "uint256"
        },
        {
          "internalType": "bytes",
          "name": "_data",
          "type": "bytes"
        }
      ],
      "name": "safeTransferFrom",
      "outputs": [],
      "stateMutability": "nonpayable",
      "type": "function"
    },
    {
      "inputs": [
        {
          "internalType": "address",
          "name": "operator",
          "type": "address"
        },
        {
          "internalType": "bool",
          "name": "approved",
          "type": "bool"
        }
      ],
      "name": "setApprovalForAll",
      "outputs": [],
      "stateMutability": "nonpayable",
      "type": "function"
    },
    {
      "inputs": [
        {
          "internalType": "address",
          "name": "_defaultResolver",
          "type": "address"
        }
      ],
      "name": "setdefaultResolver",
      "outputs": [],
      "stateMutability": "nonpayable",
      "type": "function"
    },
    {
      "inputs": [
        {
          "internalType": "bytes4",
          "name": "interfaceId",
          "type": "bytes4"
        }
      ],
      "name": "supportsInterface",
      "outputs": [
        {
          "internalType": "bool",
          "name": "",
          "type": "bool"
        }
      ],
      "stateMutability": "view",
      "type": "function"
    },
    {
      "inputs": [],
      "name": "symbol",
      "outputs": [
        {
          "internalType": "string",
          "name": "",
          "type": "string"
        }
      ],
      "stateMutability": "view",
      "type": "function"
    },
    {
      "inputs": [
        {
          "internalType": "uint256",
          "name": "tokenId",
          "type": "uint256"
        }
      ],
      "name": "tokenURI",
      "outputs": [
        {
          "internalType": "string",
          "name": "",
          "type": "string"
        }
      ],
      "stateMutability": "view",
      "type": "function"
    },
    {
      "inputs": [
        {
          "internalType": "address",
          "name": "from",
          "type": "address"
        },
        {
          "internalType": "address",
          "name": "to",
          "type": "address"
        },
        {
          "internalType": "uint256",
          "name": "tokenId",
          "type": "uint256"
        }
      ],
      "name": "transferFrom",
      "outputs": [],
      "stateMutability": "nonpayable",
      "type": "function"
    },
    {
      "inputs": [
        {
          "internalType": "address",
          "name": "newOwner",
          "type": "address"
        }
      ],
      "name": "transferOwnership",
      "outputs": [],
      "stateMutability": "nonpayable",
      "type": "function"
    }
  ],
  "bytecode": "0x60806040523480156200001157600080fd5b50604051620041ae380380620041ae83398181016040528101906200003791906200033b565b6040518060400160405280600481526020017f73746172000000000000000000000000000000000000000000000000000000008152506040518060400160405280600481526020017f73746172000000000000000000000000000000000000000000000000000000008152508160009080519060200190620000bb9291906200020d565b508060019080519060200190620000d49291906200020d565b505050620000f7620000eb6200013f60201b60201c565b6200014760201b60201c565b80600760006101000a81548173ffffffffffffffffffffffffffffffffffffffff021916908373ffffffffffffffffffffffffffffffffffffffff16021790555050620003d2565b600033905090565b6000600660009054906101000a900473ffffffffffffffffffffffffffffffffffffffff16905081600660006101000a81548173ffffffffffffffffffffffffffffffffffffffff021916908373ffffffffffffffffffffffffffffffffffffffff1602179055508173ffffffffffffffffffffffffffffffffffffffff168173ffffffffffffffffffffffffffffffffffffffff167f8be0079c531659141344cd1fd0a4f28419497f9722a3daafe3b4186f6b6457e060405160405180910390a35050565b8280546200021b906200039c565b90600052602060002090601f0160209004810192826200023f57600085556200028b565b82601f106200025a57805160ff19168380011785556200028b565b828001600101855582156200028b579182015b828111156200028a5782518255916020019190600101906200026d565b5b5090506200029a91906200029e565b5090565b5b80821115620002b95760008160009055506001016200029f565b5090565b600080fd5b600073ffffffffffffffffffffffffffffffffffffffff82169050919050565b6000620002ef82620002c2565b9050919050565b60006200030382620002e2565b9050919050565b6200031581620002f6565b81146200032157600080fd5b50565b60008151905062000335816200030a565b92915050565b600060208284031215620003545762000353620002bd565b5b6000620003648482850162000324565b91505092915050565b7f4e487b7100000000000000000000000000000000000000000000000000000000600052602260045260246000fd5b60006002820490506001821680620003b557607f821691505b60208210811415620003cc57620003cb6200036d565b5b50919050565b613dcc80620003e26000396000f3fe608060405234801561001057600080fd5b50600436106101f05760003560e01c806395d89b411161010f578063c475abff116100a2578063e985e9c511610071578063e985e9c5146105f1578063f2fde38b14610621578063f6a74ed71461063d578063fca247ac14610659576101f0565b8063c475abff14610543578063c87b56dd14610573578063da8c229e146105a3578063e0497d0b146105d3576101f0565b8063a4cbf5f4116100de578063a4cbf5f4146104bd578063a7fc7a07146104ed578063b88d4fde14610509578063c1a287e214610525576101f0565b806395d89b411461042357806396e494e81461044157806399e4c79b14610471578063a22cb465146104a1576101f0565b80634d6993eb11610187578063715018a611610156578063715018a6146103ad578063828eab0e146103b7578063892a04b6146103d55780638da5cb5b14610405576101f0565b80634d6993eb146103135780636352211e146103315780636b80b9181461036157806370a082311461037d576101f0565b80630ae9eecf116101c35780630ae9eecf1461028f57806323b872dd146102bf57806328ed4f6c146102db57806342842e0e146102f7576101f0565b806301ffc9a7146101f557806306fdde0314610225578063081812fc14610243578063095ea7b314610273575b600080fd5b61020f600480360381019061020a91906128cf565b610689565b60405161021c9190612917565b60405180910390f35b61022d61076b565b60405161023a91906129cb565b60405180910390f35b61025d60048036038101906102589190612a23565b6107fd565b60405161026a9190612a91565b60405180910390f35b61028d60048036038101906102889190612ad8565b610882565b005b6102a960048036038101906102a49190612b7d565b61099a565b6040516102b69190612be3565b60405180910390f35b6102d960048036038101906102d49190612bfe565b610a12565b005b6102f560048036038101906102f09190612c51565b610a72565b005b610311600480360381019061030c9190612bfe565b610c45565b005b61031b610c65565b6040516103289190612cf0565b60405180910390f35b61034b60048036038101906103469190612a23565b610c8b565b6040516103589190612a91565b60405180910390f35b61037b60048036038101906103769190612d0b565b610d3d565b005b61039760048036038101906103929190612d0b565b610dfd565b6040516103a49190612d47565b60405180910390f35b6103b5610eb5565b005b6103bf610f3d565b6040516103cc9190612a91565b60405180910390f35b6103ef60048036038101906103ea9190612a23565b610f63565b6040516103fc9190612d47565b60405180910390f35b61040d610f8b565b60405161041a9190612a91565b60405180910390f35b61042b610fb5565b60405161043891906129cb565b60405180910390f35b61045b60048036038101906104569190612a23565b611047565b6040516104689190612917565b60405180910390f35b61048b60048036038101906104869190612b7d565b611074565b6040516104989190612be3565b60405180910390f35b6104bb60048036038101906104b69190612d8e565b6110e6565b005b6104d760048036038101906104d29190612a23565b6110fc565b6040516104e49190612d47565b60405180910390f35b61050760048036038101906105029190612d0b565b611119565b005b610523600480360381019061051e9190612efe565b6111f0565b005b61052d611252565b60405161053a9190612d47565b60405180910390f35b61055d60048036038101906105589190612f81565b611259565b60405161056a9190612d47565b60405180910390f35b61058d60048036038101906105889190612a23565b61126d565b60405161059a91906129cb565b60405180910390f35b6105bd60048036038101906105b89190612d0b565b611314565b6040516105ca9190612917565b60405180910390f35b6105db611334565b6040516105e89190612a91565b60405180910390f35b61060b60048036038101906106069190612fc1565b61135e565b6040516106189190612917565b60405180910390f35b61063b60048036038101906106369190612d0b565b6113f2565b005b61065760048036038101906106529190612d0b565b6114ea565b005b610673600480360381019061066e9190613001565b6115c1565b6040516106809190612d47565b60405180910390f35b60007f80ac58cd000000000000000000000000000000000000000000000000000000007bffffffffffffffffffffffffffffffffffffffffffffffffffffffff1916827bffffffffffffffffffffffffffffffffffffffffffffffffffffffff1916148061075457507f5b5e139f000000000000000000000000000000000000000000000000000000007bffffffffffffffffffffffffffffffffffffffffffffffffffffffff1916827bffffffffffffffffffffffffffffffffffffffffffffffffffffffff1916145b806107645750610763826115d7565b5b9050919050565b60606000805461077a90613083565b80601f01602080910402602001604051908101604052809291908181526020018280546107a690613083565b80156107f35780601f106107c8576101008083540402835291602001916107f3565b820191906000526020600020905b8154815290600101906020018083116107d657829003601f168201915b5050505050905090565b600061080882611641565b610847576040517f08c379a000000000000000000000000000000000000000000000000000000000815260040161083e90613127565b60405180910390fd5b6004600083815260200190815260200160002060009054906101000a900473ffffffffffffffffffffffffffffffffffffffff169050919050565b600061088d82610c8b565b90508073ffffffffffffffffffffffffffffffffffffffff168373ffffffffffffffffffffffffffffffffffffffff1614156108fe576040517f08c379a00000000000000000000000000000000000000000000000000000000081526004016108f5906131b9565b60405180910390fd5b8073ffffffffffffffffffffffffffffffffffffffff1661091d6116ad565b73ffffffffffffffffffffffffffffffffffffffff16148061094c575061094b816109466116ad565b61135e565b5b61098b576040517f08c379a00000000000000000000000000000000000000000000000000000000081526004016109829061324b565b60405180910390fd5b61099583836116b5565b505050565b60008083836040516109ad92919061329b565b604051809103902060001c90507f93cdeb708b7545dc668eb9280176169d1c33cfd8ed6f04690a0bcc88a93fc4ae60001b8160001b6040516020016109f39291906132d5565b6040516020818303038152906040528051906020012091505092915050565b610a23610a1d6116ad565b8261176e565b610a62576040517f08c379a0000000000000000000000000000000000000000000000000000000008152600401610a5990613373565b60405180910390fd5b610a6d83838361184c565b505050565b3073ffffffffffffffffffffffffffffffffffffffff16600760009054906101000a900473ffffffffffffffffffffffffffffffffffffffff1673ffffffffffffffffffffffffffffffffffffffff16638d2d22c07f93cdeb708b7545dc668eb9280176169d1c33cfd8ed6f04690a0bcc88a93fc4ae60001b6040518263ffffffff1660e01b8152600401610b079190612be3565b60206040518083038186803b158015610b1f57600080fd5b505afa158015610b33573d6000803e3d6000fd5b505050506040513d601f19601f82011682018060405250810190610b5791906133a8565b73ffffffffffffffffffffffffffffffffffffffff1614610b7757600080fd5b610b81338361176e565b610b8a57600080fd5b600760009054906101000a900473ffffffffffffffffffffffffffffffffffffffff1673ffffffffffffffffffffffffffffffffffffffff1663167da72a7f93cdeb708b7545dc668eb9280176169d1c33cfd8ed6f04690a0bcc88a93fc4ae60001b8460001b846040518463ffffffff1660e01b8152600401610c0f939291906133d5565b600060405180830381600087803b158015610c2957600080fd5b505af1158015610c3d573d6000803e3d6000fd5b505050505050565b610c60838383604051806020016040528060008152506111f0565b505050565b600760009054906101000a900473ffffffffffffffffffffffffffffffffffffffff1681565b6000806002600084815260200190815260200160002060009054906101000a900473ffffffffffffffffffffffffffffffffffffffff169050600073ffffffffffffffffffffffffffffffffffffffff168173ffffffffffffffffffffffffffffffffffffffff161415610d34576040517f08c379a0000000000000000000000000000000000000000000000000000000008152600401610d2b9061347e565b60405180910390fd5b80915050919050565b610d456116ad565b73ffffffffffffffffffffffffffffffffffffffff16610d63610f8b565b73ffffffffffffffffffffffffffffffffffffffff1614610db9576040517f08c379a0000000000000000000000000000000000000000000000000000000008152600401610db0906134ea565b60405180910390fd5b80600860006101000a81548173ffffffffffffffffffffffffffffffffffffffff021916908373ffffffffffffffffffffffffffffffffffffffff16021790555050565b60008073ffffffffffffffffffffffffffffffffffffffff168273ffffffffffffffffffffffffffffffffffffffff161415610e6e576040517f08c379a0000000000000000000000000000000000000000000000000000000008152600401610e659061357c565b60405180910390fd5b600360008373ffffffffffffffffffffffffffffffffffffffff1673ffffffffffffffffffffffffffffffffffffffff168152602001908152602001600020549050919050565b610ebd6116ad565b73ffffffffffffffffffffffffffffffffffffffff16610edb610f8b565b73ffffffffffffffffffffffffffffffffffffffff1614610f31576040517f08c379a0000000000000000000000000000000000000000000000000000000008152600401610f28906134ea565b60405180910390fd5b610f3b6000611ab3565b565b600860009054906101000a900473ffffffffffffffffffffffffffffffffffffffff1681565b6000426009600084815260200190815260200160002054610f8491906135cb565b9050919050565b6000600660009054906101000a900473ffffffffffffffffffffffffffffffffffffffff16905090565b606060018054610fc490613083565b80601f0160208091040260200160405190810160405280929190818152602001828054610ff090613083565b801561103d5780601f106110125761010080835404028352916020019161103d565b820191906000526020600020905b81548152906001019060200180831161102057829003601f168201915b5050505050905090565b6000426224ea00600960008581526020019081526020016000205461106c91906135ff565b109050919050565b600080838360405161108792919061329b565b604051809103902090507f93cdeb708b7545dc668eb9280176169d1c33cfd8ed6f04690a0bcc88a93fc4ae60001b816040516020016110c79291906132d5565b6040516020818303038152906040528051906020012091505092915050565b6110f86110f16116ad565b8383611b79565b5050565b600060096000838152602001908152602001600020549050919050565b6111216116ad565b73ffffffffffffffffffffffffffffffffffffffff1661113f610f8b565b73ffffffffffffffffffffffffffffffffffffffff1614611195576040517f08c379a000000000000000000000000000000000000000000000000000000000815260040161118c906134ea565b60405180910390fd5b6001600a60008373ffffffffffffffffffffffffffffffffffffffff1673ffffffffffffffffffffffffffffffffffffffff16815260200190815260200160002060006101000a81548160ff02191690831515021790555050565b6112016111fb6116ad565b8361176e565b611240576040517f08c379a000000000000000000000000000000000000000000000000000000000815260040161123790613373565b60405180910390fd5b61124c84848484611ce6565b50505050565b6224ea0081565b60006112658383611d42565b905092915050565b606061127882611641565b6112b7576040517f08c379a00000000000000000000000000000000000000000000000000000000081526004016112ae906136c7565b60405180910390fd5b60006112c1611f59565b905060008151116112e1576040518060200160405280600081525061130c565b806112eb84611f70565b6040516020016112fc929190613723565b6040516020818303038152906040525b915050919050565b600a6020528060005260406000206000915054906101000a900460ff1681565b6000600860009054906101000a900473ffffffffffffffffffffffffffffffffffffffff16905090565b6000600560008473ffffffffffffffffffffffffffffffffffffffff1673ffffffffffffffffffffffffffffffffffffffff16815260200190815260200160002060008373ffffffffffffffffffffffffffffffffffffffff1673ffffffffffffffffffffffffffffffffffffffff16815260200190815260200160002060009054906101000a900460ff16905092915050565b6113fa6116ad565b73ffffffffffffffffffffffffffffffffffffffff16611418610f8b565b73ffffffffffffffffffffffffffffffffffffffff161461146e576040517f08c379a0000000000000000000000000000000000000000000000000000000008152600401611465906134ea565b60405180910390fd5b600073ffffffffffffffffffffffffffffffffffffffff168173ffffffffffffffffffffffffffffffffffffffff1614156114de576040517f08c379a00000000000000000000000000000000000000000000000000000000081526004016114d5906137b9565b60405180910390fd5b6114e781611ab3565b50565b6114f26116ad565b73ffffffffffffffffffffffffffffffffffffffff16611510610f8b565b73ffffffffffffffffffffffffffffffffffffffff1614611566576040517f08c379a000000000000000000000000000000000000000000000000000000000815260040161155d906134ea565b60405180910390fd5b6000600a60008373ffffffffffffffffffffffffffffffffffffffff1673ffffffffffffffffffffffffffffffffffffffff16815260200190815260200160002060006101000a81548160ff02191690831515021790555050565b60006115ce8484846120d1565b90509392505050565b60007f01ffc9a7000000000000000000000000000000000000000000000000000000007bffffffffffffffffffffffffffffffffffffffffffffffffffffffff1916827bffffffffffffffffffffffffffffffffffffffffffffffffffffffff1916149050919050565b60008073ffffffffffffffffffffffffffffffffffffffff166002600084815260200190815260200160002060009054906101000a900473ffffffffffffffffffffffffffffffffffffffff1673ffffffffffffffffffffffffffffffffffffffff1614159050919050565b600033905090565b816004600083815260200190815260200160002060006101000a81548173ffffffffffffffffffffffffffffffffffffffff021916908373ffffffffffffffffffffffffffffffffffffffff160217905550808273ffffffffffffffffffffffffffffffffffffffff1661172883610c8b565b73ffffffffffffffffffffffffffffffffffffffff167f8c5be1e5ebec7d5bd14f71427d1e84f3dd0314c0f7b2291e5b200ac8c7c3b92560405160405180910390a45050565b600061177982611641565b6117b8576040517f08c379a00000000000000000000000000000000000000000000000000000000081526004016117af9061384b565b60405180910390fd5b60006117c383610c8b565b90508073ffffffffffffffffffffffffffffffffffffffff168473ffffffffffffffffffffffffffffffffffffffff1614806118055750611804818561135e565b5b8061184357508373ffffffffffffffffffffffffffffffffffffffff1661182b846107fd565b73ffffffffffffffffffffffffffffffffffffffff16145b91505092915050565b8273ffffffffffffffffffffffffffffffffffffffff1661186c82610c8b565b73ffffffffffffffffffffffffffffffffffffffff16146118c2576040517f08c379a00000000000000000000000000000000000000000000000000000000081526004016118b9906138dd565b60405180910390fd5b600073ffffffffffffffffffffffffffffffffffffffff168273ffffffffffffffffffffffffffffffffffffffff161415611932576040517f08c379a00000000000000000000000000000000000000000000000000000000081526004016119299061396f565b60405180910390fd5b61193d8383836123a8565b6119486000826116b5565b6001600360008573ffffffffffffffffffffffffffffffffffffffff1673ffffffffffffffffffffffffffffffffffffffff168152602001908152602001600020600082825461199891906135cb565b925050819055506001600360008473ffffffffffffffffffffffffffffffffffffffff1673ffffffffffffffffffffffffffffffffffffffff16815260200190815260200160002060008282546119ef91906135ff565b92505081905550816002600083815260200190815260200160002060006101000a81548173ffffffffffffffffffffffffffffffffffffffff021916908373ffffffffffffffffffffffffffffffffffffffff160217905550808273ffffffffffffffffffffffffffffffffffffffff168473ffffffffffffffffffffffffffffffffffffffff167fddf252ad1be2c89b69c2b068fc378daa952ba7f163c4a11628f55a4df523b3ef60405160405180910390a4611aae8383836123ad565b505050565b6000600660009054906101000a900473ffffffffffffffffffffffffffffffffffffffff16905081600660006101000a81548173ffffffffffffffffffffffffffffffffffffffff021916908373ffffffffffffffffffffffffffffffffffffffff1602179055508173ffffffffffffffffffffffffffffffffffffffff168173ffffffffffffffffffffffffffffffffffffffff167f8be0079c531659141344cd1fd0a4f28419497f9722a3daafe3b4186f6b6457e060405160405180910390a35050565b8173ffffffffffffffffffffffffffffffffffffffff168373ffffffffffffffffffffffffffffffffffffffff161415611be8576040517f08c379a0000000000000000000000000000000000000000000000000000000008152600401611bdf906139db565b60405180910390fd5b80600560008573ffffffffffffffffffffffffffffffffffffffff1673ffffffffffffffffffffffffffffffffffffffff16815260200190815260200160002060008473ffffffffffffffffffffffffffffffffffffffff1673ffffffffffffffffffffffffffffffffffffffff16815260200190815260200160002060006101000a81548160ff0219169083151502179055508173ffffffffffffffffffffffffffffffffffffffff168373ffffffffffffffffffffffffffffffffffffffff167f17307eab39ab6107e8899845ad3d59bd9653f200f220920489ca2b5937696c3183604051611cd99190612917565b60405180910390a3505050565b611cf184848461184c565b611cfd848484846123b2565b611d3c576040517f08c379a0000000000000000000000000000000000000000000000000000000008152600401611d3390613a6d565b60405180910390fd5b50505050565b6000600a60003373ffffffffffffffffffffffffffffffffffffffff1673ffffffffffffffffffffffffffffffffffffffff16815260200190815260200160002060009054906101000a900460ff16611d9a57600080fd5b3073ffffffffffffffffffffffffffffffffffffffff16600760009054906101000a900473ffffffffffffffffffffffffffffffffffffffff1673ffffffffffffffffffffffffffffffffffffffff16638d2d22c07f93cdeb708b7545dc668eb9280176169d1c33cfd8ed6f04690a0bcc88a93fc4ae60001b6040518263ffffffff1660e01b8152600401611e2f9190612be3565b60206040518083038186803b158015611e4757600080fd5b505afa158015611e5b573d6000803e3d6000fd5b505050506040513d601f19601f82011682018060405250810190611e7f91906133a8565b73ffffffffffffffffffffffffffffffffffffffff1614611e9f57600080fd5b426224ea006009600086815260200190815260200160002054611ec291906135ff565b1015611ecd57600080fd5b6224ea0082611edc91906135ff565b6224ea00836009600087815260200190815260200160002054611eff91906135ff565b611f0991906135ff565b11611f1357600080fd5b81600960008581526020019081526020016000206000828254611f3691906135ff565b925050819055506009600084815260200190815260200160002054905092915050565b606060405180602001604052806000815250905090565b60606000821415611fb8576040518060400160405280600181526020017f300000000000000000000000000000000000000000000000000000000000000081525090506120cc565b600082905060005b60008214611fea578080611fd390613a8d565b915050600a82611fe39190613b05565b9150611fc0565b60008167ffffffffffffffff81111561200657612005612dd3565b5b6040519080825280601f01601f1916602001820160405280156120385781602001600182028036833780820191505090505b5090505b600085146120c55760018261205191906135cb565b9150600a856120609190613b36565b603061206c91906135ff565b60f81b81838151811061208257612081613b67565b5b60200101907effffffffffffffffffffffffffffffffffffffffffffffffffffffffffffff1916908160001a905350600a856120be9190613b05565b945061203c565b8093505050505b919050565b6000600a60003373ffffffffffffffffffffffffffffffffffffffff1673ffffffffffffffffffffffffffffffffffffffff16815260200190815260200160002060009054906101000a900460ff1661212957600080fd5b3073ffffffffffffffffffffffffffffffffffffffff16600760009054906101000a900473ffffffffffffffffffffffffffffffffffffffff1673ffffffffffffffffffffffffffffffffffffffff16638d2d22c07f93cdeb708b7545dc668eb9280176169d1c33cfd8ed6f04690a0bcc88a93fc4ae60001b6040518263ffffffff1660e01b81526004016121be9190612be3565b60206040518083038186803b1580156121d657600080fd5b505afa1580156121ea573d6000803e3d6000fd5b505050506040513d601f19601f8201168201806040525081019061220e91906133a8565b73ffffffffffffffffffffffffffffffffffffffff161461222e57600080fd5b61223784611047565b61224057600080fd5b6224ea004261224f91906135ff565b6224ea00834261225f91906135ff565b61226991906135ff565b1161227357600080fd5b814261227f91906135ff565b600960008681526020019081526020016000208190555061229f84611641565b156122ae576122ad84612549565b5b6122b88385612666565b600760009054906101000a900473ffffffffffffffffffffffffffffffffffffffff1673ffffffffffffffffffffffffffffffffffffffff1663a8b4f0507f93cdeb708b7545dc668eb9280176169d1c33cfd8ed6f04690a0bcc88a93fc4ae60001b8660001b86600860009054906101000a900473ffffffffffffffffffffffffffffffffffffffff166040518563ffffffff1660e01b81526004016123619493929190613b96565b600060405180830381600087803b15801561237b57600080fd5b505af115801561238f573d6000803e3d6000fd5b50505050814261239f91906135ff565b90509392505050565b505050565b505050565b60006123d38473ffffffffffffffffffffffffffffffffffffffff16612840565b1561253c578373ffffffffffffffffffffffffffffffffffffffff1663150b7a026123fc6116ad565b8786866040518563ffffffff1660e01b815260040161241e9493929190613c30565b602060405180830381600087803b15801561243857600080fd5b505af192505050801561246957506040513d601f19601f820116820180604052508101906124669190613c91565b60015b6124ec573d8060008114612499576040519150601f19603f3d011682016040523d82523d6000602084013e61249e565b606091505b506000815114156124e4576040517f08c379a00000000000000000000000000000000000000000000000000000000081526004016124db90613a6d565b60405180910390fd5b805181602001fd5b63150b7a0260e01b7bffffffffffffffffffffffffffffffffffffffffffffffffffffffff1916817bffffffffffffffffffffffffffffffffffffffffffffffffffffffff191614915050612541565b600190505b949350505050565b600061255482610c8b565b9050612562816000846123a8565b61256d6000836116b5565b6001600360008373ffffffffffffffffffffffffffffffffffffffff1673ffffffffffffffffffffffffffffffffffffffff16815260200190815260200160002060008282546125bd91906135cb565b925050819055506002600083815260200190815260200160002060006101000a81549073ffffffffffffffffffffffffffffffffffffffff021916905581600073ffffffffffffffffffffffffffffffffffffffff168273ffffffffffffffffffffffffffffffffffffffff167fddf252ad1be2c89b69c2b068fc378daa952ba7f163c4a11628f55a4df523b3ef60405160405180910390a4612662816000846123ad565b5050565b600073ffffffffffffffffffffffffffffffffffffffff168273ffffffffffffffffffffffffffffffffffffffff1614156126d6576040517f08c379a00000000000000000000000000000000000000000000000000000000081526004016126cd90613d0a565b60405180910390fd5b6126df81611641565b1561271f576040517f08c379a000000000000000000000000000000000000000000000000000000000815260040161271690613d76565b60405180910390fd5b61272b600083836123a8565b6001600360008473ffffffffffffffffffffffffffffffffffffffff1673ffffffffffffffffffffffffffffffffffffffff168152602001908152602001600020600082825461277b91906135ff565b92505081905550816002600083815260200190815260200160002060006101000a81548173ffffffffffffffffffffffffffffffffffffffff021916908373ffffffffffffffffffffffffffffffffffffffff160217905550808273ffffffffffffffffffffffffffffffffffffffff16600073ffffffffffffffffffffffffffffffffffffffff167fddf252ad1be2c89b69c2b068fc378daa952ba7f163c4a11628f55a4df523b3ef60405160405180910390a461283c600083836123ad565b5050565b6000808273ffffffffffffffffffffffffffffffffffffffff163b119050919050565b6000604051905090565b600080fd5b600080fd5b60007fffffffff0000000000000000000000000000000000000000000000000000000082169050919050565b6128ac81612877565b81146128b757600080fd5b50565b6000813590506128c9816128a3565b92915050565b6000602082840312156128e5576128e461286d565b5b60006128f3848285016128ba565b91505092915050565b60008115159050919050565b612911816128fc565b82525050565b600060208201905061292c6000830184612908565b92915050565b600081519050919050565b600082825260208201905092915050565b60005b8381101561296c578082015181840152602081019050612951565b8381111561297b576000848401525b50505050565b6000601f19601f8301169050919050565b600061299d82612932565b6129a7818561293d565b93506129b781856020860161294e565b6129c081612981565b840191505092915050565b600060208201905081810360008301526129e58184612992565b905092915050565b6000819050919050565b612a00816129ed565b8114612a0b57600080fd5b50565b600081359050612a1d816129f7565b92915050565b600060208284031215612a3957612a3861286d565b5b6000612a4784828501612a0e565b91505092915050565b600073ffffffffffffffffffffffffffffffffffffffff82169050919050565b6000612a7b82612a50565b9050919050565b612a8b81612a70565b82525050565b6000602082019050612aa66000830184612a82565b92915050565b612ab581612a70565b8114612ac057600080fd5b50565b600081359050612ad281612aac565b92915050565b60008060408385031215612aef57612aee61286d565b5b6000612afd85828601612ac3565b9250506020612b0e85828601612a0e565b9150509250929050565b600080fd5b600080fd5b600080fd5b60008083601f840112612b3d57612b3c612b18565b5b8235905067ffffffffffffffff811115612b5a57612b59612b1d565b5b602083019150836001820283011115612b7657612b75612b22565b5b9250929050565b60008060208385031215612b9457612b9361286d565b5b600083013567ffffffffffffffff811115612bb257612bb1612872565b5b612bbe85828601612b27565b92509250509250929050565b6000819050919050565b612bdd81612bca565b82525050565b6000602082019050612bf86000830184612bd4565b92915050565b600080600060608486031215612c1757612c1661286d565b5b6000612c2586828701612ac3565b9350506020612c3686828701612ac3565b9250506040612c4786828701612a0e565b9150509250925092565b60008060408385031215612c6857612c6761286d565b5b6000612c7685828601612a0e565b9250506020612c8785828601612ac3565b9150509250929050565b6000819050919050565b6000612cb6612cb1612cac84612a50565b612c91565b612a50565b9050919050565b6000612cc882612c9b565b9050919050565b6000612cda82612cbd565b9050919050565b612cea81612ccf565b82525050565b6000602082019050612d056000830184612ce1565b92915050565b600060208284031215612d2157612d2061286d565b5b6000612d2f84828501612ac3565b91505092915050565b612d41816129ed565b82525050565b6000602082019050612d5c6000830184612d38565b92915050565b612d6b816128fc565b8114612d7657600080fd5b50565b600081359050612d8881612d62565b92915050565b60008060408385031215612da557612da461286d565b5b6000612db385828601612ac3565b9250506020612dc485828601612d79565b9150509250929050565b600080fd5b7f4e487b7100000000000000000000000000000000000000000000000000000000600052604160045260246000fd5b612e0b82612981565b810181811067ffffffffffffffff82111715612e2a57612e29612dd3565b5b80604052505050565b6000612e3d612863565b9050612e498282612e02565b919050565b600067ffffffffffffffff821115612e6957612e68612dd3565b5b612e7282612981565b9050602081019050919050565b82818337600083830152505050565b6000612ea1612e9c84612e4e565b612e33565b905082815260208101848484011115612ebd57612ebc612dce565b5b612ec8848285612e7f565b509392505050565b600082601f830112612ee557612ee4612b18565b5b8135612ef5848260208601612e8e565b91505092915050565b60008060008060808587031215612f1857612f1761286d565b5b6000612f2687828801612ac3565b9450506020612f3787828801612ac3565b9350506040612f4887828801612a0e565b925050606085013567ffffffffffffffff811115612f6957612f68612872565b5b612f7587828801612ed0565b91505092959194509250565b60008060408385031215612f9857612f9761286d565b5b6000612fa685828601612a0e565b9250506020612fb785828601612a0e565b9150509250929050565b60008060408385031215612fd857612fd761286d565b5b6000612fe685828601612ac3565b9250506020612ff785828601612ac3565b9150509250929050565b60008060006060848603121561301a5761301961286d565b5b600061302886828701612a0e565b935050602061303986828701612ac3565b925050604061304a86828701612a0e565b9150509250925092565b7f4e487b7100000000000000000000000000000000000000000000000000000000600052602260045260246000fd5b6000600282049050600182168061309b57607f821691505b602082108114156130af576130ae613054565b5b50919050565b7f4552433732313a20617070726f76656420717565727920666f72206e6f6e657860008201527f697374656e7420746f6b656e0000000000000000000000000000000000000000602082015250565b6000613111602c8361293d565b915061311c826130b5565b604082019050919050565b6000602082019050818103600083015261314081613104565b9050919050565b7f4552433732313a20617070726f76616c20746f2063757272656e74206f776e6560008201527f7200000000000000000000000000000000000000000000000000000000000000602082015250565b60006131a360218361293d565b91506131ae82613147565b604082019050919050565b600060208201905081810360008301526131d281613196565b9050919050565b7f4552433732313a20617070726f76652063616c6c6572206973206e6f74206f7760008201527f6e6572206e6f7220617070726f76656420666f7220616c6c0000000000000000602082015250565b600061323560388361293d565b9150613240826131d9565b604082019050919050565b6000602082019050818103600083015261326481613228565b9050919050565b600081905092915050565b6000613282838561326b565b935061328f838584612e7f565b82840190509392505050565b60006132a8828486613276565b91508190509392505050565b6000819050919050565b6132cf6132ca82612bca565b6132b4565b82525050565b60006132e182856132be565b6020820191506132f182846132be565b6020820191508190509392505050565b7f4552433732313a207472616e736665722063616c6c6572206973206e6f74206f60008201527f776e6572206e6f7220617070726f766564000000000000000000000000000000602082015250565b600061335d60318361293d565b915061336882613301565b604082019050919050565b6000602082019050818103600083015261338c81613350565b9050919050565b6000815190506133a281612aac565b92915050565b6000602082840312156133be576133bd61286d565b5b60006133cc84828501613393565b91505092915050565b60006060820190506133ea6000830186612bd4565b6133f76020830185612bd4565b6134046040830184612a82565b949350505050565b7f4552433732313a206f776e657220717565727920666f72206e6f6e657869737460008201527f656e7420746f6b656e0000000000000000000000000000000000000000000000602082015250565b600061346860298361293d565b91506134738261340c565b604082019050919050565b600060208201905081810360008301526134978161345b565b9050919050565b7f4f776e61626c653a2063616c6c6572206973206e6f7420746865206f776e6572600082015250565b60006134d460208361293d565b91506134df8261349e565b602082019050919050565b60006020820190508181036000830152613503816134c7565b9050919050565b7f4552433732313a2062616c616e636520717565727920666f7220746865207a6560008201527f726f206164647265737300000000000000000000000000000000000000000000602082015250565b6000613566602a8361293d565b91506135718261350a565b604082019050919050565b6000602082019050818103600083015261359581613559565b9050919050565b7f4e487b7100000000000000000000000000000000000000000000000000000000600052601160045260246000fd5b60006135d6826129ed565b91506135e1836129ed565b9250828210156135f4576135f361359c565b5b828203905092915050565b600061360a826129ed565b9150613615836129ed565b9250827fffffffffffffffffffffffffffffffffffffffffffffffffffffffffffffffff0382111561364a5761364961359c565b5b828201905092915050565b7f4552433732314d657461646174613a2055524920717565727920666f72206e6f60008201527f6e6578697374656e7420746f6b656e0000000000000000000000000000000000602082015250565b60006136b1602f8361293d565b91506136bc82613655565b604082019050919050565b600060208201905081810360008301526136e0816136a4565b9050919050565b600081905092915050565b60006136fd82612932565b61370781856136e7565b935061371781856020860161294e565b80840191505092915050565b600061372f82856136f2565b915061373b82846136f2565b91508190509392505050565b7f4f776e61626c653a206e6577206f776e657220697320746865207a65726f206160008201527f6464726573730000000000000000000000000000000000000000000000000000602082015250565b60006137a360268361293d565b91506137ae82613747565b604082019050919050565b600060208201905081810360008301526137d281613796565b9050919050565b7f4552433732313a206f70657261746f7220717565727920666f72206e6f6e657860008201527f697374656e7420746f6b656e0000000000000000000000000000000000000000602082015250565b6000613835602c8361293d565b9150613840826137d9565b604082019050919050565b6000602082019050818103600083015261386481613828565b9050919050565b7f4552433732313a207472616e736665722066726f6d20696e636f72726563742060008201527f6f776e6572000000000000000000000000000000000000000000000000000000602082015250565b60006138c760258361293d565b91506138d28261386b565b604082019050919050565b600060208201905081810360008301526138f6816138ba565b9050919050565b7f4552433732313a207472616e7366657220746f20746865207a65726f2061646460008201527f7265737300000000000000000000000000000000000000000000000000000000602082015250565b600061395960248361293d565b9150613964826138fd565b604082019050919050565b600060208201905081810360008301526139888161394c565b9050919050565b7f4552433732313a20617070726f766520746f2063616c6c657200000000000000600082015250565b60006139c560198361293d565b91506139d08261398f565b602082019050919050565b600060208201905081810360008301526139f4816139b8565b9050919050565b7f4552433732313a207472616e7366657220746f206e6f6e20455243373231526560008201527f63656976657220696d706c656d656e7465720000000000000000000000000000602082015250565b6000613a5760328361293d565b9150613a62826139fb565b604082019050919050565b60006020820190508181036000830152613a8681613a4a565b9050919050565b6000613a98826129ed565b91507fffffffffffffffffffffffffffffffffffffffffffffffffffffffffffffffff821415613acb57613aca61359c565b5b600182019050919050565b7f4e487b7100000000000000000000000000000000000000000000000000000000600052601260045260246000fd5b6000613b10826129ed565b9150613b1b836129ed565b925082613b2b57613b2a613ad6565b5b828204905092915050565b6000613b41826129ed565b9150613b4c836129ed565b925082613b5c57613b5b613ad6565b5b828206905092915050565b7f4e487b7100000000000000000000000000000000000000000000000000000000600052603260045260246000fd5b6000608082019050613bab6000830187612bd4565b613bb86020830186612bd4565b613bc56040830185612a82565b613bd26060830184612a82565b95945050505050565b600081519050919050565b600082825260208201905092915050565b6000613c0282613bdb565b613c0c8185613be6565b9350613c1c81856020860161294e565b613c2581612981565b840191505092915050565b6000608082019050613c456000830187612a82565b613c526020830186612a82565b613c5f6040830185612d38565b8181036060830152613c718184613bf7565b905095945050505050565b600081519050613c8b816128a3565b92915050565b600060208284031215613ca757613ca661286d565b5b6000613cb584828501613c7c565b91505092915050565b7f4552433732313a206d696e7420746f20746865207a65726f2061646472657373600082015250565b6000613cf460208361293d565b9150613cff82613cbe565b602082019050919050565b60006020820190508181036000830152613d2381613ce7565b9050919050565b7f4552433732313a20746f6b656e20616c7265616479206d696e74656400000000600082015250565b6000613d60601c8361293d565b9150613d6b82613d2a565b602082019050919050565b60006020820190508181036000830152613d8f81613d53565b905091905056fea2646970667358221220060780c76070d3b17e9bb6a9da5c632d03530611c61e3f11f2f2bf9b980f6c8364736f6c63430008090033",
  "linkReferences": {},
  "deployedLinkReferences": {}
}