{
  "_format": "hh-sol-artifact-1",
  "contractName": "AdminInETH_iquoter",
  "sourceName": "contracts/ednpoint/AdminInETH_iquoter.sol",
  "abi": [
    {
      "inputs": [
        {
          "internalType": "address",
          "name": "_endpoint",
          "type": "address"
        },
        {
          "internalType": "uint256",
          "name": "baseprice",
          "type": "uint256"
        },
        {
          "internalType": "uint256",
          "name": "premiumprice",
          "type": "uint256"
        },
        {
          "internalType": "contract IQuoter",
          "name": "_quoter",
          "type": "address"
        }
      ],
      "stateMutability": "nonpayable",
      "type": "constructor"
    },
    {
      "anonymous": false,
      "inputs": [
        {
          "indexed": true,
          "internalType": "address",
          "name": "owner",
          "type": "address"
        },
        {
          "indexed": true,
          "internalType": "address",
          "name": "approved",
          "type": "address"
        },
        {
          "indexed": true,
          "internalType": "uint256",
          "name": "tokenId",
          "type": "uint256"
        }
      ],
      "name": "Approval",
      "type": "event"
    },
    {
      "anonymous": false,
      "inputs": [
        {
          "indexed": true,
          "internalType": "address",
          "name": "owner",
          "type": "address"
        },
        {
          "indexed": true,
          "internalType": "address",
          "name": "operator",
          "type": "address"
        },
        {
          "indexed": false,
          "internalType": "bool",
          "name": "approved",
          "type": "bool"
        }
      ],
      "name": "ApprovalForAll",
      "type": "event"
    },
    {
      "anonymous": false,
      "inputs": [
        {
          "indexed": false,
          "internalType": "uint16",
          "name": "_srcChainId",
          "type": "uint16"
        },
        {
          "indexed": false,
          "internalType": "bytes",
          "name": "_srcAddress",
          "type": "bytes"
        },
        {
          "indexed": false,
          "internalType": "uint64",
          "name": "_nonce",
          "type": "uint64"
        },
        {
          "indexed": false,
          "internalType": "bytes",
          "name": "_payload",
          "type": "bytes"
        }
      ],
      "name": "MessageFailed",
      "type": "event"
    },
    {
      "anonymous": false,
      "inputs": [
        {
          "indexed": true,
          "internalType": "address",
          "name": "previousOwner",
          "type": "address"
        },
        {
          "indexed": true,
          "internalType": "address",
          "name": "newOwner",
          "type": "address"
        }
      ],
      "name": "OwnershipTransferred",
      "type": "event"
    },
    {
      "anonymous": false,
      "inputs": [
        {
          "indexed": false,
          "internalType": "uint16",
          "name": "_srcChainId",
          "type": "uint16"
        },
        {
          "indexed": false,
          "internalType": "address",
          "name": "_from",
          "type": "address"
        },
        {
          "indexed": false,
          "internalType": "bytes",
          "name": "_payload",
          "type": "bytes"
        }
      ],
      "name": "ReceiveMsg",
      "type": "event"
    },
    {
      "anonymous": false,
      "inputs": [
        {
          "indexed": true,
          "internalType": "address",
          "name": "from",
          "type": "address"
        },
        {
          "indexed": true,
          "internalType": "address",
          "name": "to",
          "type": "address"
        },
        {
          "indexed": true,
          "internalType": "uint256",
          "name": "tokenId",
          "type": "uint256"
        }
      ],
      "name": "Transfer",
      "type": "event"
    },
    {
      "inputs": [
        {
          "internalType": "address",
          "name": "to",
          "type": "address"
        },
        {
          "internalType": "uint256",
          "name": "tokenId",
          "type": "uint256"
        }
      ],
      "name": "approve",
      "outputs": [],
      "stateMutability": "nonpayable",
      "type": "function"
    },
    {
      "inputs": [
        {
          "internalType": "address",
          "name": "owner",
          "type": "address"
        }
      ],
      "name": "balanceOf",
      "outputs": [
        {
          "internalType": "uint256",
          "name": "",
          "type": "uint256"
        }
      ],
      "stateMutability": "view",
      "type": "function"
    },
    {
      "inputs": [
        {
          "internalType": "bool",
          "name": "_o",
          "type": "bool"
        }
      ],
      "name": "change",
      "outputs": [
        {
          "internalType": "bool",
          "name": "",
          "type": "bool"
        }
      ],
      "stateMutability": "nonpayable",
      "type": "function"
    },
    {
      "inputs": [],
      "name": "check",
      "outputs": [
        {
          "internalType": "bool",
          "name": "",
          "type": "bool"
        }
      ],
      "stateMutability": "view",
      "type": "function"
    },
    {
      "inputs": [
        {
          "internalType": "string",
          "name": "name",
          "type": "string"
        }
      ],
      "name": "check_label",
      "outputs": [
        {
          "internalType": "uint256",
          "name": "label",
          "type": "uint256"
        }
      ],
      "stateMutability": "view",
      "type": "function"
    },
    {
      "inputs": [],
      "name": "check_message",
      "outputs": [
        {
          "internalType": "uint256",
          "name": "",
          "type": "uint256"
        },
        {
          "internalType": "uint256",
          "name": "",
          "type": "uint256"
        }
      ],
      "stateMutability": "view",
      "type": "function"
    },
    {
      "inputs": [
        {
          "internalType": "uint256",
          "name": "bnb_amount",
          "type": "uint256"
        }
      ],
      "name": "check_price",
      "outputs": [
        {
          "internalType": "uint256",
          "name": "",
          "type": "uint256"
        }
      ],
      "stateMutability": "nonpayable",
      "type": "function"
    },
    {
      "inputs": [],
      "name": "checkdepositAddress",
      "outputs": [
        {
          "internalType": "address",
          "name": "",
          "type": "address"
        }
      ],
      "stateMutability": "view",
      "type": "function"
    },
    {
      "inputs": [
        {
          "internalType": "uint16",
          "name": "_dstChainId",
          "type": "uint16"
        },
        {
          "internalType": "string",
          "name": "name",
          "type": "string"
        }
      ],
      "name": "checkfee",
      "outputs": [
        {
          "internalType": "uint256",
          "name": "",
          "type": "uint256"
        }
      ],
      "stateMutability": "view",
      "type": "function"
    },
    {
      "inputs": [
        {
          "internalType": "uint16",
          "name": "_dstChainId",
          "type": "uint16"
        },
        {
          "internalType": "bytes",
          "name": "_destination",
          "type": "bytes"
        },
        {
          "internalType": "string",
          "name": "name",
          "type": "string"
        }
      ],
      "name": "crossChain",
      "outputs": [],
      "stateMutability": "payable",
      "type": "function"
    },
    {
      "inputs": [],
      "name": "endpoint",
      "outputs": [
        {
          "internalType": "contract ILayerZeroEndpoint",
          "name": "",
          "type": "address"
        }
      ],
      "stateMutability": "view",
      "type": "function"
    },
    {
      "inputs": [
        {
          "internalType": "uint16",
          "name": "_dstChainId",
          "type": "uint16"
        },
        {
          "internalType": "address",
          "name": "_userApplication",
          "type": "address"
        },
        {
          "internalType": "bytes",
          "name": "_payload",
          "type": "bytes"
        },
        {
          "internalType": "bool",
          "name": "_payInZRO",
          "type": "bool"
        },
        {
          "internalType": "bytes",
          "name": "_adapterParams",
          "type": "bytes"
        }
      ],
      "name": "estimateFees",
      "outputs": [
        {
          "internalType": "uint256",
          "name": "nativeFee",
          "type": "uint256"
        },
        {
          "internalType": "uint256",
          "name": "zroFee",
          "type": "uint256"
        }
      ],
      "stateMutability": "view",
      "type": "function"
    },
    {
      "inputs": [
        {
          "internalType": "uint16",
          "name": "",
          "type": "uint16"
        },
        {
          "internalType": "bytes",
          "name": "",
          "type": "bytes"
        },
        {
          "internalType": "uint256",
          "name": "",
          "type": "uint256"
        }
      ],
      "name": "failedMessages",
      "outputs": [
        {
          "internalType": "uint256",
          "name": "payloadLength",
          "type": "uint256"
        },
        {
          "internalType": "bytes32",
          "name": "payloadHash",
          "type": "bytes32"
        }
      ],
      "stateMutability": "view",
      "type": "function"
    },
    {
      "inputs": [
        {
          "internalType": "uint256",
          "name": "tokenId",
          "type": "uint256"
        }
      ],
      "name": "getApproved",
      "outputs": [
        {
          "internalType": "address",
          "name": "",
          "type": "address"
        }
      ],
      "stateMutability": "view",
      "type": "function"
    },
    {
      "inputs": [],
      "name": "input",
      "outputs": [
        {
          "internalType": "address",
          "name": "",
          "type": "address"
        }
      ],
      "stateMutability": "view",
      "type": "function"
    },
    {
      "inputs": [
        {
          "internalType": "address",
          "name": "owner",
          "type": "address"
        },
        {
          "internalType": "address",
          "name": "operator",
          "type": "address"
        }
      ],
      "name": "isApprovedForAll",
      "outputs": [
        {
          "internalType": "bool",
          "name": "",
          "type": "bool"
        }
      ],
      "stateMutability": "view",
      "type": "function"
    },
    {
      "inputs": [
        {
          "internalType": "uint16",
          "name": "_srcChainId",
          "type": "uint16"
        },
        {
          "internalType": "bytes",
          "name": "_srcAddress",
          "type": "bytes"
        },
        {
          "internalType": "uint64",
          "name": "_nonce",
          "type": "uint64"
        },
        {
          "internalType": "bytes",
          "name": "_payload",
          "type": "bytes"
        }
      ],
      "name": "lzReceive",
      "outputs": [],
      "stateMutability": "nonpayable",
      "type": "function"
    },
    {
      "inputs": [],
      "name": "name",
      "outputs": [
        {
          "internalType": "string",
          "name": "",
          "type": "string"
        }
      ],
      "stateMutability": "view",
      "type": "function"
    },
    {
      "inputs": [],
      "name": "o",
      "outputs": [
        {
          "internalType": "bool",
          "name": "",
          "type": "bool"
        }
      ],
      "stateMutability": "view",
      "type": "function"
    },
    {
      "inputs": [
        {
          "internalType": "uint16",
          "name": "_srcChainId",
          "type": "uint16"
        },
        {
          "internalType": "bytes",
          "name": "_srcAddress",
          "type": "bytes"
        },
        {
          "internalType": "uint64",
          "name": "_nonce",
          "type": "uint64"
        },
        {
          "internalType": "bytes",
          "name": "_payload",
          "type": "bytes"
        }
      ],
      "name": "onLzReceive",
      "outputs": [],
      "stateMutability": "nonpayable",
      "type": "function"
    },
    {
      "inputs": [],
      "name": "output",
      "outputs": [
        {
          "internalType": "address",
          "name": "",
          "type": "address"
        }
      ],
      "stateMutability": "view",
      "type": "function"
    },
    {
      "inputs": [],
      "name": "owner",
      "outputs": [
        {
          "internalType": "address",
          "name": "",
          "type": "address"
        }
      ],
      "stateMutability": "view",
      "type": "function"
    },
    {
      "inputs": [
        {
          "internalType": "uint256",
          "name": "tokenId",
          "type": "uint256"
        }
      ],
      "name": "ownerOf",
      "outputs": [
        {
          "internalType": "address",
          "name": "",
          "type": "address"
        }
      ],
      "stateMutability": "view",
      "type": "function"
    },
    {
      "inputs": [],
      "name": "price",
      "outputs": [
        {
          "internalType": "uint256",
          "name": "base",
          "type": "uint256"
        },
        {
          "internalType": "uint256",
          "name": "premium",
          "type": "uint256"
        }
      ],
      "stateMutability": "view",
      "type": "function"
    },
    {
      "inputs": [],
      "name": "quoter",
      "outputs": [
        {
          "internalType": "contract IQuoter",
          "name": "",
          "type": "address"
        }
      ],
      "stateMutability": "view",
      "type": "function"
    },
    {
      "inputs": [
        {
          "internalType": "uint16",
          "name": "_dstChainId",
          "type": "uint16"
        },
        {
          "internalType": "bytes",
          "name": "_destination",
          "type": "bytes"
        },
        {
          "internalType": "string",
          "name": "name",
          "type": "string"
        },
        {
          "internalType": "uint256",
          "name": "duration",
          "type": "uint256"
        }
      ],
      "name": "register",
      "outputs": [],
      "stateMutability": "payable",
      "type": "function"
    },
    {
      "inputs": [],
      "name": "renounceOwnership",
      "outputs": [],
      "stateMutability": "nonpayable",
      "type": "function"
    },
    {
      "inputs": [
        {
          "internalType": "uint16",
          "name": "_srcChainId",
          "type": "uint16"
        },
        {
          "internalType": "bytes",
          "name": "_srcAddress",
          "type": "bytes"
        },
        {
          "internalType": "uint64",
          "name": "_nonce",
          "type": "uint64"
        },
        {
          "internalType": "bytes",
          "name": "_payload",
          "type": "bytes"
        }
      ],
      "name": "retryMessage",
      "outputs": [],
      "stateMutability": "payable",
      "type": "function"
    },
    {
      "inputs": [
        {
          "internalType": "address",
          "name": "from",
          "type": "address"
        },
        {
          "internalType": "address",
          "name": "to",
          "type": "address"
        },
        {
          "internalType": "uint256",
          "name": "tokenId",
          "type": "uint256"
        }
      ],
      "name": "safeTransferFrom",
      "outputs": [],
      "stateMutability": "nonpayable",
      "type": "function"
    },
    {
      "inputs": [
        {
          "internalType": "address",
          "name": "from",
          "type": "address"
        },
        {
          "internalType": "address",
          "name": "to",
          "type": "address"
        },
        {
          "internalType": "uint256",
          "name": "tokenId",
          "type": "uint256"
        },
        {
          "internalType": "bytes",
          "name": "_data",
          "type": "bytes"
        }
      ],
      "name": "safeTransferFrom",
      "outputs": [],
      "stateMutability": "nonpayable",
      "type": "function"
    },
    {
      "inputs": [
        {
          "internalType": "address",
          "name": "operator",
          "type": "address"
        },
        {
          "internalType": "bool",
          "name": "approved",
          "type": "bool"
        }
      ],
      "name": "setApprovalForAll",
      "outputs": [],
      "stateMutability": "nonpayable",
      "type": "function"
    },
    {
      "inputs": [
        {
          "internalType": "uint16",
          "name": "_chainId",
          "type": "uint16"
        },
        {
          "internalType": "bytes",
          "name": "_trustedRemote",
          "type": "bytes"
        }
      ],
      "name": "setTrustedRemote",
      "outputs": [],
      "stateMutability": "nonpayable",
      "type": "function"
    },
    {
      "inputs": [
        {
          "internalType": "address",
          "name": "_deposit",
          "type": "address"
        }
      ],
      "name": "setdepositAddress",
      "outputs": [],
      "stateMutability": "nonpayable",
      "type": "function"
    },
    {
      "inputs": [
        {
          "internalType": "uint256",
          "name": "newVal",
          "type": "uint256"
        }
      ],
      "name": "setgas",
      "outputs": [],
      "stateMutability": "nonpayable",
      "type": "function"
    },
    {
      "inputs": [
        {
          "internalType": "bytes4",
          "name": "interfaceId",
          "type": "bytes4"
        }
      ],
      "name": "supportsInterface",
      "outputs": [
        {
          "internalType": "bool",
          "name": "",
          "type": "bool"
        }
      ],
      "stateMutability": "view",
      "type": "function"
    },
    {
      "inputs": [],
      "name": "symbol",
      "outputs": [
        {
          "internalType": "string",
          "name": "",
          "type": "string"
        }
      ],
      "stateMutability": "view",
      "type": "function"
    },
    {
      "inputs": [
        {
          "internalType": "uint256",
          "name": "tokenId",
          "type": "uint256"
        }
      ],
      "name": "tokenURI",
      "outputs": [
        {
          "internalType": "string",
          "name": "",
          "type": "string"
        }
      ],
      "stateMutability": "view",
      "type": "function"
    },
    {
      "inputs": [
        {
          "internalType": "address",
          "name": "from",
          "type": "address"
        },
        {
          "internalType": "address",
          "name": "to",
          "type": "address"
        },
        {
          "internalType": "uint256",
          "name": "tokenId",
          "type": "uint256"
        }
      ],
      "name": "transferFrom",
      "outputs": [],
      "stateMutability": "nonpayable",
      "type": "function"
    },
    {
      "inputs": [
        {
          "internalType": "address",
          "name": "newOwner",
          "type": "address"
        }
      ],
      "name": "transferOwnership",
      "outputs": [],
      "stateMutability": "nonpayable",
      "type": "function"
    },
    {
      "inputs": [
        {
          "internalType": "uint16",
          "name": "",
          "type": "uint16"
        }
      ],
      "name": "trustedRemoteLookup",
      "outputs": [
        {
          "internalType": "bytes",
          "name": "",
          "type": "bytes"
        }
      ],
      "stateMutability": "view",
      "type": "function"
    }
  ],
  "bytecode": "0x608060405273c778417e063141139fce010982780140aa0cd5ab600760006101000a81548173ffffffffffffffffffffffffffffffffffffffff021916908373ffffffffffffffffffffffffffffffffffffffff16021790555073c778417e063141139fce010982780140aa0cd5ab600860006101000a81548173ffffffffffffffffffffffffffffffffffffffff021916908373ffffffffffffffffffffffffffffffffffffffff160217905550606460095562055730600a55600060125560006013556000601460006101000a81548160ff021916908315150217905550348015620000ec57600080fd5b5060405162005b0638038062005b068339818101604052810190620001129190620004d8565b6040518060400160405280600481526020017f73746172000000000000000000000000000000000000000000000000000000008152506040518060400160405280600481526020017f73746172000000000000000000000000000000000000000000000000000000008152506200019e620001926200027260201b60201c565b6200027a60201b60201c565b8160019080519060200190620001b69291906200033e565b508060029080519060200190620001cf9291906200033e565b50505083600d60006101000a81548173ffffffffffffffffffffffffffffffffffffffff021916908373ffffffffffffffffffffffffffffffffffffffff16021790555082600b6000018190555081600b6001018190555080600e60006101000a81548173ffffffffffffffffffffffffffffffffffffffff021916908373ffffffffffffffffffffffffffffffffffffffff16021790555050505050620005af565b600033905090565b60008060009054906101000a900473ffffffffffffffffffffffffffffffffffffffff169050816000806101000a81548173ffffffffffffffffffffffffffffffffffffffff021916908373ffffffffffffffffffffffffffffffffffffffff1602179055508173ffffffffffffffffffffffffffffffffffffffff168173ffffffffffffffffffffffffffffffffffffffff167f8be0079c531659141344cd1fd0a4f28419497f9722a3daafe3b4186f6b6457e060405160405180910390a35050565b8280546200034c9062000579565b90600052602060002090601f016020900481019282620003705760008555620003bc565b82601f106200038b57805160ff1916838001178555620003bc565b82800160010185558215620003bc579182015b82811115620003bb5782518255916020019190600101906200039e565b5b509050620003cb9190620003cf565b5090565b5b80821115620003ea576000816000905550600101620003d0565b5090565b600080fd5b600073ffffffffffffffffffffffffffffffffffffffff82169050919050565b60006200042082620003f3565b9050919050565b620004328162000413565b81146200043e57600080fd5b50565b600081519050620004528162000427565b92915050565b6000819050919050565b6200046d8162000458565b81146200047957600080fd5b50565b6000815190506200048d8162000462565b92915050565b6000620004a08262000413565b9050919050565b620004b28162000493565b8114620004be57600080fd5b50565b600081519050620004d281620004a7565b92915050565b60008060008060808587031215620004f557620004f4620003ee565b5b6000620005058782880162000441565b945050602062000518878288016200047c565b93505060406200052b878288016200047c565b92505060606200053e87828801620004c1565b91505092959194509250565b7f4e487b7100000000000000000000000000000000000000000000000000000000600052602260045260246000fd5b600060028204905060018216806200059257607f821691505b60208210811415620005a957620005a86200054a565b5b50919050565b61554780620005bf6000396000f3fe60806040526004361061023a5760003560e01c8063715018a61161012e578063c87b56dd116100ab578063eaed3f4f1161006f578063eaed3f4f146108ca578063eb8d72b7146108f5578063f20eaeb81461091e578063f2fde38b14610949578063f93fa64a146109725761023a565b8063c87b56dd146107cb578063d1deba1f14610808578063d275f5e014610824578063e700bcbe14610850578063e985e9c51461088d5761023a565b806395d89b41116100f257806395d89b41146106f7578063a035b1fe14610722578063a22cb4651461074e578063b88d4fde14610777578063c6bbd5a7146107a05761023a565b8063715018a61461060f5780637533d788146106265780638da5cb5b146106635780638ee749121461068e578063919840ad146106cc5761023a565b80632477ff01116101bc57806350cd4df21161018057806350cd4df2146105025780635e280f111461052d5780636352211e146105585780636bca820e1461059557806370a08231146105d25761023a565b80632477ff011461040c578063266bd90114610435578063383d81901461047257806340a7bb101461049b57806342842e0e146104d95761023a565b8063095ea7b311610203578063095ea7b31461034a57806311fc05cd146103735780631c37a8221461039e5780631d63c150146103c757806323b872dd146103e35761023a565b80621d35671461023f57806301ffc9a71461026857806306fdde03146102a5578063081812fc146102d05780630843501e1461030d575b600080fd5b34801561024b57600080fd5b5061026660048036038101906102619190613449565b61098e565b005b34801561027457600080fd5b5061028f600480360381019061028a9190613540565b610bd0565b60405161029c9190613588565b60405180910390f35b3480156102b157600080fd5b506102ba610cb2565b6040516102c7919061362b565b60405180910390f35b3480156102dc57600080fd5b506102f760048036038101906102f29190613683565b610d44565b60405161030491906136f1565b60405180910390f35b34801561031957600080fd5b50610334600480360381019061032f919061376c565b610dc9565b60405161034191906137db565b60405180910390f35b34801561035657600080fd5b50610371600480360381019061036c9190613822565b610ef6565b005b34801561037f57600080fd5b5061038861100e565b60405161039591906136f1565b60405180910390f35b3480156103aa57600080fd5b506103c560048036038101906103c09190613449565b611038565b005b6103e160048036038101906103dc91906138b8565b6110b8565b005b3480156103ef57600080fd5b5061040a6004803603810190610405919061395f565b611302565b005b34801561041857600080fd5b50610433600480360381019061042e9190613683565b611362565b005b34801561044157600080fd5b5061045c60048036038101906104579190613683565b6113e8565b60405161046991906137db565b60405180910390f35b34801561047e57600080fd5b50610499600480360381019061049491906139b2565b6114f2565b005b3480156104a757600080fd5b506104c260048036038101906104bd9190613a0b565b6115b2565b6040516104d0929190613ac7565b60405180910390f35b3480156104e557600080fd5b5061050060048036038101906104fb919061395f565b61167b565b005b34801561050e57600080fd5b5061051761169b565b6040516105249190613588565b60405180910390f35b34801561053957600080fd5b506105426116ae565b60405161054f9190613b4f565b60405180910390f35b34801561056457600080fd5b5061057f600480360381019061057a9190613683565b6116d4565b60405161058c91906136f1565b60405180910390f35b3480156105a157600080fd5b506105bc60048036038101906105b79190613b6a565b611786565b6040516105c99190613588565b60405180910390f35b3480156105de57600080fd5b506105f960048036038101906105f491906139b2565b6117b9565b60405161060691906137db565b60405180910390f35b34801561061b57600080fd5b50610624611871565b005b34801561063257600080fd5b5061064d60048036038101906106489190613b97565b6118f9565b60405161065a9190613c19565b60405180910390f35b34801561066f57600080fd5b50610678611999565b60405161068591906136f1565b60405180910390f35b34801561069a57600080fd5b506106b560048036038101906106b09190613c3b565b6119c2565b6040516106c3929190613cc3565b60405180910390f35b3480156106d857600080fd5b506106e1611a16565b6040516106ee9190613588565b60405180910390f35b34801561070357600080fd5b5061070c611a2d565b604051610719919061362b565b60405180910390f35b34801561072e57600080fd5b50610737611abf565b604051610745929190613ac7565b60405180910390f35b34801561075a57600080fd5b5061077560048036038101906107709190613cec565b611ad1565b005b34801561078357600080fd5b5061079e60048036038101906107999190613d2c565b611ae7565b005b3480156107ac57600080fd5b506107b5611b49565b6040516107c29190613dd0565b60405180910390f35b3480156107d757600080fd5b506107f260048036038101906107ed9190613683565b611b6f565b6040516107ff919061362b565b60405180910390f35b610822600480360381019061081d9190613deb565b611c16565b005b34801561083057600080fd5b50610839611db6565b604051610847929190613ac7565b60405180910390f35b34801561085c57600080fd5b5061087760048036038101906108729190613e8f565b611dc7565b60405161088491906137db565b60405180910390f35b34801561089957600080fd5b506108b460048036038101906108af9190613edc565b611dee565b6040516108c19190613588565b60405180910390f35b3480156108d657600080fd5b506108df611e82565b6040516108ec91906136f1565b60405180910390f35b34801561090157600080fd5b5061091c60048036038101906109179190613f1c565b611ea8565b005b34801561092a57600080fd5b50610933611f54565b60405161094091906136f1565b60405180910390f35b34801561095557600080fd5b50610970600480360381019061096b91906139b2565b611f7a565b005b61098c60048036038101906109879190613f7c565b612072565b005b600d60009054906101000a900473ffffffffffffffffffffffffffffffffffffffff1673ffffffffffffffffffffffffffffffffffffffff163373ffffffffffffffffffffffffffffffffffffffff16146109e857600080fd5b601160008561ffff1661ffff1681526020019081526020016000208054610a0e90614040565b90508351148015610a545750601160008561ffff1661ffff168152602001908152602001600020604051610a429190614111565b60405180910390208380519060200120145b610a93576040517f08c379a0000000000000000000000000000000000000000000000000000000008152600401610a8a9061419a565b60405180910390fd5b3073ffffffffffffffffffffffffffffffffffffffff16631c37a822858585856040518563ffffffff1660e01b8152600401610ad294939291906141d8565b600060405180830381600087803b158015610aec57600080fd5b505af1925050508015610afd575060015b610bc9576040518060400160405280825181526020018280519060200120815250601060008661ffff1661ffff16815260200190815260200160002084604051610b47919061425c565b908152602001604051809103902060008467ffffffffffffffff16815260200190815260200160002060008201518160000155602082015181600101559050507fe6f254030bcb01ffd20558175c13fcaed6d1520be7becee4c961b65f79243b0d84848484604051610bbc94939291906141d8565b60405180910390a1610bca565b5b50505050565b60007f80ac58cd000000000000000000000000000000000000000000000000000000007bffffffffffffffffffffffffffffffffffffffffffffffffffffffff1916827bffffffffffffffffffffffffffffffffffffffffffffffffffffffff19161480610c9b57507f5b5e139f000000000000000000000000000000000000000000000000000000007bffffffffffffffffffffffffffffffffffffffffffffffffffffffff1916827bffffffffffffffffffffffffffffffffffffffffffffffffffffffff1916145b80610cab5750610caa826123ae565b5b9050919050565b606060018054610cc190614040565b80601f0160208091040260200160405190810160405280929190818152602001828054610ced90614040565b8015610d3a5780601f10610d0f57610100808354040283529160200191610d3a565b820191906000526020600020905b815481529060010190602001808311610d1d57829003601f168201915b5050505050905090565b6000610d4f82612418565b610d8e576040517f08c379a0000000000000000000000000000000000000000000000000000000008152600401610d85906142e5565b60405180910390fd5b6005600083815260200190815260200160002060009054906101000a900473ffffffffffffffffffffffffffffffffffffffff169050919050565b600080610dd68484611dc7565b9050600033826000604051602001610df09392919061434d565b6040516020818303038152906040529050600060019050600081600a54604051602001610e1e9291906143db565b60405160208183030381529060405290506000600d60009054906101000a900473ffffffffffffffffffffffffffffffffffffffff1673ffffffffffffffffffffffffffffffffffffffff166340a7bb108a30876000876040518663ffffffff1660e01b8152600401610e95959493929190614407565b604080518083038186803b158015610eac57600080fd5b505afa158015610ec0573d6000803e3d6000fd5b505050506040513d601f19601f82011682018060405250810190610ee4919061447d565b50905080955050505050509392505050565b6000610f01826116d4565b90508073ffffffffffffffffffffffffffffffffffffffff168373ffffffffffffffffffffffffffffffffffffffff161415610f72576040517f08c379a0000000000000000000000000000000000000000000000000000000008152600401610f699061452f565b60405180910390fd5b8073ffffffffffffffffffffffffffffffffffffffff16610f91612484565b73ffffffffffffffffffffffffffffffffffffffff161480610fc05750610fbf81610fba612484565b611dee565b5b610fff576040517f08c379a0000000000000000000000000000000000000000000000000000000008152600401610ff6906145c1565b60405180910390fd5b611009838361248c565b505050565b6000600f60009054906101000a900473ffffffffffffffffffffffffffffffffffffffff16905090565b3073ffffffffffffffffffffffffffffffffffffffff163373ffffffffffffffffffffffffffffffffffffffff16146110a6576040517f08c379a000000000000000000000000000000000000000000000000000000000815260040161109d90614653565b60405180910390fd5b6110b284848484612545565b50505050565b6000339050600084846040516110cf929190614698565b604051809103902060001c90506110e581612418565b156110ef57600080fd5b6000828260006040516020016111079392919061434d565b6040516020818303038152906040529050600060019050600081600a546040516020016111359291906143db565b60405160208183030381529060405290506000600d60009054906101000a900473ffffffffffffffffffffffffffffffffffffffff1673ffffffffffffffffffffffffffffffffffffffff166340a7bb108d30876000876040518663ffffffff1660e01b81526004016111ac959493929190614407565b604080518083038186803b1580156111c357600080fd5b505afa1580156111d7573d6000803e3d6000fd5b505050506040513d601f19601f820116820180604052508101906111fb919061447d565b50905080341015611241576040517f08c379a000000000000000000000000000000000000000000000000000000000815260040161123890614723565b60405180910390fd5b600d60009054906101000a900473ffffffffffffffffffffffffffffffffffffffff1673ffffffffffffffffffffffffffffffffffffffff1663c5803100348e8e8e893360008a6040518963ffffffff1660e01b81526004016112aa9796959493929190614791565b6000604051808303818588803b1580156112c357600080fd5b505af11580156112d7573d6000803e3d6000fd5b5050505050601260008154809291906112ef90614838565b9190505550505050505050505050505050565b61131361130d612484565b826126ea565b611352576040517f08c379a0000000000000000000000000000000000000000000000000000000008152600401611349906148f3565b60405180910390fd5b61135d8383836127c8565b505050565b61136a612484565b73ffffffffffffffffffffffffffffffffffffffff16611388611999565b73ffffffffffffffffffffffffffffffffffffffff16146113de576040517f08c379a00000000000000000000000000000000000000000000000000000000081526004016113d59061495f565b60405180910390fd5b80600a8190555050565b600080600e60009054906101000a900473ffffffffffffffffffffffffffffffffffffffff1673ffffffffffffffffffffffffffffffffffffffff166330d07f21600760009054906101000a900473ffffffffffffffffffffffffffffffffffffffff16600860009054906101000a900473ffffffffffffffffffffffffffffffffffffffff16610bb88760006040518663ffffffff1660e01b81526004016114959594939291906149fa565b602060405180830381600087803b1580156114af57600080fd5b505af11580156114c3573d6000803e3d6000fd5b505050506040513d601f19601f820116820180604052508101906114e79190614a4d565b905080915050919050565b6114fa612484565b73ffffffffffffffffffffffffffffffffffffffff16611518611999565b73ffffffffffffffffffffffffffffffffffffffff161461156e576040517f08c379a00000000000000000000000000000000000000000000000000000000081526004016115659061495f565b60405180910390fd5b80600f60006101000a81548173ffffffffffffffffffffffffffffffffffffffff021916908373ffffffffffffffffffffffffffffffffffffffff16021790555050565b600080600d60009054906101000a900473ffffffffffffffffffffffffffffffffffffffff1673ffffffffffffffffffffffffffffffffffffffff166340a7bb108a8a8a8a8a8a8a6040518863ffffffff1660e01b815260040161161c9796959493929190614a7a565b604080518083038186803b15801561163357600080fd5b505afa158015611647573d6000803e3d6000fd5b505050506040513d601f19601f8201168201806040525081019061166b919061447d565b9150915097509795505050505050565b61169683838360405180602001604052806000815250611ae7565b505050565b601460009054906101000a900460ff1681565b600d60009054906101000a900473ffffffffffffffffffffffffffffffffffffffff1681565b6000806003600084815260200190815260200160002060009054906101000a900473ffffffffffffffffffffffffffffffffffffffff169050600073ffffffffffffffffffffffffffffffffffffffff168173ffffffffffffffffffffffffffffffffffffffff16141561177d576040517f08c379a000000000000000000000000000000000000000000000000000000000815260040161177490614b51565b60405180910390fd5b80915050919050565b600081601460006101000a81548160ff021916908315150217905550601460009054906101000a900460ff169050919050565b60008073ffffffffffffffffffffffffffffffffffffffff168273ffffffffffffffffffffffffffffffffffffffff16141561182a576040517f08c379a000000000000000000000000000000000000000000000000000000000815260040161182190614be3565b60405180910390fd5b600460008373ffffffffffffffffffffffffffffffffffffffff1673ffffffffffffffffffffffffffffffffffffffff168152602001908152602001600020549050919050565b611879612484565b73ffffffffffffffffffffffffffffffffffffffff16611897611999565b73ffffffffffffffffffffffffffffffffffffffff16146118ed576040517f08c379a00000000000000000000000000000000000000000000000000000000081526004016118e49061495f565b60405180910390fd5b6118f76000612a2f565b565b6011602052806000526040600020600091509050805461191890614040565b80601f016020809104026020016040519081016040528092919081815260200182805461194490614040565b80156119915780601f1061196657610100808354040283529160200191611991565b820191906000526020600020905b81548152906001019060200180831161197457829003601f168201915b505050505081565b60008060009054906101000a900473ffffffffffffffffffffffffffffffffffffffff16905090565b60106020528260005260406000208280516020810182018051848252602083016020850120818352809550505050505060205280600052604060002060009250925050508060000154908060010154905082565b6000601460009054906101000a900460ff16905090565b606060028054611a3c90614040565b80601f0160208091040260200160405190810160405280929190818152602001828054611a6890614040565b8015611ab55780601f10611a8a57610100808354040283529160200191611ab5565b820191906000526020600020905b815481529060010190602001808311611a9857829003601f168201915b5050505050905090565b600b8060000154908060010154905082565b611ae3611adc612484565b8383612af3565b5050565b611af8611af2612484565b836126ea565b611b37576040517f08c379a0000000000000000000000000000000000000000000000000000000008152600401611b2e906148f3565b60405180910390fd5b611b4384848484612c60565b50505050565b600e60009054906101000a900473ffffffffffffffffffffffffffffffffffffffff1681565b6060611b7a82612418565b611bb9576040517f08c379a0000000000000000000000000000000000000000000000000000000008152600401611bb090614c75565b60405180910390fd5b6000611bc3612cbc565b90506000815111611be35760405180602001604052806000815250611c0e565b80611bed84612cd3565b604051602001611bfe929190614cd1565b6040516020818303038152906040525b915050919050565b6000601060008761ffff1661ffff16815260200190815260200160002085604051611c41919061425c565b908152602001604051809103902060008567ffffffffffffffff16815260200190815260200160002090506000801b81600101541415611cb6576040517f08c379a0000000000000000000000000000000000000000000000000000000008152600401611cad90614d67565b60405180910390fd5b806000015483839050148015611ce6575080600101548383604051611cdc929190614698565b6040518091039020145b611d25576040517f08c379a0000000000000000000000000000000000000000000000000000000008152600401611d1c90614dd3565b60405180910390fd5b600081600001819055506000801b81600101819055503073ffffffffffffffffffffffffffffffffffffffff16631c37a82287878787876040518663ffffffff1660e01b8152600401611d7c959493929190614df3565b600060405180830381600087803b158015611d9657600080fd5b505af1158015611daa573d6000803e3d6000fd5b50505050505050505050565b600080601254601354915091509091565b6000808383604051611dda929190614698565b604051809103902060001c90505092915050565b6000600660008473ffffffffffffffffffffffffffffffffffffffff1673ffffffffffffffffffffffffffffffffffffffff16815260200190815260200160002060008373ffffffffffffffffffffffffffffffffffffffff1673ffffffffffffffffffffffffffffffffffffffff16815260200190815260200160002060009054906101000a900460ff16905092915050565b600760009054906101000a900473ffffffffffffffffffffffffffffffffffffffff1681565b611eb0612484565b73ffffffffffffffffffffffffffffffffffffffff16611ece611999565b73ffffffffffffffffffffffffffffffffffffffff1614611f24576040517f08c379a0000000000000000000000000000000000000000000000000000000008152600401611f1b9061495f565b60405180910390fd5b8181601160008661ffff1661ffff1681526020019081526020016000209190611f4e9291906131d2565b50505050565b600860009054906101000a900473ffffffffffffffffffffffffffffffffffffffff1681565b611f82612484565b73ffffffffffffffffffffffffffffffffffffffff16611fa0611999565b73ffffffffffffffffffffffffffffffffffffffff1614611ff6576040517f08c379a0000000000000000000000000000000000000000000000000000000008152600401611fed9061495f565b60405180910390fd5b600073ffffffffffffffffffffffffffffffffffffffff168173ffffffffffffffffffffffffffffffffffffffff161415612066576040517f08c379a000000000000000000000000000000000000000000000000000000000815260040161205d90614eba565b60405180910390fd5b61206f81612a2f565b50565b60008282604051612084929190614698565b604051809103902060001c905061209a81612418565b6120a357600080fd5b6120ac816116d4565b73ffffffffffffffffffffffffffffffffffffffff163373ffffffffffffffffffffffffffffffffffffffff16146120e357600080fd5b61211033600f60009054906101000a900473ffffffffffffffffffffffffffffffffffffffff16836127c8565b600f60009054906101000a900473ffffffffffffffffffffffffffffffffffffffff1673ffffffffffffffffffffffffffffffffffffffff1663b6b55f25826040518263ffffffff1660e01b815260040161216b91906137db565b600060405180830381600087803b15801561218557600080fd5b505af1158015612199573d6000803e3d6000fd5b505050506000338260006040516020016121b59392919061434d565b6040516020818303038152906040529050600060019050600081600a546040516020016121e39291906143db565b60405160208183030381529060405290506000600d60009054906101000a900473ffffffffffffffffffffffffffffffffffffffff1673ffffffffffffffffffffffffffffffffffffffff166340a7bb108b30876000876040518663ffffffff1660e01b815260040161225a959493929190614407565b604080518083038186803b15801561227157600080fd5b505afa158015612285573d6000803e3d6000fd5b505050506040513d601f19601f820116820180604052508101906122a9919061447d565b509050803410156122ef576040517f08c379a00000000000000000000000000000000000000000000000000000000081526004016122e690614723565b60405180910390fd5b600d60009054906101000a900473ffffffffffffffffffffffffffffffffffffffff1673ffffffffffffffffffffffffffffffffffffffff1663c5803100348c8c8c893360008a6040518963ffffffff1660e01b81526004016123589796959493929190614791565b6000604051808303818588803b15801561237157600080fd5b505af1158015612385573d6000803e3d6000fd5b50505050506012600081548092919061239d90614838565b919050555050505050505050505050565b60007f01ffc9a7000000000000000000000000000000000000000000000000000000007bffffffffffffffffffffffffffffffffffffffffffffffffffffffff1916827bffffffffffffffffffffffffffffffffffffffffffffffffffffffff1916149050919050565b60008073ffffffffffffffffffffffffffffffffffffffff166003600084815260200190815260200160002060009054906101000a900473ffffffffffffffffffffffffffffffffffffffff1673ffffffffffffffffffffffffffffffffffffffff1614159050919050565b600033905090565b816005600083815260200190815260200160002060006101000a81548173ffffffffffffffffffffffffffffffffffffffff021916908373ffffffffffffffffffffffffffffffffffffffff160217905550808273ffffffffffffffffffffffffffffffffffffffff166124ff836116d4565b73ffffffffffffffffffffffffffffffffffffffff167f8c5be1e5ebec7d5bd14f71427d1e84f3dd0314c0f7b2291e5b200ac8c7c3b92560405160405180910390a45050565b600060148401519050600080838060200190518101906125659190614f06565b9150915061257281612418565b612585576125808282612e34565b612673565b600f60009054906101000a900473ffffffffffffffffffffffffffffffffffffffff1673ffffffffffffffffffffffffffffffffffffffff166125c7826116d4565b73ffffffffffffffffffffffffffffffffffffffff16141561267257600f60009054906101000a900473ffffffffffffffffffffffffffffffffffffffff1673ffffffffffffffffffffffffffffffffffffffff1662f714ce82846040518363ffffffff1660e01b815260040161263f929190614f46565b600060405180830381600087803b15801561265957600080fd5b505af115801561266d573d6000803e3d6000fd5b505050505b5b6001601460006101000a81548160ff021916908315150217905550601360008154809291906126a190614838565b91905055507fb2fc0605d8092337433832abc79c17edd73790ce82bcd45e4ac4843f3aae82398784866040516126d993929190614f6f565b60405180910390a150505050505050565b60006126f582612418565b612734576040517f08c379a000000000000000000000000000000000000000000000000000000000815260040161272b9061501f565b60405180910390fd5b600061273f836116d4565b90508073ffffffffffffffffffffffffffffffffffffffff168473ffffffffffffffffffffffffffffffffffffffff16148061278157506127808185611dee565b5b806127bf57508373ffffffffffffffffffffffffffffffffffffffff166127a784610d44565b73ffffffffffffffffffffffffffffffffffffffff16145b91505092915050565b8273ffffffffffffffffffffffffffffffffffffffff166127e8826116d4565b73ffffffffffffffffffffffffffffffffffffffff161461283e576040517f08c379a0000000000000000000000000000000000000000000000000000000008152600401612835906150b1565b60405180910390fd5b600073ffffffffffffffffffffffffffffffffffffffff168273ffffffffffffffffffffffffffffffffffffffff1614156128ae576040517f08c379a00000000000000000000000000000000000000000000000000000000081526004016128a590615143565b60405180910390fd5b6128b983838361300e565b6128c460008261248c565b6001600460008573ffffffffffffffffffffffffffffffffffffffff1673ffffffffffffffffffffffffffffffffffffffff16815260200190815260200160002060008282546129149190615163565b925050819055506001600460008473ffffffffffffffffffffffffffffffffffffffff1673ffffffffffffffffffffffffffffffffffffffff168152602001908152602001600020600082825461296b9190615197565b92505081905550816003600083815260200190815260200160002060006101000a81548173ffffffffffffffffffffffffffffffffffffffff021916908373ffffffffffffffffffffffffffffffffffffffff160217905550808273ffffffffffffffffffffffffffffffffffffffff168473ffffffffffffffffffffffffffffffffffffffff167fddf252ad1be2c89b69c2b068fc378daa952ba7f163c4a11628f55a4df523b3ef60405160405180910390a4612a2a838383613013565b505050565b60008060009054906101000a900473ffffffffffffffffffffffffffffffffffffffff169050816000806101000a81548173ffffffffffffffffffffffffffffffffffffffff021916908373ffffffffffffffffffffffffffffffffffffffff1602179055508173ffffffffffffffffffffffffffffffffffffffff168173ffffffffffffffffffffffffffffffffffffffff167f8be0079c531659141344cd1fd0a4f28419497f9722a3daafe3b4186f6b6457e060405160405180910390a35050565b8173ffffffffffffffffffffffffffffffffffffffff168373ffffffffffffffffffffffffffffffffffffffff161415612b62576040517f08c379a0000000000000000000000000000000000000000000000000000000008152600401612b5990615239565b60405180910390fd5b80600660008573ffffffffffffffffffffffffffffffffffffffff1673ffffffffffffffffffffffffffffffffffffffff16815260200190815260200160002060008473ffffffffffffffffffffffffffffffffffffffff1673ffffffffffffffffffffffffffffffffffffffff16815260200190815260200160002060006101000a81548160ff0219169083151502179055508173ffffffffffffffffffffffffffffffffffffffff168373ffffffffffffffffffffffffffffffffffffffff167f17307eab39ab6107e8899845ad3d59bd9653f200f220920489ca2b5937696c3183604051612c539190613588565b60405180910390a3505050565b612c6b8484846127c8565b612c7784848484613018565b612cb6576040517f08c379a0000000000000000000000000000000000000000000000000000000008152600401612cad906152cb565b60405180910390fd5b50505050565b606060405180602001604052806000815250905090565b60606000821415612d1b576040518060400160405280600181526020017f30000000000000000000000000000000000000000000000000000000000000008152509050612e2f565b600082905060005b60008214612d4d578080612d3690614838565b915050600a82612d46919061531a565b9150612d23565b60008167ffffffffffffffff811115612d6957612d686132de565b5b6040519080825280601f01601f191660200182016040528015612d9b5781602001600182028036833780820191505090505b5090505b60008514612e2857600182612db49190615163565b9150600a85612dc3919061534b565b6030612dcf9190615197565b60f81b818381518110612de557612de461537c565b5b60200101907effffffffffffffffffffffffffffffffffffffffffffffffffffffffffffff1916908160001a905350600a85612e21919061531a565b9450612d9f565b8093505050505b919050565b600073ffffffffffffffffffffffffffffffffffffffff168273ffffffffffffffffffffffffffffffffffffffff161415612ea4576040517f08c379a0000000000000000000000000000000000000000000000000000000008152600401612e9b906153f7565b60405180910390fd5b612ead81612418565b15612eed576040517f08c379a0000000000000000000000000000000000000000000000000000000008152600401612ee490615463565b60405180910390fd5b612ef96000838361300e565b6001600460008473ffffffffffffffffffffffffffffffffffffffff1673ffffffffffffffffffffffffffffffffffffffff1681526020019081526020016000206000828254612f499190615197565b92505081905550816003600083815260200190815260200160002060006101000a81548173ffffffffffffffffffffffffffffffffffffffff021916908373ffffffffffffffffffffffffffffffffffffffff160217905550808273ffffffffffffffffffffffffffffffffffffffff16600073ffffffffffffffffffffffffffffffffffffffff167fddf252ad1be2c89b69c2b068fc378daa952ba7f163c4a11628f55a4df523b3ef60405160405180910390a461300a60008383613013565b5050565b505050565b505050565b60006130398473ffffffffffffffffffffffffffffffffffffffff166131af565b156131a2578373ffffffffffffffffffffffffffffffffffffffff1663150b7a02613062612484565b8786866040518563ffffffff1660e01b81526004016130849493929190615483565b602060405180830381600087803b15801561309e57600080fd5b505af19250505080156130cf57506040513d601f19601f820116820180604052508101906130cc91906154e4565b60015b613152573d80600081146130ff576040519150601f19603f3d011682016040523d82523d6000602084013e613104565b606091505b5060008151141561314a576040517f08c379a0000000000000000000000000000000000000000000000000000000008152600401613141906152cb565b60405180910390fd5b805181602001fd5b63150b7a0260e01b7bffffffffffffffffffffffffffffffffffffffffffffffffffffffff1916817bffffffffffffffffffffffffffffffffffffffffffffffffffffffff1916149150506131a7565b600190505b949350505050565b6000808273ffffffffffffffffffffffffffffffffffffffff163b119050919050565b8280546131de90614040565b90600052602060002090601f0160209004810192826132005760008555613247565b82601f1061321957803560ff1916838001178555613247565b82800160010185558215613247579182015b8281111561324657823582559160200191906001019061322b565b5b5090506132549190613258565b5090565b5b80821115613271576000816000905550600101613259565b5090565b6000604051905090565b600080fd5b600080fd5b600061ffff82169050919050565b6132a081613289565b81146132ab57600080fd5b50565b6000813590506132bd81613297565b92915050565b600080fd5b600080fd5b6000601f19601f8301169050919050565b7f4e487b7100000000000000000000000000000000000000000000000000000000600052604160045260246000fd5b613316826132cd565b810181811067ffffffffffffffff82111715613335576133346132de565b5b80604052505050565b6000613348613275565b9050613354828261330d565b919050565b600067ffffffffffffffff821115613374576133736132de565b5b61337d826132cd565b9050602081019050919050565b82818337600083830152505050565b60006133ac6133a784613359565b61333e565b9050828152602081018484840111156133c8576133c76132c8565b5b6133d384828561338a565b509392505050565b600082601f8301126133f0576133ef6132c3565b5b8135613400848260208601613399565b91505092915050565b600067ffffffffffffffff82169050919050565b61342681613409565b811461343157600080fd5b50565b6000813590506134438161341d565b92915050565b600080600080608085870312156134635761346261327f565b5b6000613471878288016132ae565b945050602085013567ffffffffffffffff81111561349257613491613284565b5b61349e878288016133db565b93505060406134af87828801613434565b925050606085013567ffffffffffffffff8111156134d0576134cf613284565b5b6134dc878288016133db565b91505092959194509250565b60007fffffffff0000000000000000000000000000000000000000000000000000000082169050919050565b61351d816134e8565b811461352857600080fd5b50565b60008135905061353a81613514565b92915050565b6000602082840312156135565761355561327f565b5b60006135648482850161352b565b91505092915050565b60008115159050919050565b6135828161356d565b82525050565b600060208201905061359d6000830184613579565b92915050565b600081519050919050565b600082825260208201905092915050565b60005b838110156135dd5780820151818401526020810190506135c2565b838111156135ec576000848401525b50505050565b60006135fd826135a3565b61360781856135ae565b93506136178185602086016135bf565b613620816132cd565b840191505092915050565b6000602082019050818103600083015261364581846135f2565b905092915050565b6000819050919050565b6136608161364d565b811461366b57600080fd5b50565b60008135905061367d81613657565b92915050565b6000602082840312156136995761369861327f565b5b60006136a78482850161366e565b91505092915050565b600073ffffffffffffffffffffffffffffffffffffffff82169050919050565b60006136db826136b0565b9050919050565b6136eb816136d0565b82525050565b600060208201905061370660008301846136e2565b92915050565b600080fd5b600080fd5b60008083601f84011261372c5761372b6132c3565b5b8235905067ffffffffffffffff8111156137495761374861370c565b5b60208301915083600182028301111561376557613764613711565b5b9250929050565b6000806000604084860312156137855761378461327f565b5b6000613793868287016132ae565b935050602084013567ffffffffffffffff8111156137b4576137b3613284565b5b6137c086828701613716565b92509250509250925092565b6137d58161364d565b82525050565b60006020820190506137f060008301846137cc565b92915050565b6137ff816136d0565b811461380a57600080fd5b50565b60008135905061381c816137f6565b92915050565b600080604083850312156138395761383861327f565b5b60006138478582860161380d565b92505060206138588582860161366e565b9150509250929050565b60008083601f840112613878576138776132c3565b5b8235905067ffffffffffffffff8111156138955761389461370c565b5b6020830191508360018202830111156138b1576138b0613711565b5b9250929050565b600080600080600080608087890312156138d5576138d461327f565b5b60006138e389828a016132ae565b965050602087013567ffffffffffffffff81111561390457613903613284565b5b61391089828a01613862565b9550955050604087013567ffffffffffffffff81111561393357613932613284565b5b61393f89828a01613716565b9350935050606061395289828a0161366e565b9150509295509295509295565b6000806000606084860312156139785761397761327f565b5b60006139868682870161380d565b93505060206139978682870161380d565b92505060406139a88682870161366e565b9150509250925092565b6000602082840312156139c8576139c761327f565b5b60006139d68482850161380d565b91505092915050565b6139e88161356d565b81146139f357600080fd5b50565b600081359050613a05816139df565b92915050565b600080600080600080600060a0888a031215613a2a57613a2961327f565b5b6000613a388a828b016132ae565b9750506020613a498a828b0161380d565b965050604088013567ffffffffffffffff811115613a6a57613a69613284565b5b613a768a828b01613862565b95509550506060613a898a828b016139f6565b935050608088013567ffffffffffffffff811115613aaa57613aa9613284565b5b613ab68a828b01613862565b925092505092959891949750929550565b6000604082019050613adc60008301856137cc565b613ae960208301846137cc565b9392505050565b6000819050919050565b6000613b15613b10613b0b846136b0565b613af0565b6136b0565b9050919050565b6000613b2782613afa565b9050919050565b6000613b3982613b1c565b9050919050565b613b4981613b2e565b82525050565b6000602082019050613b646000830184613b40565b92915050565b600060208284031215613b8057613b7f61327f565b5b6000613b8e848285016139f6565b91505092915050565b600060208284031215613bad57613bac61327f565b5b6000613bbb848285016132ae565b91505092915050565b600081519050919050565b600082825260208201905092915050565b6000613beb82613bc4565b613bf58185613bcf565b9350613c058185602086016135bf565b613c0e816132cd565b840191505092915050565b60006020820190508181036000830152613c338184613be0565b905092915050565b600080600060608486031215613c5457613c5361327f565b5b6000613c62868287016132ae565b935050602084013567ffffffffffffffff811115613c8357613c82613284565b5b613c8f868287016133db565b9250506040613ca08682870161366e565b9150509250925092565b6000819050919050565b613cbd81613caa565b82525050565b6000604082019050613cd860008301856137cc565b613ce56020830184613cb4565b9392505050565b60008060408385031215613d0357613d0261327f565b5b6000613d118582860161380d565b9250506020613d22858286016139f6565b9150509250929050565b60008060008060808587031215613d4657613d4561327f565b5b6000613d548782880161380d565b9450506020613d658782880161380d565b9350506040613d768782880161366e565b925050606085013567ffffffffffffffff811115613d9757613d96613284565b5b613da3878288016133db565b91505092959194509250565b6000613dba82613b1c565b9050919050565b613dca81613daf565b82525050565b6000602082019050613de56000830184613dc1565b92915050565b600080600080600060808688031215613e0757613e0661327f565b5b6000613e15888289016132ae565b955050602086013567ffffffffffffffff811115613e3657613e35613284565b5b613e42888289016133db565b9450506040613e5388828901613434565b935050606086013567ffffffffffffffff811115613e7457613e73613284565b5b613e8088828901613862565b92509250509295509295909350565b60008060208385031215613ea657613ea561327f565b5b600083013567ffffffffffffffff811115613ec457613ec3613284565b5b613ed085828601613716565b92509250509250929050565b60008060408385031215613ef357613ef261327f565b5b6000613f018582860161380d565b9250506020613f128582860161380d565b9150509250929050565b600080600060408486031215613f3557613f3461327f565b5b6000613f43868287016132ae565b935050602084013567ffffffffffffffff811115613f6457613f63613284565b5b613f7086828701613862565b92509250509250925092565b600080600080600060608688031215613f9857613f9761327f565b5b6000613fa6888289016132ae565b955050602086013567ffffffffffffffff811115613fc757613fc6613284565b5b613fd388828901613862565b9450945050604086013567ffffffffffffffff811115613ff657613ff5613284565b5b61400288828901613716565b92509250509295509295909350565b7f4e487b7100000000000000000000000000000000000000000000000000000000600052602260045260246000fd5b6000600282049050600182168061405857607f821691505b6020821081141561406c5761406b614011565b5b50919050565b600081905092915050565b60008190508160005260206000209050919050565b6000815461409f81614040565b6140a98186614072565b945060018216600081146140c457600181146140d557614108565b60ff19831686528186019350614108565b6140de8561407d565b60005b83811015614100578154818901526001820191506020810190506140e1565b838801955050505b50505092915050565b600061411d8284614092565b915081905092915050565b7f4e6f6e626c6f636b696e6752656365697665723a20696e76616c696420736f7560008201527f7263652073656e64696e6720636f6e7472616374000000000000000000000000602082015250565b60006141846034836135ae565b915061418f82614128565b604082019050919050565b600060208201905081810360008301526141b381614177565b9050919050565b6141c381613289565b82525050565b6141d281613409565b82525050565b60006080820190506141ed60008301876141ba565b81810360208301526141ff8186613be0565b905061420e60408301856141c9565b81810360608301526142208184613be0565b905095945050505050565b600061423682613bc4565b6142408185614072565b93506142508185602086016135bf565b80840191505092915050565b6000614268828461422b565b915081905092915050565b7f4552433732313a20617070726f76656420717565727920666f72206e6f6e657860008201527f697374656e7420746f6b656e0000000000000000000000000000000000000000602082015250565b60006142cf602c836135ae565b91506142da82614273565b604082019050919050565b600060208201905081810360008301526142fe816142c2565b9050919050565b6000819050919050565b600060ff82169050919050565b600061433761433261432d84614305565b613af0565b61430f565b9050919050565b6143478161431c565b82525050565b600060608201905061436260008301866136e2565b61436f60208301856137cc565b61437c604083018461433e565b949350505050565b60008160f01b9050919050565b600061439c82614384565b9050919050565b6143b46143af82613289565b614391565b82525050565b6000819050919050565b6143d56143d08261364d565b6143ba565b82525050565b60006143e782856143a3565b6002820191506143f782846143c4565b6020820191508190509392505050565b600060a08201905061441c60008301886141ba565b61442960208301876136e2565b818103604083015261443b8186613be0565b905061444a6060830185613579565b818103608083015261445c8184613be0565b90509695505050505050565b60008151905061447781613657565b92915050565b600080604083850312156144945761449361327f565b5b60006144a285828601614468565b92505060206144b385828601614468565b9150509250929050565b7f4552433732313a20617070726f76616c20746f2063757272656e74206f776e6560008201527f7200000000000000000000000000000000000000000000000000000000000000602082015250565b60006145196021836135ae565b9150614524826144bd565b604082019050919050565b600060208201905081810360008301526145488161450c565b9050919050565b7f4552433732313a20617070726f76652063616c6c6572206973206e6f74206f7760008201527f6e6572206e6f7220617070726f76656420666f7220616c6c0000000000000000602082015250565b60006145ab6038836135ae565b91506145b68261454f565b604082019050919050565b600060208201905081810360008301526145da8161459e565b9050919050565b7f4e6f6e626c6f636b696e6752656365697665723a2063616c6c6572206d75737460008201527f206265204272696467652e000000000000000000000000000000000000000000602082015250565b600061463d602b836135ae565b9150614648826145e1565b604082019050919050565b6000602082019050818103600083015261466c81614630565b9050919050565b600061467f8385614072565b935061468c83858461338a565b82840190509392505050565b60006146a5828486614673565b91508190509392505050565b7f4d7573742073656e6420656e6f7567682076616c756520746f20636f7665722060008201527f6d65737361676546656500000000000000000000000000000000000000000000602082015250565b600061470d602a836135ae565b9150614718826146b1565b604082019050919050565b6000602082019050818103600083015261473c81614700565b9050919050565b600061474f8385613bcf565b935061475c83858461338a565b614765836132cd565b840190509392505050565b600061477b826136b0565b9050919050565b61478b81614770565b82525050565b600060c0820190506147a6600083018a6141ba565b81810360208301526147b981888a614743565b905081810360408301526147cd8187613be0565b90506147dc6060830186614782565b6147e960808301856136e2565b81810360a08301526147fb8184613be0565b905098975050505050505050565b7f4e487b7100000000000000000000000000000000000000000000000000000000600052601160045260246000fd5b60006148438261364d565b91507fffffffffffffffffffffffffffffffffffffffffffffffffffffffffffffffff82141561487657614875614809565b5b600182019050919050565b7f4552433732313a207472616e736665722063616c6c6572206973206e6f74206f60008201527f776e6572206e6f7220617070726f766564000000000000000000000000000000602082015250565b60006148dd6031836135ae565b91506148e882614881565b604082019050919050565b6000602082019050818103600083015261490c816148d0565b9050919050565b7f4f776e61626c653a2063616c6c6572206973206e6f7420746865206f776e6572600082015250565b60006149496020836135ae565b915061495482614913565b602082019050919050565b600060208201905081810360008301526149788161493c565b9050919050565b6000819050919050565b600062ffffff82169050919050565b60006149b36149ae6149a98461497f565b613af0565b614989565b9050919050565b6149c381614998565b82525050565b60006149e46149df6149da84614305565b613af0565b6136b0565b9050919050565b6149f4816149c9565b82525050565b600060a082019050614a0f60008301886136e2565b614a1c60208301876136e2565b614a2960408301866149ba565b614a3660608301856137cc565b614a4360808301846149eb565b9695505050505050565b600060208284031215614a6357614a6261327f565b5b6000614a7184828501614468565b91505092915050565b600060a082019050614a8f600083018a6141ba565b614a9c60208301896136e2565b8181036040830152614aaf818789614743565b9050614abe6060830186613579565b8181036080830152614ad1818486614743565b905098975050505050505050565b7f4552433732313a206f776e657220717565727920666f72206e6f6e657869737460008201527f656e7420746f6b656e0000000000000000000000000000000000000000000000602082015250565b6000614b3b6029836135ae565b9150614b4682614adf565b604082019050919050565b60006020820190508181036000830152614b6a81614b2e565b9050919050565b7f4552433732313a2062616c616e636520717565727920666f7220746865207a6560008201527f726f206164647265737300000000000000000000000000000000000000000000602082015250565b6000614bcd602a836135ae565b9150614bd882614b71565b604082019050919050565b60006020820190508181036000830152614bfc81614bc0565b9050919050565b7f4552433732314d657461646174613a2055524920717565727920666f72206e6f60008201527f6e6578697374656e7420746f6b656e0000000000000000000000000000000000602082015250565b6000614c5f602f836135ae565b9150614c6a82614c03565b604082019050919050565b60006020820190508181036000830152614c8e81614c52565b9050919050565b600081905092915050565b6000614cab826135a3565b614cb58185614c95565b9350614cc58185602086016135bf565b80840191505092915050565b6000614cdd8285614ca0565b9150614ce98284614ca0565b91508190509392505050565b7f4e6f6e626c6f636b696e6752656365697665723a206e6f2073746f726564206d60008201527f6573736167650000000000000000000000000000000000000000000000000000602082015250565b6000614d516026836135ae565b9150614d5c82614cf5565b604082019050919050565b60006020820190508181036000830152614d8081614d44565b9050919050565b7f4c617965725a65726f3a20696e76616c6964207061796c6f6164000000000000600082015250565b6000614dbd601a836135ae565b9150614dc882614d87565b602082019050919050565b60006020820190508181036000830152614dec81614db0565b9050919050565b6000608082019050614e0860008301886141ba565b8181036020830152614e1a8187613be0565b9050614e2960408301866141c9565b8181036060830152614e3c818486614743565b90509695505050505050565b7f4f776e61626c653a206e6577206f776e657220697320746865207a65726f206160008201527f6464726573730000000000000000000000000000000000000000000000000000602082015250565b6000614ea46026836135ae565b9150614eaf82614e48565b604082019050919050565b60006020820190508181036000830152614ed381614e97565b9050919050565b614ee381614770565b8114614eee57600080fd5b50565b600081519050614f0081614eda565b92915050565b60008060408385031215614f1d57614f1c61327f565b5b6000614f2b85828601614ef1565b9250506020614f3c85828601614468565b9150509250929050565b6000604082019050614f5b60008301856137cc565b614f6860208301846136e2565b9392505050565b6000606082019050614f8460008301866141ba565b614f9160208301856136e2565b8181036040830152614fa38184613be0565b9050949350505050565b7f4552433732313a206f70657261746f7220717565727920666f72206e6f6e657860008201527f697374656e7420746f6b656e0000000000000000000000000000000000000000602082015250565b6000615009602c836135ae565b915061501482614fad565b604082019050919050565b6000602082019050818103600083015261503881614ffc565b9050919050565b7f4552433732313a207472616e736665722066726f6d20696e636f72726563742060008201527f6f776e6572000000000000000000000000000000000000000000000000000000602082015250565b600061509b6025836135ae565b91506150a68261503f565b604082019050919050565b600060208201905081810360008301526150ca8161508e565b9050919050565b7f4552433732313a207472616e7366657220746f20746865207a65726f2061646460008201527f7265737300000000000000000000000000000000000000000000000000000000602082015250565b600061512d6024836135ae565b9150615138826150d1565b604082019050919050565b6000602082019050818103600083015261515c81615120565b9050919050565b600061516e8261364d565b91506151798361364d565b92508282101561518c5761518b614809565b5b828203905092915050565b60006151a28261364d565b91506151ad8361364d565b9250827fffffffffffffffffffffffffffffffffffffffffffffffffffffffffffffffff038211156151e2576151e1614809565b5b828201905092915050565b7f4552433732313a20617070726f766520746f2063616c6c657200000000000000600082015250565b60006152236019836135ae565b915061522e826151ed565b602082019050919050565b6000602082019050818103600083015261525281615216565b9050919050565b7f4552433732313a207472616e7366657220746f206e6f6e20455243373231526560008201527f63656976657220696d706c656d656e7465720000000000000000000000000000602082015250565b60006152b56032836135ae565b91506152c082615259565b604082019050919050565b600060208201905081810360008301526152e4816152a8565b9050919050565b7f4e487b7100000000000000000000000000000000000000000000000000000000600052601260045260246000fd5b60006153258261364d565b91506153308361364d565b9250826153405761533f6152eb565b5b828204905092915050565b60006153568261364d565b91506153618361364d565b925082615371576153706152eb565b5b828206905092915050565b7f4e487b7100000000000000000000000000000000000000000000000000000000600052603260045260246000fd5b7f4552433732313a206d696e7420746f20746865207a65726f2061646472657373600082015250565b60006153e16020836135ae565b91506153ec826153ab565b602082019050919050565b60006020820190508181036000830152615410816153d4565b9050919050565b7f4552433732313a20746f6b656e20616c7265616479206d696e74656400000000600082015250565b600061544d601c836135ae565b915061545882615417565b602082019050919050565b6000602082019050818103600083015261547c81615440565b9050919050565b600060808201905061549860008301876136e2565b6154a560208301866136e2565b6154b260408301856137cc565b81810360608301526154c48184613be0565b905095945050505050565b6000815190506154de81613514565b92915050565b6000602082840312156154fa576154f961327f565b5b6000615508848285016154cf565b9150509291505056fea2646970667358221220312551b91f1fb555cde03d1aea1f3d346482a4bd86e5744d71419950799762fe64736f6c63430008090033",
  "linkReferences": {},
  "deployedLinkReferences": {}
}