{
  "_format": "hh-sol-artifact-1",
  "contractName": "CommitInETH",
  "sourceName": "contracts/ednpoint/CommitInETH.sol",
  "abi": [
    {
      "inputs": [
        {
          "internalType": "uint256",
          "name": "_minCommitmentAge",
          "type": "uint256"
        },
        {
          "internalType": "uint256",
          "name": "_maxCommitmentAge",
          "type": "uint256"
        },
        {
          "internalType": "uint256",
          "name": "baseprice",
          "type": "uint256"
        },
        {
          "internalType": "uint256",
          "name": "premiumprice",
          "type": "uint256"
        },
        {
          "internalType": "contract IRegisterInETH",
          "name": "_base",
          "type": "address"
        }
      ],
      "stateMutability": "nonpayable",
      "type": "constructor"
    },
    {
      "anonymous": false,
      "inputs": [
        {
          "indexed": true,
          "internalType": "address",
          "name": "previousOwner",
          "type": "address"
        },
        {
          "indexed": true,
          "internalType": "address",
          "name": "newOwner",
          "type": "address"
        }
      ],
      "name": "OwnershipTransferred",
      "type": "event"
    },
    {
      "inputs": [],
      "name": "MIN_REGISTRATION_DURATION",
      "outputs": [
        {
          "internalType": "uint256",
          "name": "",
          "type": "uint256"
        }
      ],
      "stateMutability": "view",
      "type": "function"
    },
    {
      "inputs": [],
      "name": "base",
      "outputs": [
        {
          "internalType": "contract IRegisterInETH",
          "name": "",
          "type": "address"
        }
      ],
      "stateMutability": "view",
      "type": "function"
    },
    {
      "inputs": [
        {
          "internalType": "string",
          "name": "name",
          "type": "string"
        }
      ],
      "name": "byte_check_lable",
      "outputs": [
        {
          "internalType": "bytes32",
          "name": "",
          "type": "bytes32"
        }
      ],
      "stateMutability": "pure",
      "type": "function"
    },
    {
      "inputs": [
        {
          "internalType": "bytes32",
          "name": "commitment",
          "type": "bytes32"
        }
      ],
      "name": "check_commit_time",
      "outputs": [
        {
          "internalType": "uint256",
          "name": "",
          "type": "uint256"
        }
      ],
      "stateMutability": "view",
      "type": "function"
    },
    {
      "inputs": [
        {
          "internalType": "string",
          "name": "name",
          "type": "string"
        }
      ],
      "name": "check_lable",
      "outputs": [
        {
          "internalType": "uint256",
          "name": "",
          "type": "uint256"
        }
      ],
      "stateMutability": "pure",
      "type": "function"
    },
    {
      "inputs": [],
      "name": "checkcurrent",
      "outputs": [
        {
          "internalType": "uint256",
          "name": "",
          "type": "uint256"
        }
      ],
      "stateMutability": "view",
      "type": "function"
    },
    {
      "inputs": [
        {
          "internalType": "bytes32",
          "name": "commitment",
          "type": "bytes32"
        }
      ],
      "name": "commit",
      "outputs": [],
      "stateMutability": "nonpayable",
      "type": "function"
    },
    {
      "inputs": [
        {
          "internalType": "bytes32",
          "name": "",
          "type": "bytes32"
        }
      ],
      "name": "commitments",
      "outputs": [
        {
          "internalType": "uint256",
          "name": "",
          "type": "uint256"
        }
      ],
      "stateMutability": "view",
      "type": "function"
    },
    {
      "inputs": [
        {
          "internalType": "string",
          "name": "name",
          "type": "string"
        },
        {
          "internalType": "address",
          "name": "owner",
          "type": "address"
        },
        {
          "internalType": "uint256",
          "name": "duration",
          "type": "uint256"
        },
        {
          "internalType": "uint256",
          "name": "secret",
          "type": "uint256"
        }
      ],
      "name": "makeCommitment",
      "outputs": [
        {
          "internalType": "bytes32",
          "name": "",
          "type": "bytes32"
        }
      ],
      "stateMutability": "view",
      "type": "function"
    },
    {
      "inputs": [],
      "name": "maxCommitmentAge",
      "outputs": [
        {
          "internalType": "uint256",
          "name": "",
          "type": "uint256"
        }
      ],
      "stateMutability": "view",
      "type": "function"
    },
    {
      "inputs": [],
      "name": "minCommitmentAge",
      "outputs": [
        {
          "internalType": "uint256",
          "name": "",
          "type": "uint256"
        }
      ],
      "stateMutability": "view",
      "type": "function"
    },
    {
      "inputs": [
        {
          "internalType": "string",
          "name": "name",
          "type": "string"
        }
      ],
      "name": "name_available",
      "outputs": [
        {
          "internalType": "bool",
          "name": "",
          "type": "bool"
        }
      ],
      "stateMutability": "view",
      "type": "function"
    },
    {
      "inputs": [],
      "name": "owner",
      "outputs": [
        {
          "internalType": "address",
          "name": "",
          "type": "address"
        }
      ],
      "stateMutability": "view",
      "type": "function"
    },
    {
      "inputs": [],
      "name": "price",
      "outputs": [
        {
          "internalType": "uint256",
          "name": "base",
          "type": "uint256"
        },
        {
          "internalType": "uint256",
          "name": "premium",
          "type": "uint256"
        }
      ],
      "stateMutability": "view",
      "type": "function"
    },
    {
      "inputs": [
        {
          "internalType": "string",
          "name": "name",
          "type": "string"
        },
        {
          "internalType": "address",
          "name": "owner",
          "type": "address"
        },
        {
          "internalType": "uint256",
          "name": "duration",
          "type": "uint256"
        },
        {
          "internalType": "uint256",
          "name": "secret",
          "type": "uint256"
        }
      ],
      "name": "register",
      "outputs": [
        {
          "internalType": "uint256",
          "name": "",
          "type": "uint256"
        }
      ],
      "stateMutability": "payable",
      "type": "function"
    },
    {
      "inputs": [
        {
          "internalType": "string",
          "name": "name",
          "type": "string"
        },
        {
          "internalType": "address",
          "name": "owner",
          "type": "address"
        },
        {
          "internalType": "uint256",
          "name": "duration",
          "type": "uint256"
        }
      ],
      "name": "registerWithoutcommit",
      "outputs": [
        {
          "internalType": "uint256",
          "name": "",
          "type": "uint256"
        }
      ],
      "stateMutability": "payable",
      "type": "function"
    },
    {
      "inputs": [
        {
          "internalType": "string",
          "name": "name",
          "type": "string"
        },
        {
          "internalType": "uint256",
          "name": "duration",
          "type": "uint256"
        }
      ],
      "name": "renew",
      "outputs": [
        {
          "internalType": "uint256",
          "name": "",
          "type": "uint256"
        }
      ],
      "stateMutability": "payable",
      "type": "function"
    },
    {
      "inputs": [],
      "name": "renounceOwnership",
      "outputs": [],
      "stateMutability": "nonpayable",
      "type": "function"
    },
    {
      "inputs": [
        {
          "internalType": "address",
          "name": "newOwner",
          "type": "address"
        }
      ],
      "name": "transferOwnership",
      "outputs": [],
      "stateMutability": "nonpayable",
      "type": "function"
    },
    {
      "inputs": [],
      "name": "withdraw",
      "outputs": [],
      "stateMutability": "nonpayable",
      "type": "function"
    }
  ],
  "bytecode": "0x60e06040523480156200001157600080fd5b506040516200228438038062002284833981810160405281019062000037919062000266565b620000576200004b620000e160201b60201c565b620000e960201b60201c565b8484116200006457600080fd5b84608081815250508360a08181525050600083118015620000855750600082115b6200008f57600080fd5b826001600001819055508160018001819055508073ffffffffffffffffffffffffffffffffffffffff1660c08173ffffffffffffffffffffffffffffffffffffffff16815250505050505050620002ee565b600033905090565b60008060009054906101000a900473ffffffffffffffffffffffffffffffffffffffff169050816000806101000a81548173ffffffffffffffffffffffffffffffffffffffff021916908373ffffffffffffffffffffffffffffffffffffffff1602179055508173ffffffffffffffffffffffffffffffffffffffff168173ffffffffffffffffffffffffffffffffffffffff167f8be0079c531659141344cd1fd0a4f28419497f9722a3daafe3b4186f6b6457e060405160405180910390a35050565b600080fd5b6000819050919050565b620001c781620001b2565b8114620001d357600080fd5b50565b600081519050620001e781620001bc565b92915050565b600073ffffffffffffffffffffffffffffffffffffffff82169050919050565b60006200021a82620001ed565b9050919050565b60006200022e826200020d565b9050919050565b620002408162000221565b81146200024c57600080fd5b50565b600081519050620002608162000235565b92915050565b600080600080600060a08688031215620002855762000284620001ad565b5b60006200029588828901620001d6565b9550506020620002a888828901620001d6565b9450506040620002bb88828901620001d6565b9350506060620002ce88828901620001d6565b9250506080620002e1888289016200024f565b9150509295509295909350565b60805160a05160c051611f356200034f600039600081816105ec015281816107800152818161091701528181610b860152610cd8015260008181610a3a01528181610e45015261112501526000818161085101526110a40152611f356000f3fe60806040526004361061011f5760003560e01c8063a035b1fe116100a0578063e3c0e61611610064578063e3c0e616146103c7578063e513c2c314610404578063ecd4cff914610441578063f14fcbc81461047e578063f2fde38b146104a75761011f565b8063a035b1fe146102d3578063acf1a841146102ff578063ce1e09c01461032f578063df5071f31461035a578063e30e3657146103975761011f565b8063715018a6116100e7578063715018a6146101fe578063839df945146102155780638a95b09f146102525780638d839ffe1461027d5780638da5cb5b146102a85761011f565b8063286d94711461012457806328a3b553146101615780633ccfd60b146101915780635001f3b5146101a857806350c400e9146101d3575b600080fd5b34801561013057600080fd5b5061014b6004803603810190610146919061136e565b6104d0565b60405161015891906113d0565b60405180910390f35b61017b600480360381019061017691906114df565b6104e7565b6040516101889190611562565b60405180910390f35b34801561019d57600080fd5b506101a661072e565b005b3480156101b457600080fd5b506101bd61077e565b6040516101ca91906115dc565b60405180910390f35b3480156101df57600080fd5b506101e86107a2565b6040516101f59190611562565b60405180910390f35b34801561020a57600080fd5b506102136107aa565b005b34801561022157600080fd5b5061023c60048036038101906102379190611623565b610832565b6040516102499190611562565b60405180910390f35b34801561025e57600080fd5b5061026761084a565b6040516102749190611562565b60405180910390f35b34801561028957600080fd5b5061029261084f565b60405161029f9190611562565b60405180910390f35b3480156102b457600080fd5b506102bd610873565b6040516102ca919061165f565b60405180910390f35b3480156102df57600080fd5b506102e861089c565b6040516102f692919061167a565b60405180910390f35b610319600480360381019061031491906116a3565b6108ae565b6040516103269190611562565b60405180910390f35b34801561033b57600080fd5b50610344610a38565b6040516103519190611562565b60405180910390f35b34801561036657600080fd5b50610381600480360381019061037c919061136e565b610a5c565b60405161038e9190611562565b60405180910390f35b6103b160048036038101906103ac9190611703565b610a70565b6040516103be9190611562565b60405180910390f35b3480156103d357600080fd5b506103ee60048036038101906103e9919061136e565b610cc9565b6040516103fb91906117a6565b60405180910390f35b34801561041057600080fd5b5061042b60048036038101906104269190611623565b610d98565b6040516104389190611562565b60405180910390f35b34801561044d57600080fd5b50610468600480360381019061046391906117c1565b610db5565b60405161047591906113d0565b60405180910390f35b34801561048a57600080fd5b506104a560048036038101906104a09190611623565b610e42565b005b3480156104b357600080fd5b506104ce60048036038101906104c99190611844565b610edd565b005b6000818051906020012060001c60001b9050919050565b600060018001546001600001546104fe91906118a0565b341015610540576040517f08c379a000000000000000000000000000000000000000000000000000000000815260040161053790611953565b60405180910390fd5b61058d85858080601f016020809104026020016040519081016040528093929190818152602001838380828437600081840152601f19601f82011690508083019250505050505050610cc9565b6105cc576040517f08c379a00000000000000000000000000000000000000000000000000000000081526004016105c3906119bf565b60405180910390fd5b600085856040516105de929190611a0f565b6040518091039020905060007f000000000000000000000000000000000000000000000000000000000000000073ffffffffffffffffffffffffffffffffffffffff1663fca247ac8360001c87876040518463ffffffff1660e01b815260040161064a93929190611a28565b602060405180830381600087803b15801561066457600080fd5b505af1158015610678573d6000803e3d6000fd5b505050506040513d601f19601f8201168201806040525081019061069c9190611a74565b905060018001546001600001546106b391906118a0565b341115610721573373ffffffffffffffffffffffffffffffffffffffff166108fc60018001546001600001546106e991906118a0565b346106f49190611aa1565b9081150290604051600060405180830381858888f1935050505015801561071f573d6000803e3d6000fd5b505b8092505050949350505050565b610736610873565b73ffffffffffffffffffffffffffffffffffffffff166108fc479081150290604051600060405180830381858888f1935050505015801561077b573d6000803e3d6000fd5b50565b7f000000000000000000000000000000000000000000000000000000000000000081565b600042905090565b6107b2610fd5565b73ffffffffffffffffffffffffffffffffffffffff166107d0610873565b73ffffffffffffffffffffffffffffffffffffffff1614610826576040517f08c379a000000000000000000000000000000000000000000000000000000000815260040161081d90611b21565b60405180910390fd5b6108306000610fdd565b565b60036020528060005260406000206000915090505481565b600181565b7f000000000000000000000000000000000000000000000000000000000000000081565b60008060009054906101000a900473ffffffffffffffffffffffffffffffffffffffff16905090565b60018060000154908060010154905082565b60008084846040516108c1929190611a0f565b60405180910390209050600160000154341015610913576040517f08c379a000000000000000000000000000000000000000000000000000000000815260040161090a90611bb3565b60405180910390fd5b60007f000000000000000000000000000000000000000000000000000000000000000073ffffffffffffffffffffffffffffffffffffffff1663c475abff8360001c866040518363ffffffff1660e01b815260040161097392919061167a565b602060405180830381600087803b15801561098d57600080fd5b505af11580156109a1573d6000803e3d6000fd5b505050506040513d601f19601f820116820180604052508101906109c59190611a74565b9050600160000154341115610a2c573373ffffffffffffffffffffffffffffffffffffffff166108fc600160000154346109ff9190611aa1565b9081150290604051600060405180830381858888f19350505050158015610a2a573d6000803e3d6000fd5b505b80925050509392505050565b7f000000000000000000000000000000000000000000000000000000000000000081565b6000818051906020012060001c9050919050565b6000808686604051610a83929190611a0f565b604051809103902090506001800154600160000154610aa291906118a0565b341015610ae4576040517f08c379a0000000000000000000000000000000000000000000000000000000008152600401610adb90611953565b60405180910390fd5b610b8287878080601f016020809104026020016040519081016040528093929190818152602001838380828437600081840152601f19601f8201169050808301925050505050505085610b7d8a8a8080601f016020809104026020016040519081016040528093929190818152602001838380828437600081840152601f19601f82011690508083019250505050505050898989610db5565b6110a1565b60007f000000000000000000000000000000000000000000000000000000000000000073ffffffffffffffffffffffffffffffffffffffff1663fca247ac8360001c88886040518463ffffffff1660e01b8152600401610be493929190611a28565b602060405180830381600087803b158015610bfe57600080fd5b505af1158015610c12573d6000803e3d6000fd5b505050506040513d601f19601f82011682018060405250810190610c369190611a74565b90506001800154600160000154610c4d91906118a0565b341115610cbb573373ffffffffffffffffffffffffffffffffffffffff166108fc6001800154600160000154610c8391906118a0565b34610c8e9190611aa1565b9081150290604051600060405180830381858888f19350505050158015610cb9573d6000803e3d6000fd5b505b809250505095945050505050565b600080828051906020012090507f000000000000000000000000000000000000000000000000000000000000000073ffffffffffffffffffffffffffffffffffffffff166396e494e88260001c6040518263ffffffff1660e01b8152600401610d329190611562565b60206040518083038186803b158015610d4a57600080fd5b505afa158015610d5e573d6000803e3d6000fd5b505050506040513d601f19601f82011682018060405250810190610d829190611bff565b8015610d9057506003835110155b915050919050565b600060036000838152602001908152602001600020549050919050565b60008085805190602001209050610dcb86610cc9565b610e0a576040517f08c379a0000000000000000000000000000000000000000000000000000000008152600401610e0190611c78565b60405180910390fd5b80858585604051602001610e219493929190611c98565b60405160208183030381529060405280519060200120915050949350505050565b427f00000000000000000000000000000000000000000000000000000000000000006003600084815260200190815260200160002054610e8291906118a0565b10610ec2576040517f08c379a0000000000000000000000000000000000000000000000000000000008152600401610eb990611d29565b60405180910390fd5b42600360008381526020019081526020016000208190555050565b610ee5610fd5565b73ffffffffffffffffffffffffffffffffffffffff16610f03610873565b73ffffffffffffffffffffffffffffffffffffffff1614610f59576040517f08c379a0000000000000000000000000000000000000000000000000000000008152600401610f5090611b21565b60405180910390fd5b600073ffffffffffffffffffffffffffffffffffffffff168173ffffffffffffffffffffffffffffffffffffffff161415610fc9576040517f08c379a0000000000000000000000000000000000000000000000000000000008152600401610fc090611dbb565b60405180910390fd5b610fd281610fdd565b50565b600033905090565b60008060009054906101000a900473ffffffffffffffffffffffffffffffffffffffff169050816000806101000a81548173ffffffffffffffffffffffffffffffffffffffff021916908373ffffffffffffffffffffffffffffffffffffffff1602179055508173ffffffffffffffffffffffffffffffffffffffff168173ffffffffffffffffffffffffffffffffffffffff167f8be0079c531659141344cd1fd0a4f28419497f9722a3daafe3b4186f6b6457e060405160405180910390a35050565b427f000000000000000000000000000000000000000000000000000000000000000060036000848152602001908152602001600020546110e191906118a0565b1115611122576040517f08c379a000000000000000000000000000000000000000000000000000000000815260040161111990611e4d565b60405180910390fd5b427f0000000000000000000000000000000000000000000000000000000000000000600360008481526020019081526020016000205461116291906118a0565b116111a2576040517f08c379a000000000000000000000000000000000000000000000000000000000815260040161119990611edf565b60405180910390fd5b6111ab83610cc9565b6111ea576040517f08c379a00000000000000000000000000000000000000000000000000000000081526004016111e1906119bf565b60405180910390fd5b6003600082815260200190815260200160002060009055600182101561120f57600080fd5b505050565b6000604051905090565b600080fd5b600080fd5b600080fd5b600080fd5b6000601f19601f8301169050919050565b7f4e487b7100000000000000000000000000000000000000000000000000000000600052604160045260246000fd5b61127b82611232565b810181811067ffffffffffffffff8211171561129a57611299611243565b5b80604052505050565b60006112ad611214565b90506112b98282611272565b919050565b600067ffffffffffffffff8211156112d9576112d8611243565b5b6112e282611232565b9050602081019050919050565b82818337600083830152505050565b600061131161130c846112be565b6112a3565b90508281526020810184848401111561132d5761132c61122d565b5b6113388482856112ef565b509392505050565b600082601f83011261135557611354611228565b5b81356113658482602086016112fe565b91505092915050565b6000602082840312156113845761138361121e565b5b600082013567ffffffffffffffff8111156113a2576113a1611223565b5b6113ae84828501611340565b91505092915050565b6000819050919050565b6113ca816113b7565b82525050565b60006020820190506113e560008301846113c1565b92915050565b600080fd5b600080fd5b60008083601f84011261140b5761140a611228565b5b8235905067ffffffffffffffff811115611428576114276113eb565b5b602083019150836001820283011115611444576114436113f0565b5b9250929050565b600073ffffffffffffffffffffffffffffffffffffffff82169050919050565b60006114768261144b565b9050919050565b6114868161146b565b811461149157600080fd5b50565b6000813590506114a38161147d565b92915050565b6000819050919050565b6114bc816114a9565b81146114c757600080fd5b50565b6000813590506114d9816114b3565b92915050565b600080600080606085870312156114f9576114f861121e565b5b600085013567ffffffffffffffff81111561151757611516611223565b5b611523878288016113f5565b9450945050602061153687828801611494565b9250506040611547878288016114ca565b91505092959194509250565b61155c816114a9565b82525050565b60006020820190506115776000830184611553565b92915050565b6000819050919050565b60006115a261159d6115988461144b565b61157d565b61144b565b9050919050565b60006115b482611587565b9050919050565b60006115c6826115a9565b9050919050565b6115d6816115bb565b82525050565b60006020820190506115f160008301846115cd565b92915050565b611600816113b7565b811461160b57600080fd5b50565b60008135905061161d816115f7565b92915050565b6000602082840312156116395761163861121e565b5b60006116478482850161160e565b91505092915050565b6116598161146b565b82525050565b60006020820190506116746000830184611650565b92915050565b600060408201905061168f6000830185611553565b61169c6020830184611553565b9392505050565b6000806000604084860312156116bc576116bb61121e565b5b600084013567ffffffffffffffff8111156116da576116d9611223565b5b6116e6868287016113f5565b935093505060206116f9868287016114ca565b9150509250925092565b60008060008060006080868803121561171f5761171e61121e565b5b600086013567ffffffffffffffff81111561173d5761173c611223565b5b611749888289016113f5565b9550955050602061175c88828901611494565b935050604061176d888289016114ca565b925050606061177e888289016114ca565b9150509295509295909350565b60008115159050919050565b6117a08161178b565b82525050565b60006020820190506117bb6000830184611797565b92915050565b600080600080608085870312156117db576117da61121e565b5b600085013567ffffffffffffffff8111156117f9576117f8611223565b5b61180587828801611340565b945050602061181687828801611494565b9350506040611827878288016114ca565b9250506060611838878288016114ca565b91505092959194509250565b60006020828403121561185a5761185961121e565b5b600061186884828501611494565b91505092915050565b7f4e487b7100000000000000000000000000000000000000000000000000000000600052601160045260246000fd5b60006118ab826114a9565b91506118b6836114a9565b9250827fffffffffffffffffffffffffffffffffffffffffffffffffffffffffffffffff038211156118eb576118ea611871565b5b828201905092915050565b600082825260208201905092915050565b7f204e6f7420656e6f7567682065746865722070726f7669646564000000000000600082015250565b600061193d601a836118f6565b915061194882611907565b602082019050919050565b6000602082019050818103600083015261196c81611930565b9050919050565b7f4e616d6520697320756e617661696c61626c6500000000000000000000000000600082015250565b60006119a96013836118f6565b91506119b482611973565b602082019050919050565b600060208201905081810360008301526119d88161199c565b9050919050565b600081905092915050565b60006119f683856119df565b9350611a038385846112ef565b82840190509392505050565b6000611a1c8284866119ea565b91508190509392505050565b6000606082019050611a3d6000830186611553565b611a4a6020830185611650565b611a576040830184611553565b949350505050565b600081519050611a6e816114b3565b92915050565b600060208284031215611a8a57611a8961121e565b5b6000611a9884828501611a5f565b91505092915050565b6000611aac826114a9565b9150611ab7836114a9565b925082821015611aca57611ac9611871565b5b828203905092915050565b7f4f776e61626c653a2063616c6c6572206973206e6f7420746865206f776e6572600082015250565b6000611b0b6020836118f6565b9150611b1682611ad5565b602082019050919050565b60006020820190508181036000830152611b3a81611afe565b9050919050565b7f455448436f6e74726f6c6c65723a204e6f7420656e6f7567682045746865722060008201527f70726f766964656420666f722072656e6577616c000000000000000000000000602082015250565b6000611b9d6034836118f6565b9150611ba882611b41565b604082019050919050565b60006020820190508181036000830152611bcc81611b90565b9050919050565b611bdc8161178b565b8114611be757600080fd5b50565b600081519050611bf981611bd3565b92915050565b600060208284031215611c1557611c1461121e565b5b6000611c2384828501611bea565b91505092915050565b7f54686973206e616d6520686173206265656e20616c7265616479206578697374600082015250565b6000611c626020836118f6565b9150611c6d82611c2c565b602082019050919050565b60006020820190508181036000830152611c9181611c55565b9050919050565b6000608082019050611cad60008301876113c1565b611cba6020830186611650565b611cc76040830185611553565b611cd46060830184611553565b95945050505050565b7f5468697320636f6d6d69746d656e7420686173206e6f74206578706972656400600082015250565b6000611d13601f836118f6565b9150611d1e82611cdd565b602082019050919050565b60006020820190508181036000830152611d4281611d06565b9050919050565b7f4f776e61626c653a206e6577206f776e657220697320746865207a65726f206160008201527f6464726573730000000000000000000000000000000000000000000000000000602082015250565b6000611da56026836118f6565b9150611db082611d49565b604082019050919050565b60006020820190508181036000830152611dd481611d98565b9050919050565b7f436f6d6d69746d656e74206973206e6f742076616c69642c20506c656173652060008201527f7761697421000000000000000000000000000000000000000000000000000000602082015250565b6000611e376025836118f6565b9150611e4282611ddb565b604082019050919050565b60006020820190508181036000830152611e6681611e2a565b9050919050565b7f436f6d6d69746d656e742068617320657870697265642c506c6561736520636f60008201527f6d6d697420616761696e21000000000000000000000000000000000000000000602082015250565b6000611ec9602b836118f6565b9150611ed482611e6d565b604082019050919050565b60006020820190508181036000830152611ef881611ebc565b905091905056fea2646970667358221220423e530110b7a3c6b57d77338668e38309d92cbc9c5523a4b84ad44aea41dfa464736f6c63430008090033",
  "linkReferences": {},
  "deployedLinkReferences": {}
}