{
  "_format": "hh-sol-artifact-1",
  "contractName": "MintLetterNFT",
  "sourceName": "contracts/LetterNFT-contract/MintLetterNFT.sol",
  "abi": [
    {
      "inputs": [],
      "stateMutability": "nonpayable",
      "type": "constructor"
    },
    {
      "anonymous": false,
      "inputs": [
        {
          "indexed": true,
          "internalType": "address",
          "name": "owner",
          "type": "address"
        },
        {
          "indexed": true,
          "internalType": "address",
          "name": "approved",
          "type": "address"
        },
        {
          "indexed": true,
          "internalType": "uint256",
          "name": "tokenId",
          "type": "uint256"
        }
      ],
      "name": "Approval",
      "type": "event"
    },
    {
      "anonymous": false,
      "inputs": [
        {
          "indexed": true,
          "internalType": "address",
          "name": "owner",
          "type": "address"
        },
        {
          "indexed": true,
          "internalType": "address",
          "name": "operator",
          "type": "address"
        },
        {
          "indexed": false,
          "internalType": "bool",
          "name": "approved",
          "type": "bool"
        }
      ],
      "name": "ApprovalForAll",
      "type": "event"
    },
    {
      "anonymous": false,
      "inputs": [
        {
          "indexed": true,
          "internalType": "address",
          "name": "previousOwner",
          "type": "address"
        },
        {
          "indexed": true,
          "internalType": "address",
          "name": "newOwner",
          "type": "address"
        }
      ],
      "name": "OwnershipTransferred",
      "type": "event"
    },
    {
      "anonymous": false,
      "inputs": [
        {
          "indexed": true,
          "internalType": "address",
          "name": "from",
          "type": "address"
        },
        {
          "indexed": true,
          "internalType": "address",
          "name": "to",
          "type": "address"
        },
        {
          "indexed": true,
          "internalType": "uint256",
          "name": "tokenId",
          "type": "uint256"
        }
      ],
      "name": "Transfer",
      "type": "event"
    },
    {
      "anonymous": false,
      "inputs": [
        {
          "indexed": true,
          "internalType": "address",
          "name": "trustee",
          "type": "address"
        }
      ],
      "name": "TrusteeAdded",
      "type": "event"
    },
    {
      "anonymous": false,
      "inputs": [
        {
          "indexed": true,
          "internalType": "address",
          "name": "trustee",
          "type": "address"
        }
      ],
      "name": "TrusteeRemoved",
      "type": "event"
    },
    {
      "inputs": [
        {
          "internalType": "address",
          "name": "trustee",
          "type": "address"
        }
      ],
      "name": "AddTrustee",
      "outputs": [],
      "stateMutability": "nonpayable",
      "type": "function"
    },
    {
      "inputs": [
        {
          "internalType": "address",
          "name": "trustee",
          "type": "address"
        }
      ],
      "name": "RemoveTrustee",
      "outputs": [],
      "stateMutability": "nonpayable",
      "type": "function"
    },
    {
      "inputs": [
        {
          "internalType": "address",
          "name": "to",
          "type": "address"
        },
        {
          "internalType": "uint256",
          "name": "tokenId",
          "type": "uint256"
        }
      ],
      "name": "approve",
      "outputs": [],
      "stateMutability": "nonpayable",
      "type": "function"
    },
    {
      "inputs": [
        {
          "internalType": "address",
          "name": "owner",
          "type": "address"
        }
      ],
      "name": "balanceOf",
      "outputs": [
        {
          "internalType": "uint256",
          "name": "",
          "type": "uint256"
        }
      ],
      "stateMutability": "view",
      "type": "function"
    },
    {
      "inputs": [
        {
          "internalType": "uint256",
          "name": "tokenId",
          "type": "uint256"
        }
      ],
      "name": "getApproved",
      "outputs": [
        {
          "internalType": "address",
          "name": "",
          "type": "address"
        }
      ],
      "stateMutability": "view",
      "type": "function"
    },
    {
      "inputs": [
        {
          "internalType": "address",
          "name": "owner",
          "type": "address"
        },
        {
          "internalType": "address",
          "name": "operator",
          "type": "address"
        }
      ],
      "name": "isApprovedForAll",
      "outputs": [
        {
          "internalType": "bool",
          "name": "",
          "type": "bool"
        }
      ],
      "stateMutability": "view",
      "type": "function"
    },
    {
      "inputs": [
        {
          "internalType": "address",
          "name": "recipient",
          "type": "address"
        }
      ],
      "name": "mintNFT",
      "outputs": [
        {
          "internalType": "uint256",
          "name": "",
          "type": "uint256"
        }
      ],
      "stateMutability": "nonpayable",
      "type": "function"
    },
    {
      "inputs": [],
      "name": "name",
      "outputs": [
        {
          "internalType": "string",
          "name": "",
          "type": "string"
        }
      ],
      "stateMutability": "view",
      "type": "function"
    },
    {
      "inputs": [],
      "name": "owner",
      "outputs": [
        {
          "internalType": "address",
          "name": "",
          "type": "address"
        }
      ],
      "stateMutability": "view",
      "type": "function"
    },
    {
      "inputs": [
        {
          "internalType": "uint256",
          "name": "tokenId",
          "type": "uint256"
        }
      ],
      "name": "ownerOf",
      "outputs": [
        {
          "internalType": "address",
          "name": "",
          "type": "address"
        }
      ],
      "stateMutability": "view",
      "type": "function"
    },
    {
      "inputs": [],
      "name": "renounceOwnership",
      "outputs": [],
      "stateMutability": "nonpayable",
      "type": "function"
    },
    {
      "inputs": [
        {
          "internalType": "address",
          "name": "from",
          "type": "address"
        },
        {
          "internalType": "address",
          "name": "to",
          "type": "address"
        },
        {
          "internalType": "uint256",
          "name": "tokenId",
          "type": "uint256"
        }
      ],
      "name": "safeTransferFrom",
      "outputs": [],
      "stateMutability": "nonpayable",
      "type": "function"
    },
    {
      "inputs": [
        {
          "internalType": "address",
          "name": "from",
          "type": "address"
        },
        {
          "internalType": "address",
          "name": "to",
          "type": "address"
        },
        {
          "internalType": "uint256",
          "name": "tokenId",
          "type": "uint256"
        },
        {
          "internalType": "bytes",
          "name": "_data",
          "type": "bytes"
        }
      ],
      "name": "safeTransferFrom",
      "outputs": [],
      "stateMutability": "nonpayable",
      "type": "function"
    },
    {
      "inputs": [
        {
          "internalType": "address",
          "name": "operator",
          "type": "address"
        },
        {
          "internalType": "bool",
          "name": "approved",
          "type": "bool"
        }
      ],
      "name": "setApprovalForAll",
      "outputs": [],
      "stateMutability": "nonpayable",
      "type": "function"
    },
    {
      "inputs": [
        {
          "internalType": "bytes4",
          "name": "interfaceId",
          "type": "bytes4"
        }
      ],
      "name": "supportsInterface",
      "outputs": [
        {
          "internalType": "bool",
          "name": "",
          "type": "bool"
        }
      ],
      "stateMutability": "view",
      "type": "function"
    },
    {
      "inputs": [],
      "name": "symbol",
      "outputs": [
        {
          "internalType": "string",
          "name": "",
          "type": "string"
        }
      ],
      "stateMutability": "view",
      "type": "function"
    },
    {
      "inputs": [
        {
          "internalType": "uint256",
          "name": "tokenId",
          "type": "uint256"
        }
      ],
      "name": "tokenURI",
      "outputs": [
        {
          "internalType": "string",
          "name": "",
          "type": "string"
        }
      ],
      "stateMutability": "view",
      "type": "function"
    },
    {
      "inputs": [
        {
          "internalType": "address",
          "name": "user",
          "type": "address"
        }
      ],
      "name": "tokenURIForAddress",
      "outputs": [
        {
          "internalType": "string",
          "name": "",
          "type": "string"
        }
      ],
      "stateMutability": "view",
      "type": "function"
    },
    {
      "inputs": [
        {
          "internalType": "address",
          "name": "from",
          "type": "address"
        },
        {
          "internalType": "address",
          "name": "to",
          "type": "address"
        },
        {
          "internalType": "uint256",
          "name": "tokenId",
          "type": "uint256"
        }
      ],
      "name": "transferFrom",
      "outputs": [],
      "stateMutability": "nonpayable",
      "type": "function"
    },
    {
      "inputs": [
        {
          "internalType": "address",
          "name": "newOwner",
          "type": "address"
        }
      ],
      "name": "transferOwnership",
      "outputs": [],
      "stateMutability": "nonpayable",
      "type": "function"
    },
    {
      "inputs": [
        {
          "internalType": "address",
          "name": "",
          "type": "address"
        }
      ],
      "name": "trustees",
      "outputs": [
        {
          "internalType": "bool",
          "name": "",
          "type": "bool"
        }
      ],
      "stateMutability": "view",
      "type": "function"
    }
  ],
  "bytecode": "0x60806040526040518060400160405280600481526020017f7374617200000000000000000000000000000000000000000000000000000000815250600a908051906020019062000051929190620001ce565b503480156200005f57600080fd5b50600a604051602001620000749190620003de565b604051602081830303815290604052600a604051602001620000979190620003de565b6040516020818303038152906040528160009080519060200190620000be929190620001ce565b508060019080519060200190620000d7929190620001ce565b505050620000fa620000ee6200010060201b60201c565b6200010860201b60201c565b62000404565b600033905090565b6000600760009054906101000a900473ffffffffffffffffffffffffffffffffffffffff16905081600760006101000a81548173ffffffffffffffffffffffffffffffffffffffff021916908373ffffffffffffffffffffffffffffffffffffffff1602179055508173ffffffffffffffffffffffffffffffffffffffff168173ffffffffffffffffffffffffffffffffffffffff167f8be0079c531659141344cd1fd0a4f28419497f9722a3daafe3b4186f6b6457e060405160405180910390a35050565b828054620001dc90620002ad565b90600052602060002090601f0160209004810192826200020057600085556200024c565b82601f106200021b57805160ff19168380011785556200024c565b828001600101855582156200024c579182015b828111156200024b5782518255916020019190600101906200022e565b5b5090506200025b91906200025f565b5090565b5b808211156200027a57600081600090555060010162000260565b5090565b7f4e487b7100000000000000000000000000000000000000000000000000000000600052602260045260246000fd5b60006002820490506001821680620002c657607f821691505b60208210811415620002dd57620002dc6200027e565b5b50919050565b600081905092915050565b60008190508160005260206000209050919050565b600081546200031281620002ad565b6200031e8186620002e3565b945060018216600081146200033c57600181146200034e5762000385565b60ff1983168652818601935062000385565b6200035985620002ee565b60005b838110156200037d578154818901526001820191506020810190506200035c565b838801955050505b50505092915050565b7f204e465400000000000000000000000000000000000000000000000000000000600082015250565b6000620003c6600483620002e3565b9150620003d3826200038e565b600482019050919050565b6000620003ec828462000303565b9150620003f982620003b7565b915081905092915050565b615a1280620004146000396000f3fe608060405234801561001057600080fd5b50600436106101375760003560e01c806383c2c71f116100b8578063b88d4fde1161007c578063b88d4fde1461034c578063c87b56dd14610368578063de09b97014610398578063e985e9c5146103b4578063eee608a4146103e4578063f2fde38b1461041457610137565b806383c2c71f146102a8578063851b2586146102c45780638da5cb5b146102f457806395d89b4114610312578063a22cb4651461033057610137565b806342842e0e116100ff57806342842e0e146101f257806354ba0f271461020e5780636352211e1461023e57806370a082311461026e578063715018a61461029e57610137565b806301ffc9a71461013c57806306fdde031461016c578063081812fc1461018a578063095ea7b3146101ba57806323b872dd146101d6575b600080fd5b61015660048036038101906101519190613a7d565b610430565b6040516101639190613ac5565b60405180910390f35b610174610512565b6040516101819190613b79565b60405180910390f35b6101a4600480360381019061019f9190613bd1565b6105a4565b6040516101b19190613c3f565b60405180910390f35b6101d460048036038101906101cf9190613c86565b610629565b005b6101f060048036038101906101eb9190613cc6565b610741565b005b61020c60048036038101906102079190613cc6565b6107a1565b005b61022860048036038101906102239190613d19565b6107c1565b6040516102359190613d55565b60405180910390f35b61025860048036038101906102539190613bd1565b610856565b6040516102659190613c3f565b60405180910390f35b61028860048036038101906102839190613d19565b610908565b6040516102959190613d55565b60405180910390f35b6102a66109c0565b005b6102c260048036038101906102bd9190613d19565b610a48565b005b6102de60048036038101906102d99190613d19565b610b62565b6040516102eb9190613b79565b60405180910390f35b6102fc610d33565b6040516103099190613c3f565b60405180910390f35b61031a610d5d565b6040516103279190613b79565b60405180910390f35b61034a60048036038101906103459190613d9c565b610def565b005b61036660048036038101906103619190613f11565b610e05565b005b610382600480360381019061037d9190613bd1565b610e67565b60405161038f9190613b79565b60405180910390f35b6103b260048036038101906103ad9190613d19565b610fb9565b005b6103ce60048036038101906103c99190613f94565b6110d3565b6040516103db9190613ac5565b60405180910390f35b6103fe60048036038101906103f99190613d19565b611167565b60405161040b9190613ac5565b60405180910390f35b61042e60048036038101906104299190613d19565b611187565b005b60007f80ac58cd000000000000000000000000000000000000000000000000000000007bffffffffffffffffffffffffffffffffffffffffffffffffffffffff1916827bffffffffffffffffffffffffffffffffffffffffffffffffffffffff191614806104fb57507f5b5e139f000000000000000000000000000000000000000000000000000000007bffffffffffffffffffffffffffffffffffffffffffffffffffffffff1916827bffffffffffffffffffffffffffffffffffffffffffffffffffffffff1916145b8061050b575061050a8261127f565b5b9050919050565b60606000805461052190614003565b80601f016020809104026020016040519081016040528092919081815260200182805461054d90614003565b801561059a5780601f1061056f5761010080835404028352916020019161059a565b820191906000526020600020905b81548152906001019060200180831161057d57829003601f168201915b5050505050905090565b60006105af826112e9565b6105ee576040517f08c379a00000000000000000000000000000000000000000000000000000000081526004016105e5906140a7565b60405180910390fd5b6004600083815260200190815260200160002060009054906101000a900473ffffffffffffffffffffffffffffffffffffffff169050919050565b600061063482610856565b90508073ffffffffffffffffffffffffffffffffffffffff168373ffffffffffffffffffffffffffffffffffffffff1614156106a5576040517f08c379a000000000000000000000000000000000000000000000000000000000815260040161069c90614139565b60405180910390fd5b8073ffffffffffffffffffffffffffffffffffffffff166106c4611355565b73ffffffffffffffffffffffffffffffffffffffff1614806106f357506106f2816106ed611355565b6110d3565b5b610732576040517f08c379a0000000000000000000000000000000000000000000000000000000008152600401610729906141cb565b60405180910390fd5b61073c838361135d565b505050565b61075261074c611355565b82611416565b610791576040517f08c379a00000000000000000000000000000000000000000000000000000000081526004016107889061425d565b60405180910390fd5b61079c8383836114f4565b505050565b6107bc83838360405180602001604052806000815250610e05565b505050565b6000600860003373ffffffffffffffffffffffffffffffffffffffff1673ffffffffffffffffffffffffffffffffffffffff16815260200190815260200160002060009054906101000a900460ff1661081957600080fd5b610823600961175b565b600061082f6009611771565b905061083b838261177f565b61084d8161084885610b62565b611959565b80915050919050565b6000806002600084815260200190815260200160002060009054906101000a900473ffffffffffffffffffffffffffffffffffffffff169050600073ffffffffffffffffffffffffffffffffffffffff168173ffffffffffffffffffffffffffffffffffffffff1614156108ff576040517f08c379a00000000000000000000000000000000000000000000000000000000081526004016108f6906142ef565b60405180910390fd5b80915050919050565b60008073ffffffffffffffffffffffffffffffffffffffff168273ffffffffffffffffffffffffffffffffffffffff161415610979576040517f08c379a000000000000000000000000000000000000000000000000000000000815260040161097090614381565b60405180910390fd5b600360008373ffffffffffffffffffffffffffffffffffffffff1673ffffffffffffffffffffffffffffffffffffffff168152602001908152602001600020549050919050565b6109c8611355565b73ffffffffffffffffffffffffffffffffffffffff166109e6610d33565b73ffffffffffffffffffffffffffffffffffffffff1614610a3c576040517f08c379a0000000000000000000000000000000000000000000000000000000008152600401610a33906143ed565b60405180910390fd5b610a4660006119cd565b565b610a50611355565b73ffffffffffffffffffffffffffffffffffffffff16610a6e610d33565b73ffffffffffffffffffffffffffffffffffffffff1614610ac4576040517f08c379a0000000000000000000000000000000000000000000000000000000008152600401610abb906143ed565b60405180910390fd5b6000600860008373ffffffffffffffffffffffffffffffffffffffff1673ffffffffffffffffffffffffffffffffffffffff16815260200190815260200160002060006101000a81548160ff0219169083151502179055508073ffffffffffffffffffffffffffffffffffffffff167ff624904bce005956e80ff2b94673fc173c8a2e6fae6d13ae077db8197e6253b560405160405180910390a250565b60606000610b6f83611a93565b90506000610cb082600060058110610b8a57610b8961440d565b5b602002015183600160058110610ba357610ba261440d565b5b602002015184600260058110610bbc57610bbb61440d565b5b602002015185600360058110610bd557610bd461440d565b5b602002015186600460058110610bee57610bed61440d565b5b6020020151610c878a600a8054610c0490614003565b80601f0160208091040260200160405190810160405280929190818152602001828054610c3090614003565b8015610c7d5780601f10610c5257610100808354040283529160200191610c7d565b820191906000526020600020905b815481529060010190602001808311610c6057829003601f168201915b505050505061201f565b604051602001610c9c96959493929190614a1d565b604051602081830303815290604052612124565b9050600081604051602001610cc59190614b0e565b60405160208183030381529060405290506000610d0082604051602001610cec9190614bc8565b604051602081830303815290604052612124565b9050600081604051602001610d159190614c41565b60405160208183030381529060405290508095505050505050919050565b6000600760009054906101000a900473ffffffffffffffffffffffffffffffffffffffff16905090565b606060018054610d6c90614003565b80601f0160208091040260200160405190810160405280929190818152602001828054610d9890614003565b8015610de55780601f10610dba57610100808354040283529160200191610de5565b820191906000526020600020905b815481529060010190602001808311610dc857829003601f168201915b5050505050905090565b610e01610dfa611355565b838361229d565b5050565b610e16610e10611355565b83611416565b610e55576040517f08c379a0000000000000000000000000000000000000000000000000000000008152600401610e4c9061425d565b60405180910390fd5b610e618484848461240a565b50505050565b6060610e72826112e9565b610eb1576040517f08c379a0000000000000000000000000000000000000000000000000000000008152600401610ea890614cd5565b60405180910390fd5b6000600660008481526020019081526020016000208054610ed190614003565b80601f0160208091040260200160405190810160405280929190818152602001828054610efd90614003565b8015610f4a5780601f10610f1f57610100808354040283529160200191610f4a565b820191906000526020600020905b815481529060010190602001808311610f2d57829003601f168201915b505050505090506000610f5b612466565b9050600081511415610f71578192505050610fb4565b600082511115610fa6578082604051602001610f8e929190614cf5565b60405160208183030381529060405292505050610fb4565b610faf8461247d565b925050505b919050565b610fc1611355565b73ffffffffffffffffffffffffffffffffffffffff16610fdf610d33565b73ffffffffffffffffffffffffffffffffffffffff1614611035576040517f08c379a000000000000000000000000000000000000000000000000000000000815260040161102c906143ed565b60405180910390fd5b6001600860008373ffffffffffffffffffffffffffffffffffffffff1673ffffffffffffffffffffffffffffffffffffffff16815260200190815260200160002060006101000a81548160ff0219169083151502179055508073ffffffffffffffffffffffffffffffffffffffff167f136b04e34cc22b4b7473adab82a20348a3f0600d6820f08c1a0543e5e9d5bff960405160405180910390a250565b6000600560008473ffffffffffffffffffffffffffffffffffffffff1673ffffffffffffffffffffffffffffffffffffffff16815260200190815260200160002060008373ffffffffffffffffffffffffffffffffffffffff1673ffffffffffffffffffffffffffffffffffffffff16815260200190815260200160002060009054906101000a900460ff16905092915050565b60086020528060005260406000206000915054906101000a900460ff1681565b61118f611355565b73ffffffffffffffffffffffffffffffffffffffff166111ad610d33565b73ffffffffffffffffffffffffffffffffffffffff1614611203576040517f08c379a00000000000000000000000000000000000000000000000000000000081526004016111fa906143ed565b60405180910390fd5b600073ffffffffffffffffffffffffffffffffffffffff168173ffffffffffffffffffffffffffffffffffffffff161415611273576040517f08c379a000000000000000000000000000000000000000000000000000000000815260040161126a90614d8b565b60405180910390fd5b61127c816119cd565b50565b60007f01ffc9a7000000000000000000000000000000000000000000000000000000007bffffffffffffffffffffffffffffffffffffffffffffffffffffffff1916827bffffffffffffffffffffffffffffffffffffffffffffffffffffffff1916149050919050565b60008073ffffffffffffffffffffffffffffffffffffffff166002600084815260200190815260200160002060009054906101000a900473ffffffffffffffffffffffffffffffffffffffff1673ffffffffffffffffffffffffffffffffffffffff1614159050919050565b600033905090565b816004600083815260200190815260200160002060006101000a81548173ffffffffffffffffffffffffffffffffffffffff021916908373ffffffffffffffffffffffffffffffffffffffff160217905550808273ffffffffffffffffffffffffffffffffffffffff166113d083610856565b73ffffffffffffffffffffffffffffffffffffffff167f8c5be1e5ebec7d5bd14f71427d1e84f3dd0314c0f7b2291e5b200ac8c7c3b92560405160405180910390a45050565b6000611421826112e9565b611460576040517f08c379a000000000000000000000000000000000000000000000000000000000815260040161145790614e1d565b60405180910390fd5b600061146b83610856565b90508073ffffffffffffffffffffffffffffffffffffffff168473ffffffffffffffffffffffffffffffffffffffff1614806114ad57506114ac81856110d3565b5b806114eb57508373ffffffffffffffffffffffffffffffffffffffff166114d3846105a4565b73ffffffffffffffffffffffffffffffffffffffff16145b91505092915050565b8273ffffffffffffffffffffffffffffffffffffffff1661151482610856565b73ffffffffffffffffffffffffffffffffffffffff161461156a576040517f08c379a000000000000000000000000000000000000000000000000000000000815260040161156190614eaf565b60405180910390fd5b600073ffffffffffffffffffffffffffffffffffffffff168273ffffffffffffffffffffffffffffffffffffffff1614156115da576040517f08c379a00000000000000000000000000000000000000000000000000000000081526004016115d190614f41565b60405180910390fd5b6115e5838383612524565b6115f060008261135d565b6001600360008573ffffffffffffffffffffffffffffffffffffffff1673ffffffffffffffffffffffffffffffffffffffff16815260200190815260200160002060008282546116409190614f90565b925050819055506001600360008473ffffffffffffffffffffffffffffffffffffffff1673ffffffffffffffffffffffffffffffffffffffff16815260200190815260200160002060008282546116979190614fc4565b92505081905550816002600083815260200190815260200160002060006101000a81548173ffffffffffffffffffffffffffffffffffffffff021916908373ffffffffffffffffffffffffffffffffffffffff160217905550808273ffffffffffffffffffffffffffffffffffffffff168473ffffffffffffffffffffffffffffffffffffffff167fddf252ad1be2c89b69c2b068fc378daa952ba7f163c4a11628f55a4df523b3ef60405160405180910390a4611756838383612529565b505050565b6001816000016000828254019250508190555050565b600081600001549050919050565b600073ffffffffffffffffffffffffffffffffffffffff168273ffffffffffffffffffffffffffffffffffffffff1614156117ef576040517f08c379a00000000000000000000000000000000000000000000000000000000081526004016117e690615066565b60405180910390fd5b6117f8816112e9565b15611838576040517f08c379a000000000000000000000000000000000000000000000000000000000815260040161182f906150d2565b60405180910390fd5b61184460008383612524565b6001600360008473ffffffffffffffffffffffffffffffffffffffff1673ffffffffffffffffffffffffffffffffffffffff16815260200190815260200160002060008282546118949190614fc4565b92505081905550816002600083815260200190815260200160002060006101000a81548173ffffffffffffffffffffffffffffffffffffffff021916908373ffffffffffffffffffffffffffffffffffffffff160217905550808273ffffffffffffffffffffffffffffffffffffffff16600073ffffffffffffffffffffffffffffffffffffffff167fddf252ad1be2c89b69c2b068fc378daa952ba7f163c4a11628f55a4df523b3ef60405160405180910390a461195560008383612529565b5050565b611962826112e9565b6119a1576040517f08c379a000000000000000000000000000000000000000000000000000000000815260040161199890615164565b60405180910390fd5b806006600084815260200190815260200160002090805190602001906119c8929190613947565b505050565b6000600760009054906101000a900473ffffffffffffffffffffffffffffffffffffffff16905081600760006101000a81548173ffffffffffffffffffffffffffffffffffffffff021916908373ffffffffffffffffffffffffffffffffffffffff1602179055508173ffffffffffffffffffffffffffffffffffffffff168173ffffffffffffffffffffffffffffffffffffffff167f8be0079c531659141344cd1fd0a4f28419497f9722a3daafe3b4186f6b6457e060405160405180910390a35050565b611a9b6139cd565b60008273ffffffffffffffffffffffffffffffffffffffff1660001b905060006011601883601360208110611ad357611ad261440d565b5b1a60f81b60f81c60ff160281611aec57611aeb615184565b5b049050600060206022600585601d60208110611b0b57611b0a61440d565b5b1a60f81b60f81c60ff160281611b2457611b23615184565b5b0401905060006061905060486033600586601760208110611b4857611b4761440d565b5b1a60f81b60f81c60ff160281611b6157611b60615184565b5b04018101905060028181611b7857611b77615184565b5b04905060006051601086601860208110611b9557611b9461440d565b5b1a60f81b60f81c60ff1681611bad57611bac615184565b5b04019050600060466080600b88601560208110611bcd57611bcc61440d565b5b1a60f81b60f81c0260ff1681611be657611be5615184565b5b04019050600a8203811115611bfc57600a820390505b6040518060a00160405280611cdd611c6289601c60208110611c2157611c2061440d565b5b1a60f81b60f81c60028b601960208110611c3e57611c3d61440d565b5b1a60f81b60f81c60ff1681611c5657611c55615184565b5b0660ff168a600061252e565b611c9d60028b601c60208110611c7b57611c7a61440d565b5b1a60f81b60f81c60ff1681611c9357611c92615184565b5b0687876064612779565b611cd860028c601a60208110611cb657611cb561440d565b5b1a60f81b60f81c60ff1681611cce57611ccd615184565b5b068a8a60646127e6565b612868565b8152602001611db8611d3d89601c60208110611cfc57611cfb61440d565b5b1a60f81b60f81c60028b601960208110611d1957611d1861440d565b5b1a60f81b60f81c60ff1681611d3157611d30615184565b5b0660ff168a600a61252e565b611d7860028b601c60208110611d5657611d5561440d565b5b1a60f81b60f81c60ff1681611d6e57611d6d615184565b5b068787605a612779565b611db360028c601a60208110611d9157611d9061440d565b5b1a60f81b60f81c60ff1681611da957611da8615184565b5b068a8a605a6127e6565b612868565b8152602001611e93611e1889601c60208110611dd757611dd661440d565b5b1a60f81b60f81c60028b601960208110611df457611df361440d565b5b1a60f81b60f81c60ff1681611e0c57611e0b615184565b5b0660ff168a604661252e565b611e5360028b601c60208110611e3157611e3061440d565b5b1a60f81b60f81c60ff1681611e4957611e48615184565b5b0687876046612779565b611e8e60028c601a60208110611e6c57611e6b61440d565b5b1a60f81b60f81c60ff1681611e8457611e83615184565b5b068a8a60466127e6565b612868565b8152602001611f6e611ef389601c60208110611eb257611eb161440d565b5b1a60f81b60f81c60028b601960208110611ecf57611ece61440d565b5b1a60f81b60f81c60ff1681611ee757611ee6615184565b5b0660ff168a605a61252e565b611f2e60028b601c60208110611f0c57611f0b61440d565b5b1a60f81b60f81c60ff1681611f2457611f23615184565b5b0687876014612779565b611f6960028c601a60208110611f4757611f4661440d565b5b1a60f81b60f81c60ff1681611f5f57611f5e615184565b5b068a8a60146127e6565b612868565b815260200161200f611fce89601c60208110611f8d57611f8c61440d565b5b1a60f81b60f81c60028b601960208110611faa57611fa961440d565b5b1a60f81b60f81c60ff1681611fc257611fc1615184565b5b0660ff168a606461252e565b61200960028b601c60208110611fe757611fe661440d565b5b1a60f81b60f81c60ff1681611fff57611ffe615184565b5b0687876000612779565b88612868565b8152509650505050505050919050565b606060008373ffffffffffffffffffffffffffffffffffffffff1660001b9050600060116018836013602081106120595761205861440d565b5b1a60f81b60f81c60ff1661206d91906151b3565b612077919061520d565b9050600084516120cd84601c602081106120945761209361440d565b5b1a60f81b60f81c6002866019602081106120b1576120b061440d565b5b1a60f81b60f81c6120c2919061524b565b60ff1685600061252e565b6120d7919061527c565b9050848160ff16815181106120ef576120ee61440d565b5b602001015160f81c60f81b60405160200161210a91906152fa565b604051602081830303815290604052935050505092915050565b606060008251141561214757604051806020016040528060008152509050612298565b600060405180606001604052806040815260200161599d60409139905060006003600285516121769190614fc4565b612180919061520d565b600461218c91906151b3565b9050600060208261219d9190614fc4565b67ffffffffffffffff8111156121b6576121b5613de6565b5b6040519080825280601f01601f1916602001820160405280156121e85781602001600182028036833780820191505090505b509050818152600183018586518101602084015b81831015612257576003830192508251603f8160121c168501518253600182019150603f81600c1c168501518253600182019150603f8160061c168501518253600182019150603f81168501518253600182019150506121fc565b60038951066001811461227157600281146122815761228c565b613d3d60f01b600283035261228c565b603d60f81b60018303525b50505050508093505050505b919050565b8173ffffffffffffffffffffffffffffffffffffffff168373ffffffffffffffffffffffffffffffffffffffff16141561230c576040517f08c379a000000000000000000000000000000000000000000000000000000000815260040161230390615361565b60405180910390fd5b80600560008573ffffffffffffffffffffffffffffffffffffffff1673ffffffffffffffffffffffffffffffffffffffff16815260200190815260200160002060008473ffffffffffffffffffffffffffffffffffffffff1673ffffffffffffffffffffffffffffffffffffffff16815260200190815260200160002060006101000a81548160ff0219169083151502179055508173ffffffffffffffffffffffffffffffffffffffff168373ffffffffffffffffffffffffffffffffffffffff167f17307eab39ab6107e8899845ad3d59bd9653f200f220920489ca2b5937696c31836040516123fd9190613ac5565b60405180910390a3505050565b6124158484846114f4565b612421848484846128af565b612460576040517f08c379a0000000000000000000000000000000000000000000000000000000008152600401612457906153f3565b60405180910390fd5b50505050565b606060405180602001604052806000815250905090565b6060612488826112e9565b6124c7576040517f08c379a00000000000000000000000000000000000000000000000000000000081526004016124be90615485565b60405180910390fd5b60006124d1612466565b905060008151116124f1576040518060200160405280600081525061251c565b806124fb84612a46565b60405160200161250c929190614cf5565b6040516020818303038152906040525b915050919050565b505050565b505050565b60008060048661253e919061524b565b60ff169050600084905060008214156125bd576125b46000871461256e57600a8261256991906154af565b61257c565b600a8261257b9190615543565b5b8560ff1661258a91906155d7565b828660ff16606461259b9190615543565b6125a591906155d7565b6125af91906154af565b612ba7565b92505050612771565b600182141561263257612629600087146125e357601e826125de91906154af565b6125f1565b601e826125f09190615543565b5b8560ff166125ff91906155d7565b828660ff1660646126109190615543565b61261a91906155d7565b61262491906154af565b612ba7565b92505050612771565b60028214156126b7576126ae600087146126585760328261265391906154af565b612666565b6032826126659190615543565b5b6126728660ff16612c1c565b61267c91906155d7565b826126898760ff16612c1c565b60646126959190615543565b61269f91906155d7565b6126a991906154af565b612ba7565b92505050612771565b61276c601e60808960ff16116126ce5760006126d1565b60015b60ff16600089146126e357603c612705565b7fffffffffffffffffffffffffffffffffffffffffffffffffffffffffffffffc45b61270f91906155d7565b8361271a91906154af565b61272491906154af565b6127308660ff16612c1c565b61273a91906155d7565b826127478760ff16612c1c565b60646127539190615543565b61275d91906155d7565b61276791906154af565b612ba7565b925050505b949350505050565b60008060008660ff1614156127bc5761279183613150565b60ff169050606484820286836064030201816127b0576127af615184565b5b046001019150506127de565b829050606484820286836064030201816127d9576127d8615184565b5b049150505b949350505050565b60008060008660ff161415612808576127fe83613150565b60ff169050612817565b612811836134e0565b60ff1690505b6064848261282591906151b3565b868360646128339190614f90565b61283d91906151b3565b6128479190614fc4565b612851919061520d565b600161285d9190614fc4565b915050949350505050565b606061287384612a46565b61287c84612a46565b61288584612a46565b6040516020016128979392919061581e565b60405160208183030381529060405290509392505050565b60006128d08473ffffffffffffffffffffffffffffffffffffffff16613924565b15612a39578373ffffffffffffffffffffffffffffffffffffffff1663150b7a026128f9611355565b8786866040518563ffffffff1660e01b815260040161291b94939291906158c5565b602060405180830381600087803b15801561293557600080fd5b505af192505050801561296657506040513d601f19601f820116820180604052508101906129639190615926565b60015b6129e9573d8060008114612996576040519150601f19603f3d011682016040523d82523d6000602084013e61299b565b606091505b506000815114156129e1576040517f08c379a00000000000000000000000000000000000000000000000000000000081526004016129d8906153f3565b60405180910390fd5b805181602001fd5b63150b7a0260e01b7bffffffffffffffffffffffffffffffffffffffffffffffffffffffff1916817bffffffffffffffffffffffffffffffffffffffffffffffffffffffff191614915050612a3e565b600190505b949350505050565b60606000821415612a8e576040518060400160405280600181526020017f30000000000000000000000000000000000000000000000000000000000000008152509050612ba2565b600082905060005b60008214612ac0578080612aa990615953565b915050600a82612ab9919061520d565b9150612a96565b60008167ffffffffffffffff811115612adc57612adb613de6565b5b6040519080825280601f01601f191660200182016040528015612b0e5781602001600182028036833780820191505090505b5090505b60008514612b9b57600182612b279190614f90565b9150600a85612b36919061527c565b6030612b429190614fc4565b60f81b818381518110612b5857612b5761440d565b5b60200101907effffffffffffffffffffffffffffffffffffffffffffffffffffffffffffff1916908160001a905350600a85612b94919061520d565b9450612b12565b8093505050505b919050565b600060648281612bba57612bb9615184565b5b05915060008212612bdf576101688281612bd757612bd6615184565b5b069050612c17565b610168827fffffffffffffffffffffffffffffffffffffffffffffffffffffffffffffffff0281612c1357612c12615184565b5b0690505b919050565b6000600d8261ffff161015612c34576000905061314b565b60118261ffff161015612c4a576001905061314b565b60138261ffff161015612c60576002905061314b565b60158261ffff161015612c76576003905061314b565b60178261ffff161015612c8c576004905061314b565b60188261ffff161015612ca2576005905061314b565b60198261ffff161015612cb8576006905061314b565b601b8261ffff161015612cce576007905061314b565b601c8261ffff161015612ce4576008905061314b565b601d8261ffff161015612cfa576009905061314b565b601e8261ffff161015612d1057600a905061314b565b601f8261ffff161015612d2657600b905061314b565b60208261ffff161015612d3c57600d905061314b565b60218261ffff161015612d5257600e905061314b565b60228261ffff161015612d6857600f905061314b565b60238261ffff161015612d7e576011905061314b565b60248261ffff161015612d94576012905061314b565b60258261ffff161015612daa576014905061314b565b60268261ffff161015612dc0576015905061314b565b60278261ffff161015612dd6576017905061314b565b60288261ffff161015612dec576019905061314b565b60298261ffff161015612e0257601b905061314b565b602a8261ffff161015612e1857601d905061314b565b602b8261ffff161015612e2e57601f905061314b565b602c8261ffff161015612e44576022905061314b565b602d8261ffff161015612e5a576024905061314b565b602e8261ffff161015612e70576026905061314b565b602f8261ffff161015612e86576029905061314b565b60308261ffff161015612e9c57602c905061314b565b60318261ffff161015612eb257602f905061314b565b60328261ffff161015612ec8576032905061314b565b60338261ffff161015612ede576034905061314b565b60348261ffff161015612ef4576037905061314b565b60358261ffff161015612f0a57603a905061314b565b60368261ffff161015612f2057603d905061314b565b60378261ffff161015612f3657603f905061314b565b60388261ffff161015612f4c576041905061314b565b60398261ffff161015612f62576044905061314b565b603a8261ffff161015612f78576046905061314b565b603b8261ffff161015612f8e576048905061314b565b603c8261ffff161015612fa457604a905061314b565b603d8261ffff161015612fba57604c905061314b565b603e8261ffff161015612fd057604e905061314b565b603f8261ffff161015612fe657604f905061314b565b60408261ffff161015612ffc576051905061314b565b60418261ffff161015613012576052905061314b565b60428261ffff161015613028576054905061314b565b60438261ffff16101561303e576055905061314b565b60448261ffff161015613054576056905061314b565b60458261ffff16101561306a576058905061314b565b60468261ffff161015613080576059905061314b565b60478261ffff16101561309657605a905061314b565b60488261ffff1610156130ac57605b905061314b565b604a8261ffff1610156130c257605c905061314b565b604b8261ffff1610156130d857605d905061314b565b604c8261ffff1610156130ee57605e905061314b565b604e8261ffff16101561310457605f905061314b565b60508261ffff16101561311a576060905061314b565b60528261ffff161015613130576061905061314b565b60568261ffff161015613146576062905061314b565b606390505b919050565b6000602782101561316457600090506134db565b602d82101561317657600190506134db565b603182101561318857600290506134db565b603482101561319a57600390506134db565b60358210156131ac57600490506134db565b60368210156131be57600490506134db565b60378210156131d057600590506134db565b60388210156131e257600590506134db565b60398210156131f457600690506134db565b603a82101561320657600690506134db565b603b82101561321857600790506134db565b603c82101561322a57600790506134db565b603d82101561323c57600890506134db565b603e82101561324e57600990506134db565b603f82101561326057600990506134db565b604082101561327257600a90506134db565b604182101561328457600b90506134db565b604282101561329657600c90506134db565b60438210156132a857600d90506134db565b60448210156132ba57600e90506134db565b60458210156132cc57600f90506134db565b60468210156132de57601090506134db565b60478210156132f057601290506134db565b604882101561330257601390506134db565b604982101561331457601490506134db565b604a82101561332657601690506134db565b604b82101561333857601790506134db565b604c82101561334a57601990506134db565b604d82101561335c57601b90506134db565b604e82101561336e57601c90506134db565b604f82101561338057601e90506134db565b605082101561339257602090506134db565b60518210156133a457602290506134db565b60528210156133b657602590506134db565b60538210156133c857602790506134db565b60548210156133da57602990506134db565b60558210156133ec57602c90506134db565b60568210156133fe57602f90506134db565b605782101561341057603190506134db565b605882101561342257603490506134db565b605982101561343457603790506134db565b605a82101561344657603b90506134db565b605b82101561345857603e90506134db565b605c82101561346a57604190506134db565b605d82101561347c57604590506134db565b605e82101561348e57604990506134db565b605f8210156134a057604d90506134db565b60608210156134b257605190506134db565b60618210156134c457605590506134db565b60628210156134d657605a90506134db565b605f90505b919050565b600060168210156134f4576000905061391f565b601c821015613506576001905061391f565b6020821015613518576002905061391f565b602082101561352a576003905061391f565b602282101561353c576003905061391f565b602482101561354e576004905061391f565b6027821015613560576005905061391f565b6029821015613572576006905061391f565b602b821015613584576007905061391f565b602e821015613596576009905061391f565b602f8210156135a857600a905061391f565b60318210156135ba57600b905061391f565b60328210156135cc57600c905061391f565b60338210156135de57600d905061391f565b60358210156135f057600e905061391f565b603682101561360257600f905061391f565b6037821015613614576010905061391f565b6038821015613626576011905061391f565b6039821015613638576012905061391f565b603a82101561364a576013905061391f565b603b82101561365c576014905061391f565b603c82101561366e576015905061391f565b603d821015613680576016905061391f565b603e821015613692576017905061391f565b603f8210156136a4576019905061391f565b60408210156136b657601a905061391f565b60418210156136c857601b905061391f565b60428210156136da57601c905061391f565b60438210156136ec57601e905061391f565b60448210156136fe57601f905061391f565b6045821015613710576020905061391f565b6046821015613722576022905061391f565b6047821015613734576023905061391f565b6048821015613746576025905061391f565b6049821015613758576026905061391f565b604a82101561376a576028905061391f565b604b82101561377c57602a905061391f565b604c82101561378e57602b905061391f565b604d8210156137a057602d905061391f565b604e8210156137b257602f905061391f565b604f8210156137c4576031905061391f565b60508210156137d6576033905061391f565b60518210156137e8576035905061391f565b60528210156137fa576037905061391f565b605382101561380c576039905061391f565b605482101561381e57603b905061391f565b605582101561383057603d905061391f565b605682101561384257603f905061391f565b6057821015613854576041905061391f565b6058821015613866576044905061391f565b6059821015613878576046905061391f565b605a82101561388a576048905061391f565b605b82101561389c57604b905061391f565b605c8210156138ae57604d905061391f565b605d8210156138c0576050905061391f565b605e8210156138d2576053905061391f565b605f8210156138e4576055905061391f565b60608210156138f6576058905061391f565b606182101561390857605b905061391f565b606282101561391a57605e905061391f565b606190505b919050565b6000808273ffffffffffffffffffffffffffffffffffffffff163b119050919050565b82805461395390614003565b90600052602060002090601f01602090048101928261397557600085556139bc565b82601f1061398e57805160ff19168380011785556139bc565b828001600101855582156139bc579182015b828111156139bb5782518255916020019190600101906139a0565b5b5090506139c991906139f4565b5090565b6040518060a001604052806005905b60608152602001906001900390816139dc5790505090565b5b80821115613a0d5760008160009055506001016139f5565b5090565b6000604051905090565b600080fd5b600080fd5b60007fffffffff0000000000000000000000000000000000000000000000000000000082169050919050565b613a5a81613a25565b8114613a6557600080fd5b50565b600081359050613a7781613a51565b92915050565b600060208284031215613a9357613a92613a1b565b5b6000613aa184828501613a68565b91505092915050565b60008115159050919050565b613abf81613aaa565b82525050565b6000602082019050613ada6000830184613ab6565b92915050565b600081519050919050565b600082825260208201905092915050565b60005b83811015613b1a578082015181840152602081019050613aff565b83811115613b29576000848401525b50505050565b6000601f19601f8301169050919050565b6000613b4b82613ae0565b613b558185613aeb565b9350613b65818560208601613afc565b613b6e81613b2f565b840191505092915050565b60006020820190508181036000830152613b938184613b40565b905092915050565b6000819050919050565b613bae81613b9b565b8114613bb957600080fd5b50565b600081359050613bcb81613ba5565b92915050565b600060208284031215613be757613be6613a1b565b5b6000613bf584828501613bbc565b91505092915050565b600073ffffffffffffffffffffffffffffffffffffffff82169050919050565b6000613c2982613bfe565b9050919050565b613c3981613c1e565b82525050565b6000602082019050613c546000830184613c30565b92915050565b613c6381613c1e565b8114613c6e57600080fd5b50565b600081359050613c8081613c5a565b92915050565b60008060408385031215613c9d57613c9c613a1b565b5b6000613cab85828601613c71565b9250506020613cbc85828601613bbc565b9150509250929050565b600080600060608486031215613cdf57613cde613a1b565b5b6000613ced86828701613c71565b9350506020613cfe86828701613c71565b9250506040613d0f86828701613bbc565b9150509250925092565b600060208284031215613d2f57613d2e613a1b565b5b6000613d3d84828501613c71565b91505092915050565b613d4f81613b9b565b82525050565b6000602082019050613d6a6000830184613d46565b92915050565b613d7981613aaa565b8114613d8457600080fd5b50565b600081359050613d9681613d70565b92915050565b60008060408385031215613db357613db2613a1b565b5b6000613dc185828601613c71565b9250506020613dd285828601613d87565b9150509250929050565b600080fd5b600080fd5b7f4e487b7100000000000000000000000000000000000000000000000000000000600052604160045260246000fd5b613e1e82613b2f565b810181811067ffffffffffffffff82111715613e3d57613e3c613de6565b5b80604052505050565b6000613e50613a11565b9050613e5c8282613e15565b919050565b600067ffffffffffffffff821115613e7c57613e7b613de6565b5b613e8582613b2f565b9050602081019050919050565b82818337600083830152505050565b6000613eb4613eaf84613e61565b613e46565b905082815260208101848484011115613ed057613ecf613de1565b5b613edb848285613e92565b509392505050565b600082601f830112613ef857613ef7613ddc565b5b8135613f08848260208601613ea1565b91505092915050565b60008060008060808587031215613f2b57613f2a613a1b565b5b6000613f3987828801613c71565b9450506020613f4a87828801613c71565b9350506040613f5b87828801613bbc565b925050606085013567ffffffffffffffff811115613f7c57613f7b613a20565b5b613f8887828801613ee3565b91505092959194509250565b60008060408385031215613fab57613faa613a1b565b5b6000613fb985828601613c71565b9250506020613fca85828601613c71565b9150509250929050565b7f4e487b7100000000000000000000000000000000000000000000000000000000600052602260045260246000fd5b6000600282049050600182168061401b57607f821691505b6020821081141561402f5761402e613fd4565b5b50919050565b7f4552433732313a20617070726f76656420717565727920666f72206e6f6e657860008201527f697374656e7420746f6b656e0000000000000000000000000000000000000000602082015250565b6000614091602c83613aeb565b915061409c82614035565b604082019050919050565b600060208201905081810360008301526140c081614084565b9050919050565b7f4552433732313a20617070726f76616c20746f2063757272656e74206f776e6560008201527f7200000000000000000000000000000000000000000000000000000000000000602082015250565b6000614123602183613aeb565b915061412e826140c7565b604082019050919050565b6000602082019050818103600083015261415281614116565b9050919050565b7f4552433732313a20617070726f76652063616c6c6572206973206e6f74206f7760008201527f6e6572206e6f7220617070726f76656420666f7220616c6c0000000000000000602082015250565b60006141b5603883613aeb565b91506141c082614159565b604082019050919050565b600060208201905081810360008301526141e4816141a8565b9050919050565b7f4552433732313a207472616e736665722063616c6c6572206973206e6f74206f60008201527f776e6572206e6f7220617070726f766564000000000000000000000000000000602082015250565b6000614247603183613aeb565b9150614252826141eb565b604082019050919050565b600060208201905081810360008301526142768161423a565b9050919050565b7f4552433732313a206f776e657220717565727920666f72206e6f6e657869737460008201527f656e7420746f6b656e0000000000000000000000000000000000000000000000602082015250565b60006142d9602983613aeb565b91506142e48261427d565b604082019050919050565b60006020820190508181036000830152614308816142cc565b9050919050565b7f4552433732313a2062616c616e636520717565727920666f7220746865207a6560008201527f726f206164647265737300000000000000000000000000000000000000000000602082015250565b600061436b602a83613aeb565b91506143768261430f565b604082019050919050565b6000602082019050818103600083015261439a8161435e565b9050919050565b7f4f776e61626c653a2063616c6c6572206973206e6f7420746865206f776e6572600082015250565b60006143d7602083613aeb565b91506143e2826143a1565b602082019050919050565b60006020820190508181036000830152614406816143ca565b9050919050565b7f4e487b7100000000000000000000000000000000000000000000000000000000600052603260045260246000fd5b600081905092915050565b7f3c73766720786d6c6e733d22687474703a2f2f7777772e77332e6f72672f323060008201527f30302f737667222076696577426f783d223020302031343020313430223e3c6460208201527f6566733e3c72616469616c4772616469656e742069643d22677a72222067726160408201527f6469656e745472616e73666f726d3d227472616e736c6174652831343020323060608201527f29207363616c65283135302922206772616469656e74556e6974733d2275736560808201527f7253706163654f6e5573652220723d2231222063783d2230222063793d22302560a08201527f223e3c73746f70206f66667365743d2231352e363225222073746f702d636f6c60c08201527f6f723d220000000000000000000000000000000000000000000000000000000060e082015250565b600061458760e48361443c565b915061459282614447565b60e482019050919050565b600081519050919050565b600081905092915050565b60006145be8261459d565b6145c881856145a8565b93506145d8818560208601613afc565b80840191505092915050565b7f22202f3e3c73746f70206f66667365743d2233392e353825222073746f702d6360008201527f6f6c6f723d220000000000000000000000000000000000000000000000000000602082015250565b600061464060268361443c565b915061464b826145e4565b602682019050919050565b7f22202f3e3c73746f70206f66667365743d2237322e393225222073746f702d6360008201527f6f6c6f723d220000000000000000000000000000000000000000000000000000602082015250565b60006146b260268361443c565b91506146bd82614656565b602682019050919050565b7f22202f3e3c73746f70206f66667365743d2239302e363325222073746f702d6360008201527f6f6c6f723d220000000000000000000000000000000000000000000000000000602082015250565b600061472460268361443c565b915061472f826146c8565b602682019050919050565b7f22202f3e3c73746f70206f66667365743d2231303025222073746f702d636f6c60008201527f6f723d2200000000000000000000000000000000000000000000000000000000602082015250565b600061479660248361443c565b91506147a18261473a565b602482019050919050565b7f22202f3e3c2f72616469616c4772616469656e743e20202020203c2f6465667360008201527f3e3c67203e3c7265637420783d2232302220793d223230222077696474683d2260208201527f31303022206865696768743d22313030222066696c6c3d2275726c2823677a7260408201527f29222072783d223230222072793d2232302220207374726f6b653d227267626160608201527f28302c302c302c302e30373529222f3e3c7265637420783d2233302220793d2260808201527f3330222077696474683d22383022206865696768743d223830222066696c6c3d60a08201527f2223666666222072783d223132222072793d2231322220207374726f6b653d2260c08201527f7267626128302c302c302c302e30373529222f3e3c7465787420783d2235322260e08201527f20793d2239302220666f6e742d66616d696c793d22706f7070696e732c2073616101008201527f6e732d73657269662220666f6e742d7374796c653d226e6f726d616c2220666f6101208201527f6e742d7765696768743d223630302220666f6e742d73697a653d2236307078226101408201527f2066696c6c3d2275726c2823677a722922203e0000000000000000000000000061016082015250565b60006149896101738361443c565b9150614994826147ac565b61017382019050919050565b60006149ab82613ae0565b6149b5818561443c565b93506149c5818560208601613afc565b80840191505092915050565b7f3c2f746578743e3c2f673e3c2f7376673e000000000000000000000000000000600082015250565b6000614a0760118361443c565b9150614a12826149d1565b601182019050919050565b6000614a288261457a565b9150614a3482896145b3565b9150614a3f82614633565b9150614a4b82886145b3565b9150614a56826146a5565b9150614a6282876145b3565b9150614a6d82614717565b9150614a7982866145b3565b9150614a8482614789565b9150614a9082856145b3565b9150614a9b8261497b565b9150614aa782846149a0565b9150614ab2826149fa565b9150819050979650505050505050565b7f646174613a696d6167652f7376672b786d6c3b6261736536342c000000000000600082015250565b6000614af8601a8361443c565b9150614b0382614ac2565b601a82019050919050565b6000614b1982614aeb565b9150614b2582846149a0565b915081905092915050565b7f7b22696d616765223a2022000000000000000000000000000000000000000000600082015250565b6000614b66600b8361443c565b9150614b7182614b30565b600b82019050919050565b7f227d000000000000000000000000000000000000000000000000000000000000600082015250565b6000614bb260028361443c565b9150614bbd82614b7c565b600282019050919050565b6000614bd382614b59565b9150614bdf82846149a0565b9150614bea82614ba5565b915081905092915050565b7f646174613a6170706c69636174696f6e2f6a736f6e3b6261736536342c000000600082015250565b6000614c2b601d8361443c565b9150614c3682614bf5565b601d82019050919050565b6000614c4c82614c1e565b9150614c5882846149a0565b915081905092915050565b7f45524337323155524953746f726167653a2055524920717565727920666f722060008201527f6e6f6e6578697374656e7420746f6b656e000000000000000000000000000000602082015250565b6000614cbf603183613aeb565b9150614cca82614c63565b604082019050919050565b60006020820190508181036000830152614cee81614cb2565b9050919050565b6000614d0182856149a0565b9150614d0d82846149a0565b91508190509392505050565b7f4f776e61626c653a206e6577206f776e657220697320746865207a65726f206160008201527f6464726573730000000000000000000000000000000000000000000000000000602082015250565b6000614d75602683613aeb565b9150614d8082614d19565b604082019050919050565b60006020820190508181036000830152614da481614d68565b9050919050565b7f4552433732313a206f70657261746f7220717565727920666f72206e6f6e657860008201527f697374656e7420746f6b656e0000000000000000000000000000000000000000602082015250565b6000614e07602c83613aeb565b9150614e1282614dab565b604082019050919050565b60006020820190508181036000830152614e3681614dfa565b9050919050565b7f4552433732313a207472616e736665722066726f6d20696e636f72726563742060008201527f6f776e6572000000000000000000000000000000000000000000000000000000602082015250565b6000614e99602583613aeb565b9150614ea482614e3d565b604082019050919050565b60006020820190508181036000830152614ec881614e8c565b9050919050565b7f4552433732313a207472616e7366657220746f20746865207a65726f2061646460008201527f7265737300000000000000000000000000000000000000000000000000000000602082015250565b6000614f2b602483613aeb565b9150614f3682614ecf565b604082019050919050565b60006020820190508181036000830152614f5a81614f1e565b9050919050565b7f4e487b7100000000000000000000000000000000000000000000000000000000600052601160045260246000fd5b6000614f9b82613b9b565b9150614fa683613b9b565b925082821015614fb957614fb8614f61565b5b828203905092915050565b6000614fcf82613b9b565b9150614fda83613b9b565b9250827fffffffffffffffffffffffffffffffffffffffffffffffffffffffffffffffff0382111561500f5761500e614f61565b5b828201905092915050565b7f4552433732313a206d696e7420746f20746865207a65726f2061646472657373600082015250565b6000615050602083613aeb565b915061505b8261501a565b602082019050919050565b6000602082019050818103600083015261507f81615043565b9050919050565b7f4552433732313a20746f6b656e20616c7265616479206d696e74656400000000600082015250565b60006150bc601c83613aeb565b91506150c782615086565b602082019050919050565b600060208201905081810360008301526150eb816150af565b9050919050565b7f45524337323155524953746f726167653a2055524920736574206f66206e6f6e60008201527f6578697374656e7420746f6b656e000000000000000000000000000000000000602082015250565b600061514e602e83613aeb565b9150615159826150f2565b604082019050919050565b6000602082019050818103600083015261517d81615141565b9050919050565b7f4e487b7100000000000000000000000000000000000000000000000000000000600052601260045260246000fd5b60006151be82613b9b565b91506151c983613b9b565b9250817fffffffffffffffffffffffffffffffffffffffffffffffffffffffffffffffff048311821515161561520257615201614f61565b5b828202905092915050565b600061521882613b9b565b915061522383613b9b565b92508261523357615232615184565b5b828204905092915050565b600060ff82169050919050565b60006152568261523e565b91506152618361523e565b92508261527157615270615184565b5b828206905092915050565b600061528782613b9b565b915061529283613b9b565b9250826152a2576152a1615184565b5b828206905092915050565b60007fff0000000000000000000000000000000000000000000000000000000000000082169050919050565b6000819050919050565b6152f46152ef826152ad565b6152d9565b82525050565b600061530682846152e3565b60018201915081905092915050565b7f4552433732313a20617070726f766520746f2063616c6c657200000000000000600082015250565b600061534b601983613aeb565b915061535682615315565b602082019050919050565b6000602082019050818103600083015261537a8161533e565b9050919050565b7f4552433732313a207472616e7366657220746f206e6f6e20455243373231526560008201527f63656976657220696d706c656d656e7465720000000000000000000000000000602082015250565b60006153dd603283613aeb565b91506153e882615381565b604082019050919050565b6000602082019050818103600083015261540c816153d0565b9050919050565b7f4552433732314d657461646174613a2055524920717565727920666f72206e6f60008201527f6e6578697374656e7420746f6b656e0000000000000000000000000000000000602082015250565b600061546f602f83613aeb565b915061547a82615413565b604082019050919050565b6000602082019050818103600083015261549e81615462565b9050919050565b6000819050919050565b60006154ba826154a5565b91506154c5836154a5565b9250817f7fffffffffffffffffffffffffffffffffffffffffffffffffffffffffffffff03831360008312151615615500576154ff614f61565b5b817f800000000000000000000000000000000000000000000000000000000000000003831260008312161561553857615537614f61565b5b828201905092915050565b600061554e826154a5565b9150615559836154a5565b9250827f80000000000000000000000000000000000000000000000000000000000000000182126000841215161561559457615593614f61565b5b827f7fffffffffffffffffffffffffffffffffffffffffffffffffffffffffffffff0182136000841216156155cc576155cb614f61565b5b828203905092915050565b60006155e2826154a5565b91506155ed836154a5565b9250827f7fffffffffffffffffffffffffffffffffffffffffffffffffffffffffffffff048211600084136000841316161561562c5761562b614f61565b5b817f8000000000000000000000000000000000000000000000000000000000000000058312600084126000841316161561566957615668614f61565b5b827f800000000000000000000000000000000000000000000000000000000000000005821260008413600084121616156156a6576156a5614f61565b5b827f7fffffffffffffffffffffffffffffffffffffffffffffffffffffffffffffff05821260008412600084121616156156e3576156e2614f61565b5b828202905092915050565b7f68736c2800000000000000000000000000000000000000000000000000000000600082015250565b600061572460048361443c565b915061572f826156ee565b600482019050919050565b7f2c20000000000000000000000000000000000000000000000000000000000000600082015250565b600061577060028361443c565b915061577b8261573a565b600282019050919050565b7f252c200000000000000000000000000000000000000000000000000000000000600082015250565b60006157bc60038361443c565b91506157c782615786565b600382019050919050565b7f2529000000000000000000000000000000000000000000000000000000000000600082015250565b600061580860028361443c565b9150615813826157d2565b600282019050919050565b600061582982615717565b915061583582866149a0565b915061584082615763565b915061584c82856149a0565b9150615857826157af565b915061586382846149a0565b915061586e826157fb565b9150819050949350505050565b600082825260208201905092915050565b60006158978261459d565b6158a1818561587b565b93506158b1818560208601613afc565b6158ba81613b2f565b840191505092915050565b60006080820190506158da6000830187613c30565b6158e76020830186613c30565b6158f46040830185613d46565b8181036060830152615906818461588c565b905095945050505050565b60008151905061592081613a51565b92915050565b60006020828403121561593c5761593b613a1b565b5b600061594a84828501615911565b91505092915050565b600061595e82613b9b565b91507fffffffffffffffffffffffffffffffffffffffffffffffffffffffffffffffff82141561599157615990614f61565b5b60018201905091905056fe4142434445464748494a4b4c4d4e4f505152535455565758595a6162636465666768696a6b6c6d6e6f707172737475767778797a303132333435363738392b2fa2646970667358221220764b836f51fd1f3d24a42867a712ca3865c981f7416537c3343140ce5262ef5664736f6c63430008090033",
  "linkReferences": {},
  "deployedLinkReferences": {}
}