{
  "_format": "hh-sol-artifact-1",
  "contractName": "AdminInETH_backup",
  "sourceName": "contracts/ednpoint/AdminInETH_backup.sol",
  "abi": [
    {
      "inputs": [
        {
          "internalType": "address",
          "name": "_endpoint",
          "type": "address"
        }
      ],
      "stateMutability": "nonpayable",
      "type": "constructor"
    },
    {
      "inputs": [],
      "name": "ApprovalCallerNotOwnerNorApproved",
      "type": "error"
    },
    {
      "inputs": [],
      "name": "ApprovalQueryForNonexistentToken",
      "type": "error"
    },
    {
      "inputs": [],
      "name": "ApproveToCaller",
      "type": "error"
    },
    {
      "inputs": [],
      "name": "BalanceQueryForZeroAddress",
      "type": "error"
    },
    {
      "inputs": [],
      "name": "MintERC2309QuantityExceedsLimit",
      "type": "error"
    },
    {
      "inputs": [],
      "name": "MintToZeroAddress",
      "type": "error"
    },
    {
      "inputs": [],
      "name": "MintZeroQuantity",
      "type": "error"
    },
    {
      "inputs": [],
      "name": "OwnerQueryForNonexistentToken",
      "type": "error"
    },
    {
      "inputs": [],
      "name": "OwnershipNotInitializedForExtraData",
      "type": "error"
    },
    {
      "inputs": [],
      "name": "TransferCallerNotOwnerNorApproved",
      "type": "error"
    },
    {
      "inputs": [],
      "name": "TransferFromIncorrectOwner",
      "type": "error"
    },
    {
      "inputs": [],
      "name": "TransferToNonERC721ReceiverImplementer",
      "type": "error"
    },
    {
      "inputs": [],
      "name": "TransferToZeroAddress",
      "type": "error"
    },
    {
      "inputs": [],
      "name": "URIQueryForNonexistentToken",
      "type": "error"
    },
    {
      "anonymous": false,
      "inputs": [
        {
          "indexed": true,
          "internalType": "address",
          "name": "owner",
          "type": "address"
        },
        {
          "indexed": true,
          "internalType": "address",
          "name": "approved",
          "type": "address"
        },
        {
          "indexed": true,
          "internalType": "uint256",
          "name": "tokenId",
          "type": "uint256"
        }
      ],
      "name": "Approval",
      "type": "event"
    },
    {
      "anonymous": false,
      "inputs": [
        {
          "indexed": true,
          "internalType": "address",
          "name": "owner",
          "type": "address"
        },
        {
          "indexed": true,
          "internalType": "address",
          "name": "operator",
          "type": "address"
        },
        {
          "indexed": false,
          "internalType": "bool",
          "name": "approved",
          "type": "bool"
        }
      ],
      "name": "ApprovalForAll",
      "type": "event"
    },
    {
      "anonymous": false,
      "inputs": [
        {
          "indexed": true,
          "internalType": "uint256",
          "name": "fromTokenId",
          "type": "uint256"
        },
        {
          "indexed": false,
          "internalType": "uint256",
          "name": "toTokenId",
          "type": "uint256"
        },
        {
          "indexed": true,
          "internalType": "address",
          "name": "from",
          "type": "address"
        },
        {
          "indexed": true,
          "internalType": "address",
          "name": "to",
          "type": "address"
        }
      ],
      "name": "ConsecutiveTransfer",
      "type": "event"
    },
    {
      "anonymous": false,
      "inputs": [
        {
          "indexed": false,
          "internalType": "uint16",
          "name": "_srcChainId",
          "type": "uint16"
        },
        {
          "indexed": false,
          "internalType": "bytes",
          "name": "_srcAddress",
          "type": "bytes"
        },
        {
          "indexed": false,
          "internalType": "uint64",
          "name": "_nonce",
          "type": "uint64"
        },
        {
          "indexed": false,
          "internalType": "bytes",
          "name": "_payload",
          "type": "bytes"
        }
      ],
      "name": "MessageFailed",
      "type": "event"
    },
    {
      "anonymous": false,
      "inputs": [
        {
          "indexed": true,
          "internalType": "address",
          "name": "previousOwner",
          "type": "address"
        },
        {
          "indexed": true,
          "internalType": "address",
          "name": "newOwner",
          "type": "address"
        }
      ],
      "name": "OwnershipTransferred",
      "type": "event"
    },
    {
      "anonymous": false,
      "inputs": [
        {
          "indexed": false,
          "internalType": "uint16",
          "name": "_srcChainId",
          "type": "uint16"
        },
        {
          "indexed": false,
          "internalType": "address",
          "name": "_from",
          "type": "address"
        },
        {
          "indexed": false,
          "internalType": "bytes",
          "name": "_payload",
          "type": "bytes"
        }
      ],
      "name": "ReceiveMsg",
      "type": "event"
    },
    {
      "anonymous": false,
      "inputs": [
        {
          "indexed": true,
          "internalType": "address",
          "name": "from",
          "type": "address"
        },
        {
          "indexed": true,
          "internalType": "address",
          "name": "to",
          "type": "address"
        },
        {
          "indexed": true,
          "internalType": "uint256",
          "name": "tokenId",
          "type": "uint256"
        }
      ],
      "name": "Transfer",
      "type": "event"
    },
    {
      "inputs": [
        {
          "internalType": "uint16",
          "name": "_dstChainId",
          "type": "uint16"
        },
        {
          "internalType": "bytes",
          "name": "_destination",
          "type": "bytes"
        },
        {
          "internalType": "uint256",
          "name": "tokenId",
          "type": "uint256"
        }
      ],
      "name": "CrossChain",
      "outputs": [],
      "stateMutability": "payable",
      "type": "function"
    },
    {
      "inputs": [
        {
          "internalType": "address",
          "name": "to",
          "type": "address"
        },
        {
          "internalType": "uint256",
          "name": "tokenId",
          "type": "uint256"
        }
      ],
      "name": "approve",
      "outputs": [],
      "stateMutability": "nonpayable",
      "type": "function"
    },
    {
      "inputs": [
        {
          "internalType": "address",
          "name": "owner",
          "type": "address"
        }
      ],
      "name": "balanceOf",
      "outputs": [
        {
          "internalType": "uint256",
          "name": "",
          "type": "uint256"
        }
      ],
      "stateMutability": "view",
      "type": "function"
    },
    {
      "inputs": [
        {
          "internalType": "bool",
          "name": "_o",
          "type": "bool"
        }
      ],
      "name": "change",
      "outputs": [
        {
          "internalType": "bool",
          "name": "",
          "type": "bool"
        }
      ],
      "stateMutability": "nonpayable",
      "type": "function"
    },
    {
      "inputs": [],
      "name": "check",
      "outputs": [
        {
          "internalType": "bool",
          "name": "",
          "type": "bool"
        }
      ],
      "stateMutability": "view",
      "type": "function"
    },
    {
      "inputs": [
        {
          "internalType": "uint256",
          "name": "tokenId",
          "type": "uint256"
        }
      ],
      "name": "checkLabel",
      "outputs": [
        {
          "internalType": "uint256",
          "name": "label",
          "type": "uint256"
        }
      ],
      "stateMutability": "view",
      "type": "function"
    },
    {
      "inputs": [],
      "name": "check_message",
      "outputs": [
        {
          "internalType": "uint256",
          "name": "",
          "type": "uint256"
        },
        {
          "internalType": "uint256",
          "name": "",
          "type": "uint256"
        }
      ],
      "stateMutability": "view",
      "type": "function"
    },
    {
      "inputs": [],
      "name": "checkdepositAddress",
      "outputs": [
        {
          "internalType": "address",
          "name": "",
          "type": "address"
        }
      ],
      "stateMutability": "view",
      "type": "function"
    },
    {
      "inputs": [
        {
          "internalType": "uint16",
          "name": "_dstChainId",
          "type": "uint16"
        },
        {
          "internalType": "uint256",
          "name": "tokenId",
          "type": "uint256"
        }
      ],
      "name": "checkfee",
      "outputs": [
        {
          "internalType": "uint256",
          "name": "",
          "type": "uint256"
        }
      ],
      "stateMutability": "view",
      "type": "function"
    },
    {
      "inputs": [],
      "name": "endpoint",
      "outputs": [
        {
          "internalType": "contract ILayerZeroEndpoint",
          "name": "",
          "type": "address"
        }
      ],
      "stateMutability": "view",
      "type": "function"
    },
    {
      "inputs": [
        {
          "internalType": "uint16",
          "name": "_dstChainId",
          "type": "uint16"
        },
        {
          "internalType": "address",
          "name": "_userApplication",
          "type": "address"
        },
        {
          "internalType": "bytes",
          "name": "_payload",
          "type": "bytes"
        },
        {
          "internalType": "bool",
          "name": "_payInZRO",
          "type": "bool"
        },
        {
          "internalType": "bytes",
          "name": "_adapterParams",
          "type": "bytes"
        }
      ],
      "name": "estimateFees",
      "outputs": [
        {
          "internalType": "uint256",
          "name": "nativeFee",
          "type": "uint256"
        },
        {
          "internalType": "uint256",
          "name": "zroFee",
          "type": "uint256"
        }
      ],
      "stateMutability": "view",
      "type": "function"
    },
    {
      "inputs": [
        {
          "internalType": "uint16",
          "name": "",
          "type": "uint16"
        },
        {
          "internalType": "bytes",
          "name": "",
          "type": "bytes"
        },
        {
          "internalType": "uint256",
          "name": "",
          "type": "uint256"
        }
      ],
      "name": "failedMessages",
      "outputs": [
        {
          "internalType": "uint256",
          "name": "payloadLength",
          "type": "uint256"
        },
        {
          "internalType": "bytes32",
          "name": "payloadHash",
          "type": "bytes32"
        }
      ],
      "stateMutability": "view",
      "type": "function"
    },
    {
      "inputs": [
        {
          "internalType": "uint256",
          "name": "tokenId",
          "type": "uint256"
        }
      ],
      "name": "getApproved",
      "outputs": [
        {
          "internalType": "address",
          "name": "",
          "type": "address"
        }
      ],
      "stateMutability": "view",
      "type": "function"
    },
    {
      "inputs": [
        {
          "internalType": "address",
          "name": "owner",
          "type": "address"
        },
        {
          "internalType": "address",
          "name": "operator",
          "type": "address"
        }
      ],
      "name": "isApprovedForAll",
      "outputs": [
        {
          "internalType": "bool",
          "name": "",
          "type": "bool"
        }
      ],
      "stateMutability": "view",
      "type": "function"
    },
    {
      "inputs": [
        {
          "internalType": "uint256",
          "name": "",
          "type": "uint256"
        }
      ],
      "name": "labelTotokenId",
      "outputs": [
        {
          "internalType": "uint256",
          "name": "",
          "type": "uint256"
        }
      ],
      "stateMutability": "view",
      "type": "function"
    },
    {
      "inputs": [
        {
          "internalType": "uint16",
          "name": "_srcChainId",
          "type": "uint16"
        },
        {
          "internalType": "bytes",
          "name": "_srcAddress",
          "type": "bytes"
        },
        {
          "internalType": "uint64",
          "name": "_nonce",
          "type": "uint64"
        },
        {
          "internalType": "bytes",
          "name": "_payload",
          "type": "bytes"
        }
      ],
      "name": "lzReceive",
      "outputs": [],
      "stateMutability": "nonpayable",
      "type": "function"
    },
    {
      "inputs": [
        {
          "internalType": "uint256",
          "name": "quantity",
          "type": "uint256"
        }
      ],
      "name": "mint",
      "outputs": [],
      "stateMutability": "nonpayable",
      "type": "function"
    },
    {
      "inputs": [],
      "name": "name",
      "outputs": [
        {
          "internalType": "string",
          "name": "",
          "type": "string"
        }
      ],
      "stateMutability": "view",
      "type": "function"
    },
    {
      "inputs": [],
      "name": "o",
      "outputs": [
        {
          "internalType": "bool",
          "name": "",
          "type": "bool"
        }
      ],
      "stateMutability": "view",
      "type": "function"
    },
    {
      "inputs": [
        {
          "internalType": "uint16",
          "name": "_srcChainId",
          "type": "uint16"
        },
        {
          "internalType": "bytes",
          "name": "_srcAddress",
          "type": "bytes"
        },
        {
          "internalType": "uint64",
          "name": "_nonce",
          "type": "uint64"
        },
        {
          "internalType": "bytes",
          "name": "_payload",
          "type": "bytes"
        }
      ],
      "name": "onLzReceive",
      "outputs": [],
      "stateMutability": "nonpayable",
      "type": "function"
    },
    {
      "inputs": [],
      "name": "owner",
      "outputs": [
        {
          "internalType": "address",
          "name": "",
          "type": "address"
        }
      ],
      "stateMutability": "view",
      "type": "function"
    },
    {
      "inputs": [
        {
          "internalType": "uint256",
          "name": "tokenId",
          "type": "uint256"
        }
      ],
      "name": "ownerOf",
      "outputs": [
        {
          "internalType": "address",
          "name": "",
          "type": "address"
        }
      ],
      "stateMutability": "view",
      "type": "function"
    },
    {
      "inputs": [
        {
          "internalType": "string",
          "name": "name",
          "type": "string"
        }
      ],
      "name": "register",
      "outputs": [
        {
          "internalType": "uint256",
          "name": "",
          "type": "uint256"
        }
      ],
      "stateMutability": "payable",
      "type": "function"
    },
    {
      "inputs": [],
      "name": "renounceOwnership",
      "outputs": [],
      "stateMutability": "nonpayable",
      "type": "function"
    },
    {
      "inputs": [
        {
          "internalType": "uint16",
          "name": "_srcChainId",
          "type": "uint16"
        },
        {
          "internalType": "bytes",
          "name": "_srcAddress",
          "type": "bytes"
        },
        {
          "internalType": "uint64",
          "name": "_nonce",
          "type": "uint64"
        },
        {
          "internalType": "bytes",
          "name": "_payload",
          "type": "bytes"
        }
      ],
      "name": "retryMessage",
      "outputs": [],
      "stateMutability": "payable",
      "type": "function"
    },
    {
      "inputs": [
        {
          "internalType": "address",
          "name": "from",
          "type": "address"
        },
        {
          "internalType": "address",
          "name": "to",
          "type": "address"
        },
        {
          "internalType": "uint256",
          "name": "tokenId",
          "type": "uint256"
        }
      ],
      "name": "safeTransferFrom",
      "outputs": [],
      "stateMutability": "nonpayable",
      "type": "function"
    },
    {
      "inputs": [
        {
          "internalType": "address",
          "name": "from",
          "type": "address"
        },
        {
          "internalType": "address",
          "name": "to",
          "type": "address"
        },
        {
          "internalType": "uint256",
          "name": "tokenId",
          "type": "uint256"
        },
        {
          "internalType": "bytes",
          "name": "_data",
          "type": "bytes"
        }
      ],
      "name": "safeTransferFrom",
      "outputs": [],
      "stateMutability": "nonpayable",
      "type": "function"
    },
    {
      "inputs": [
        {
          "internalType": "address",
          "name": "operator",
          "type": "address"
        },
        {
          "internalType": "bool",
          "name": "approved",
          "type": "bool"
        }
      ],
      "name": "setApprovalForAll",
      "outputs": [],
      "stateMutability": "nonpayable",
      "type": "function"
    },
    {
      "inputs": [
        {
          "internalType": "uint16",
          "name": "_chainId",
          "type": "uint16"
        },
        {
          "internalType": "bytes",
          "name": "_trustedRemote",
          "type": "bytes"
        }
      ],
      "name": "setTrustedRemote",
      "outputs": [],
      "stateMutability": "nonpayable",
      "type": "function"
    },
    {
      "inputs": [
        {
          "internalType": "address",
          "name": "_deposit",
          "type": "address"
        }
      ],
      "name": "setdepositAddress",
      "outputs": [],
      "stateMutability": "nonpayable",
      "type": "function"
    },
    {
      "inputs": [
        {
          "internalType": "uint256",
          "name": "newVal",
          "type": "uint256"
        }
      ],
      "name": "setgas",
      "outputs": [],
      "stateMutability": "nonpayable",
      "type": "function"
    },
    {
      "inputs": [
        {
          "internalType": "address",
          "name": "_initialAccount",
          "type": "address"
        }
      ],
      "name": "setinitAccount",
      "outputs": [],
      "stateMutability": "nonpayable",
      "type": "function"
    },
    {
      "inputs": [
        {
          "internalType": "bytes4",
          "name": "interfaceId",
          "type": "bytes4"
        }
      ],
      "name": "supportsInterface",
      "outputs": [
        {
          "internalType": "bool",
          "name": "",
          "type": "bool"
        }
      ],
      "stateMutability": "view",
      "type": "function"
    },
    {
      "inputs": [],
      "name": "symbol",
      "outputs": [
        {
          "internalType": "string",
          "name": "",
          "type": "string"
        }
      ],
      "stateMutability": "view",
      "type": "function"
    },
    {
      "inputs": [
        {
          "internalType": "address",
          "name": "owner",
          "type": "address"
        },
        {
          "internalType": "uint256",
          "name": "label",
          "type": "uint256"
        }
      ],
      "name": "test",
      "outputs": [],
      "stateMutability": "nonpayable",
      "type": "function"
    },
    {
      "inputs": [
        {
          "internalType": "uint256",
          "name": "",
          "type": "uint256"
        }
      ],
      "name": "tokenIDToname",
      "outputs": [
        {
          "internalType": "string",
          "name": "",
          "type": "string"
        }
      ],
      "stateMutability": "view",
      "type": "function"
    },
    {
      "inputs": [
        {
          "internalType": "uint256",
          "name": "tokenId",
          "type": "uint256"
        }
      ],
      "name": "tokenURI",
      "outputs": [
        {
          "internalType": "string",
          "name": "",
          "type": "string"
        }
      ],
      "stateMutability": "view",
      "type": "function"
    },
    {
      "inputs": [],
      "name": "totalSupply",
      "outputs": [
        {
          "internalType": "uint256",
          "name": "",
          "type": "uint256"
        }
      ],
      "stateMutability": "view",
      "type": "function"
    },
    {
      "inputs": [
        {
          "internalType": "address",
          "name": "from",
          "type": "address"
        },
        {
          "internalType": "address",
          "name": "to",
          "type": "address"
        },
        {
          "internalType": "uint256",
          "name": "tokenId",
          "type": "uint256"
        }
      ],
      "name": "transferFrom",
      "outputs": [],
      "stateMutability": "nonpayable",
      "type": "function"
    },
    {
      "inputs": [
        {
          "internalType": "address",
          "name": "newOwner",
          "type": "address"
        }
      ],
      "name": "transferOwnership",
      "outputs": [],
      "stateMutability": "nonpayable",
      "type": "function"
    },
    {
      "inputs": [
        {
          "internalType": "uint16",
          "name": "",
          "type": "uint16"
        }
      ],
      "name": "trustedRemoteLookup",
      "outputs": [
        {
          "internalType": "bytes",
          "name": "",
          "type": "bytes"
        }
      ],
      "stateMutability": "view",
      "type": "function"
    }
  ],
  "bytecode": "0x6080604052606460095562055730600a556000600b556000600c556000601560006101000a81548160ff0219169083151502179055503480156200004257600080fd5b5060405162004f0d38038062004f0d833981810160405281019062000068919062000371565b6040518060400160405280600a81526020017f446f6d61696e4e616d65000000000000000000000000000000000000000000008152506040518060400160405280600a81526020017f446f6d61696e4e616d6500000000000000000000000000000000000000000000815250620000f4620000e86200018660201b60201c565b6200018e60201b60201c565b81600390805190602001906200010c92919062000257565b5080600490805190602001906200012592919062000257565b50620001366200025260201b60201c565b600181905550505080600d60006101000a81548173ffffffffffffffffffffffffffffffffffffffff021916908373ffffffffffffffffffffffffffffffffffffffff1602179055505062000408565b600033905090565b60008060009054906101000a900473ffffffffffffffffffffffffffffffffffffffff169050816000806101000a81548173ffffffffffffffffffffffffffffffffffffffff021916908373ffffffffffffffffffffffffffffffffffffffff1602179055508173ffffffffffffffffffffffffffffffffffffffff168173ffffffffffffffffffffffffffffffffffffffff167f8be0079c531659141344cd1fd0a4f28419497f9722a3daafe3b4186f6b6457e060405160405180910390a35050565b600090565b8280546200026590620003d2565b90600052602060002090601f016020900481019282620002895760008555620002d5565b82601f10620002a457805160ff1916838001178555620002d5565b82800160010185558215620002d5579182015b82811115620002d4578251825591602001919060010190620002b7565b5b509050620002e49190620002e8565b5090565b5b8082111562000303576000816000905550600101620002e9565b5090565b600080fd5b600073ffffffffffffffffffffffffffffffffffffffff82169050919050565b600062000339826200030c565b9050919050565b6200034b816200032c565b81146200035757600080fd5b50565b6000815190506200036b8162000340565b92915050565b6000602082840312156200038a576200038962000307565b5b60006200039a848285016200035a565b91505092915050565b7f4e487b7100000000000000000000000000000000000000000000000000000000600052602260045260246000fd5b60006002820490506001821680620003eb57607f821691505b60208210811415620004025762000401620003a3565b5b50919050565b614af580620004186000396000f3fe6080604052600436106102455760003560e01c80637533d78811610139578063ba14d606116100b6578063d77fec2e1161007a578063d77fec2e146108aa578063e985e9c5146108e7578063eb8d72b714610924578063f2c298be1461094d578063f2fde38b1461097d578063f611e3ed146109a657610245565b8063ba14d606146107bf578063c87b56dd146107e8578063cf04317514610825578063d1deba1f14610862578063d275f5e01461087e57610245565b806395d89b41116100fd57806395d89b41146106f05780639975e16b1461071b578063a0712d6814610744578063a22cb4651461076d578063b88d4fde1461079657610245565b80637533d788146105e257806384a7816e1461061f5780638da5cb5b1461065c5780638ee7491214610687578063919840ad146106c557610245565b8063383d8190116101c75780635fe50e681161018b5780635fe50e68146104f85780636352211e146105145780636bca820e1461055157806370a082311461058e578063715018a6146105cb57610245565b8063383d81901461041257806340a7bb101461043b57806342842e0e1461047957806350cd4df2146104a25780635e280f11146104cd57610245565b806311fc05cd1161020e57806311fc05cd1461034157806318160ddd1461036c5780631c37a8221461039757806323b872dd146103c05780632477ff01146103e957610245565b80621d35671461024a57806301ffc9a71461027357806306fdde03146102b0578063081812fc146102db578063095ea7b314610318575b600080fd5b34801561025657600080fd5b50610271600480360381019061026c919061336d565b6109e3565b005b34801561027f57600080fd5b5061029a60048036038101906102959190613464565b610b7a565b6040516102a791906134ac565b60405180910390f35b3480156102bc57600080fd5b506102c5610c0c565b6040516102d2919061354f565b60405180910390f35b3480156102e757600080fd5b5061030260048036038101906102fd91906135a7565b610c9e565b60405161030f9190613615565b60405180910390f35b34801561032457600080fd5b5061033f600480360381019061033a919061365c565b610d1a565b005b34801561034d57600080fd5b50610356610e5b565b6040516103639190613615565b60405180910390f35b34801561037857600080fd5b50610381610e85565b60405161038e91906136ab565b60405180910390f35b3480156103a357600080fd5b506103be60048036038101906103b9919061336d565b610e9c565b005b3480156103cc57600080fd5b506103e760048036038101906103e291906136c6565b610f1c565b005b3480156103f557600080fd5b50610410600480360381019061040b91906135a7565b611241565b005b34801561041e57600080fd5b5061043960048036038101906104349190613719565b6112c7565b005b34801561044757600080fd5b50610462600480360381019061045d91906137d2565b611387565b60405161047092919061388e565b60405180910390f35b34801561048557600080fd5b506104a0600480360381019061049b91906136c6565b611450565b005b3480156104ae57600080fd5b506104b7611470565b6040516104c491906134ac565b60405180910390f35b3480156104d957600080fd5b506104e2611483565b6040516104ef9190613916565b60405180910390f35b610512600480360381019061050d9190613931565b6114a9565b005b34801561052057600080fd5b5061053b600480360381019061053691906135a7565b611827565b6040516105489190613615565b60405180910390f35b34801561055d57600080fd5b50610578600480360381019061057391906139a5565b611839565b60405161058591906134ac565b60405180910390f35b34801561059a57600080fd5b506105b560048036038101906105b09190613719565b61186c565b6040516105c291906136ab565b60405180910390f35b3480156105d757600080fd5b506105e0611925565b005b3480156105ee57600080fd5b50610609600480360381019061060491906139d2565b6119ad565b6040516106169190613a54565b60405180910390f35b34801561062b57600080fd5b5061064660048036038101906106419190613a76565b611a4d565b60405161065391906136ab565b60405180910390f35b34801561066857600080fd5b50610671611b9b565b60405161067e9190613615565b60405180910390f35b34801561069357600080fd5b506106ae60048036038101906106a99190613ab6565b611bc4565b6040516106bc929190613b3e565b60405180910390f35b3480156106d157600080fd5b506106da611c18565b6040516106e791906134ac565b60405180910390f35b3480156106fc57600080fd5b50610705611c2f565b604051610712919061354f565b60405180910390f35b34801561072757600080fd5b50610742600480360381019061073d9190613719565b611cc1565b005b34801561075057600080fd5b5061076b600480360381019061076691906135a7565b611d81565b005b34801561077957600080fd5b50610794600480360381019061078f9190613b67565b611e2c565b005b3480156107a257600080fd5b506107bd60048036038101906107b89190613ba7565b611fa4565b005b3480156107cb57600080fd5b506107e660048036038101906107e1919061365c565b612017565b005b3480156107f457600080fd5b5061080f600480360381019061080a91906135a7565b6120c2565b60405161081c919061354f565b60405180910390f35b34801561083157600080fd5b5061084c600480360381019061084791906135a7565b612161565b60405161085991906136ab565b60405180910390f35b61087c60048036038101906108779190613c2a565b612179565b005b34801561088a57600080fd5b50610893612319565b6040516108a192919061388e565b60405180910390f35b3480156108b657600080fd5b506108d160048036038101906108cc91906135a7565b61232a565b6040516108de91906136ab565b60405180910390f35b3480156108f357600080fd5b5061090e60048036038101906109099190613cce565b61235e565b60405161091b91906134ac565b60405180910390f35b34801561093057600080fd5b5061094b60048036038101906109469190613d0e565b6123f2565b005b61096760048036038101906109629190613dc4565b61249e565b60405161097491906136ab565b60405180910390f35b34801561098957600080fd5b506109a4600480360381019061099f9190613719565b6125a7565b005b3480156109b257600080fd5b506109cd60048036038101906109c891906135a7565b61269f565b6040516109da919061354f565b60405180910390f35b600d60009054906101000a900473ffffffffffffffffffffffffffffffffffffffff1673ffffffffffffffffffffffffffffffffffffffff163373ffffffffffffffffffffffffffffffffffffffff1614610a3d57600080fd5b3073ffffffffffffffffffffffffffffffffffffffff16631c37a822858585856040518563ffffffff1660e01b8152600401610a7c9493929190613e2f565b600060405180830381600087803b158015610a9657600080fd5b505af1925050508015610aa7575060015b610b73576040518060400160405280825181526020018280519060200120815250601360008661ffff1661ffff16815260200190815260200160002084604051610af19190613ebe565b908152602001604051809103902060008467ffffffffffffffff16815260200190815260200160002060008201518160000155602082015181600101559050507fe6f254030bcb01ffd20558175c13fcaed6d1520be7becee4c961b65f79243b0d84848484604051610b669493929190613e2f565b60405180910390a1610b74565b5b50505050565b60006301ffc9a760e01b827bffffffffffffffffffffffffffffffffffffffffffffffffffffffff19161480610bd557506380ac58cd60e01b827bffffffffffffffffffffffffffffffffffffffffffffffffffffffff1916145b80610c055750635b5e139f60e01b827bffffffffffffffffffffffffffffffffffffffffffffffffffffffff1916145b9050919050565b606060038054610c1b90613f04565b80601f0160208091040260200160405190810160405280929190818152602001828054610c4790613f04565b8015610c945780601f10610c6957610100808354040283529160200191610c94565b820191906000526020600020905b815481529060010190602001808311610c7757829003601f168201915b5050505050905090565b6000610ca98261273f565b610cdf576040517fcf4700e400000000000000000000000000000000000000000000000000000000815260040160405180910390fd5b6007600083815260200190815260200160002060009054906101000a900473ffffffffffffffffffffffffffffffffffffffff169050919050565b6000610d2582611827565b90508073ffffffffffffffffffffffffffffffffffffffff16610d4661279e565b73ffffffffffffffffffffffffffffffffffffffff1614610da957610d7281610d6d61279e565b61235e565b610da8576040517fcfb3b94200000000000000000000000000000000000000000000000000000000815260040160405180910390fd5b5b826007600084815260200190815260200160002060006101000a81548173ffffffffffffffffffffffffffffffffffffffff021916908373ffffffffffffffffffffffffffffffffffffffff160217905550818373ffffffffffffffffffffffffffffffffffffffff168273ffffffffffffffffffffffffffffffffffffffff167f8c5be1e5ebec7d5bd14f71427d1e84f3dd0314c0f7b2291e5b200ac8c7c3b92560405160405180910390a4505050565b6000600e60009054906101000a900473ffffffffffffffffffffffffffffffffffffffff16905090565b6000610e8f6127a6565b6002546001540303905090565b3073ffffffffffffffffffffffffffffffffffffffff163373ffffffffffffffffffffffffffffffffffffffff1614610f0a576040517f08c379a0000000000000000000000000000000000000000000000000000000008152600401610f0190613fa8565b60405180910390fd5b610f16848484846127ab565b50505050565b6000610f27826128ed565b90508373ffffffffffffffffffffffffffffffffffffffff168173ffffffffffffffffffffffffffffffffffffffff1614610f8e576040517fa114810000000000000000000000000000000000000000000000000000000000815260040160405180910390fd5b600080610f9a846129bb565b91509150610fb08187610fab61279e565b6129dd565b610ffc57610fc586610fc061279e565b61235e565b610ffb576040517f59c896be00000000000000000000000000000000000000000000000000000000815260040160405180910390fd5b5b600073ffffffffffffffffffffffffffffffffffffffff168573ffffffffffffffffffffffffffffffffffffffff161415611063576040517fea553b3400000000000000000000000000000000000000000000000000000000815260040160405180910390fd5b6110708686866001612a21565b801561107b57600082555b600660008773ffffffffffffffffffffffffffffffffffffffff1673ffffffffffffffffffffffffffffffffffffffff168152602001908152602001600020600081546001900391905081905550600660008673ffffffffffffffffffffffffffffffffffffffff1673ffffffffffffffffffffffffffffffffffffffff168152602001908152602001600020600081546001019190508190555061114985611125888887612a27565b7c020000000000000000000000000000000000000000000000000000000017612a4f565b600560008681526020019081526020016000208190555060007c0200000000000000000000000000000000000000000000000000000000841614156111d15760006001850190506000600560008381526020019081526020016000205414156111cf5760015481146111ce578360056000838152602001908152602001600020819055505b5b505b838573ffffffffffffffffffffffffffffffffffffffff168773ffffffffffffffffffffffffffffffffffffffff167fddf252ad1be2c89b69c2b068fc378daa952ba7f163c4a11628f55a4df523b3ef60405160405180910390a46112398686866001612a7a565b505050505050565b611249612a80565b73ffffffffffffffffffffffffffffffffffffffff16611267611b9b565b73ffffffffffffffffffffffffffffffffffffffff16146112bd576040517f08c379a00000000000000000000000000000000000000000000000000000000081526004016112b490614014565b60405180910390fd5b80600a8190555050565b6112cf612a80565b73ffffffffffffffffffffffffffffffffffffffff166112ed611b9b565b73ffffffffffffffffffffffffffffffffffffffff1614611343576040517f08c379a000000000000000000000000000000000000000000000000000000000815260040161133a90614014565b60405180910390fd5b80600e60006101000a81548173ffffffffffffffffffffffffffffffffffffffff021916908373ffffffffffffffffffffffffffffffffffffffff16021790555050565b600080600d60009054906101000a900473ffffffffffffffffffffffffffffffffffffffff1673ffffffffffffffffffffffffffffffffffffffff166340a7bb108a8a8a8a8a8a8a6040518863ffffffff1660e01b81526004016113f19796959493929190614061565b604080518083038186803b15801561140857600080fd5b505afa15801561141c573d6000803e3d6000fd5b505050506040513d601f19601f8201168201806040525081019061144091906140db565b9150915097509795505050505050565b61146b83838360405180602001604052806000815250611fa4565b505050565b601560009054906101000a900460ff1681565b600d60009054906101000a900473ffffffffffffffffffffffffffffffffffffffff1681565b6114b281611827565b73ffffffffffffffffffffffffffffffffffffffff163373ffffffffffffffffffffffffffffffffffffffff161461151f576040517f08c379a000000000000000000000000000000000000000000000000000000000815260040161151690614167565b60405180910390fd5b600061152a82611827565b905061155933600e60009054906101000a900473ffffffffffffffffffffffffffffffffffffffff1684610f1c565b600e60009054906101000a900473ffffffffffffffffffffffffffffffffffffffff1673ffffffffffffffffffffffffffffffffffffffff1663b6b55f25836040518263ffffffff1660e01b81526004016115b491906136ab565b600060405180830381600087803b1580156115ce57600080fd5b505af11580156115e2573d6000803e3d6000fd5b5050505060006115f18361232a565b9050600060106000858152602001908152602001600020544261161491906141b6565b9050600083838360405160200161162d939291906141ea565b6040516020818303038152906040529050600060019050600081600a5460405160200161165b929190614278565b60405160208183030381529060405290506000600d60009054906101000a900473ffffffffffffffffffffffffffffffffffffffff1673ffffffffffffffffffffffffffffffffffffffff166340a7bb108c30876000876040518663ffffffff1660e01b81526004016116d29594939291906142a4565b604080518083038186803b1580156116e957600080fd5b505afa1580156116fd573d6000803e3d6000fd5b505050506040513d601f19601f8201168201806040525081019061172191906140db565b50905080341015611767576040517f08c379a000000000000000000000000000000000000000000000000000000000815260040161175e90614377565b60405180910390fd5b600d60009054906101000a900473ffffffffffffffffffffffffffffffffffffffff1673ffffffffffffffffffffffffffffffffffffffff1663c5803100348d8d8d893360008a6040518963ffffffff1660e01b81526004016117d097969594939291906143b8565b6000604051808303818588803b1580156117e957600080fd5b505af11580156117fd573d6000803e3d6000fd5b5050505050600b600081548092919061181590614430565b91905055505050505050505050505050565b6000611832826128ed565b9050919050565b600081601560006101000a81548160ff021916908315150217905550601560009054906101000a900460ff169050919050565b60008073ffffffffffffffffffffffffffffffffffffffff168273ffffffffffffffffffffffffffffffffffffffff1614156118d4576040517f8f4eb60400000000000000000000000000000000000000000000000000000000815260040160405180910390fd5b67ffffffffffffffff600660008473ffffffffffffffffffffffffffffffffffffffff1673ffffffffffffffffffffffffffffffffffffffff16815260200190815260200160002054169050919050565b61192d612a80565b73ffffffffffffffffffffffffffffffffffffffff1661194b611b9b565b73ffffffffffffffffffffffffffffffffffffffff16146119a1576040517f08c379a000000000000000000000000000000000000000000000000000000000815260040161199890614014565b60405180910390fd5b6119ab6000612a88565b565b601460205280600052604060002060009150905080546119cc90613f04565b80601f01602080910402602001604051908101604052809291908181526020018280546119f890613f04565b8015611a455780601f10611a1a57610100808354040283529160200191611a45565b820191906000526020600020905b815481529060010190602001808311611a2857829003601f168201915b505050505081565b600080611a598361232a565b90506000601060008581526020019081526020016000205442611a7c91906141b6565b90506000338383604051602001611a95939291906141ea565b6040516020818303038152906040529050600060019050600081600a54604051602001611ac3929190614278565b60405160208183030381529060405290506000600d60009054906101000a900473ffffffffffffffffffffffffffffffffffffffff1673ffffffffffffffffffffffffffffffffffffffff166340a7bb108a30876000876040518663ffffffff1660e01b8152600401611b3a9594939291906142a4565b604080518083038186803b158015611b5157600080fd5b505afa158015611b65573d6000803e3d6000fd5b505050506040513d601f19601f82011682018060405250810190611b8991906140db565b50905080965050505050505092915050565b60008060009054906101000a900473ffffffffffffffffffffffffffffffffffffffff16905090565b60136020528260005260406000208280516020810182018051848252602083016020850120818352809550505050505060205280600052604060002060009250925050508060000154908060010154905082565b6000601560009054906101000a900460ff16905090565b606060048054611c3e90613f04565b80601f0160208091040260200160405190810160405280929190818152602001828054611c6a90613f04565b8015611cb75780601f10611c8c57610100808354040283529160200191611cb7565b820191906000526020600020905b815481529060010190602001808311611c9a57829003601f168201915b5050505050905090565b611cc9612a80565b73ffffffffffffffffffffffffffffffffffffffff16611ce7611b9b565b73ffffffffffffffffffffffffffffffffffffffff1614611d3d576040517f08c379a0000000000000000000000000000000000000000000000000000000008152600401611d3490614014565b60405180910390fd5b80600f60006101000a81548173ffffffffffffffffffffffffffffffffffffffff021916908373ffffffffffffffffffffffffffffffffffffffff16021790555050565b611d89612a80565b73ffffffffffffffffffffffffffffffffffffffff16611da7611b9b565b73ffffffffffffffffffffffffffffffffffffffff1614611dfd576040517f08c379a0000000000000000000000000000000000000000000000000000000008152600401611df490614014565b60405180910390fd5b611e29600f60009054906101000a900473ffffffffffffffffffffffffffffffffffffffff1682612b4c565b50565b611e3461279e565b73ffffffffffffffffffffffffffffffffffffffff168273ffffffffffffffffffffffffffffffffffffffff161415611e99576040517fb06307db00000000000000000000000000000000000000000000000000000000815260040160405180910390fd5b8060086000611ea661279e565b73ffffffffffffffffffffffffffffffffffffffff1673ffffffffffffffffffffffffffffffffffffffff16815260200190815260200160002060008473ffffffffffffffffffffffffffffffffffffffff1673ffffffffffffffffffffffffffffffffffffffff16815260200190815260200160002060006101000a81548160ff0219169083151502179055508173ffffffffffffffffffffffffffffffffffffffff16611f5361279e565b73ffffffffffffffffffffffffffffffffffffffff167f17307eab39ab6107e8899845ad3d59bd9653f200f220920489ca2b5937696c3183604051611f9891906134ac565b60405180910390a35050565b611faf848484610f1c565b60008373ffffffffffffffffffffffffffffffffffffffff163b1461201157611fda84848484612d21565b612010576040517fd1a57ed600000000000000000000000000000000000000000000000000000000815260040160405180910390fd5b5b50505050565b600060126000838152602001908152602001600020549050600e60009054906101000a900473ffffffffffffffffffffffffffffffffffffffff1673ffffffffffffffffffffffffffffffffffffffff1662f714ce82856040518363ffffffff1660e01b815260040161208b929190614479565b600060405180830381600087803b1580156120a557600080fd5b505af11580156120b9573d6000803e3d6000fd5b50505050505050565b60606120cd8261273f565b612103576040517fa14c4b5000000000000000000000000000000000000000000000000000000000815260040160405180910390fd5b600061210d612e81565b905060008151141561212e5760405180602001604052806000815250612159565b8061213884612e98565b6040516020016121499291906144de565b6040516020818303038152906040525b915050919050565b60126020528060005260406000206000915090505481565b6000601360008761ffff1661ffff168152602001908152602001600020856040516121a49190613ebe565b908152602001604051809103902060008567ffffffffffffffff16815260200190815260200160002090506000801b81600101541415612219576040517f08c379a000000000000000000000000000000000000000000000000000000000815260040161221090614574565b60405180910390fd5b80600001548383905014801561224957508060010154838360405161223f9291906145b9565b6040518091039020145b612288576040517f08c379a000000000000000000000000000000000000000000000000000000000815260040161227f9061461e565b60405180910390fd5b600081600001819055506000801b81600101819055503073ffffffffffffffffffffffffffffffffffffffff16631c37a82287878787876040518663ffffffff1660e01b81526004016122df95949392919061463e565b600060405180830381600087803b1580156122f957600080fd5b505af115801561230d573d6000803e3d6000fd5b50505050505050505050565b600080600b54600c54915091509091565b60006011600083815260200190815260200160002060405161234c9190614727565b604051809103902060001c9050919050565b6000600860008473ffffffffffffffffffffffffffffffffffffffff1673ffffffffffffffffffffffffffffffffffffffff16815260200190815260200160002060008373ffffffffffffffffffffffffffffffffffffffff1673ffffffffffffffffffffffffffffffffffffffff16815260200190815260200160002060009054906101000a900460ff16905092915050565b6123fa612a80565b73ffffffffffffffffffffffffffffffffffffffff16612418611b9b565b73ffffffffffffffffffffffffffffffffffffffff161461246e576040517f08c379a000000000000000000000000000000000000000000000000000000000815260040161246590614014565b60405180910390fd5b8181601460008661ffff1661ffff1681526020019081526020016000209190612498929190613070565b50505050565b6000806124ab8484612ef2565b9050600f60009054906101000a900473ffffffffffffffffffffffffffffffffffffffff1673ffffffffffffffffffffffffffffffffffffffff1663ddd5e1b282336040518363ffffffff1660e01b815260040161250a929190614479565b600060405180830381600087803b15801561252457600080fd5b505af1158015612538573d6000803e3d6000fd5b50505050838360116000848152602001908152602001600020919061255e9291906130f6565b50600061256a8261232a565b9050816012600083815260200190815260200160002081905550426010600083815260200190815260200160002081905550819250505092915050565b6125af612a80565b73ffffffffffffffffffffffffffffffffffffffff166125cd611b9b565b73ffffffffffffffffffffffffffffffffffffffff1614612623576040517f08c379a000000000000000000000000000000000000000000000000000000000815260040161261a90614014565b60405180910390fd5b600073ffffffffffffffffffffffffffffffffffffffff168173ffffffffffffffffffffffffffffffffffffffff161415612693576040517f08c379a000000000000000000000000000000000000000000000000000000000815260040161268a906147b0565b60405180910390fd5b61269c81612a88565b50565b601160205280600052604060002060009150905080546126be90613f04565b80601f01602080910402602001604051908101604052809291908181526020018280546126ea90613f04565b80156127375780601f1061270c57610100808354040283529160200191612737565b820191906000526020600020905b81548152906001019060200180831161271a57829003601f168201915b505050505081565b60008161274a6127a6565b11158015612759575060015482105b8015612797575060007c0100000000000000000000000000000000000000000000000000000000600560008581526020019081526020016000205416145b9050919050565b600033905090565b600090565b600060148401519050600080838060200190518101906127cb91906147fc565b915091506000601260008381526020019081526020016000205490506001601560006101000a81548160ff021916908315150217905550600e60009054906101000a900473ffffffffffffffffffffffffffffffffffffffff1673ffffffffffffffffffffffffffffffffffffffff1662f714ce82856040518363ffffffff1660e01b815260040161285e929190614479565b600060405180830381600087803b15801561287857600080fd5b505af115801561288c573d6000803e3d6000fd5b50505050600c60008154809291906128a390614430565b91905055507fb2fc0605d8092337433832abc79c17edd73790ce82bcd45e4ac4843f3aae82398885876040516128db9392919061483c565b60405180910390a15050505050505050565b600080829050806128fc6127a6565b11612984576001548110156129835760006005600083815260200190815260200160002054905060007c010000000000000000000000000000000000000000000000000000000082161415612981575b600081141561297757600560008360019003935083815260200190815260200160002054905061294c565b80925050506129b6565b505b5b6040517fdf2d9b4200000000000000000000000000000000000000000000000000000000815260040160405180910390fd5b919050565b6000806000600790508360005280602052604060002092508254915050915091565b600073ffffffffffffffffffffffffffffffffffffffff8316925073ffffffffffffffffffffffffffffffffffffffff821691508382148383141790509392505050565b50505050565b60008060e883901c905060e8612a3e868684613057565b62ffffff16901b9150509392505050565b600073ffffffffffffffffffffffffffffffffffffffff83169250814260a01b178317905092915050565b50505050565b600033905090565b60008060009054906101000a900473ffffffffffffffffffffffffffffffffffffffff169050816000806101000a81548173ffffffffffffffffffffffffffffffffffffffff021916908373ffffffffffffffffffffffffffffffffffffffff1602179055508173ffffffffffffffffffffffffffffffffffffffff168173ffffffffffffffffffffffffffffffffffffffff167f8be0079c531659141344cd1fd0a4f28419497f9722a3daafe3b4186f6b6457e060405160405180910390a35050565b60006001549050600073ffffffffffffffffffffffffffffffffffffffff168373ffffffffffffffffffffffffffffffffffffffff161415612bba576040517f2e07630000000000000000000000000000000000000000000000000000000000815260040160405180910390fd5b6000821415612bf5576040517fb562e8dd00000000000000000000000000000000000000000000000000000000815260040160405180910390fd5b612c026000848385612a21565b600160406001901b178202600660008573ffffffffffffffffffffffffffffffffffffffff1673ffffffffffffffffffffffffffffffffffffffff16815260200190815260200160002060008282540192505081905550612c7983612c6a6000866000612a27565b612c7385613060565b17612a4f565b60056000838152602001908152602001600020819055506000819050600083830190505b818060010192508573ffffffffffffffffffffffffffffffffffffffff16600073ffffffffffffffffffffffffffffffffffffffff167fddf252ad1be2c89b69c2b068fc378daa952ba7f163c4a11628f55a4df523b3ef60405160405180910390a4808210612c9d57806001819055505050612d1c6000848385612a7a565b505050565b60008373ffffffffffffffffffffffffffffffffffffffff1663150b7a02612d4761279e565b8786866040518563ffffffff1660e01b8152600401612d69949392919061487a565b602060405180830381600087803b158015612d8357600080fd5b505af1925050508015612db457506040513d601f19601f82011682018060405250810190612db191906148db565b60015b612e2e573d8060008114612de4576040519150601f19603f3d011682016040523d82523d6000602084013e612de9565b606091505b50600081511415612e26576040517fd1a57ed600000000000000000000000000000000000000000000000000000000815260040160405180910390fd5b805181602001fd5b63150b7a0260e01b7bffffffffffffffffffffffffffffffffffffffffffffffffffffffff1916817bffffffffffffffffffffffffffffffffffffffffffffffffffffffff191614915050949350505050565b606060405180602001604052806000815250905090565b60606080604051019050806040528082600183039250600a81066030018353600a810490505b8015612ede57600183039250600a81066030018353600a81049050612ebe565b508181036020830392508083525050919050565b600060038383905014612f3a576040517f08c379a0000000000000000000000000000000000000000000000000000000008152600401612f3190614954565b60405180910390fd5b600083838080601f016020809104026020016040519081016040528093929190818152602001838380828437600081840152601f19601f8201169050808301925050505050505090506000809250600090505b815181101561304f576000828281518110612fab57612faa614974565b5b602001015160f81c60f81b60f81c60ff16905060308110158015612fd0575060398111155b1561300057603081612fe291906141b6565b600a85612fef91906149a3565b612ff991906149fd565b935061303b565b6040517f08c379a000000000000000000000000000000000000000000000000000000000815260040161303290614a9f565b60405180910390fd5b50808061304790614430565b915050612f8d565b505092915050565b60009392505050565b60006001821460e11b9050919050565b82805461307c90613f04565b90600052602060002090601f01602090048101928261309e57600085556130e5565b82601f106130b757803560ff19168380011785556130e5565b828001600101855582156130e5579182015b828111156130e45782358255916020019190600101906130c9565b5b5090506130f2919061317c565b5090565b82805461310290613f04565b90600052602060002090601f016020900481019282613124576000855561316b565b82601f1061313d57803560ff191683800117855561316b565b8280016001018555821561316b579182015b8281111561316a57823582559160200191906001019061314f565b5b509050613178919061317c565b5090565b5b8082111561319557600081600090555060010161317d565b5090565b6000604051905090565b600080fd5b600080fd5b600061ffff82169050919050565b6131c4816131ad565b81146131cf57600080fd5b50565b6000813590506131e1816131bb565b92915050565b600080fd5b600080fd5b6000601f19601f8301169050919050565b7f4e487b7100000000000000000000000000000000000000000000000000000000600052604160045260246000fd5b61323a826131f1565b810181811067ffffffffffffffff8211171561325957613258613202565b5b80604052505050565b600061326c613199565b90506132788282613231565b919050565b600067ffffffffffffffff82111561329857613297613202565b5b6132a1826131f1565b9050602081019050919050565b82818337600083830152505050565b60006132d06132cb8461327d565b613262565b9050828152602081018484840111156132ec576132eb6131ec565b5b6132f78482856132ae565b509392505050565b600082601f830112613314576133136131e7565b5b81356133248482602086016132bd565b91505092915050565b600067ffffffffffffffff82169050919050565b61334a8161332d565b811461335557600080fd5b50565b60008135905061336781613341565b92915050565b60008060008060808587031215613387576133866131a3565b5b6000613395878288016131d2565b945050602085013567ffffffffffffffff8111156133b6576133b56131a8565b5b6133c2878288016132ff565b93505060406133d387828801613358565b925050606085013567ffffffffffffffff8111156133f4576133f36131a8565b5b613400878288016132ff565b91505092959194509250565b60007fffffffff0000000000000000000000000000000000000000000000000000000082169050919050565b6134418161340c565b811461344c57600080fd5b50565b60008135905061345e81613438565b92915050565b60006020828403121561347a576134796131a3565b5b60006134888482850161344f565b91505092915050565b60008115159050919050565b6134a681613491565b82525050565b60006020820190506134c1600083018461349d565b92915050565b600081519050919050565b600082825260208201905092915050565b60005b838110156135015780820151818401526020810190506134e6565b83811115613510576000848401525b50505050565b6000613521826134c7565b61352b81856134d2565b935061353b8185602086016134e3565b613544816131f1565b840191505092915050565b600060208201905081810360008301526135698184613516565b905092915050565b6000819050919050565b61358481613571565b811461358f57600080fd5b50565b6000813590506135a18161357b565b92915050565b6000602082840312156135bd576135bc6131a3565b5b60006135cb84828501613592565b91505092915050565b600073ffffffffffffffffffffffffffffffffffffffff82169050919050565b60006135ff826135d4565b9050919050565b61360f816135f4565b82525050565b600060208201905061362a6000830184613606565b92915050565b613639816135f4565b811461364457600080fd5b50565b60008135905061365681613630565b92915050565b60008060408385031215613673576136726131a3565b5b600061368185828601613647565b925050602061369285828601613592565b9150509250929050565b6136a581613571565b82525050565b60006020820190506136c0600083018461369c565b92915050565b6000806000606084860312156136df576136de6131a3565b5b60006136ed86828701613647565b93505060206136fe86828701613647565b925050604061370f86828701613592565b9150509250925092565b60006020828403121561372f5761372e6131a3565b5b600061373d84828501613647565b91505092915050565b600080fd5b600080fd5b60008083601f840112613766576137656131e7565b5b8235905067ffffffffffffffff81111561378357613782613746565b5b60208301915083600182028301111561379f5761379e61374b565b5b9250929050565b6137af81613491565b81146137ba57600080fd5b50565b6000813590506137cc816137a6565b92915050565b600080600080600080600060a0888a0312156137f1576137f06131a3565b5b60006137ff8a828b016131d2565b97505060206138108a828b01613647565b965050604088013567ffffffffffffffff811115613831576138306131a8565b5b61383d8a828b01613750565b955095505060606138508a828b016137bd565b935050608088013567ffffffffffffffff811115613871576138706131a8565b5b61387d8a828b01613750565b925092505092959891949750929550565b60006040820190506138a3600083018561369c565b6138b0602083018461369c565b9392505050565b6000819050919050565b60006138dc6138d76138d2846135d4565b6138b7565b6135d4565b9050919050565b60006138ee826138c1565b9050919050565b6000613900826138e3565b9050919050565b613910816138f5565b82525050565b600060208201905061392b6000830184613907565b92915050565b6000806000806060858703121561394b5761394a6131a3565b5b6000613959878288016131d2565b945050602085013567ffffffffffffffff81111561397a576139796131a8565b5b61398687828801613750565b9350935050604061399987828801613592565b91505092959194509250565b6000602082840312156139bb576139ba6131a3565b5b60006139c9848285016137bd565b91505092915050565b6000602082840312156139e8576139e76131a3565b5b60006139f6848285016131d2565b91505092915050565b600081519050919050565b600082825260208201905092915050565b6000613a26826139ff565b613a308185613a0a565b9350613a408185602086016134e3565b613a49816131f1565b840191505092915050565b60006020820190508181036000830152613a6e8184613a1b565b905092915050565b60008060408385031215613a8d57613a8c6131a3565b5b6000613a9b858286016131d2565b9250506020613aac85828601613592565b9150509250929050565b600080600060608486031215613acf57613ace6131a3565b5b6000613add868287016131d2565b935050602084013567ffffffffffffffff811115613afe57613afd6131a8565b5b613b0a868287016132ff565b9250506040613b1b86828701613592565b9150509250925092565b6000819050919050565b613b3881613b25565b82525050565b6000604082019050613b53600083018561369c565b613b606020830184613b2f565b9392505050565b60008060408385031215613b7e57613b7d6131a3565b5b6000613b8c85828601613647565b9250506020613b9d858286016137bd565b9150509250929050565b60008060008060808587031215613bc157613bc06131a3565b5b6000613bcf87828801613647565b9450506020613be087828801613647565b9350506040613bf187828801613592565b925050606085013567ffffffffffffffff811115613c1257613c116131a8565b5b613c1e878288016132ff565b91505092959194509250565b600080600080600060808688031215613c4657613c456131a3565b5b6000613c54888289016131d2565b955050602086013567ffffffffffffffff811115613c7557613c746131a8565b5b613c81888289016132ff565b9450506040613c9288828901613358565b935050606086013567ffffffffffffffff811115613cb357613cb26131a8565b5b613cbf88828901613750565b92509250509295509295909350565b60008060408385031215613ce557613ce46131a3565b5b6000613cf385828601613647565b9250506020613d0485828601613647565b9150509250929050565b600080600060408486031215613d2757613d266131a3565b5b6000613d35868287016131d2565b935050602084013567ffffffffffffffff811115613d5657613d556131a8565b5b613d6286828701613750565b92509250509250925092565b60008083601f840112613d8457613d836131e7565b5b8235905067ffffffffffffffff811115613da157613da0613746565b5b602083019150836001820283011115613dbd57613dbc61374b565b5b9250929050565b60008060208385031215613ddb57613dda6131a3565b5b600083013567ffffffffffffffff811115613df957613df86131a8565b5b613e0585828601613d6e565b92509250509250929050565b613e1a816131ad565b82525050565b613e298161332d565b82525050565b6000608082019050613e446000830187613e11565b8181036020830152613e568186613a1b565b9050613e656040830185613e20565b8181036060830152613e778184613a1b565b905095945050505050565b600081905092915050565b6000613e98826139ff565b613ea28185613e82565b9350613eb28185602086016134e3565b80840191505092915050565b6000613eca8284613e8d565b915081905092915050565b7f4e487b7100000000000000000000000000000000000000000000000000000000600052602260045260246000fd5b60006002820490506001821680613f1c57607f821691505b60208210811415613f3057613f2f613ed5565b5b50919050565b7f4e6f6e626c6f636b696e6752656365697665723a2063616c6c6572206d75737460008201527f206265204272696467652e000000000000000000000000000000000000000000602082015250565b6000613f92602b836134d2565b9150613f9d82613f36565b604082019050919050565b60006020820190508181036000830152613fc181613f85565b9050919050565b7f4f776e61626c653a2063616c6c6572206973206e6f7420746865206f776e6572600082015250565b6000613ffe6020836134d2565b915061400982613fc8565b602082019050919050565b6000602082019050818103600083015261402d81613ff1565b9050919050565b60006140408385613a0a565b935061404d8385846132ae565b614056836131f1565b840190509392505050565b600060a082019050614076600083018a613e11565b6140836020830189613606565b8181036040830152614096818789614034565b90506140a5606083018661349d565b81810360808301526140b8818486614034565b905098975050505050505050565b6000815190506140d58161357b565b92915050565b600080604083850312156140f2576140f16131a3565b5b6000614100858286016140c6565b9250506020614111858286016140c6565b9150509250929050565b7f4e6f7420746865206f776e657200000000000000000000000000000000000000600082015250565b6000614151600d836134d2565b915061415c8261411b565b602082019050919050565b6000602082019050818103600083015261418081614144565b9050919050565b7f4e487b7100000000000000000000000000000000000000000000000000000000600052601160045260246000fd5b60006141c182613571565b91506141cc83613571565b9250828210156141df576141de614187565b5b828203905092915050565b60006060820190506141ff6000830186613606565b61420c602083018561369c565b614219604083018461369c565b949350505050565b60008160f01b9050919050565b600061423982614221565b9050919050565b61425161424c826131ad565b61422e565b82525050565b6000819050919050565b61427261426d82613571565b614257565b82525050565b60006142848285614240565b6002820191506142948284614261565b6020820191508190509392505050565b600060a0820190506142b96000830188613e11565b6142c66020830187613606565b81810360408301526142d88186613a1b565b90506142e7606083018561349d565b81810360808301526142f98184613a1b565b90509695505050505050565b7f4d7573742073656e6420656e6f7567682076616c756520746f20636f7665722060008201527f6d65737361676546656500000000000000000000000000000000000000000000602082015250565b6000614361602a836134d2565b915061436c82614305565b604082019050919050565b6000602082019050818103600083015261439081614354565b9050919050565b60006143a2826135d4565b9050919050565b6143b281614397565b82525050565b600060c0820190506143cd600083018a613e11565b81810360208301526143e081888a614034565b905081810360408301526143f48187613a1b565b905061440360608301866143a9565b6144106080830185613606565b81810360a08301526144228184613a1b565b905098975050505050505050565b600061443b82613571565b91507fffffffffffffffffffffffffffffffffffffffffffffffffffffffffffffffff82141561446e5761446d614187565b5b600182019050919050565b600060408201905061448e600083018561369c565b61449b6020830184613606565b9392505050565b600081905092915050565b60006144b8826134c7565b6144c281856144a2565b93506144d28185602086016134e3565b80840191505092915050565b60006144ea82856144ad565b91506144f682846144ad565b91508190509392505050565b7f4e6f6e626c6f636b696e6752656365697665723a206e6f2073746f726564206d60008201527f6573736167650000000000000000000000000000000000000000000000000000602082015250565b600061455e6026836134d2565b915061456982614502565b604082019050919050565b6000602082019050818103600083015261458d81614551565b9050919050565b60006145a08385613e82565b93506145ad8385846132ae565b82840190509392505050565b60006145c6828486614594565b91508190509392505050565b7f4c617965725a65726f3a20696e76616c6964207061796c6f6164000000000000600082015250565b6000614608601a836134d2565b9150614613826145d2565b602082019050919050565b60006020820190508181036000830152614637816145fb565b9050919050565b60006080820190506146536000830188613e11565b81810360208301526146658187613a1b565b90506146746040830186613e20565b8181036060830152614687818486614034565b90509695505050505050565b60008190508160005260206000209050919050565b600081546146b581613f04565b6146bf8186613e82565b945060018216600081146146da57600181146146eb5761471e565b60ff1983168652818601935061471e565b6146f485614693565b60005b83811015614716578154818901526001820191506020810190506146f7565b838801955050505b50505092915050565b600061473382846146a8565b915081905092915050565b7f4f776e61626c653a206e6577206f776e657220697320746865207a65726f206160008201527f6464726573730000000000000000000000000000000000000000000000000000602082015250565b600061479a6026836134d2565b91506147a58261473e565b604082019050919050565b600060208201905081810360008301526147c98161478d565b9050919050565b6147d981614397565b81146147e457600080fd5b50565b6000815190506147f6816147d0565b92915050565b60008060408385031215614813576148126131a3565b5b6000614821858286016147e7565b9250506020614832858286016140c6565b9150509250929050565b60006060820190506148516000830186613e11565b61485e6020830185613606565b81810360408301526148708184613a1b565b9050949350505050565b600060808201905061488f6000830187613606565b61489c6020830186613606565b6148a9604083018561369c565b81810360608301526148bb8184613a1b565b905095945050505050565b6000815190506148d581613438565b92915050565b6000602082840312156148f1576148f06131a3565b5b60006148ff848285016148c6565b91505092915050565b7f496e76616c6964204e616d650000000000000000000000000000000000000000600082015250565b600061493e600c836134d2565b915061494982614908565b602082019050919050565b6000602082019050818103600083015261496d81614931565b9050919050565b7f4e487b7100000000000000000000000000000000000000000000000000000000600052603260045260246000fd5b60006149ae82613571565b91506149b983613571565b9250817fffffffffffffffffffffffffffffffffffffffffffffffffffffffffffffffff04831182151516156149f2576149f1614187565b5b828202905092915050565b6000614a0882613571565b9150614a1383613571565b9250827fffffffffffffffffffffffffffffffffffffffffffffffffffffffffffffffff03821115614a4857614a47614187565b5b828201905092915050565b7f4e6f74206469676974732070726f76696465642e000000000000000000000000600082015250565b6000614a896014836134d2565b9150614a9482614a53565b602082019050919050565b60006020820190508181036000830152614ab881614a7c565b905091905056fea26469706673582212201af7dd84c8d69f033e3971c08152d76532173cfbbaf1c9603733e816ff72e4a464736f6c63430008090033",
  "linkReferences": {},
  "deployedLinkReferences": {}
}