{
  "_format": "hh-sol-artifact-1",
  "contractName": "RegisterInETH",
  "sourceName": "contracts/ednpoint/RegisterInETH.sol",
  "abi": [
    {
      "inputs": [],
      "stateMutability": "nonpayable",
      "type": "constructor"
    },
    {
      "anonymous": false,
      "inputs": [
        {
          "indexed": true,
          "internalType": "address",
          "name": "owner",
          "type": "address"
        },
        {
          "indexed": true,
          "internalType": "address",
          "name": "approved",
          "type": "address"
        },
        {
          "indexed": true,
          "internalType": "uint256",
          "name": "tokenId",
          "type": "uint256"
        }
      ],
      "name": "Approval",
      "type": "event"
    },
    {
      "anonymous": false,
      "inputs": [
        {
          "indexed": true,
          "internalType": "address",
          "name": "owner",
          "type": "address"
        },
        {
          "indexed": true,
          "internalType": "address",
          "name": "operator",
          "type": "address"
        },
        {
          "indexed": false,
          "internalType": "bool",
          "name": "approved",
          "type": "bool"
        }
      ],
      "name": "ApprovalForAll",
      "type": "event"
    },
    {
      "anonymous": false,
      "inputs": [
        {
          "indexed": true,
          "internalType": "address",
          "name": "previousOwner",
          "type": "address"
        },
        {
          "indexed": true,
          "internalType": "address",
          "name": "newOwner",
          "type": "address"
        }
      ],
      "name": "OwnershipTransferred",
      "type": "event"
    },
    {
      "anonymous": false,
      "inputs": [
        {
          "indexed": true,
          "internalType": "address",
          "name": "from",
          "type": "address"
        },
        {
          "indexed": true,
          "internalType": "address",
          "name": "to",
          "type": "address"
        },
        {
          "indexed": true,
          "internalType": "uint256",
          "name": "tokenId",
          "type": "uint256"
        }
      ],
      "name": "Transfer",
      "type": "event"
    },
    {
      "inputs": [],
      "name": "GRACE_PERIOD",
      "outputs": [
        {
          "internalType": "uint256",
          "name": "",
          "type": "uint256"
        }
      ],
      "stateMutability": "view",
      "type": "function"
    },
    {
      "inputs": [
        {
          "internalType": "address",
          "name": "controller",
          "type": "address"
        }
      ],
      "name": "addController",
      "outputs": [],
      "stateMutability": "nonpayable",
      "type": "function"
    },
    {
      "inputs": [
        {
          "internalType": "address",
          "name": "to",
          "type": "address"
        },
        {
          "internalType": "uint256",
          "name": "tokenId",
          "type": "uint256"
        }
      ],
      "name": "approve",
      "outputs": [],
      "stateMutability": "nonpayable",
      "type": "function"
    },
    {
      "inputs": [
        {
          "internalType": "uint256",
          "name": "id",
          "type": "uint256"
        }
      ],
      "name": "available",
      "outputs": [
        {
          "internalType": "bool",
          "name": "",
          "type": "bool"
        }
      ],
      "stateMutability": "view",
      "type": "function"
    },
    {
      "inputs": [
        {
          "internalType": "address",
          "name": "owner",
          "type": "address"
        }
      ],
      "name": "balanceOf",
      "outputs": [
        {
          "internalType": "uint256",
          "name": "",
          "type": "uint256"
        }
      ],
      "stateMutability": "view",
      "type": "function"
    },
    {
      "inputs": [
        {
          "internalType": "uint256",
          "name": "id",
          "type": "uint256"
        }
      ],
      "name": "checkExpire",
      "outputs": [
        {
          "internalType": "uint256",
          "name": "",
          "type": "uint256"
        }
      ],
      "stateMutability": "view",
      "type": "function"
    },
    {
      "inputs": [
        {
          "internalType": "uint256",
          "name": "label",
          "type": "uint256"
        }
      ],
      "name": "checkduration",
      "outputs": [
        {
          "internalType": "uint256",
          "name": "",
          "type": "uint256"
        }
      ],
      "stateMutability": "view",
      "type": "function"
    },
    {
      "inputs": [
        {
          "internalType": "address",
          "name": "",
          "type": "address"
        }
      ],
      "name": "controllers",
      "outputs": [
        {
          "internalType": "bool",
          "name": "",
          "type": "bool"
        }
      ],
      "stateMutability": "view",
      "type": "function"
    },
    {
      "inputs": [
        {
          "internalType": "uint256",
          "name": "tokenId",
          "type": "uint256"
        }
      ],
      "name": "getApproved",
      "outputs": [
        {
          "internalType": "address",
          "name": "",
          "type": "address"
        }
      ],
      "stateMutability": "view",
      "type": "function"
    },
    {
      "inputs": [
        {
          "internalType": "address",
          "name": "owner",
          "type": "address"
        },
        {
          "internalType": "address",
          "name": "operator",
          "type": "address"
        }
      ],
      "name": "isApprovedForAll",
      "outputs": [
        {
          "internalType": "bool",
          "name": "",
          "type": "bool"
        }
      ],
      "stateMutability": "view",
      "type": "function"
    },
    {
      "inputs": [],
      "name": "name",
      "outputs": [
        {
          "internalType": "string",
          "name": "",
          "type": "string"
        }
      ],
      "stateMutability": "view",
      "type": "function"
    },
    {
      "inputs": [],
      "name": "owner",
      "outputs": [
        {
          "internalType": "address",
          "name": "",
          "type": "address"
        }
      ],
      "stateMutability": "view",
      "type": "function"
    },
    {
      "inputs": [
        {
          "internalType": "uint256",
          "name": "tokenId",
          "type": "uint256"
        }
      ],
      "name": "ownerOf",
      "outputs": [
        {
          "internalType": "address",
          "name": "",
          "type": "address"
        }
      ],
      "stateMutability": "view",
      "type": "function"
    },
    {
      "inputs": [
        {
          "internalType": "uint256",
          "name": "id",
          "type": "uint256"
        },
        {
          "internalType": "address",
          "name": "owner",
          "type": "address"
        },
        {
          "internalType": "uint256",
          "name": "duration",
          "type": "uint256"
        }
      ],
      "name": "register",
      "outputs": [
        {
          "internalType": "uint256",
          "name": "",
          "type": "uint256"
        }
      ],
      "stateMutability": "nonpayable",
      "type": "function"
    },
    {
      "inputs": [
        {
          "internalType": "address",
          "name": "controller",
          "type": "address"
        }
      ],
      "name": "removeController",
      "outputs": [],
      "stateMutability": "nonpayable",
      "type": "function"
    },
    {
      "inputs": [
        {
          "internalType": "uint256",
          "name": "id",
          "type": "uint256"
        },
        {
          "internalType": "uint256",
          "name": "duration",
          "type": "uint256"
        }
      ],
      "name": "renew",
      "outputs": [
        {
          "internalType": "uint256",
          "name": "",
          "type": "uint256"
        }
      ],
      "stateMutability": "nonpayable",
      "type": "function"
    },
    {
      "inputs": [],
      "name": "renounceOwnership",
      "outputs": [],
      "stateMutability": "nonpayable",
      "type": "function"
    },
    {
      "inputs": [
        {
          "internalType": "address",
          "name": "from",
          "type": "address"
        },
        {
          "internalType": "address",
          "name": "to",
          "type": "address"
        },
        {
          "internalType": "uint256",
          "name": "tokenId",
          "type": "uint256"
        }
      ],
      "name": "safeTransferFrom",
      "outputs": [],
      "stateMutability": "nonpayable",
      "type": "function"
    },
    {
      "inputs": [
        {
          "internalType": "address",
          "name": "from",
          "type": "address"
        },
        {
          "internalType": "address",
          "name": "to",
          "type": "address"
        },
        {
          "internalType": "uint256",
          "name": "tokenId",
          "type": "uint256"
        },
        {
          "internalType": "bytes",
          "name": "_data",
          "type": "bytes"
        }
      ],
      "name": "safeTransferFrom",
      "outputs": [],
      "stateMutability": "nonpayable",
      "type": "function"
    },
    {
      "inputs": [
        {
          "internalType": "address",
          "name": "operator",
          "type": "address"
        },
        {
          "internalType": "bool",
          "name": "approved",
          "type": "bool"
        }
      ],
      "name": "setApprovalForAll",
      "outputs": [],
      "stateMutability": "nonpayable",
      "type": "function"
    },
    {
      "inputs": [
        {
          "internalType": "bytes4",
          "name": "interfaceId",
          "type": "bytes4"
        }
      ],
      "name": "supportsInterface",
      "outputs": [
        {
          "internalType": "bool",
          "name": "",
          "type": "bool"
        }
      ],
      "stateMutability": "view",
      "type": "function"
    },
    {
      "inputs": [],
      "name": "symbol",
      "outputs": [
        {
          "internalType": "string",
          "name": "",
          "type": "string"
        }
      ],
      "stateMutability": "view",
      "type": "function"
    },
    {
      "inputs": [
        {
          "internalType": "uint256",
          "name": "tokenId",
          "type": "uint256"
        }
      ],
      "name": "tokenURI",
      "outputs": [
        {
          "internalType": "string",
          "name": "",
          "type": "string"
        }
      ],
      "stateMutability": "view",
      "type": "function"
    },
    {
      "inputs": [
        {
          "internalType": "address",
          "name": "from",
          "type": "address"
        },
        {
          "internalType": "address",
          "name": "to",
          "type": "address"
        },
        {
          "internalType": "uint256",
          "name": "tokenId",
          "type": "uint256"
        }
      ],
      "name": "transferFrom",
      "outputs": [],
      "stateMutability": "nonpayable",
      "type": "function"
    },
    {
      "inputs": [
        {
          "internalType": "address",
          "name": "newOwner",
          "type": "address"
        }
      ],
      "name": "transferOwnership",
      "outputs": [],
      "stateMutability": "nonpayable",
      "type": "function"
    }
  ],
  "bytecode": "0x60806040523480156200001157600080fd5b506040518060400160405280600481526020017f73746172000000000000000000000000000000000000000000000000000000008152506040518060400160405280600481526020017f7374617200000000000000000000000000000000000000000000000000000000815250816000908051906020019062000096929190620001a6565b508060019080519060200190620000af929190620001a6565b505050620000d2620000c6620000d860201b60201c565b620000e060201b60201c565b620002bb565b600033905090565b6000600660009054906101000a900473ffffffffffffffffffffffffffffffffffffffff16905081600660006101000a81548173ffffffffffffffffffffffffffffffffffffffff021916908373ffffffffffffffffffffffffffffffffffffffff1602179055508173ffffffffffffffffffffffffffffffffffffffff168173ffffffffffffffffffffffffffffffffffffffff167f8be0079c531659141344cd1fd0a4f28419497f9722a3daafe3b4186f6b6457e060405160405180910390a35050565b828054620001b49062000285565b90600052602060002090601f016020900481019282620001d8576000855562000224565b82601f10620001f357805160ff191683800117855562000224565b8280016001018555821562000224579182015b828111156200022357825182559160200191906001019062000206565b5b50905062000233919062000237565b5090565b5b808211156200025257600081600090555060010162000238565b5090565b7f4e487b7100000000000000000000000000000000000000000000000000000000600052602260045260246000fd5b600060028204905060018216806200029e57607f821691505b60208210811415620002b557620002b462000256565b5b50919050565b61329680620002cb6000396000f3fe608060405234801561001057600080fd5b50600436106101735760003560e01c806396e494e8116100de578063c475abff11610097578063e985e9c511610071578063e985e9c514610482578063f2fde38b146104b2578063f6a74ed7146104ce578063fca247ac146104ea57610173565b8063c475abff146103f2578063c87b56dd14610422578063da8c229e1461045257610173565b806396e494e814610320578063a22cb46514610350578063a4cbf5f41461036c578063a7fc7a071461039c578063b88d4fde146103b8578063c1a287e2146103d457610173565b80636352211e116101305780636352211e1461024a57806370a082311461027a578063715018a6146102aa578063892a04b6146102b45780638da5cb5b146102e457806395d89b411461030257610173565b806301ffc9a71461017857806306fdde03146101a8578063081812fc146101c6578063095ea7b3146101f657806323b872dd1461021257806342842e0e1461022e575b600080fd5b610192600480360381019061018d9190612088565b61051a565b60405161019f91906120d0565b60405180910390f35b6101b06105fc565b6040516101bd9190612184565b60405180910390f35b6101e060048036038101906101db91906121dc565b61068e565b6040516101ed919061224a565b60405180910390f35b610210600480360381019061020b9190612291565b610713565b005b61022c600480360381019061022791906122d1565b61082b565b005b610248600480360381019061024391906122d1565b61088b565b005b610264600480360381019061025f91906121dc565b6108ab565b604051610271919061224a565b60405180910390f35b610294600480360381019061028f9190612324565b61095d565b6040516102a19190612360565b60405180910390f35b6102b2610a15565b005b6102ce60048036038101906102c991906121dc565b610a9d565b6040516102db9190612360565b60405180910390f35b6102ec610ac5565b6040516102f9919061224a565b60405180910390f35b61030a610aef565b6040516103179190612184565b60405180910390f35b61033a600480360381019061033591906121dc565b610b81565b60405161034791906120d0565b60405180910390f35b61036a600480360381019061036591906123a7565b610bae565b005b610386600480360381019061038191906121dc565b610bc4565b6040516103939190612360565b60405180910390f35b6103b660048036038101906103b19190612324565b610be1565b005b6103d260048036038101906103cd919061251c565b610cb8565b005b6103dc610d1a565b6040516103e99190612360565b60405180910390f35b61040c6004803603810190610407919061259f565b610d21565b6040516104199190612360565b60405180910390f35b61043c600480360381019061043791906121dc565b610d35565b6040516104499190612184565b60405180910390f35b61046c60048036038101906104679190612324565b610ddc565b60405161047991906120d0565b60405180910390f35b61049c600480360381019061049791906125df565b610dfc565b6040516104a991906120d0565b60405180910390f35b6104cc60048036038101906104c79190612324565b610e90565b005b6104e860048036038101906104e39190612324565b610f88565b005b61050460048036038101906104ff919061261f565b61105f565b6040516105119190612360565b60405180910390f35b60007f80ac58cd000000000000000000000000000000000000000000000000000000007bffffffffffffffffffffffffffffffffffffffffffffffffffffffff1916827bffffffffffffffffffffffffffffffffffffffffffffffffffffffff191614806105e557507f5b5e139f000000000000000000000000000000000000000000000000000000007bffffffffffffffffffffffffffffffffffffffffffffffffffffffff1916827bffffffffffffffffffffffffffffffffffffffffffffffffffffffff1916145b806105f557506105f482611075565b5b9050919050565b60606000805461060b906126a1565b80601f0160208091040260200160405190810160405280929190818152602001828054610637906126a1565b80156106845780601f1061065957610100808354040283529160200191610684565b820191906000526020600020905b81548152906001019060200180831161066757829003601f168201915b5050505050905090565b6000610699826110df565b6106d8576040517f08c379a00000000000000000000000000000000000000000000000000000000081526004016106cf90612745565b60405180910390fd5b6004600083815260200190815260200160002060009054906101000a900473ffffffffffffffffffffffffffffffffffffffff169050919050565b600061071e826108ab565b90508073ffffffffffffffffffffffffffffffffffffffff168373ffffffffffffffffffffffffffffffffffffffff16141561078f576040517f08c379a0000000000000000000000000000000000000000000000000000000008152600401610786906127d7565b60405180910390fd5b8073ffffffffffffffffffffffffffffffffffffffff166107ae61114b565b73ffffffffffffffffffffffffffffffffffffffff1614806107dd57506107dc816107d761114b565b610dfc565b5b61081c576040517f08c379a000000000000000000000000000000000000000000000000000000000815260040161081390612869565b60405180910390fd5b6108268383611153565b505050565b61083c61083661114b565b8261120c565b61087b576040517f08c379a0000000000000000000000000000000000000000000000000000000008152600401610872906128fb565b60405180910390fd5b6108868383836112ea565b505050565b6108a683838360405180602001604052806000815250610cb8565b505050565b6000806002600084815260200190815260200160002060009054906101000a900473ffffffffffffffffffffffffffffffffffffffff169050600073ffffffffffffffffffffffffffffffffffffffff168173ffffffffffffffffffffffffffffffffffffffff161415610954576040517f08c379a000000000000000000000000000000000000000000000000000000000815260040161094b9061298d565b60405180910390fd5b80915050919050565b60008073ffffffffffffffffffffffffffffffffffffffff168273ffffffffffffffffffffffffffffffffffffffff1614156109ce576040517f08c379a00000000000000000000000000000000000000000000000000000000081526004016109c590612a1f565b60405180910390fd5b600360008373ffffffffffffffffffffffffffffffffffffffff1673ffffffffffffffffffffffffffffffffffffffff168152602001908152602001600020549050919050565b610a1d61114b565b73ffffffffffffffffffffffffffffffffffffffff16610a3b610ac5565b73ffffffffffffffffffffffffffffffffffffffff1614610a91576040517f08c379a0000000000000000000000000000000000000000000000000000000008152600401610a8890612a8b565b60405180910390fd5b610a9b6000611551565b565b6000426007600084815260200190815260200160002054610abe9190612ada565b9050919050565b6000600660009054906101000a900473ffffffffffffffffffffffffffffffffffffffff16905090565b606060018054610afe906126a1565b80601f0160208091040260200160405190810160405280929190818152602001828054610b2a906126a1565b8015610b775780601f10610b4c57610100808354040283529160200191610b77565b820191906000526020600020905b815481529060010190602001808311610b5a57829003601f168201915b5050505050905090565b6000426224ea006007600085815260200190815260200160002054610ba69190612b0e565b109050919050565b610bc0610bb961114b565b8383611617565b5050565b600060076000838152602001908152602001600020549050919050565b610be961114b565b73ffffffffffffffffffffffffffffffffffffffff16610c07610ac5565b73ffffffffffffffffffffffffffffffffffffffff1614610c5d576040517f08c379a0000000000000000000000000000000000000000000000000000000008152600401610c5490612a8b565b60405180910390fd5b6001600860008373ffffffffffffffffffffffffffffffffffffffff1673ffffffffffffffffffffffffffffffffffffffff16815260200190815260200160002060006101000a81548160ff02191690831515021790555050565b610cc9610cc361114b565b8361120c565b610d08576040517f08c379a0000000000000000000000000000000000000000000000000000000008152600401610cff906128fb565b60405180910390fd5b610d1484848484611784565b50505050565b6224ea0081565b6000610d2d83836117e0565b905092915050565b6060610d40826110df565b610d7f576040517f08c379a0000000000000000000000000000000000000000000000000000000008152600401610d7690612bd6565b60405180910390fd5b6000610d896118f2565b90506000815111610da95760405180602001604052806000815250610dd4565b80610db384611909565b604051602001610dc4929190612c32565b6040516020818303038152906040525b915050919050565b60086020528060005260406000206000915054906101000a900460ff1681565b6000600560008473ffffffffffffffffffffffffffffffffffffffff1673ffffffffffffffffffffffffffffffffffffffff16815260200190815260200160002060008373ffffffffffffffffffffffffffffffffffffffff1673ffffffffffffffffffffffffffffffffffffffff16815260200190815260200160002060009054906101000a900460ff16905092915050565b610e9861114b565b73ffffffffffffffffffffffffffffffffffffffff16610eb6610ac5565b73ffffffffffffffffffffffffffffffffffffffff1614610f0c576040517f08c379a0000000000000000000000000000000000000000000000000000000008152600401610f0390612a8b565b60405180910390fd5b600073ffffffffffffffffffffffffffffffffffffffff168173ffffffffffffffffffffffffffffffffffffffff161415610f7c576040517f08c379a0000000000000000000000000000000000000000000000000000000008152600401610f7390612cc8565b60405180910390fd5b610f8581611551565b50565b610f9061114b565b73ffffffffffffffffffffffffffffffffffffffff16610fae610ac5565b73ffffffffffffffffffffffffffffffffffffffff1614611004576040517f08c379a0000000000000000000000000000000000000000000000000000000008152600401610ffb90612a8b565b60405180910390fd5b6000600860008373ffffffffffffffffffffffffffffffffffffffff1673ffffffffffffffffffffffffffffffffffffffff16815260200190815260200160002060006101000a81548160ff02191690831515021790555050565b600061106c848484611a6a565b90509392505050565b60007f01ffc9a7000000000000000000000000000000000000000000000000000000007bffffffffffffffffffffffffffffffffffffffffffffffffffffffff1916827bffffffffffffffffffffffffffffffffffffffffffffffffffffffff1916149050919050565b60008073ffffffffffffffffffffffffffffffffffffffff166002600084815260200190815260200160002060009054906101000a900473ffffffffffffffffffffffffffffffffffffffff1673ffffffffffffffffffffffffffffffffffffffff1614159050919050565b600033905090565b816004600083815260200190815260200160002060006101000a81548173ffffffffffffffffffffffffffffffffffffffff021916908373ffffffffffffffffffffffffffffffffffffffff160217905550808273ffffffffffffffffffffffffffffffffffffffff166111c6836108ab565b73ffffffffffffffffffffffffffffffffffffffff167f8c5be1e5ebec7d5bd14f71427d1e84f3dd0314c0f7b2291e5b200ac8c7c3b92560405160405180910390a45050565b6000611217826110df565b611256576040517f08c379a000000000000000000000000000000000000000000000000000000000815260040161124d90612d5a565b60405180910390fd5b6000611261836108ab565b90508073ffffffffffffffffffffffffffffffffffffffff168473ffffffffffffffffffffffffffffffffffffffff1614806112a357506112a28185610dfc565b5b806112e157508373ffffffffffffffffffffffffffffffffffffffff166112c98461068e565b73ffffffffffffffffffffffffffffffffffffffff16145b91505092915050565b8273ffffffffffffffffffffffffffffffffffffffff1661130a826108ab565b73ffffffffffffffffffffffffffffffffffffffff1614611360576040517f08c379a000000000000000000000000000000000000000000000000000000000815260040161135790612dec565b60405180910390fd5b600073ffffffffffffffffffffffffffffffffffffffff168273ffffffffffffffffffffffffffffffffffffffff1614156113d0576040517f08c379a00000000000000000000000000000000000000000000000000000000081526004016113c790612e7e565b60405180910390fd5b6113db838383611b61565b6113e6600082611153565b6001600360008573ffffffffffffffffffffffffffffffffffffffff1673ffffffffffffffffffffffffffffffffffffffff16815260200190815260200160002060008282546114369190612ada565b925050819055506001600360008473ffffffffffffffffffffffffffffffffffffffff1673ffffffffffffffffffffffffffffffffffffffff168152602001908152602001600020600082825461148d9190612b0e565b92505081905550816002600083815260200190815260200160002060006101000a81548173ffffffffffffffffffffffffffffffffffffffff021916908373ffffffffffffffffffffffffffffffffffffffff160217905550808273ffffffffffffffffffffffffffffffffffffffff168473ffffffffffffffffffffffffffffffffffffffff167fddf252ad1be2c89b69c2b068fc378daa952ba7f163c4a11628f55a4df523b3ef60405160405180910390a461154c838383611b66565b505050565b6000600660009054906101000a900473ffffffffffffffffffffffffffffffffffffffff16905081600660006101000a81548173ffffffffffffffffffffffffffffffffffffffff021916908373ffffffffffffffffffffffffffffffffffffffff1602179055508173ffffffffffffffffffffffffffffffffffffffff168173ffffffffffffffffffffffffffffffffffffffff167f8be0079c531659141344cd1fd0a4f28419497f9722a3daafe3b4186f6b6457e060405160405180910390a35050565b8173ffffffffffffffffffffffffffffffffffffffff168373ffffffffffffffffffffffffffffffffffffffff161415611686576040517f08c379a000000000000000000000000000000000000000000000000000000000815260040161167d90612eea565b60405180910390fd5b80600560008573ffffffffffffffffffffffffffffffffffffffff1673ffffffffffffffffffffffffffffffffffffffff16815260200190815260200160002060008473ffffffffffffffffffffffffffffffffffffffff1673ffffffffffffffffffffffffffffffffffffffff16815260200190815260200160002060006101000a81548160ff0219169083151502179055508173ffffffffffffffffffffffffffffffffffffffff168373ffffffffffffffffffffffffffffffffffffffff167f17307eab39ab6107e8899845ad3d59bd9653f200f220920489ca2b5937696c318360405161177791906120d0565b60405180910390a3505050565b61178f8484846112ea565b61179b84848484611b6b565b6117da576040517f08c379a00000000000000000000000000000000000000000000000000000000081526004016117d190612f7c565b60405180910390fd5b50505050565b6000600860003373ffffffffffffffffffffffffffffffffffffffff1673ffffffffffffffffffffffffffffffffffffffff16815260200190815260200160002060009054906101000a900460ff1661183857600080fd5b426224ea00600760008681526020019081526020016000205461185b9190612b0e565b101561186657600080fd5b6224ea00826118759190612b0e565b6224ea008360076000878152602001908152602001600020546118989190612b0e565b6118a29190612b0e565b116118ac57600080fd5b816007600085815260200190815260200160002060008282546118cf9190612b0e565b925050819055506007600084815260200190815260200160002054905092915050565b606060405180602001604052806000815250905090565b60606000821415611951576040518060400160405280600181526020017f30000000000000000000000000000000000000000000000000000000000000008152509050611a65565b600082905060005b6000821461198357808061196c90612f9c565b915050600a8261197c9190613014565b9150611959565b60008167ffffffffffffffff81111561199f5761199e6123f1565b5b6040519080825280601f01601f1916602001820160405280156119d15781602001600182028036833780820191505090505b5090505b60008514611a5e576001826119ea9190612ada565b9150600a856119f99190613045565b6030611a059190612b0e565b60f81b818381518110611a1b57611a1a613076565b5b60200101907effffffffffffffffffffffffffffffffffffffffffffffffffffffffffffff1916908160001a905350600a85611a579190613014565b94506119d5565b8093505050505b919050565b6000600860003373ffffffffffffffffffffffffffffffffffffffff1673ffffffffffffffffffffffffffffffffffffffff16815260200190815260200160002060009054906101000a900460ff16611ac257600080fd5b611acb84610b81565b611ad457600080fd5b6224ea0042611ae39190612b0e565b6224ea008342611af39190612b0e565b611afd9190612b0e565b11611b0757600080fd5b8142611b139190612b0e565b6007600086815260200190815260200160002081905550611b33846110df565b15611b4257611b4184611d02565b5b611b4c8385611e1f565b8142611b589190612b0e565b90509392505050565b505050565b505050565b6000611b8c8473ffffffffffffffffffffffffffffffffffffffff16611ff9565b15611cf5578373ffffffffffffffffffffffffffffffffffffffff1663150b7a02611bb561114b565b8786866040518563ffffffff1660e01b8152600401611bd794939291906130fa565b602060405180830381600087803b158015611bf157600080fd5b505af1925050508015611c2257506040513d601f19601f82011682018060405250810190611c1f919061315b565b60015b611ca5573d8060008114611c52576040519150601f19603f3d011682016040523d82523d6000602084013e611c57565b606091505b50600081511415611c9d576040517f08c379a0000000000000000000000000000000000000000000000000000000008152600401611c9490612f7c565b60405180910390fd5b805181602001fd5b63150b7a0260e01b7bffffffffffffffffffffffffffffffffffffffffffffffffffffffff1916817bffffffffffffffffffffffffffffffffffffffffffffffffffffffff191614915050611cfa565b600190505b949350505050565b6000611d0d826108ab565b9050611d1b81600084611b61565b611d26600083611153565b6001600360008373ffffffffffffffffffffffffffffffffffffffff1673ffffffffffffffffffffffffffffffffffffffff1681526020019081526020016000206000828254611d769190612ada565b925050819055506002600083815260200190815260200160002060006101000a81549073ffffffffffffffffffffffffffffffffffffffff021916905581600073ffffffffffffffffffffffffffffffffffffffff168273ffffffffffffffffffffffffffffffffffffffff167fddf252ad1be2c89b69c2b068fc378daa952ba7f163c4a11628f55a4df523b3ef60405160405180910390a4611e1b81600084611b66565b5050565b600073ffffffffffffffffffffffffffffffffffffffff168273ffffffffffffffffffffffffffffffffffffffff161415611e8f576040517f08c379a0000000000000000000000000000000000000000000000000000000008152600401611e86906131d4565b60405180910390fd5b611e98816110df565b15611ed8576040517f08c379a0000000000000000000000000000000000000000000000000000000008152600401611ecf90613240565b60405180910390fd5b611ee460008383611b61565b6001600360008473ffffffffffffffffffffffffffffffffffffffff1673ffffffffffffffffffffffffffffffffffffffff1681526020019081526020016000206000828254611f349190612b0e565b92505081905550816002600083815260200190815260200160002060006101000a81548173ffffffffffffffffffffffffffffffffffffffff021916908373ffffffffffffffffffffffffffffffffffffffff160217905550808273ffffffffffffffffffffffffffffffffffffffff16600073ffffffffffffffffffffffffffffffffffffffff167fddf252ad1be2c89b69c2b068fc378daa952ba7f163c4a11628f55a4df523b3ef60405160405180910390a4611ff560008383611b66565b5050565b6000808273ffffffffffffffffffffffffffffffffffffffff163b119050919050565b6000604051905090565b600080fd5b600080fd5b60007fffffffff0000000000000000000000000000000000000000000000000000000082169050919050565b61206581612030565b811461207057600080fd5b50565b6000813590506120828161205c565b92915050565b60006020828403121561209e5761209d612026565b5b60006120ac84828501612073565b91505092915050565b60008115159050919050565b6120ca816120b5565b82525050565b60006020820190506120e560008301846120c1565b92915050565b600081519050919050565b600082825260208201905092915050565b60005b8381101561212557808201518184015260208101905061210a565b83811115612134576000848401525b50505050565b6000601f19601f8301169050919050565b6000612156826120eb565b61216081856120f6565b9350612170818560208601612107565b6121798161213a565b840191505092915050565b6000602082019050818103600083015261219e818461214b565b905092915050565b6000819050919050565b6121b9816121a6565b81146121c457600080fd5b50565b6000813590506121d6816121b0565b92915050565b6000602082840312156121f2576121f1612026565b5b6000612200848285016121c7565b91505092915050565b600073ffffffffffffffffffffffffffffffffffffffff82169050919050565b600061223482612209565b9050919050565b61224481612229565b82525050565b600060208201905061225f600083018461223b565b92915050565b61226e81612229565b811461227957600080fd5b50565b60008135905061228b81612265565b92915050565b600080604083850312156122a8576122a7612026565b5b60006122b68582860161227c565b92505060206122c7858286016121c7565b9150509250929050565b6000806000606084860312156122ea576122e9612026565b5b60006122f88682870161227c565b93505060206123098682870161227c565b925050604061231a868287016121c7565b9150509250925092565b60006020828403121561233a57612339612026565b5b60006123488482850161227c565b91505092915050565b61235a816121a6565b82525050565b60006020820190506123756000830184612351565b92915050565b612384816120b5565b811461238f57600080fd5b50565b6000813590506123a18161237b565b92915050565b600080604083850312156123be576123bd612026565b5b60006123cc8582860161227c565b92505060206123dd85828601612392565b9150509250929050565b600080fd5b600080fd5b7f4e487b7100000000000000000000000000000000000000000000000000000000600052604160045260246000fd5b6124298261213a565b810181811067ffffffffffffffff82111715612448576124476123f1565b5b80604052505050565b600061245b61201c565b90506124678282612420565b919050565b600067ffffffffffffffff821115612487576124866123f1565b5b6124908261213a565b9050602081019050919050565b82818337600083830152505050565b60006124bf6124ba8461246c565b612451565b9050828152602081018484840111156124db576124da6123ec565b5b6124e684828561249d565b509392505050565b600082601f830112612503576125026123e7565b5b81356125138482602086016124ac565b91505092915050565b6000806000806080858703121561253657612535612026565b5b60006125448782880161227c565b94505060206125558782880161227c565b9350506040612566878288016121c7565b925050606085013567ffffffffffffffff8111156125875761258661202b565b5b612593878288016124ee565b91505092959194509250565b600080604083850312156125b6576125b5612026565b5b60006125c4858286016121c7565b92505060206125d5858286016121c7565b9150509250929050565b600080604083850312156125f6576125f5612026565b5b60006126048582860161227c565b92505060206126158582860161227c565b9150509250929050565b60008060006060848603121561263857612637612026565b5b6000612646868287016121c7565b93505060206126578682870161227c565b9250506040612668868287016121c7565b9150509250925092565b7f4e487b7100000000000000000000000000000000000000000000000000000000600052602260045260246000fd5b600060028204905060018216806126b957607f821691505b602082108114156126cd576126cc612672565b5b50919050565b7f4552433732313a20617070726f76656420717565727920666f72206e6f6e657860008201527f697374656e7420746f6b656e0000000000000000000000000000000000000000602082015250565b600061272f602c836120f6565b915061273a826126d3565b604082019050919050565b6000602082019050818103600083015261275e81612722565b9050919050565b7f4552433732313a20617070726f76616c20746f2063757272656e74206f776e6560008201527f7200000000000000000000000000000000000000000000000000000000000000602082015250565b60006127c16021836120f6565b91506127cc82612765565b604082019050919050565b600060208201905081810360008301526127f0816127b4565b9050919050565b7f4552433732313a20617070726f76652063616c6c6572206973206e6f74206f7760008201527f6e6572206e6f7220617070726f76656420666f7220616c6c0000000000000000602082015250565b60006128536038836120f6565b915061285e826127f7565b604082019050919050565b6000602082019050818103600083015261288281612846565b9050919050565b7f4552433732313a207472616e736665722063616c6c6572206973206e6f74206f60008201527f776e6572206e6f7220617070726f766564000000000000000000000000000000602082015250565b60006128e56031836120f6565b91506128f082612889565b604082019050919050565b60006020820190508181036000830152612914816128d8565b9050919050565b7f4552433732313a206f776e657220717565727920666f72206e6f6e657869737460008201527f656e7420746f6b656e0000000000000000000000000000000000000000000000602082015250565b60006129776029836120f6565b91506129828261291b565b604082019050919050565b600060208201905081810360008301526129a68161296a565b9050919050565b7f4552433732313a2062616c616e636520717565727920666f7220746865207a6560008201527f726f206164647265737300000000000000000000000000000000000000000000602082015250565b6000612a09602a836120f6565b9150612a14826129ad565b604082019050919050565b60006020820190508181036000830152612a38816129fc565b9050919050565b7f4f776e61626c653a2063616c6c6572206973206e6f7420746865206f776e6572600082015250565b6000612a756020836120f6565b9150612a8082612a3f565b602082019050919050565b60006020820190508181036000830152612aa481612a68565b9050919050565b7f4e487b7100000000000000000000000000000000000000000000000000000000600052601160045260246000fd5b6000612ae5826121a6565b9150612af0836121a6565b925082821015612b0357612b02612aab565b5b828203905092915050565b6000612b19826121a6565b9150612b24836121a6565b9250827fffffffffffffffffffffffffffffffffffffffffffffffffffffffffffffffff03821115612b5957612b58612aab565b5b828201905092915050565b7f4552433732314d657461646174613a2055524920717565727920666f72206e6f60008201527f6e6578697374656e7420746f6b656e0000000000000000000000000000000000602082015250565b6000612bc0602f836120f6565b9150612bcb82612b64565b604082019050919050565b60006020820190508181036000830152612bef81612bb3565b9050919050565b600081905092915050565b6000612c0c826120eb565b612c168185612bf6565b9350612c26818560208601612107565b80840191505092915050565b6000612c3e8285612c01565b9150612c4a8284612c01565b91508190509392505050565b7f4f776e61626c653a206e6577206f776e657220697320746865207a65726f206160008201527f6464726573730000000000000000000000000000000000000000000000000000602082015250565b6000612cb26026836120f6565b9150612cbd82612c56565b604082019050919050565b60006020820190508181036000830152612ce181612ca5565b9050919050565b7f4552433732313a206f70657261746f7220717565727920666f72206e6f6e657860008201527f697374656e7420746f6b656e0000000000000000000000000000000000000000602082015250565b6000612d44602c836120f6565b9150612d4f82612ce8565b604082019050919050565b60006020820190508181036000830152612d7381612d37565b9050919050565b7f4552433732313a207472616e736665722066726f6d20696e636f72726563742060008201527f6f776e6572000000000000000000000000000000000000000000000000000000602082015250565b6000612dd66025836120f6565b9150612de182612d7a565b604082019050919050565b60006020820190508181036000830152612e0581612dc9565b9050919050565b7f4552433732313a207472616e7366657220746f20746865207a65726f2061646460008201527f7265737300000000000000000000000000000000000000000000000000000000602082015250565b6000612e686024836120f6565b9150612e7382612e0c565b604082019050919050565b60006020820190508181036000830152612e9781612e5b565b9050919050565b7f4552433732313a20617070726f766520746f2063616c6c657200000000000000600082015250565b6000612ed46019836120f6565b9150612edf82612e9e565b602082019050919050565b60006020820190508181036000830152612f0381612ec7565b9050919050565b7f4552433732313a207472616e7366657220746f206e6f6e20455243373231526560008201527f63656976657220696d706c656d656e7465720000000000000000000000000000602082015250565b6000612f666032836120f6565b9150612f7182612f0a565b604082019050919050565b60006020820190508181036000830152612f9581612f59565b9050919050565b6000612fa7826121a6565b91507fffffffffffffffffffffffffffffffffffffffffffffffffffffffffffffffff821415612fda57612fd9612aab565b5b600182019050919050565b7f4e487b7100000000000000000000000000000000000000000000000000000000600052601260045260246000fd5b600061301f826121a6565b915061302a836121a6565b92508261303a57613039612fe5565b5b828204905092915050565b6000613050826121a6565b915061305b836121a6565b92508261306b5761306a612fe5565b5b828206905092915050565b7f4e487b7100000000000000000000000000000000000000000000000000000000600052603260045260246000fd5b600081519050919050565b600082825260208201905092915050565b60006130cc826130a5565b6130d681856130b0565b93506130e6818560208601612107565b6130ef8161213a565b840191505092915050565b600060808201905061310f600083018761223b565b61311c602083018661223b565b6131296040830185612351565b818103606083015261313b81846130c1565b905095945050505050565b6000815190506131558161205c565b92915050565b60006020828403121561317157613170612026565b5b600061317f84828501613146565b91505092915050565b7f4552433732313a206d696e7420746f20746865207a65726f2061646472657373600082015250565b60006131be6020836120f6565b91506131c982613188565b602082019050919050565b600060208201905081810360008301526131ed816131b1565b9050919050565b7f4552433732313a20746f6b656e20616c7265616479206d696e74656400000000600082015250565b600061322a601c836120f6565b9150613235826131f4565b602082019050919050565b600060208201905081810360008301526132598161321d565b905091905056fea2646970667358221220b4326a71644cbbfb29931f82019b8cfbb1a04c70e596243cb8d8f7bc2668481064736f6c63430008090033",
  "linkReferences": {},
  "deployedLinkReferences": {}
}