{
  "_format": "hh-sol-artifact-1",
  "contractName": "AdminInFuji",
  "sourceName": "contracts/ednpoint/AdminInETH.sol",
  "abi": [
    {
      "inputs": [
        {
          "internalType": "address",
          "name": "_endpoint",
          "type": "address"
        }
      ],
      "stateMutability": "nonpayable",
      "type": "constructor"
    },
    {
      "anonymous": false,
      "inputs": [
        {
          "indexed": true,
          "internalType": "address",
          "name": "owner",
          "type": "address"
        },
        {
          "indexed": true,
          "internalType": "address",
          "name": "approved",
          "type": "address"
        },
        {
          "indexed": true,
          "internalType": "uint256",
          "name": "tokenId",
          "type": "uint256"
        }
      ],
      "name": "Approval",
      "type": "event"
    },
    {
      "anonymous": false,
      "inputs": [
        {
          "indexed": true,
          "internalType": "address",
          "name": "owner",
          "type": "address"
        },
        {
          "indexed": true,
          "internalType": "address",
          "name": "operator",
          "type": "address"
        },
        {
          "indexed": false,
          "internalType": "bool",
          "name": "approved",
          "type": "bool"
        }
      ],
      "name": "ApprovalForAll",
      "type": "event"
    },
    {
      "anonymous": false,
      "inputs": [
        {
          "indexed": false,
          "internalType": "uint16",
          "name": "_srcChainId",
          "type": "uint16"
        },
        {
          "indexed": false,
          "internalType": "bytes",
          "name": "_srcAddress",
          "type": "bytes"
        },
        {
          "indexed": false,
          "internalType": "uint64",
          "name": "_nonce",
          "type": "uint64"
        },
        {
          "indexed": false,
          "internalType": "bytes",
          "name": "_payload",
          "type": "bytes"
        }
      ],
      "name": "MessageFailed",
      "type": "event"
    },
    {
      "anonymous": false,
      "inputs": [
        {
          "indexed": true,
          "internalType": "address",
          "name": "previousOwner",
          "type": "address"
        },
        {
          "indexed": true,
          "internalType": "address",
          "name": "newOwner",
          "type": "address"
        }
      ],
      "name": "OwnershipTransferred",
      "type": "event"
    },
    {
      "anonymous": false,
      "inputs": [
        {
          "indexed": false,
          "internalType": "uint16",
          "name": "_srcChainId",
          "type": "uint16"
        },
        {
          "indexed": false,
          "internalType": "address",
          "name": "_from",
          "type": "address"
        },
        {
          "indexed": false,
          "internalType": "bytes",
          "name": "_payload",
          "type": "bytes"
        }
      ],
      "name": "ReceiveMsg",
      "type": "event"
    },
    {
      "anonymous": false,
      "inputs": [
        {
          "indexed": true,
          "internalType": "address",
          "name": "from",
          "type": "address"
        },
        {
          "indexed": true,
          "internalType": "address",
          "name": "to",
          "type": "address"
        },
        {
          "indexed": true,
          "internalType": "uint256",
          "name": "tokenId",
          "type": "uint256"
        }
      ],
      "name": "Transfer",
      "type": "event"
    },
    {
      "inputs": [
        {
          "internalType": "uint16",
          "name": "_dstChainId",
          "type": "uint16"
        },
        {
          "internalType": "bytes",
          "name": "_destination",
          "type": "bytes"
        },
        {
          "internalType": "uint256",
          "name": "tokenId",
          "type": "uint256"
        }
      ],
      "name": "CrossChain",
      "outputs": [],
      "stateMutability": "payable",
      "type": "function"
    },
    {
      "inputs": [
        {
          "internalType": "address",
          "name": "to",
          "type": "address"
        },
        {
          "internalType": "uint256",
          "name": "tokenId",
          "type": "uint256"
        }
      ],
      "name": "approve",
      "outputs": [],
      "stateMutability": "nonpayable",
      "type": "function"
    },
    {
      "inputs": [
        {
          "internalType": "address",
          "name": "owner",
          "type": "address"
        }
      ],
      "name": "balanceOf",
      "outputs": [
        {
          "internalType": "uint256",
          "name": "",
          "type": "uint256"
        }
      ],
      "stateMutability": "view",
      "type": "function"
    },
    {
      "inputs": [
        {
          "internalType": "bool",
          "name": "_o",
          "type": "bool"
        }
      ],
      "name": "change",
      "outputs": [
        {
          "internalType": "bool",
          "name": "",
          "type": "bool"
        }
      ],
      "stateMutability": "nonpayable",
      "type": "function"
    },
    {
      "inputs": [],
      "name": "check",
      "outputs": [
        {
          "internalType": "bool",
          "name": "",
          "type": "bool"
        }
      ],
      "stateMutability": "view",
      "type": "function"
    },
    {
      "inputs": [
        {
          "internalType": "string",
          "name": "name",
          "type": "string"
        }
      ],
      "name": "checkLabel",
      "outputs": [
        {
          "internalType": "uint256",
          "name": "label",
          "type": "uint256"
        }
      ],
      "stateMutability": "pure",
      "type": "function"
    },
    {
      "inputs": [],
      "name": "check_message",
      "outputs": [
        {
          "internalType": "uint256",
          "name": "",
          "type": "uint256"
        },
        {
          "internalType": "uint256",
          "name": "",
          "type": "uint256"
        }
      ],
      "stateMutability": "view",
      "type": "function"
    },
    {
      "inputs": [],
      "name": "checkdepositAddress",
      "outputs": [
        {
          "internalType": "address",
          "name": "",
          "type": "address"
        }
      ],
      "stateMutability": "view",
      "type": "function"
    },
    {
      "inputs": [
        {
          "internalType": "uint16",
          "name": "_dstChainId",
          "type": "uint16"
        },
        {
          "internalType": "uint256",
          "name": "tokenId",
          "type": "uint256"
        }
      ],
      "name": "checkfee",
      "outputs": [
        {
          "internalType": "uint256",
          "name": "",
          "type": "uint256"
        }
      ],
      "stateMutability": "view",
      "type": "function"
    },
    {
      "inputs": [],
      "name": "endpoint",
      "outputs": [
        {
          "internalType": "contract ILayerZeroEndpoint",
          "name": "",
          "type": "address"
        }
      ],
      "stateMutability": "view",
      "type": "function"
    },
    {
      "inputs": [
        {
          "internalType": "uint16",
          "name": "_dstChainId",
          "type": "uint16"
        },
        {
          "internalType": "address",
          "name": "_userApplication",
          "type": "address"
        },
        {
          "internalType": "bytes",
          "name": "_payload",
          "type": "bytes"
        },
        {
          "internalType": "bool",
          "name": "_payInZRO",
          "type": "bool"
        },
        {
          "internalType": "bytes",
          "name": "_adapterParams",
          "type": "bytes"
        }
      ],
      "name": "estimateFees",
      "outputs": [
        {
          "internalType": "uint256",
          "name": "nativeFee",
          "type": "uint256"
        },
        {
          "internalType": "uint256",
          "name": "zroFee",
          "type": "uint256"
        }
      ],
      "stateMutability": "view",
      "type": "function"
    },
    {
      "inputs": [
        {
          "internalType": "uint16",
          "name": "",
          "type": "uint16"
        },
        {
          "internalType": "bytes",
          "name": "",
          "type": "bytes"
        },
        {
          "internalType": "uint256",
          "name": "",
          "type": "uint256"
        }
      ],
      "name": "failedMessages",
      "outputs": [
        {
          "internalType": "uint256",
          "name": "payloadLength",
          "type": "uint256"
        },
        {
          "internalType": "bytes32",
          "name": "payloadHash",
          "type": "bytes32"
        }
      ],
      "stateMutability": "view",
      "type": "function"
    },
    {
      "inputs": [
        {
          "internalType": "uint256",
          "name": "tokenId",
          "type": "uint256"
        }
      ],
      "name": "getApproved",
      "outputs": [
        {
          "internalType": "address",
          "name": "",
          "type": "address"
        }
      ],
      "stateMutability": "view",
      "type": "function"
    },
    {
      "inputs": [
        {
          "internalType": "address",
          "name": "owner",
          "type": "address"
        },
        {
          "internalType": "address",
          "name": "operator",
          "type": "address"
        }
      ],
      "name": "isApprovedForAll",
      "outputs": [
        {
          "internalType": "bool",
          "name": "",
          "type": "bool"
        }
      ],
      "stateMutability": "view",
      "type": "function"
    },
    {
      "inputs": [
        {
          "internalType": "uint16",
          "name": "_srcChainId",
          "type": "uint16"
        },
        {
          "internalType": "bytes",
          "name": "_srcAddress",
          "type": "bytes"
        },
        {
          "internalType": "uint64",
          "name": "_nonce",
          "type": "uint64"
        },
        {
          "internalType": "bytes",
          "name": "_payload",
          "type": "bytes"
        }
      ],
      "name": "lzReceive",
      "outputs": [],
      "stateMutability": "nonpayable",
      "type": "function"
    },
    {
      "inputs": [],
      "name": "name",
      "outputs": [
        {
          "internalType": "string",
          "name": "",
          "type": "string"
        }
      ],
      "stateMutability": "view",
      "type": "function"
    },
    {
      "inputs": [],
      "name": "o",
      "outputs": [
        {
          "internalType": "bool",
          "name": "",
          "type": "bool"
        }
      ],
      "stateMutability": "view",
      "type": "function"
    },
    {
      "inputs": [
        {
          "internalType": "uint16",
          "name": "_srcChainId",
          "type": "uint16"
        },
        {
          "internalType": "bytes",
          "name": "_srcAddress",
          "type": "bytes"
        },
        {
          "internalType": "uint64",
          "name": "_nonce",
          "type": "uint64"
        },
        {
          "internalType": "bytes",
          "name": "_payload",
          "type": "bytes"
        }
      ],
      "name": "onLzReceive",
      "outputs": [],
      "stateMutability": "nonpayable",
      "type": "function"
    },
    {
      "inputs": [],
      "name": "owner",
      "outputs": [
        {
          "internalType": "address",
          "name": "",
          "type": "address"
        }
      ],
      "stateMutability": "view",
      "type": "function"
    },
    {
      "inputs": [
        {
          "internalType": "uint256",
          "name": "tokenId",
          "type": "uint256"
        }
      ],
      "name": "ownerOf",
      "outputs": [
        {
          "internalType": "address",
          "name": "",
          "type": "address"
        }
      ],
      "stateMutability": "view",
      "type": "function"
    },
    {
      "inputs": [],
      "name": "renounceOwnership",
      "outputs": [],
      "stateMutability": "nonpayable",
      "type": "function"
    },
    {
      "inputs": [
        {
          "internalType": "uint16",
          "name": "_srcChainId",
          "type": "uint16"
        },
        {
          "internalType": "bytes",
          "name": "_srcAddress",
          "type": "bytes"
        },
        {
          "internalType": "uint64",
          "name": "_nonce",
          "type": "uint64"
        },
        {
          "internalType": "bytes",
          "name": "_payload",
          "type": "bytes"
        }
      ],
      "name": "retryMessage",
      "outputs": [],
      "stateMutability": "payable",
      "type": "function"
    },
    {
      "inputs": [
        {
          "internalType": "address",
          "name": "from",
          "type": "address"
        },
        {
          "internalType": "address",
          "name": "to",
          "type": "address"
        },
        {
          "internalType": "uint256",
          "name": "tokenId",
          "type": "uint256"
        }
      ],
      "name": "safeTransferFrom",
      "outputs": [],
      "stateMutability": "nonpayable",
      "type": "function"
    },
    {
      "inputs": [
        {
          "internalType": "address",
          "name": "from",
          "type": "address"
        },
        {
          "internalType": "address",
          "name": "to",
          "type": "address"
        },
        {
          "internalType": "uint256",
          "name": "tokenId",
          "type": "uint256"
        },
        {
          "internalType": "bytes",
          "name": "_data",
          "type": "bytes"
        }
      ],
      "name": "safeTransferFrom",
      "outputs": [],
      "stateMutability": "nonpayable",
      "type": "function"
    },
    {
      "inputs": [
        {
          "internalType": "address",
          "name": "operator",
          "type": "address"
        },
        {
          "internalType": "bool",
          "name": "approved",
          "type": "bool"
        }
      ],
      "name": "setApprovalForAll",
      "outputs": [],
      "stateMutability": "nonpayable",
      "type": "function"
    },
    {
      "inputs": [
        {
          "internalType": "uint16",
          "name": "_chainId",
          "type": "uint16"
        },
        {
          "internalType": "bytes",
          "name": "_trustedRemote",
          "type": "bytes"
        }
      ],
      "name": "setTrustedRemote",
      "outputs": [],
      "stateMutability": "nonpayable",
      "type": "function"
    },
    {
      "inputs": [
        {
          "internalType": "address",
          "name": "_deposit",
          "type": "address"
        }
      ],
      "name": "setdepositAddress",
      "outputs": [],
      "stateMutability": "nonpayable",
      "type": "function"
    },
    {
      "inputs": [
        {
          "internalType": "uint256",
          "name": "newVal",
          "type": "uint256"
        }
      ],
      "name": "setgas",
      "outputs": [],
      "stateMutability": "nonpayable",
      "type": "function"
    },
    {
      "inputs": [
        {
          "internalType": "bytes4",
          "name": "interfaceId",
          "type": "bytes4"
        }
      ],
      "name": "supportsInterface",
      "outputs": [
        {
          "internalType": "bool",
          "name": "",
          "type": "bool"
        }
      ],
      "stateMutability": "view",
      "type": "function"
    },
    {
      "inputs": [],
      "name": "symbol",
      "outputs": [
        {
          "internalType": "string",
          "name": "",
          "type": "string"
        }
      ],
      "stateMutability": "view",
      "type": "function"
    },
    {
      "inputs": [
        {
          "internalType": "uint256",
          "name": "tokenId",
          "type": "uint256"
        }
      ],
      "name": "tokenURI",
      "outputs": [
        {
          "internalType": "string",
          "name": "",
          "type": "string"
        }
      ],
      "stateMutability": "view",
      "type": "function"
    },
    {
      "inputs": [
        {
          "internalType": "address",
          "name": "from",
          "type": "address"
        },
        {
          "internalType": "address",
          "name": "to",
          "type": "address"
        },
        {
          "internalType": "uint256",
          "name": "tokenId",
          "type": "uint256"
        }
      ],
      "name": "transferFrom",
      "outputs": [],
      "stateMutability": "nonpayable",
      "type": "function"
    },
    {
      "inputs": [
        {
          "internalType": "address",
          "name": "newOwner",
          "type": "address"
        }
      ],
      "name": "transferOwnership",
      "outputs": [],
      "stateMutability": "nonpayable",
      "type": "function"
    },
    {
      "inputs": [
        {
          "internalType": "uint16",
          "name": "",
          "type": "uint16"
        }
      ],
      "name": "trustedRemoteLookup",
      "outputs": [
        {
          "internalType": "bytes",
          "name": "",
          "type": "bytes"
        }
      ],
      "stateMutability": "view",
      "type": "function"
    }
  ],
  "bytecode": "0x608060405260646007556205573060085560006009556000600a556000601060006101000a81548160ff0219169083151502179055503480156200004257600080fd5b5060405162004ffe38038062004ffe833981810160405281019062000068919062000356565b6040518060400160405280600a81526020017f446f6d61696e4e616d65000000000000000000000000000000000000000000008152506040518060400160405280600a81526020017f446f6d61696e4e616d6500000000000000000000000000000000000000000000815250620000f4620000e86200017060201b60201c565b6200017860201b60201c565b81600190805190602001906200010c9291906200023c565b508060029080519060200190620001259291906200023c565b50505080600b60006101000a81548173ffffffffffffffffffffffffffffffffffffffff021916908373ffffffffffffffffffffffffffffffffffffffff16021790555050620003ed565b600033905090565b60008060009054906101000a900473ffffffffffffffffffffffffffffffffffffffff169050816000806101000a81548173ffffffffffffffffffffffffffffffffffffffff021916908373ffffffffffffffffffffffffffffffffffffffff1602179055508173ffffffffffffffffffffffffffffffffffffffff168173ffffffffffffffffffffffffffffffffffffffff167f8be0079c531659141344cd1fd0a4f28419497f9722a3daafe3b4186f6b6457e060405160405180910390a35050565b8280546200024a90620003b7565b90600052602060002090601f0160209004810192826200026e5760008555620002ba565b82601f106200028957805160ff1916838001178555620002ba565b82800160010185558215620002ba579182015b82811115620002b95782518255916020019190600101906200029c565b5b509050620002c99190620002cd565b5090565b5b80821115620002e8576000816000905550600101620002ce565b5090565b600080fd5b600073ffffffffffffffffffffffffffffffffffffffff82169050919050565b60006200031e82620002f1565b9050919050565b620003308162000311565b81146200033c57600080fd5b50565b600081519050620003508162000325565b92915050565b6000602082840312156200036f576200036e620002ec565b5b60006200037f848285016200033f565b91505092915050565b7f4e487b7100000000000000000000000000000000000000000000000000000000600052602260045260246000fd5b60006002820490506001821680620003d057607f821691505b60208210811415620003e757620003e662000388565b5b50919050565b614c0180620003fd6000396000f3fe6080604052600436106101f85760003560e01c80636bdfd3cc1161010d57806395d89b41116100a0578063d1deba1f1161006f578063d1deba1f1461076f578063d275f5e01461078b578063e985e9c5146107b7578063eb8d72b7146107f4578063f2fde38b1461081d576101f8565b806395d89b41146106b5578063a22cb465146106e0578063b88d4fde14610709578063c87b56dd14610732576101f8565b806384a7816e116100dc57806384a7816e146105e45780638da5cb5b146106215780638ee749121461064c578063919840ad1461068a576101f8565b80636bdfd3cc1461051657806370a0823114610553578063715018a6146105905780637533d788146105a7576101f8565b80632477ff011161019057806350cd4df21161015f57806350cd4df21461042a5780635e280f11146104555780635fe50e68146104805780636352211e1461049c5780636bca820e146104d9576101f8565b80632477ff0114610371578063383d81901461039a57806340a7bb10146103c357806342842e0e14610401576101f8565b8063095ea7b3116101cc578063095ea7b3146102cb57806311fc05cd146102f45780631c37a8221461031f57806323b872dd14610348576101f8565b80621d3567146101fd57806301ffc9a71461022657806306fdde0314610263578063081812fc1461028e575b600080fd5b34801561020957600080fd5b50610224600480360381019061021f9190612e36565b610846565b005b34801561023257600080fd5b5061024d60048036038101906102489190612f2d565b6109dd565b60405161025a9190612f75565b60405180910390f35b34801561026f57600080fd5b50610278610abf565b6040516102859190613018565b60405180910390f35b34801561029a57600080fd5b506102b560048036038101906102b09190613070565b610b51565b6040516102c291906130de565b60405180910390f35b3480156102d757600080fd5b506102f260048036038101906102ed9190613125565b610bd6565b005b34801561030057600080fd5b50610309610cee565b60405161031691906130de565b60405180910390f35b34801561032b57600080fd5b5061034660048036038101906103419190612e36565b610d18565b005b34801561035457600080fd5b5061036f600480360381019061036a9190613165565b610d98565b005b34801561037d57600080fd5b5061039860048036038101906103939190613070565b610df8565b005b3480156103a657600080fd5b506103c160048036038101906103bc91906131b8565b610e7e565b005b3480156103cf57600080fd5b506103ea60048036038101906103e59190613271565b610f3e565b6040516103f892919061333c565b60405180910390f35b34801561040d57600080fd5b5061042860048036038101906104239190613165565b611007565b005b34801561043657600080fd5b5061043f611027565b60405161044c9190612f75565b60405180910390f35b34801561046157600080fd5b5061046a61103a565b60405161047791906133c4565b60405180910390f35b61049a600480360381019061049591906133df565b611060565b005b3480156104a857600080fd5b506104c360048036038101906104be9190613070565b6113aa565b6040516104d091906130de565b60405180910390f35b3480156104e557600080fd5b5061050060048036038101906104fb9190613453565b61145c565b60405161050d9190612f75565b60405180910390f35b34801561052257600080fd5b5061053d600480360381019061053891906134d6565b61148f565b60405161054a9190613523565b60405180910390f35b34801561055f57600080fd5b5061057a600480360381019061057591906131b8565b6114b4565b6040516105879190613523565b60405180910390f35b34801561059c57600080fd5b506105a561156c565b005b3480156105b357600080fd5b506105ce60048036038101906105c9919061353e565b6115f4565b6040516105db91906135c0565b60405180910390f35b3480156105f057600080fd5b5061060b600480360381019061060691906135e2565b611694565b6040516106189190613523565b60405180910390f35b34801561062d57600080fd5b506106366117ae565b60405161064391906130de565b60405180910390f35b34801561065857600080fd5b50610673600480360381019061066e9190613622565b6117d7565b6040516106819291906136aa565b60405180910390f35b34801561069657600080fd5b5061069f61182b565b6040516106ac9190612f75565b60405180910390f35b3480156106c157600080fd5b506106ca611842565b6040516106d79190613018565b60405180910390f35b3480156106ec57600080fd5b50610707600480360381019061070291906136d3565b6118d4565b005b34801561071557600080fd5b50610730600480360381019061072b9190613713565b6118ea565b005b34801561073e57600080fd5b5061075960048036038101906107549190613070565b61194c565b6040516107669190613018565b60405180910390f35b61078960048036038101906107849190613796565b6119f3565b005b34801561079757600080fd5b506107a0611b93565b6040516107ae92919061333c565b60405180910390f35b3480156107c357600080fd5b506107de60048036038101906107d9919061383a565b611ba4565b6040516107eb9190612f75565b60405180910390f35b34801561080057600080fd5b5061081b6004803603810190610816919061387a565b611c38565b005b34801561082957600080fd5b50610844600480360381019061083f91906131b8565b611ce4565b005b600b60009054906101000a900473ffffffffffffffffffffffffffffffffffffffff1673ffffffffffffffffffffffffffffffffffffffff163373ffffffffffffffffffffffffffffffffffffffff16146108a057600080fd5b3073ffffffffffffffffffffffffffffffffffffffff16631c37a822858585856040518563ffffffff1660e01b81526004016108df94939291906138f8565b600060405180830381600087803b1580156108f957600080fd5b505af192505050801561090a575060015b6109d6576040518060400160405280825181526020018280519060200120815250600e60008661ffff1661ffff168152602001908152602001600020846040516109549190613987565b908152602001604051809103902060008467ffffffffffffffff16815260200190815260200160002060008201518160000155602082015181600101559050507fe6f254030bcb01ffd20558175c13fcaed6d1520be7becee4c961b65f79243b0d848484846040516109c994939291906138f8565b60405180910390a16109d7565b5b50505050565b60007f80ac58cd000000000000000000000000000000000000000000000000000000007bffffffffffffffffffffffffffffffffffffffffffffffffffffffff1916827bffffffffffffffffffffffffffffffffffffffffffffffffffffffff19161480610aa857507f5b5e139f000000000000000000000000000000000000000000000000000000007bffffffffffffffffffffffffffffffffffffffffffffffffffffffff1916827bffffffffffffffffffffffffffffffffffffffffffffffffffffffff1916145b80610ab85750610ab782611ddc565b5b9050919050565b606060018054610ace906139cd565b80601f0160208091040260200160405190810160405280929190818152602001828054610afa906139cd565b8015610b475780601f10610b1c57610100808354040283529160200191610b47565b820191906000526020600020905b815481529060010190602001808311610b2a57829003601f168201915b5050505050905090565b6000610b5c82611e46565b610b9b576040517f08c379a0000000000000000000000000000000000000000000000000000000008152600401610b9290613a71565b60405180910390fd5b6005600083815260200190815260200160002060009054906101000a900473ffffffffffffffffffffffffffffffffffffffff169050919050565b6000610be1826113aa565b90508073ffffffffffffffffffffffffffffffffffffffff168373ffffffffffffffffffffffffffffffffffffffff161415610c52576040517f08c379a0000000000000000000000000000000000000000000000000000000008152600401610c4990613b03565b60405180910390fd5b8073ffffffffffffffffffffffffffffffffffffffff16610c71611eb2565b73ffffffffffffffffffffffffffffffffffffffff161480610ca05750610c9f81610c9a611eb2565b611ba4565b5b610cdf576040517f08c379a0000000000000000000000000000000000000000000000000000000008152600401610cd690613b95565b60405180910390fd5b610ce98383611eba565b505050565b6000600c60009054906101000a900473ffffffffffffffffffffffffffffffffffffffff16905090565b3073ffffffffffffffffffffffffffffffffffffffff163373ffffffffffffffffffffffffffffffffffffffff1614610d86576040517f08c379a0000000000000000000000000000000000000000000000000000000008152600401610d7d90613c27565b60405180910390fd5b610d9284848484611f73565b50505050565b610da9610da3611eb2565b826120d7565b610de8576040517f08c379a0000000000000000000000000000000000000000000000000000000008152600401610ddf90613cb9565b60405180910390fd5b610df38383836121b5565b505050565b610e00611eb2565b73ffffffffffffffffffffffffffffffffffffffff16610e1e6117ae565b73ffffffffffffffffffffffffffffffffffffffff1614610e74576040517f08c379a0000000000000000000000000000000000000000000000000000000008152600401610e6b90613d25565b60405180910390fd5b8060088190555050565b610e86611eb2565b73ffffffffffffffffffffffffffffffffffffffff16610ea46117ae565b73ffffffffffffffffffffffffffffffffffffffff1614610efa576040517f08c379a0000000000000000000000000000000000000000000000000000000008152600401610ef190613d25565b60405180910390fd5b80600c60006101000a81548173ffffffffffffffffffffffffffffffffffffffff021916908373ffffffffffffffffffffffffffffffffffffffff16021790555050565b600080600b60009054906101000a900473ffffffffffffffffffffffffffffffffffffffff1673ffffffffffffffffffffffffffffffffffffffff166340a7bb108a8a8a8a8a8a8a6040518863ffffffff1660e01b8152600401610fa89796959493929190613d72565b604080518083038186803b158015610fbf57600080fd5b505afa158015610fd3573d6000803e3d6000fd5b505050506040513d601f19601f82011682018060405250810190610ff79190613dec565b9150915097509795505050505050565b611022838383604051806020016040528060008152506118ea565b505050565b601060009054906101000a900460ff1681565b600b60009054906101000a900473ffffffffffffffffffffffffffffffffffffffff1681565b611069816113aa565b73ffffffffffffffffffffffffffffffffffffffff163373ffffffffffffffffffffffffffffffffffffffff16146110d6576040517f08c379a00000000000000000000000000000000000000000000000000000000081526004016110cd90613e78565b60405180910390fd5b60006110e1826113aa565b905061111033600c60009054906101000a900473ffffffffffffffffffffffffffffffffffffffff1684610d98565b600c60009054906101000a900473ffffffffffffffffffffffffffffffffffffffff1673ffffffffffffffffffffffffffffffffffffffff1663b6b55f25836040518263ffffffff1660e01b815260040161116b9190613523565b600060405180830381600087803b15801561118557600080fd5b505af1158015611199573d6000803e3d6000fd5b50505050600081836040516020016111b2929190613e98565b60405160208183030381529060405290506000600190506000816008546040516020016111e0929190613f18565b60405160208183030381529060405290506000600b60009054906101000a900473ffffffffffffffffffffffffffffffffffffffff1673ffffffffffffffffffffffffffffffffffffffff166340a7bb108a30876000876040518663ffffffff1660e01b8152600401611257959493929190613f44565b604080518083038186803b15801561126e57600080fd5b505afa158015611282573d6000803e3d6000fd5b505050506040513d601f19601f820116820180604052508101906112a69190613dec565b509050803410156112ec576040517f08c379a00000000000000000000000000000000000000000000000000000000081526004016112e390614017565b60405180910390fd5b600b60009054906101000a900473ffffffffffffffffffffffffffffffffffffffff1673ffffffffffffffffffffffffffffffffffffffff1663c5803100348b8b8b893360008a6040518963ffffffff1660e01b81526004016113559796959493929190614058565b6000604051808303818588803b15801561136e57600080fd5b505af1158015611382573d6000803e3d6000fd5b50505050506009600081548092919061139a906140ff565b9190505550505050505050505050565b6000806003600084815260200190815260200160002060009054906101000a900473ffffffffffffffffffffffffffffffffffffffff169050600073ffffffffffffffffffffffffffffffffffffffff168173ffffffffffffffffffffffffffffffffffffffff161415611453576040517f08c379a000000000000000000000000000000000000000000000000000000000815260040161144a906141ba565b60405180910390fd5b80915050919050565b600081601060006101000a81548160ff021916908315150217905550601060009054906101000a900460ff169050919050565b600082826040516114a19291906141ff565b604051809103902060001c905092915050565b60008073ffffffffffffffffffffffffffffffffffffffff168273ffffffffffffffffffffffffffffffffffffffff161415611525576040517f08c379a000000000000000000000000000000000000000000000000000000000815260040161151c9061428a565b60405180910390fd5b600460008373ffffffffffffffffffffffffffffffffffffffff1673ffffffffffffffffffffffffffffffffffffffff168152602001908152602001600020549050919050565b611574611eb2565b73ffffffffffffffffffffffffffffffffffffffff166115926117ae565b73ffffffffffffffffffffffffffffffffffffffff16146115e8576040517f08c379a00000000000000000000000000000000000000000000000000000000081526004016115df90613d25565b60405180910390fd5b6115f2600061241c565b565b600f6020528060005260406000206000915090508054611613906139cd565b80601f016020809104026020016040519081016040528092919081815260200182805461163f906139cd565b801561168c5780601f106116615761010080835404028352916020019161168c565b820191906000526020600020905b81548152906001019060200180831161166f57829003601f168201915b505050505081565b60008033836040516020016116aa929190613e98565b60405160208183030381529060405290506000600190506000816008546040516020016116d8929190613f18565b60405160208183030381529060405290506000600b60009054906101000a900473ffffffffffffffffffffffffffffffffffffffff1673ffffffffffffffffffffffffffffffffffffffff166340a7bb108830876000876040518663ffffffff1660e01b815260040161174f959493929190613f44565b604080518083038186803b15801561176657600080fd5b505afa15801561177a573d6000803e3d6000fd5b505050506040513d601f19601f8201168201806040525081019061179e9190613dec565b5090508094505050505092915050565b60008060009054906101000a900473ffffffffffffffffffffffffffffffffffffffff16905090565b600e6020528260005260406000208280516020810182018051848252602083016020850120818352809550505050505060205280600052604060002060009250925050508060000154908060010154905082565b6000601060009054906101000a900460ff16905090565b606060028054611851906139cd565b80601f016020809104026020016040519081016040528092919081815260200182805461187d906139cd565b80156118ca5780601f1061189f576101008083540402835291602001916118ca565b820191906000526020600020905b8154815290600101906020018083116118ad57829003601f168201915b5050505050905090565b6118e66118df611eb2565b83836124e0565b5050565b6118fb6118f5611eb2565b836120d7565b61193a576040517f08c379a000000000000000000000000000000000000000000000000000000000815260040161193190613cb9565b60405180910390fd5b6119468484848461264d565b50505050565b606061195782611e46565b611996576040517f08c379a000000000000000000000000000000000000000000000000000000000815260040161198d9061431c565b60405180910390fd5b60006119a06126a9565b905060008151116119c057604051806020016040528060008152506119eb565b806119ca846126c0565b6040516020016119db929190614378565b6040516020818303038152906040525b915050919050565b6000600e60008761ffff1661ffff16815260200190815260200160002085604051611a1e9190613987565b908152602001604051809103902060008567ffffffffffffffff16815260200190815260200160002090506000801b81600101541415611a93576040517f08c379a0000000000000000000000000000000000000000000000000000000008152600401611a8a9061440e565b60405180910390fd5b806000015483839050148015611ac3575080600101548383604051611ab99291906141ff565b6040518091039020145b611b02576040517f08c379a0000000000000000000000000000000000000000000000000000000008152600401611af99061447a565b60405180910390fd5b600081600001819055506000801b81600101819055503073ffffffffffffffffffffffffffffffffffffffff16631c37a82287878787876040518663ffffffff1660e01b8152600401611b5995949392919061449a565b600060405180830381600087803b158015611b7357600080fd5b505af1158015611b87573d6000803e3d6000fd5b50505050505050505050565b600080600954600a54915091509091565b6000600660008473ffffffffffffffffffffffffffffffffffffffff1673ffffffffffffffffffffffffffffffffffffffff16815260200190815260200160002060008373ffffffffffffffffffffffffffffffffffffffff1673ffffffffffffffffffffffffffffffffffffffff16815260200190815260200160002060009054906101000a900460ff16905092915050565b611c40611eb2565b73ffffffffffffffffffffffffffffffffffffffff16611c5e6117ae565b73ffffffffffffffffffffffffffffffffffffffff1614611cb4576040517f08c379a0000000000000000000000000000000000000000000000000000000008152600401611cab90613d25565b60405180910390fd5b8181600f60008661ffff1661ffff1681526020019081526020016000209190611cde929190612bbf565b50505050565b611cec611eb2565b73ffffffffffffffffffffffffffffffffffffffff16611d0a6117ae565b73ffffffffffffffffffffffffffffffffffffffff1614611d60576040517f08c379a0000000000000000000000000000000000000000000000000000000008152600401611d5790613d25565b60405180910390fd5b600073ffffffffffffffffffffffffffffffffffffffff168173ffffffffffffffffffffffffffffffffffffffff161415611dd0576040517f08c379a0000000000000000000000000000000000000000000000000000000008152600401611dc790614561565b60405180910390fd5b611dd98161241c565b50565b60007f01ffc9a7000000000000000000000000000000000000000000000000000000007bffffffffffffffffffffffffffffffffffffffffffffffffffffffff1916827bffffffffffffffffffffffffffffffffffffffffffffffffffffffff1916149050919050565b60008073ffffffffffffffffffffffffffffffffffffffff166003600084815260200190815260200160002060009054906101000a900473ffffffffffffffffffffffffffffffffffffffff1673ffffffffffffffffffffffffffffffffffffffff1614159050919050565b600033905090565b816005600083815260200190815260200160002060006101000a81548173ffffffffffffffffffffffffffffffffffffffff021916908373ffffffffffffffffffffffffffffffffffffffff160217905550808273ffffffffffffffffffffffffffffffffffffffff16611f2d836113aa565b73ffffffffffffffffffffffffffffffffffffffff167f8c5be1e5ebec7d5bd14f71427d1e84f3dd0314c0f7b2291e5b200ac8c7c3b92560405160405180910390a45050565b600060148401519050600080600084806020019051810190611f9591906145ad565b9250925092506001601060006101000a81548160ff02191690831515021790555080600d600084815260200190815260200160002081905550611fd782611e46565b1561206f57600c60009054906101000a900473ffffffffffffffffffffffffffffffffffffffff1673ffffffffffffffffffffffffffffffffffffffff1662f714ce83856040518363ffffffff1660e01b8152600401612038929190614600565b600060405180830381600087803b15801561205257600080fd5b505af1158015612066573d6000803e3d6000fd5b5050505061207a565b6120798383612821565b5b600a600081548092919061208d906140ff565b91905055507fb2fc0605d8092337433832abc79c17edd73790ce82bcd45e4ac4843f3aae82398885876040516120c593929190614629565b60405180910390a15050505050505050565b60006120e282611e46565b612121576040517f08c379a0000000000000000000000000000000000000000000000000000000008152600401612118906146d9565b60405180910390fd5b600061212c836113aa565b90508073ffffffffffffffffffffffffffffffffffffffff168473ffffffffffffffffffffffffffffffffffffffff16148061216e575061216d8185611ba4565b5b806121ac57508373ffffffffffffffffffffffffffffffffffffffff1661219484610b51565b73ffffffffffffffffffffffffffffffffffffffff16145b91505092915050565b8273ffffffffffffffffffffffffffffffffffffffff166121d5826113aa565b73ffffffffffffffffffffffffffffffffffffffff161461222b576040517f08c379a00000000000000000000000000000000000000000000000000000000081526004016122229061476b565b60405180910390fd5b600073ffffffffffffffffffffffffffffffffffffffff168273ffffffffffffffffffffffffffffffffffffffff16141561229b576040517f08c379a0000000000000000000000000000000000000000000000000000000008152600401612292906147fd565b60405180910390fd5b6122a68383836129fb565b6122b1600082611eba565b6001600460008573ffffffffffffffffffffffffffffffffffffffff1673ffffffffffffffffffffffffffffffffffffffff1681526020019081526020016000206000828254612301919061481d565b925050819055506001600460008473ffffffffffffffffffffffffffffffffffffffff1673ffffffffffffffffffffffffffffffffffffffff16815260200190815260200160002060008282546123589190614851565b92505081905550816003600083815260200190815260200160002060006101000a81548173ffffffffffffffffffffffffffffffffffffffff021916908373ffffffffffffffffffffffffffffffffffffffff160217905550808273ffffffffffffffffffffffffffffffffffffffff168473ffffffffffffffffffffffffffffffffffffffff167fddf252ad1be2c89b69c2b068fc378daa952ba7f163c4a11628f55a4df523b3ef60405160405180910390a4612417838383612a00565b505050565b60008060009054906101000a900473ffffffffffffffffffffffffffffffffffffffff169050816000806101000a81548173ffffffffffffffffffffffffffffffffffffffff021916908373ffffffffffffffffffffffffffffffffffffffff1602179055508173ffffffffffffffffffffffffffffffffffffffff168173ffffffffffffffffffffffffffffffffffffffff167f8be0079c531659141344cd1fd0a4f28419497f9722a3daafe3b4186f6b6457e060405160405180910390a35050565b8173ffffffffffffffffffffffffffffffffffffffff168373ffffffffffffffffffffffffffffffffffffffff16141561254f576040517f08c379a0000000000000000000000000000000000000000000000000000000008152600401612546906148f3565b60405180910390fd5b80600660008573ffffffffffffffffffffffffffffffffffffffff1673ffffffffffffffffffffffffffffffffffffffff16815260200190815260200160002060008473ffffffffffffffffffffffffffffffffffffffff1673ffffffffffffffffffffffffffffffffffffffff16815260200190815260200160002060006101000a81548160ff0219169083151502179055508173ffffffffffffffffffffffffffffffffffffffff168373ffffffffffffffffffffffffffffffffffffffff167f17307eab39ab6107e8899845ad3d59bd9653f200f220920489ca2b5937696c31836040516126409190612f75565b60405180910390a3505050565b6126588484846121b5565b61266484848484612a05565b6126a3576040517f08c379a000000000000000000000000000000000000000000000000000000000815260040161269a90614985565b60405180910390fd5b50505050565b606060405180602001604052806000815250905090565b60606000821415612708576040518060400160405280600181526020017f3000000000000000000000000000000000000000000000000000000000000000815250905061281c565b600082905060005b6000821461273a578080612723906140ff565b915050600a8261273391906149d4565b9150612710565b60008167ffffffffffffffff81111561275657612755612ccb565b5b6040519080825280601f01601f1916602001820160405280156127885781602001600182028036833780820191505090505b5090505b60008514612815576001826127a1919061481d565b9150600a856127b09190614a05565b60306127bc9190614851565b60f81b8183815181106127d2576127d1614a36565b5b60200101907effffffffffffffffffffffffffffffffffffffffffffffffffffffffffffff1916908160001a905350600a8561280e91906149d4565b945061278c565b8093505050505b919050565b600073ffffffffffffffffffffffffffffffffffffffff168273ffffffffffffffffffffffffffffffffffffffff161415612891576040517f08c379a000000000000000000000000000000000000000000000000000000000815260040161288890614ab1565b60405180910390fd5b61289a81611e46565b156128da576040517f08c379a00000000000000000000000000000000000000000000000000000000081526004016128d190614b1d565b60405180910390fd5b6128e6600083836129fb565b6001600460008473ffffffffffffffffffffffffffffffffffffffff1673ffffffffffffffffffffffffffffffffffffffff16815260200190815260200160002060008282546129369190614851565b92505081905550816003600083815260200190815260200160002060006101000a81548173ffffffffffffffffffffffffffffffffffffffff021916908373ffffffffffffffffffffffffffffffffffffffff160217905550808273ffffffffffffffffffffffffffffffffffffffff16600073ffffffffffffffffffffffffffffffffffffffff167fddf252ad1be2c89b69c2b068fc378daa952ba7f163c4a11628f55a4df523b3ef60405160405180910390a46129f760008383612a00565b5050565b505050565b505050565b6000612a268473ffffffffffffffffffffffffffffffffffffffff16612b9c565b15612b8f578373ffffffffffffffffffffffffffffffffffffffff1663150b7a02612a4f611eb2565b8786866040518563ffffffff1660e01b8152600401612a719493929190614b3d565b602060405180830381600087803b158015612a8b57600080fd5b505af1925050508015612abc57506040513d601f19601f82011682018060405250810190612ab99190614b9e565b60015b612b3f573d8060008114612aec576040519150601f19603f3d011682016040523d82523d6000602084013e612af1565b606091505b50600081511415612b37576040517f08c379a0000000000000000000000000000000000000000000000000000000008152600401612b2e90614985565b60405180910390fd5b805181602001fd5b63150b7a0260e01b7bffffffffffffffffffffffffffffffffffffffffffffffffffffffff1916817bffffffffffffffffffffffffffffffffffffffffffffffffffffffff191614915050612b94565b600190505b949350505050565b6000808273ffffffffffffffffffffffffffffffffffffffff163b119050919050565b828054612bcb906139cd565b90600052602060002090601f016020900481019282612bed5760008555612c34565b82601f10612c0657803560ff1916838001178555612c34565b82800160010185558215612c34579182015b82811115612c33578235825591602001919060010190612c18565b5b509050612c419190612c45565b5090565b5b80821115612c5e576000816000905550600101612c46565b5090565b6000604051905090565b600080fd5b600080fd5b600061ffff82169050919050565b612c8d81612c76565b8114612c9857600080fd5b50565b600081359050612caa81612c84565b92915050565b600080fd5b600080fd5b6000601f19601f8301169050919050565b7f4e487b7100000000000000000000000000000000000000000000000000000000600052604160045260246000fd5b612d0382612cba565b810181811067ffffffffffffffff82111715612d2257612d21612ccb565b5b80604052505050565b6000612d35612c62565b9050612d418282612cfa565b919050565b600067ffffffffffffffff821115612d6157612d60612ccb565b5b612d6a82612cba565b9050602081019050919050565b82818337600083830152505050565b6000612d99612d9484612d46565b612d2b565b905082815260208101848484011115612db557612db4612cb5565b5b612dc0848285612d77565b509392505050565b600082601f830112612ddd57612ddc612cb0565b5b8135612ded848260208601612d86565b91505092915050565b600067ffffffffffffffff82169050919050565b612e1381612df6565b8114612e1e57600080fd5b50565b600081359050612e3081612e0a565b92915050565b60008060008060808587031215612e5057612e4f612c6c565b5b6000612e5e87828801612c9b565b945050602085013567ffffffffffffffff811115612e7f57612e7e612c71565b5b612e8b87828801612dc8565b9350506040612e9c87828801612e21565b925050606085013567ffffffffffffffff811115612ebd57612ebc612c71565b5b612ec987828801612dc8565b91505092959194509250565b60007fffffffff0000000000000000000000000000000000000000000000000000000082169050919050565b612f0a81612ed5565b8114612f1557600080fd5b50565b600081359050612f2781612f01565b92915050565b600060208284031215612f4357612f42612c6c565b5b6000612f5184828501612f18565b91505092915050565b60008115159050919050565b612f6f81612f5a565b82525050565b6000602082019050612f8a6000830184612f66565b92915050565b600081519050919050565b600082825260208201905092915050565b60005b83811015612fca578082015181840152602081019050612faf565b83811115612fd9576000848401525b50505050565b6000612fea82612f90565b612ff48185612f9b565b9350613004818560208601612fac565b61300d81612cba565b840191505092915050565b600060208201905081810360008301526130328184612fdf565b905092915050565b6000819050919050565b61304d8161303a565b811461305857600080fd5b50565b60008135905061306a81613044565b92915050565b60006020828403121561308657613085612c6c565b5b60006130948482850161305b565b91505092915050565b600073ffffffffffffffffffffffffffffffffffffffff82169050919050565b60006130c88261309d565b9050919050565b6130d8816130bd565b82525050565b60006020820190506130f360008301846130cf565b92915050565b613102816130bd565b811461310d57600080fd5b50565b60008135905061311f816130f9565b92915050565b6000806040838503121561313c5761313b612c6c565b5b600061314a85828601613110565b925050602061315b8582860161305b565b9150509250929050565b60008060006060848603121561317e5761317d612c6c565b5b600061318c86828701613110565b935050602061319d86828701613110565b92505060406131ae8682870161305b565b9150509250925092565b6000602082840312156131ce576131cd612c6c565b5b60006131dc84828501613110565b91505092915050565b600080fd5b600080fd5b60008083601f84011261320557613204612cb0565b5b8235905067ffffffffffffffff811115613222576132216131e5565b5b60208301915083600182028301111561323e5761323d6131ea565b5b9250929050565b61324e81612f5a565b811461325957600080fd5b50565b60008135905061326b81613245565b92915050565b600080600080600080600060a0888a0312156132905761328f612c6c565b5b600061329e8a828b01612c9b565b97505060206132af8a828b01613110565b965050604088013567ffffffffffffffff8111156132d0576132cf612c71565b5b6132dc8a828b016131ef565b955095505060606132ef8a828b0161325c565b935050608088013567ffffffffffffffff8111156133105761330f612c71565b5b61331c8a828b016131ef565b925092505092959891949750929550565b6133368161303a565b82525050565b6000604082019050613351600083018561332d565b61335e602083018461332d565b9392505050565b6000819050919050565b600061338a6133856133808461309d565b613365565b61309d565b9050919050565b600061339c8261336f565b9050919050565b60006133ae82613391565b9050919050565b6133be816133a3565b82525050565b60006020820190506133d960008301846133b5565b92915050565b600080600080606085870312156133f9576133f8612c6c565b5b600061340787828801612c9b565b945050602085013567ffffffffffffffff81111561342857613427612c71565b5b613434878288016131ef565b935093505060406134478782880161305b565b91505092959194509250565b60006020828403121561346957613468612c6c565b5b60006134778482850161325c565b91505092915050565b60008083601f84011261349657613495612cb0565b5b8235905067ffffffffffffffff8111156134b3576134b26131e5565b5b6020830191508360018202830111156134cf576134ce6131ea565b5b9250929050565b600080602083850312156134ed576134ec612c6c565b5b600083013567ffffffffffffffff81111561350b5761350a612c71565b5b61351785828601613480565b92509250509250929050565b6000602082019050613538600083018461332d565b92915050565b60006020828403121561355457613553612c6c565b5b600061356284828501612c9b565b91505092915050565b600081519050919050565b600082825260208201905092915050565b60006135928261356b565b61359c8185613576565b93506135ac818560208601612fac565b6135b581612cba565b840191505092915050565b600060208201905081810360008301526135da8184613587565b905092915050565b600080604083850312156135f9576135f8612c6c565b5b600061360785828601612c9b565b92505060206136188582860161305b565b9150509250929050565b60008060006060848603121561363b5761363a612c6c565b5b600061364986828701612c9b565b935050602084013567ffffffffffffffff81111561366a57613669612c71565b5b61367686828701612dc8565b92505060406136878682870161305b565b9150509250925092565b6000819050919050565b6136a481613691565b82525050565b60006040820190506136bf600083018561332d565b6136cc602083018461369b565b9392505050565b600080604083850312156136ea576136e9612c6c565b5b60006136f885828601613110565b92505060206137098582860161325c565b9150509250929050565b6000806000806080858703121561372d5761372c612c6c565b5b600061373b87828801613110565b945050602061374c87828801613110565b935050604061375d8782880161305b565b925050606085013567ffffffffffffffff81111561377e5761377d612c71565b5b61378a87828801612dc8565b91505092959194509250565b6000806000806000608086880312156137b2576137b1612c6c565b5b60006137c088828901612c9b565b955050602086013567ffffffffffffffff8111156137e1576137e0612c71565b5b6137ed88828901612dc8565b94505060406137fe88828901612e21565b935050606086013567ffffffffffffffff81111561381f5761381e612c71565b5b61382b888289016131ef565b92509250509295509295909350565b6000806040838503121561385157613850612c6c565b5b600061385f85828601613110565b925050602061387085828601613110565b9150509250929050565b60008060006040848603121561389357613892612c6c565b5b60006138a186828701612c9b565b935050602084013567ffffffffffffffff8111156138c2576138c1612c71565b5b6138ce868287016131ef565b92509250509250925092565b6138e381612c76565b82525050565b6138f281612df6565b82525050565b600060808201905061390d60008301876138da565b818103602083015261391f8186613587565b905061392e60408301856138e9565b81810360608301526139408184613587565b905095945050505050565b600081905092915050565b60006139618261356b565b61396b818561394b565b935061397b818560208601612fac565b80840191505092915050565b60006139938284613956565b915081905092915050565b7f4e487b7100000000000000000000000000000000000000000000000000000000600052602260045260246000fd5b600060028204905060018216806139e557607f821691505b602082108114156139f9576139f861399e565b5b50919050565b7f4552433732313a20617070726f76656420717565727920666f72206e6f6e657860008201527f697374656e7420746f6b656e0000000000000000000000000000000000000000602082015250565b6000613a5b602c83612f9b565b9150613a66826139ff565b604082019050919050565b60006020820190508181036000830152613a8a81613a4e565b9050919050565b7f4552433732313a20617070726f76616c20746f2063757272656e74206f776e6560008201527f7200000000000000000000000000000000000000000000000000000000000000602082015250565b6000613aed602183612f9b565b9150613af882613a91565b604082019050919050565b60006020820190508181036000830152613b1c81613ae0565b9050919050565b7f4552433732313a20617070726f76652063616c6c6572206973206e6f74206f7760008201527f6e6572206e6f7220617070726f76656420666f7220616c6c0000000000000000602082015250565b6000613b7f603883612f9b565b9150613b8a82613b23565b604082019050919050565b60006020820190508181036000830152613bae81613b72565b9050919050565b7f4e6f6e626c6f636b696e6752656365697665723a2063616c6c6572206d75737460008201527f206265204272696467652e000000000000000000000000000000000000000000602082015250565b6000613c11602b83612f9b565b9150613c1c82613bb5565b604082019050919050565b60006020820190508181036000830152613c4081613c04565b9050919050565b7f4552433732313a207472616e736665722063616c6c6572206973206e6f74206f60008201527f776e6572206e6f7220617070726f766564000000000000000000000000000000602082015250565b6000613ca3603183612f9b565b9150613cae82613c47565b604082019050919050565b60006020820190508181036000830152613cd281613c96565b9050919050565b7f4f776e61626c653a2063616c6c6572206973206e6f7420746865206f776e6572600082015250565b6000613d0f602083612f9b565b9150613d1a82613cd9565b602082019050919050565b60006020820190508181036000830152613d3e81613d02565b9050919050565b6000613d518385613576565b9350613d5e838584612d77565b613d6783612cba565b840190509392505050565b600060a082019050613d87600083018a6138da565b613d9460208301896130cf565b8181036040830152613da7818789613d45565b9050613db66060830186612f66565b8181036080830152613dc9818486613d45565b905098975050505050505050565b600081519050613de681613044565b92915050565b60008060408385031215613e0357613e02612c6c565b5b6000613e1185828601613dd7565b9250506020613e2285828601613dd7565b9150509250929050565b7f4e6f7420746865206f776e657200000000000000000000000000000000000000600082015250565b6000613e62600d83612f9b565b9150613e6d82613e2c565b602082019050919050565b60006020820190508181036000830152613e9181613e55565b9050919050565b6000604082019050613ead60008301856130cf565b613eba602083018461332d565b9392505050565b60008160f01b9050919050565b6000613ed982613ec1565b9050919050565b613ef1613eec82612c76565b613ece565b82525050565b6000819050919050565b613f12613f0d8261303a565b613ef7565b82525050565b6000613f248285613ee0565b600282019150613f348284613f01565b6020820191508190509392505050565b600060a082019050613f5960008301886138da565b613f6660208301876130cf565b8181036040830152613f788186613587565b9050613f876060830185612f66565b8181036080830152613f998184613587565b90509695505050505050565b7f4d7573742073656e6420656e6f7567682076616c756520746f20636f7665722060008201527f6d65737361676546656500000000000000000000000000000000000000000000602082015250565b6000614001602a83612f9b565b915061400c82613fa5565b604082019050919050565b6000602082019050818103600083015261403081613ff4565b9050919050565b60006140428261309d565b9050919050565b61405281614037565b82525050565b600060c08201905061406d600083018a6138da565b818103602083015261408081888a613d45565b905081810360408301526140948187613587565b90506140a36060830186614049565b6140b060808301856130cf565b81810360a08301526140c28184613587565b905098975050505050505050565b7f4e487b7100000000000000000000000000000000000000000000000000000000600052601160045260246000fd5b600061410a8261303a565b91507fffffffffffffffffffffffffffffffffffffffffffffffffffffffffffffffff82141561413d5761413c6140d0565b5b600182019050919050565b7f4552433732313a206f776e657220717565727920666f72206e6f6e657869737460008201527f656e7420746f6b656e0000000000000000000000000000000000000000000000602082015250565b60006141a4602983612f9b565b91506141af82614148565b604082019050919050565b600060208201905081810360008301526141d381614197565b9050919050565b60006141e6838561394b565b93506141f3838584612d77565b82840190509392505050565b600061420c8284866141da565b91508190509392505050565b7f4552433732313a2062616c616e636520717565727920666f7220746865207a6560008201527f726f206164647265737300000000000000000000000000000000000000000000602082015250565b6000614274602a83612f9b565b915061427f82614218565b604082019050919050565b600060208201905081810360008301526142a381614267565b9050919050565b7f4552433732314d657461646174613a2055524920717565727920666f72206e6f60008201527f6e6578697374656e7420746f6b656e0000000000000000000000000000000000602082015250565b6000614306602f83612f9b565b9150614311826142aa565b604082019050919050565b60006020820190508181036000830152614335816142f9565b9050919050565b600081905092915050565b600061435282612f90565b61435c818561433c565b935061436c818560208601612fac565b80840191505092915050565b60006143848285614347565b91506143908284614347565b91508190509392505050565b7f4e6f6e626c6f636b696e6752656365697665723a206e6f2073746f726564206d60008201527f6573736167650000000000000000000000000000000000000000000000000000602082015250565b60006143f8602683612f9b565b91506144038261439c565b604082019050919050565b60006020820190508181036000830152614427816143eb565b9050919050565b7f4c617965725a65726f3a20696e76616c6964207061796c6f6164000000000000600082015250565b6000614464601a83612f9b565b915061446f8261442e565b602082019050919050565b6000602082019050818103600083015261449381614457565b9050919050565b60006080820190506144af60008301886138da565b81810360208301526144c18187613587565b90506144d060408301866138e9565b81810360608301526144e3818486613d45565b90509695505050505050565b7f4f776e61626c653a206e6577206f776e657220697320746865207a65726f206160008201527f6464726573730000000000000000000000000000000000000000000000000000602082015250565b600061454b602683612f9b565b9150614556826144ef565b604082019050919050565b6000602082019050818103600083015261457a8161453e565b9050919050565b61458a81614037565b811461459557600080fd5b50565b6000815190506145a781614581565b92915050565b6000806000606084860312156145c6576145c5612c6c565b5b60006145d486828701614598565b93505060206145e586828701613dd7565b92505060406145f686828701613dd7565b9150509250925092565b6000604082019050614615600083018561332d565b61462260208301846130cf565b9392505050565b600060608201905061463e60008301866138da565b61464b60208301856130cf565b818103604083015261465d8184613587565b9050949350505050565b7f4552433732313a206f70657261746f7220717565727920666f72206e6f6e657860008201527f697374656e7420746f6b656e0000000000000000000000000000000000000000602082015250565b60006146c3602c83612f9b565b91506146ce82614667565b604082019050919050565b600060208201905081810360008301526146f2816146b6565b9050919050565b7f4552433732313a207472616e736665722066726f6d20696e636f72726563742060008201527f6f776e6572000000000000000000000000000000000000000000000000000000602082015250565b6000614755602583612f9b565b9150614760826146f9565b604082019050919050565b6000602082019050818103600083015261478481614748565b9050919050565b7f4552433732313a207472616e7366657220746f20746865207a65726f2061646460008201527f7265737300000000000000000000000000000000000000000000000000000000602082015250565b60006147e7602483612f9b565b91506147f28261478b565b604082019050919050565b60006020820190508181036000830152614816816147da565b9050919050565b60006148288261303a565b91506148338361303a565b925082821015614846576148456140d0565b5b828203905092915050565b600061485c8261303a565b91506148678361303a565b9250827fffffffffffffffffffffffffffffffffffffffffffffffffffffffffffffffff0382111561489c5761489b6140d0565b5b828201905092915050565b7f4552433732313a20617070726f766520746f2063616c6c657200000000000000600082015250565b60006148dd601983612f9b565b91506148e8826148a7565b602082019050919050565b6000602082019050818103600083015261490c816148d0565b9050919050565b7f4552433732313a207472616e7366657220746f206e6f6e20455243373231526560008201527f63656976657220696d706c656d656e7465720000000000000000000000000000602082015250565b600061496f603283612f9b565b915061497a82614913565b604082019050919050565b6000602082019050818103600083015261499e81614962565b9050919050565b7f4e487b7100000000000000000000000000000000000000000000000000000000600052601260045260246000fd5b60006149df8261303a565b91506149ea8361303a565b9250826149fa576149f96149a5565b5b828204905092915050565b6000614a108261303a565b9150614a1b8361303a565b925082614a2b57614a2a6149a5565b5b828206905092915050565b7f4e487b7100000000000000000000000000000000000000000000000000000000600052603260045260246000fd5b7f4552433732313a206d696e7420746f20746865207a65726f2061646472657373600082015250565b6000614a9b602083612f9b565b9150614aa682614a65565b602082019050919050565b60006020820190508181036000830152614aca81614a8e565b9050919050565b7f4552433732313a20746f6b656e20616c7265616479206d696e74656400000000600082015250565b6000614b07601c83612f9b565b9150614b1282614ad1565b602082019050919050565b60006020820190508181036000830152614b3681614afa565b9050919050565b6000608082019050614b5260008301876130cf565b614b5f60208301866130cf565b614b6c604083018561332d565b8181036060830152614b7e8184613587565b905095945050505050565b600081519050614b9881612f01565b92915050565b600060208284031215614bb457614bb3612c6c565b5b6000614bc284828501614b89565b9150509291505056fea264697066735822122096ce63c23e8241564f9fcf173874281cf93c3de6adca1693e44f78d7b6c4c6f664736f6c63430008090033",
  "linkReferences": {},
  "deployedLinkReferences": {}
}