{
  "_format": "hh-sol-artifact-1",
  "contractName": "Resolver",
  "sourceName": "contracts/ens-nft/Resolver.sol",
  "abi": [
    {
      "inputs": [
        {
          "internalType": "contract NodeController",
          "name": "_nodecontroller",
          "type": "address"
        }
      ],
      "stateMutability": "nonpayable",
      "type": "constructor"
    },
    {
      "anonymous": false,
      "inputs": [
        {
          "indexed": true,
          "internalType": "bytes32",
          "name": "node",
          "type": "bytes32"
        },
        {
          "indexed": false,
          "internalType": "bytes",
          "name": "hash",
          "type": "bytes"
        }
      ],
      "name": "ContenthashChanged",
      "type": "event"
    },
    {
      "anonymous": false,
      "inputs": [
        {
          "indexed": true,
          "internalType": "address",
          "name": "previousOwner",
          "type": "address"
        },
        {
          "indexed": true,
          "internalType": "address",
          "name": "newOwner",
          "type": "address"
        }
      ],
      "name": "OwnershipTransferred",
      "type": "event"
    },
    {
      "anonymous": false,
      "inputs": [
        {
          "indexed": true,
          "internalType": "bytes32",
          "name": "node",
          "type": "bytes32"
        },
        {
          "indexed": true,
          "internalType": "string",
          "name": "indexedKey",
          "type": "string"
        },
        {
          "indexed": false,
          "internalType": "string",
          "name": "key",
          "type": "string"
        },
        {
          "indexed": false,
          "internalType": "string",
          "name": "value",
          "type": "string"
        }
      ],
      "name": "TextChanged",
      "type": "event"
    },
    {
      "inputs": [
        {
          "internalType": "bytes32",
          "name": "node",
          "type": "bytes32"
        },
        {
          "internalType": "uint256",
          "name": "coinType",
          "type": "uint256"
        }
      ],
      "name": "_addr",
      "outputs": [
        {
          "internalType": "bytes",
          "name": "",
          "type": "bytes"
        }
      ],
      "stateMutability": "view",
      "type": "function"
    },
    {
      "inputs": [
        {
          "internalType": "bytes32",
          "name": "node",
          "type": "bytes32"
        },
        {
          "internalType": "uint256",
          "name": "coinType",
          "type": "uint256"
        },
        {
          "internalType": "bytes",
          "name": "a",
          "type": "bytes"
        }
      ],
      "name": "_setAddr",
      "outputs": [],
      "stateMutability": "nonpayable",
      "type": "function"
    },
    {
      "inputs": [
        {
          "internalType": "bytes32",
          "name": "node",
          "type": "bytes32"
        }
      ],
      "name": "addr",
      "outputs": [
        {
          "internalType": "address payable",
          "name": "",
          "type": "address"
        }
      ],
      "stateMutability": "view",
      "type": "function"
    },
    {
      "inputs": [
        {
          "internalType": "bytes32",
          "name": "node",
          "type": "bytes32"
        }
      ],
      "name": "contenthash",
      "outputs": [
        {
          "internalType": "bytes",
          "name": "",
          "type": "bytes"
        }
      ],
      "stateMutability": "view",
      "type": "function"
    },
    {
      "inputs": [],
      "name": "nodecontroller",
      "outputs": [
        {
          "internalType": "contract NodeController",
          "name": "",
          "type": "address"
        }
      ],
      "stateMutability": "view",
      "type": "function"
    },
    {
      "inputs": [],
      "name": "owner",
      "outputs": [
        {
          "internalType": "address",
          "name": "",
          "type": "address"
        }
      ],
      "stateMutability": "view",
      "type": "function"
    },
    {
      "inputs": [
        {
          "internalType": "bytes32",
          "name": "",
          "type": "bytes32"
        }
      ],
      "name": "recordVersions",
      "outputs": [
        {
          "internalType": "uint64",
          "name": "",
          "type": "uint64"
        }
      ],
      "stateMutability": "view",
      "type": "function"
    },
    {
      "inputs": [],
      "name": "renounceOwnership",
      "outputs": [],
      "stateMutability": "nonpayable",
      "type": "function"
    },
    {
      "inputs": [
        {
          "internalType": "bytes32",
          "name": "node",
          "type": "bytes32"
        },
        {
          "internalType": "address",
          "name": "a",
          "type": "address"
        }
      ],
      "name": "setAddr",
      "outputs": [],
      "stateMutability": "nonpayable",
      "type": "function"
    },
    {
      "inputs": [
        {
          "internalType": "bytes32",
          "name": "node",
          "type": "bytes32"
        },
        {
          "internalType": "bytes",
          "name": "hash",
          "type": "bytes"
        }
      ],
      "name": "setContenthash",
      "outputs": [],
      "stateMutability": "nonpayable",
      "type": "function"
    },
    {
      "inputs": [
        {
          "internalType": "bytes32",
          "name": "node",
          "type": "bytes32"
        },
        {
          "internalType": "string",
          "name": "newName",
          "type": "string"
        }
      ],
      "name": "setName",
      "outputs": [],
      "stateMutability": "nonpayable",
      "type": "function"
    },
    {
      "inputs": [
        {
          "internalType": "bytes32",
          "name": "node",
          "type": "bytes32"
        },
        {
          "internalType": "string",
          "name": "key",
          "type": "string"
        },
        {
          "internalType": "string",
          "name": "value",
          "type": "string"
        }
      ],
      "name": "setText",
      "outputs": [],
      "stateMutability": "nonpayable",
      "type": "function"
    },
    {
      "inputs": [
        {
          "internalType": "bytes32",
          "name": "node",
          "type": "bytes32"
        },
        {
          "internalType": "string",
          "name": "key",
          "type": "string"
        }
      ],
      "name": "text",
      "outputs": [
        {
          "internalType": "string",
          "name": "",
          "type": "string"
        }
      ],
      "stateMutability": "view",
      "type": "function"
    },
    {
      "inputs": [
        {
          "internalType": "address",
          "name": "newOwner",
          "type": "address"
        }
      ],
      "name": "transferOwnership",
      "outputs": [],
      "stateMutability": "nonpayable",
      "type": "function"
    }
  ],
  "bytecode": "0x60a06040523480156200001157600080fd5b50604051620023ce380380620023ce8339818101604052810190620000379190620001dc565b620000576200004b6200009260201b60201c565b6200009a60201b60201c565b8073ffffffffffffffffffffffffffffffffffffffff1660808173ffffffffffffffffffffffffffffffffffffffff1681525050506200020e565b600033905090565b60008060009054906101000a900473ffffffffffffffffffffffffffffffffffffffff169050816000806101000a81548173ffffffffffffffffffffffffffffffffffffffff021916908373ffffffffffffffffffffffffffffffffffffffff1602179055508173ffffffffffffffffffffffffffffffffffffffff168173ffffffffffffffffffffffffffffffffffffffff167f8be0079c531659141344cd1fd0a4f28419497f9722a3daafe3b4186f6b6457e060405160405180910390a35050565b600080fd5b600073ffffffffffffffffffffffffffffffffffffffff82169050919050565b6000620001908262000163565b9050919050565b6000620001a48262000183565b9050919050565b620001b68162000197565b8114620001c257600080fd5b50565b600081519050620001d681620001ab565b92915050565b600060208284031215620001f557620001f46200015e565b5b60006200020584828501620001c5565b91505092915050565b60805161215e62000270600039600081816102d2015281816103b20152818161060d015281816106ed015281816108550152818161093501528181610a9e01528181610c5e01528181610d3e01528181610f860152611066015261215e6000f3fe608060405234801561001057600080fd5b50600436106100ea5760003560e01c8063715018a61161008c578063bc1c58d111610066578063bc1c58d114610235578063d5fa2b0014610265578063d700ff3314610281578063f2fde38b146102b1576100ea565b8063715018a6146101f157806377372213146101fb5780638da5cb5b14610217576100ea565b8063330d591f116100c8578063330d591f146101575780633b3b57de146101735780634d6993eb146101a357806359d1d43c146101c1576100ea565b806310f13a8c146100ef5780632bf110311461010b578063304e6ade1461013b575b600080fd5b610109600480360381019061010491906116c5565b6102cd565b005b61012560048036038101906101209190611790565b610551565b6040516101329190611869565b60405180910390f35b610155600480360381019061015091906118e1565b610608565b005b610171600480360381019061016c9190611a71565b610850565b005b61018d60048036038101906101889190611ae0565b610a66565b60405161019a9190611b4e565b60405180910390f35b6101ab610a9c565b6040516101b89190611bc8565b60405180910390f35b6101db60048036038101906101d69190611be3565b610ac0565b6040516101e89190611c98565b60405180910390f35b6101f9610bd1565b005b61021560048036038101906102109190611be3565b610c59565b005b61021f610e67565b60405161022c9190611cdb565b60405180910390f35b61024f600480360381019061024a9190611ae0565b610e90565b60405161025c9190611869565b60405180910390f35b61027f600480360381019061027a9190611d22565b610f81565b005b61029b60048036038101906102969190611ae0565b611133565b6040516102a89190611d85565b60405180910390f35b6102cb60048036038101906102c69190611da0565b61115a565b005b8460007f000000000000000000000000000000000000000000000000000000000000000073ffffffffffffffffffffffffffffffffffffffff16638d2d22c0836040518263ffffffff1660e01b81526004016103299190611ddc565b60206040518083038186803b15801561034157600080fd5b505afa158015610355573d6000803e3d6000fd5b505050506040513d601f19601f820116820180604052508101906103799190611e0c565b90503373ffffffffffffffffffffffffffffffffffffffff168173ffffffffffffffffffffffffffffffffffffffff16148061045c57507f000000000000000000000000000000000000000000000000000000000000000073ffffffffffffffffffffffffffffffffffffffff1663e985e9c582336040518363ffffffff1660e01b815260040161040b929190611e39565b60206040518083038186803b15801561042357600080fd5b505afa158015610437573d6000803e3d6000fd5b505050506040513d601f19601f8201168201806040525081019061045b9190611e9a565b5b61046557600080fd5b838360046000600160008c815260200190815260200160002060009054906101000a900467ffffffffffffffff1667ffffffffffffffff1667ffffffffffffffff16815260200190815260200160002060008a815260200190815260200160002088886040516104d6929190611ef7565b908152602001604051809103902091906104f1929190611467565b508585604051610502929190611ef7565b6040518091039020877f448bc014f1536726cf8d54ff3d6481ed3cbc683c2591ca204274009afa09b1a1888888886040516105409493929190611f3d565b60405180910390a350505050505050565b6060600260008481526020019081526020016000206000838152602001908152602001600020805461058290611fa7565b80601f01602080910402602001604051908101604052809291908181526020018280546105ae90611fa7565b80156105fb5780601f106105d0576101008083540402835291602001916105fb565b820191906000526020600020905b8154815290600101906020018083116105de57829003601f168201915b5050505050905092915050565b8260007f000000000000000000000000000000000000000000000000000000000000000073ffffffffffffffffffffffffffffffffffffffff16638d2d22c0836040518263ffffffff1660e01b81526004016106649190611ddc565b60206040518083038186803b15801561067c57600080fd5b505afa158015610690573d6000803e3d6000fd5b505050506040513d601f19601f820116820180604052508101906106b49190611e0c565b90503373ffffffffffffffffffffffffffffffffffffffff168173ffffffffffffffffffffffffffffffffffffffff16148061079757507f000000000000000000000000000000000000000000000000000000000000000073ffffffffffffffffffffffffffffffffffffffff1663e985e9c582336040518363ffffffff1660e01b8152600401610746929190611e39565b60206040518083038186803b15801561075e57600080fd5b505afa158015610772573d6000803e3d6000fd5b505050506040513d601f19601f820116820180604052508101906107969190611e9a565b5b6107a057600080fd5b838360036000600160008a815260200190815260200160002060009054906101000a900467ffffffffffffffff1667ffffffffffffffff1667ffffffffffffffff1681526020019081526020016000206000888152602001908152602001600020919061080e9291906114ed565b50847fe379c1624ed7e714cc0937528a32359d69d5281337765313dba4e081b72d75788585604051610841929190612006565b60405180910390a25050505050565b8260007f000000000000000000000000000000000000000000000000000000000000000073ffffffffffffffffffffffffffffffffffffffff16638d2d22c0836040518263ffffffff1660e01b81526004016108ac9190611ddc565b60206040518083038186803b1580156108c457600080fd5b505afa1580156108d8573d6000803e3d6000fd5b505050506040513d601f19601f820116820180604052508101906108fc9190611e0c565b90503373ffffffffffffffffffffffffffffffffffffffff168173ffffffffffffffffffffffffffffffffffffffff1614806109df57507f000000000000000000000000000000000000000000000000000000000000000073ffffffffffffffffffffffffffffffffffffffff1663e985e9c582336040518363ffffffff1660e01b815260040161098e929190611e39565b60206040518083038186803b1580156109a657600080fd5b505afa1580156109ba573d6000803e3d6000fd5b505050506040513d601f19601f820116820180604052508101906109de9190611e9a565b5b6109e857600080fd5b826002600087815260200190815260200160002060008681526020019081526020016000209080519060200190610a20929190611573565b50610a5f6040518060400160405280600481526020017f6464646400000000000000000000000000000000000000000000000000000000815250611252565b5050505050565b600080610a7483603c610551565b9050600081511415610a8a576000915050610a97565b610a93816112eb565b9150505b919050565b7f000000000000000000000000000000000000000000000000000000000000000081565b6060600460006001600087815260200190815260200160002060009054906101000a900467ffffffffffffffff1667ffffffffffffffff1667ffffffffffffffff16815260200190815260200160002060008581526020019081526020016000208383604051610b31929190611ef7565b90815260200160405180910390208054610b4a90611fa7565b80601f0160208091040260200160405190810160405280929190818152602001828054610b7690611fa7565b8015610bc35780601f10610b9857610100808354040283529160200191610bc3565b820191906000526020600020905b815481529060010190602001808311610ba657829003601f168201915b505050505090509392505050565b610bd961130e565b73ffffffffffffffffffffffffffffffffffffffff16610bf7610e67565b73ffffffffffffffffffffffffffffffffffffffff1614610c4d576040517f08c379a0000000000000000000000000000000000000000000000000000000008152600401610c4490612076565b60405180910390fd5b610c576000611316565b565b8260007f000000000000000000000000000000000000000000000000000000000000000073ffffffffffffffffffffffffffffffffffffffff16638d2d22c0836040518263ffffffff1660e01b8152600401610cb59190611ddc565b60206040518083038186803b158015610ccd57600080fd5b505afa158015610ce1573d6000803e3d6000fd5b505050506040513d601f19601f82011682018060405250810190610d059190611e0c565b90503373ffffffffffffffffffffffffffffffffffffffff168173ffffffffffffffffffffffffffffffffffffffff161480610de857507f000000000000000000000000000000000000000000000000000000000000000073ffffffffffffffffffffffffffffffffffffffff1663e985e9c582336040518363ffffffff1660e01b8152600401610d97929190611e39565b60206040518083038186803b158015610daf57600080fd5b505afa158015610dc3573d6000803e3d6000fd5b505050506040513d601f19601f82011682018060405250810190610de79190611e9a565b5b610df157600080fd5b838360056000600160008a815260200190815260200160002060009054906101000a900467ffffffffffffffff1667ffffffffffffffff1667ffffffffffffffff16815260200190815260200160002060008881526020019081526020016000209190610e5f929190611467565b505050505050565b60008060009054906101000a900473ffffffffffffffffffffffffffffffffffffffff16905090565b6060600360006001600085815260200190815260200160002060009054906101000a900467ffffffffffffffff1667ffffffffffffffff1667ffffffffffffffff16815260200190815260200160002060008381526020019081526020016000208054610efc90611fa7565b80601f0160208091040260200160405190810160405280929190818152602001828054610f2890611fa7565b8015610f755780601f10610f4a57610100808354040283529160200191610f75565b820191906000526020600020905b815481529060010190602001808311610f5857829003601f168201915b50505050509050919050565b8160007f000000000000000000000000000000000000000000000000000000000000000073ffffffffffffffffffffffffffffffffffffffff16638d2d22c0836040518263ffffffff1660e01b8152600401610fdd9190611ddc565b60206040518083038186803b158015610ff557600080fd5b505afa158015611009573d6000803e3d6000fd5b505050506040513d601f19601f8201168201806040525081019061102d9190611e0c565b90503373ffffffffffffffffffffffffffffffffffffffff168173ffffffffffffffffffffffffffffffffffffffff16148061111057507f000000000000000000000000000000000000000000000000000000000000000073ffffffffffffffffffffffffffffffffffffffff1663e985e9c582336040518363ffffffff1660e01b81526004016110bf929190611e39565b60206040518083038186803b1580156110d757600080fd5b505afa1580156110eb573d6000803e3d6000fd5b505050506040513d601f19601f8201168201806040525081019061110f9190611e9a565b5b61111957600080fd5b61112d84603c611128866113da565b610850565b50505050565b60016020528060005260406000206000915054906101000a900467ffffffffffffffff1681565b61116261130e565b73ffffffffffffffffffffffffffffffffffffffff16611180610e67565b73ffffffffffffffffffffffffffffffffffffffff16146111d6576040517f08c379a00000000000000000000000000000000000000000000000000000000081526004016111cd90612076565b60405180910390fd5b600073ffffffffffffffffffffffffffffffffffffffff168173ffffffffffffffffffffffffffffffffffffffff161415611246576040517f08c379a000000000000000000000000000000000000000000000000000000000815260040161123d90612108565b60405180910390fd5b61124f81611316565b50565b6112e8816040516024016112669190611c98565b6040516020818303038152906040527f41304fac000000000000000000000000000000000000000000000000000000007bffffffffffffffffffffffffffffffffffffffffffffffffffffffff19166020820180517bffffffffffffffffffffffffffffffffffffffffffffffffffffffff838183161783525050505061143e565b50565b600060148251146112fb57600080fd5b600c6101000a6020830151049050919050565b600033905090565b60008060009054906101000a900473ffffffffffffffffffffffffffffffffffffffff169050816000806101000a81548173ffffffffffffffffffffffffffffffffffffffff021916908373ffffffffffffffffffffffffffffffffffffffff1602179055508173ffffffffffffffffffffffffffffffffffffffff168173ffffffffffffffffffffffffffffffffffffffff167f8be0079c531659141344cd1fd0a4f28419497f9722a3daafe3b4186f6b6457e060405160405180910390a35050565b6060601467ffffffffffffffff8111156113f7576113f6611946565b5b6040519080825280601f01601f1916602001820160405280156114295781602001600182028036833780820191505090505b509050600c6101000a82026020820152919050565b60008151905060006a636f6e736f6c652e6c6f679050602083016000808483855afa5050505050565b82805461147390611fa7565b90600052602060002090601f01602090048101928261149557600085556114dc565b82601f106114ae57803560ff19168380011785556114dc565b828001600101855582156114dc579182015b828111156114db5782358255916020019190600101906114c0565b5b5090506114e991906115f9565b5090565b8280546114f990611fa7565b90600052602060002090601f01602090048101928261151b5760008555611562565b82601f1061153457803560ff1916838001178555611562565b82800160010185558215611562579182015b82811115611561578235825591602001919060010190611546565b5b50905061156f91906115f9565b5090565b82805461157f90611fa7565b90600052602060002090601f0160209004810192826115a157600085556115e8565b82601f106115ba57805160ff19168380011785556115e8565b828001600101855582156115e8579182015b828111156115e75782518255916020019190600101906115cc565b5b5090506115f591906115f9565b5090565b5b808211156116125760008160009055506001016115fa565b5090565b6000604051905090565b600080fd5b600080fd5b6000819050919050565b61163d8161162a565b811461164857600080fd5b50565b60008135905061165a81611634565b92915050565b600080fd5b600080fd5b600080fd5b60008083601f84011261168557611684611660565b5b8235905067ffffffffffffffff8111156116a2576116a1611665565b5b6020830191508360018202830111156116be576116bd61166a565b5b9250929050565b6000806000806000606086880312156116e1576116e0611620565b5b60006116ef8882890161164b565b955050602086013567ffffffffffffffff8111156117105761170f611625565b5b61171c8882890161166f565b9450945050604086013567ffffffffffffffff81111561173f5761173e611625565b5b61174b8882890161166f565b92509250509295509295909350565b6000819050919050565b61176d8161175a565b811461177857600080fd5b50565b60008135905061178a81611764565b92915050565b600080604083850312156117a7576117a6611620565b5b60006117b58582860161164b565b92505060206117c68582860161177b565b9150509250929050565b600081519050919050565b600082825260208201905092915050565b60005b8381101561180a5780820151818401526020810190506117ef565b83811115611819576000848401525b50505050565b6000601f19601f8301169050919050565b600061183b826117d0565b61184581856117db565b93506118558185602086016117ec565b61185e8161181f565b840191505092915050565b600060208201905081810360008301526118838184611830565b905092915050565b60008083601f8401126118a1576118a0611660565b5b8235905067ffffffffffffffff8111156118be576118bd611665565b5b6020830191508360018202830111156118da576118d961166a565b5b9250929050565b6000806000604084860312156118fa576118f9611620565b5b60006119088682870161164b565b935050602084013567ffffffffffffffff81111561192957611928611625565b5b6119358682870161188b565b92509250509250925092565b600080fd5b7f4e487b7100000000000000000000000000000000000000000000000000000000600052604160045260246000fd5b61197e8261181f565b810181811067ffffffffffffffff8211171561199d5761199c611946565b5b80604052505050565b60006119b0611616565b90506119bc8282611975565b919050565b600067ffffffffffffffff8211156119dc576119db611946565b5b6119e58261181f565b9050602081019050919050565b82818337600083830152505050565b6000611a14611a0f846119c1565b6119a6565b905082815260208101848484011115611a3057611a2f611941565b5b611a3b8482856119f2565b509392505050565b600082601f830112611a5857611a57611660565b5b8135611a68848260208601611a01565b91505092915050565b600080600060608486031215611a8a57611a89611620565b5b6000611a988682870161164b565b9350506020611aa98682870161177b565b925050604084013567ffffffffffffffff811115611aca57611ac9611625565b5b611ad686828701611a43565b9150509250925092565b600060208284031215611af657611af5611620565b5b6000611b048482850161164b565b91505092915050565b600073ffffffffffffffffffffffffffffffffffffffff82169050919050565b6000611b3882611b0d565b9050919050565b611b4881611b2d565b82525050565b6000602082019050611b636000830184611b3f565b92915050565b6000819050919050565b6000611b8e611b89611b8484611b0d565b611b69565b611b0d565b9050919050565b6000611ba082611b73565b9050919050565b6000611bb282611b95565b9050919050565b611bc281611ba7565b82525050565b6000602082019050611bdd6000830184611bb9565b92915050565b600080600060408486031215611bfc57611bfb611620565b5b6000611c0a8682870161164b565b935050602084013567ffffffffffffffff811115611c2b57611c2a611625565b5b611c378682870161166f565b92509250509250925092565b600081519050919050565b600082825260208201905092915050565b6000611c6a82611c43565b611c748185611c4e565b9350611c848185602086016117ec565b611c8d8161181f565b840191505092915050565b60006020820190508181036000830152611cb28184611c5f565b905092915050565b6000611cc582611b0d565b9050919050565b611cd581611cba565b82525050565b6000602082019050611cf06000830184611ccc565b92915050565b611cff81611cba565b8114611d0a57600080fd5b50565b600081359050611d1c81611cf6565b92915050565b60008060408385031215611d3957611d38611620565b5b6000611d478582860161164b565b9250506020611d5885828601611d0d565b9150509250929050565b600067ffffffffffffffff82169050919050565b611d7f81611d62565b82525050565b6000602082019050611d9a6000830184611d76565b92915050565b600060208284031215611db657611db5611620565b5b6000611dc484828501611d0d565b91505092915050565b611dd68161162a565b82525050565b6000602082019050611df16000830184611dcd565b92915050565b600081519050611e0681611cf6565b92915050565b600060208284031215611e2257611e21611620565b5b6000611e3084828501611df7565b91505092915050565b6000604082019050611e4e6000830185611ccc565b611e5b6020830184611ccc565b9392505050565b60008115159050919050565b611e7781611e62565b8114611e8257600080fd5b50565b600081519050611e9481611e6e565b92915050565b600060208284031215611eb057611eaf611620565b5b6000611ebe84828501611e85565b91505092915050565b600081905092915050565b6000611ede8385611ec7565b9350611eeb8385846119f2565b82840190509392505050565b6000611f04828486611ed2565b91508190509392505050565b6000611f1c8385611c4e565b9350611f298385846119f2565b611f328361181f565b840190509392505050565b60006040820190508181036000830152611f58818688611f10565b90508181036020830152611f6d818486611f10565b905095945050505050565b7f4e487b7100000000000000000000000000000000000000000000000000000000600052602260045260246000fd5b60006002820490506001821680611fbf57607f821691505b60208210811415611fd357611fd2611f78565b5b50919050565b6000611fe583856117db565b9350611ff28385846119f2565b611ffb8361181f565b840190509392505050565b60006020820190508181036000830152612021818486611fd9565b90509392505050565b7f4f776e61626c653a2063616c6c6572206973206e6f7420746865206f776e6572600082015250565b6000612060602083611c4e565b915061206b8261202a565b602082019050919050565b6000602082019050818103600083015261208f81612053565b9050919050565b7f4f776e61626c653a206e6577206f776e657220697320746865207a65726f206160008201527f6464726573730000000000000000000000000000000000000000000000000000602082015250565b60006120f2602683611c4e565b91506120fd82612096565b604082019050919050565b60006020820190508181036000830152612121816120e5565b905091905056fea2646970667358221220020bef4af3eed9c2a13a9da2a0702a121f771eed1aec8e14d79465e737bbee2564736f6c63430008090033",
  "linkReferences": {},
  "deployedLinkReferences": {}
}